:020000040000FA
:10000000F6EF28F0C69A120083EF23F0ABEC08F06D
:100010001AEC16F0FDD71200BBEF26F0D9CFE5FFA2
:10002000E1CFD9FF00C0E5FF01C0E5FF02C0E5FF59
:1000300003C0E5FF04C0E5FF05C0E5FF06C0E5FF1E
:1000400007C0E5FF08C0E5FF09C0E5FF0AC0E5FFFE
:100050000BC0E5FF0CC0E5FF0DC0E5FF0EC0E5FFDE
:100060000FC0E5FF10C0E5FF11C0E5FF12C0E5FFBE
:1000700013C0E5FF14C0E5FF15C0E5FF16C0E5FF9E
:1000800017C0E5FF18C0E5FF19C0E5FF1AC0E5FF7E
:100090001BC0E5FF1CC0E5FF1DC0E5FF1EC0E5FF5E
:1000A000020EDBCF00F0030EDBCF01F0040EDBCF3E
:1000B00002F0050EDBCF03F0060EDBCF04F0070ED7
:1000C000DBCF05F0080EDBCF06F0090EDBCF07F023
:1000D0000A0EDBCF08F0096A0A6A02C00DF00D5063
:1000E000800A0DE102500301916F0150906F0050A2
:1000F0008F6F030E016E8F0E006E800E026E03C0B6
:10010000E9FF04C0F3FF055040EC29F00B6E0B50E3
:10011000D8B4C4EF03F00B50250A02E0ABEF03F0B4
:100120000C6A0D6A0E6A0F6A106A0A0E116E126A64
:10013000136A146A200E156E1668176A2B0E186E55
:10014000032A02E3044A052A03C0E9FF04C0F3FFBF
:10015000055040EC29F0196E250A13E11950E56E9F
:100160000250E56E0150E56E0050E56E8EEC15F024
:10017000040EE126094A0A2A032A02E3044A052A50
:10018000BED71950300A06E1300E156E032A02E37D
:10019000044A052A03C0E9FF04C0F3FF055040EC00
:1001A00029F02D0A06E1010E146E032A02E3044A27
:1001B000052A03C0E9FF04C0F3FF055040EC29F015
:1001C000200A08E1010E176E200E186E032A02E3C2
:1001D000044A052A03C0E9FF04C0F3FF055040ECC0
:1001E00029F02B0A06E1010E176E032A02E3044AE6
:1001F000052A03C0E9FF04C0F3FF055040EC29F0D5
:10020000196E310E195C2BE33A0E195C28E203C01B
:1002100019F004C01AF005C01BF019C0E9FF1AC09C
:10022000F3FF1B5040EC29F01C6E300E1C5C11E3F8
:100230003A0E1C5C0EE213500A0DF3CF1DF01C5059
:100240001D26D00E1D24136E192A02E31A4A1B2AFA
:10025000E4D719C003F01AC004F01BC005F003C0B6
:10026000E9FF04C0F3FF055040EC29F02E0A2DE110
:10027000032A02E3044A052A166A03C019F004C0DF
:100280001AF005C01BF019C0E9FF1AC0F3FF1B509C
:1002900040EC29F01C6E300E1C5C11E33A0E1C5C25
:1002A0000EE216500A0DF3CF1DF01C501D26D00E85
:1002B0001D24166E192A02E31A4A1B2AE4D719C014
:1002C00003F01AC004F01BC005F003C0E9FF04C02E
:1002D000F3FF055040EC29F0196E6C0A07E1010E9E
:1002E0000C6E032A02E3044A052A09D01950680A51
:1002F00006E1010E0E6E032A02E3044A052A03C03A
:10030000E9FF04C0F3FF055040EC29F0750A06E14F
:10031000010E106E032A02E3044A052A03C0E9FF16
:1003200004C0F3FF055040EC29F0196E730A05E193
:10033000010E0D6E200E156E3FD01950780A03E1A4
:10034000100E116E39D01950580A05E1100E116EB9
:10035000010E126E31D01950630A02E1116A2CD0DD
:1003600019506F0A03E1080E116E26D01950660A63
:1003700003E1010E0F6E20D01950640A1DE01950E0
:10038000690A1AE0105005E0FF0E03260422052238
:1003900013D01950E56E0250E56E0150E56E005025
:1003A000E56E8EEC15F0040EE126094A0A2A032AAE
:1003B00002E3044A052AA3D60D5021E00650030F9C
:1003C0000D6E000E0720196E000E08201A6E0DC06B
:1003D00006F019C007F01AC008F0FD0E0D26FF0E3A
:1003E00019221A220DC0E9FF19C0F3FF1A50C6ECFA
:1003F00027F00D6EF3CF19F0F4CF1AF0FDD00F50A7
:100400000DE0000E1A6E080E196E100E0D6E040E21
:100410000626000E072208221668EED016680C5039
:1004200023E00650040F0C6E000E07200F6E000E26
:1004300008201B6E0CC006F00FC007F01BC008F0B0
:10044000FC0E0C26FF0E0F221B220CC0E9FF0FC072
:10045000F3FF1B504CEC27F00C6EF3CF0FF0F4CFF2
:100460001BF0E9CF1CF067D00E502FE00650020FB2
:100470000E6E000E07201D6E000E08201E6E0EC0B0
:1004800006F01DC007F01EC008F0FE0E0E26FF0E7F
:100490001D221E220EC0E9FF1DC0F3FF1E50CAEC34
:1004A00028F00E6E0EC00CF00F6A1B6A1C6A115009
:1004B0000A0A03E11050D8B43ED00C500E6E0EC0A4
:1004C0000CF00F6A1B6A1C6A36D00650020F0E6EC3
:1004D000000E07201D6E000E08201E6E0EC006F0D6
:1004E0001DC007F01EC008F0FE0E0E26FF0E1D22D6
:1004F0001E220EC0E9FF1DC0F3FF1E50CAEC28F0FB
:100500000E6EF3CF1DF00EC00CF01DC00FF0E86AA8
:100510001DBEFF0E1B6E1C6E11500A0A02E1105028
:100520000AE00C500E6E0F501D6E0EC00CF01DC078
:100530000FF01B6A1C6A040E196EF40E0D6E800E0D
:100540001A6E1150D8B440D0105013E01150E56E1F
:10055000040EE56EF40EE56E1C50E56E1B50E56E64
:100560000F50E56E0C50E56ED8EC0DF0070EE1264D
:1005700012D01150E56E040EE56EF40EE56E1C50BF
:10058000E56E1B50E56E0F50E56E0C50E56EF8EC15
:100590001BF0070EE12617502FE00DC0E9FF19C030
:1005A000F3FF1A5040EC29F02D0A26E0FF0E0D262D
:1005B00019221A2218C0E5FF0DC0E9FF19C0F3FF88
:1005C0001A50B8EC29F018D00CC0E5FF0DC0E9FFB7
:1005D00019C0F3FF1A50B8EC29F00D50010F0C6E42
:1005E000000E19200E6E000E1A20E56A0CC0E9FFFD
:1005F0000EC0F3FFB8EC29F00DC00CF019C00EF0DE
:100600001AC00FF013C010F0105010E00CC0E9FF3A
:100610000EC0F3FF0F5040EC29F0176E175006E0A4
:100620000C2A02E30E4A0F2A1006EED710C013F070
:1006300014501EE109C00CF00AC00EF010C00FF0FB
:100640000F5010E01550E56E0250E56E0150E56E5A
:100650000050E56E8EEC15F0040EE1260C4A0E2AD1
:100660000F06EED70CC009F00EC00AF00FC013F051
:1006700016C00CF00DC00DF019C00EF01AC00FF02E
:1006800009C010F00AC015F00DC0E9FF0EC0F3FF5D
:100690000F5040EC29F0166E1650D8B43ED00CC066
:1006A00016F0176A161E171E1650171005E00CC01C
:1006B00016F00C06165031E00DC0E9FF0EC0F3FF36
:1006C0000F5040EC29F0116E125010E01150E56E01
:1006D00071EC28F0166EE652165004E0DF0E11148D
:1006E000166E02D011C016F016C011F01150E56E52
:1006F0000250E56E0150E56E0050E56E8EEC15F08F
:10070000040EE1260D2A02E30E4A0F2A104A152A8A
:100710001350D8B4B9D71306B7D710C009F015C015
:100720000AF014502BE010C00CF015C00DF013C0EF
:100730000EF00E501FE0200EE56E0250E56E0150E7
:10074000E56E0050E56E8EEC15F0040EE1260C4AC5
:100750000D2A0E06EED70B50E56E0250E56E0150E5
:10076000E56E0050E56E8EEC15F0040EE126094AA8
:100770000A2A04D00CC009F00DC00AF0032A02E3D3
:10078000044A052A7FEF00F00AC0F3FF0950E4CFC6
:100790001EF0E4CF1DF0E4CF1CF0E4CF1BF0E4CF5B
:1007A0001AF0E4CF19F0E4CF18F0E4CF17F0E4CF5B
:1007B00016F0E4CF15F0E4CF14F0E4CF13F0E4CF5B
:1007C00012F0E4CF11F0E4CF10F0E4CF0FF0E4CF5B
:1007D0000EF0E4CF0DF0E4CF0CF0E4CF0BF0E4CF5B
:1007E0000AF0E4CF09F0E4CF08F0E4CF07F0E4CF5B
:1007F00006F0E4CF05F0E4CF04F0E4CF03F0E4CF5B
:1008000002F0E4CF01F0E4CF00F0E4CFD9FF120012
:100810003C4E4F20464C4F41543E000000C0E5FF87
:1008200001C0E5FF02C0E5FF03C0E5FF04C0E5FF2E
:1008300005C0E5FF06C0E5FF07C0E5FF08C0E5FF0E
:1008400009C0E5FF0AC0E5FFC2A204D004011C51A3
:1008500049EF06F004011D51D8B431D104011C51F7
:10086000020DF450016EF3CF00F0E00E0026000EF2
:10087000012200C0E9FF01C0EAFFEECF00F0EFCF98
:1008800001F0400E1C25026E036A030E032202C013
:10089000E9FF03C0EAFFEFCF02F00250FF0A01E1D7
:1008A00066D002380F0B036E920E0324046E056AA5
:1008B0000F0E0522066A920E03260F0E062203C0B3
:1008C000E9FF06C0EAFFEFCF03F00250066E070E05
:1008D0000616010E076E06500DE006E6E86CD8908D
:1008E0000736010FFDE306D0D89007BED880073247
:1008F000010FFBE3071C066E0350061604C0E9FF58
:1009000005C0EAFF06C0EFFF02380F0B036E890E29
:100910000324046E056A0F0E0522066A890E03265B
:100920000F0E062203C0E9FF06C0EAFFEFCF03F077
:100930000250066E070E0616010E076E06500DE0F9
:1009400006E6E86CD8900736010FFDE306D0D89094
:1009500007BED8800732010FFBE3071C066E035069
:10096000061604C0E9FF05C0EAFF06C0EFFF040158
:100970001C51020DF450046EF3CF03F0E00E032679
:10098000000E042200380F0B056E0138066EF00BC6
:10099000061A052606320532F80E06B4062605505C
:1009A000005C056E06500158066EC3CF07F0086A5A
:1009B0000750052608500622C4CF07F0086A0750E2
:1009C0000A6E096A095005260A50062203C0E9FF8B
:1009D00004C0EAFF05C0EEFF06C0EFFF0401185196
:1009E000010A01E06AD004011C51020DF450046EAA
:1009F000F3CF03F0E00E0324056E000E0420066E14
:100A000005C0E9FF06C0EAFFEECF00F0EFCF01F02E
:100A1000B30E0326040E042203C0E9FF04C0EAFF5C
:100A2000EECF05F0EFCF06F09C0E0526D8A0060607
:100A30000150800FF36E0650800FF35C02E1055009
:100A4000005C0EE20050640F056E000E0120066E81
:100A500003C0E9FF04C0EAFF05C0EEFF06C0EFFFD8
:100A600004011C51020DF450046EF3CF03F0D30EB9
:100A70000326040E042203C0E9FF04C0EAFFEECF00
:100A800005F0EFCF06F0640E0526D8B0062A065012
:100A9000800FF36E0150800FF35C02E10050055CA3
:100AA0000CE29C0E0026D8A0010603C0E9FF04C09A
:100AB000EAFF00C0EEFF01C0EFFF04011D6B04015F
:100AC0001C2B100E1C5D01E31C6B04011C39E84457
:100AD0001F0B006E016A960E0026030E012200C055
:100AE000E9FF01C0EAFFEFCF00F01CC401F0070EE0
:100AF0000116010E036E000E046E015006E0E86C54
:100B0000D89003360436010FFCE3056A0050031643
:100B10000550041603500410D880E866D890036A84
:100B200003360350D8A4B3D0500E04011C25006E28
:100B3000016A030E012200C0E9FF01C0EAFFEFCF06
:100B400000F00044E844FC0B016E0128C26E400E28
:100B50001C25006E016A030E012200C0E9FF01C0DE
:100B6000EAFFEFCF02F00250FF0A01E18CD0023819
:100B70000F0B006E920E0024016E036A0F0E03220B
:100B8000046A920E00260F0E042200C0E9FF04C082
:100B9000EAFFEFCF00F00250046E070E0416010EBC
:100BA000056E04500DE006E6E86CD8900536010F9E
:100BB000FDE306D0D89005BED8800532010FFBE3D7
:100BC0000050051201C0E9FF03C0EAFF05C0EFFFB6
:100BD000380E006E0F0E016E02380F0B036E046AA2
:100BE0000350002604500122380E056E0F0E066ECB
:100BF000055003260650042203C0E9FF04C0EAFFA3
:100C0000EFCF03F0070E0216010E046E02500DE046
:100C100006E6E86CD8900436010FFDE306D0D890C4
:100C200004BED8800432010FFBE30350041200C05D
:100C3000E9FF01C0EAFF04C0EFFF0F014583000098
:100C4000000045930F0144930BC0E5FFF2CF0BF07A
:100C5000F29E44810000000000000000000000003F
:100C60000000000000000000000000000000000084
:100C700000000000000000000000000044910BBED6
:100C8000F28EE4CF0BF0C282010E04011D6F04014D
:100C90001C51E4CF0AF0E4CF09F0E4CF08F0E4CF30
:100CA00007F0E4CF06F0E4CF05F0E4CF04F0E4CFA2
:100CB00003F0E4CF02F0E4CF01F0E4CF00F0120043
:100CC00000C0E5FF01C0E5FF02C0E5FF03C0E5FF8E
:100CD00004C0E5FF05C0E5FF06C0E5FF07C0E5FF6E
:100CE00008C0E5FF09C0E5FF0AC0E5FF0BC0E5FF4E
:100CF0000CC0E5FF006A016A026A040E025CD8B00B
:100D0000ECD101C003F0012A100E035CD8B0E5D18C
:100D100004011E2B100E1E5D01E31E6B04011E3923
:100D2000E8441F0B036E046A960E0326030E04228A
:100D300003C0E9FF04C0EAFFEFCF03F01EC404F0D4
:100D4000070E0416010E056E000E066E045006E036
:100D5000E86CD89005360636010FFCE3076A0350AD
:100D600005160750061605500610D880E866D8907C
:100D7000056A05360550D8A4C0D704011E51020DDE
:100D8000F450046EF3CF03F0E00E0324056E000E62
:100D90000420066E05C0E9FF06C0EAFFEECF05F0AD
:100DA000EFCF06F01BC407F007A09DD0B30E0324BD
:100DB000076E040E0420086E07C0E9FF08C0EAFFB2
:100DC000EECF07F0EFCF08F00650800FF36E08501B
:100DD000800FF35C02E10750055C03E2056A066AD6
:100DE00060D0D30E0326040E042203C0E9FF04C022
:100DF000EAFFEECF03F0EFCF04F00450800FF36E64
:100E00000650800FF35C02E10550035C04E20568C4
:100E10003F0E066E46D00750055C096E0850065816
:100E20000A6EE86A0ABEFF0E0B6EE56E0B50E56EA9
:100E30000A50E56E0950E56EE56AE56A400EE56E1A
:100E4000000EE56ACEEC0CF0096EF3CF0AF0F4CF99
:100E50000BF0E9CF0CF0080EE1260750035C076E9B
:100E600008500458086EE86A08BEFF0E036EE56E6F
:100E70000350E56E0850E56E0750E56E0C50E56EC8
:100E80000B50E56E0A50E56E0950E56EE4EC13F088
:100E9000036EF3CF04F0080EE1260350056E0450F4
:100EA000066E04011A51800FF36E0650800FF35C3A
:100EB00002E10550195D03E3056A066A14D00401D6
:100EC0001951FF08036E3F0E1A55046E0650800F2D
:100ED000F36E0450800FF35C02E10350055C03E302
:100EE00005683F0E066E04011E51020DF450046E9B
:100EF000F3CF03F0930E0326040E042203C0E9FF90
:100F000004C0EAFFEECF03F0EFCF04F00350055C1E
:100F1000036E04500658046ED88004AED89004E3E3
:100F2000041E036CD8B4042A022A04011A51800F4B
:100F3000F36E0450800FF35C02E10350195DD8B0EA
:100F4000DCD604011E51020DF450086EF3CF07F0F9
:100F5000930E0726040E082207C0E9FF08C0EAFF27
:100F600005C0EEFF06C0EFFF1BC407F007A459D071
:100F70001E51020DF450086EF3CF07F0000E072447
:100F8000096E030E08200A6E09C0E9FF0AC0EAFFD5
:100F9000EECF0BF0EFCF0CF00B500C10D8B441D0CB
:100FA0005C0E0726040E082207C0E9FF08C0EAFF0E
:100FB000EECF07F0EFCF08F00750055C036E085046
:100FC0000658046E03101CE00450800F800F02E1ED
:100FD000010E035C076A07360C50800F800F02E198
:100FE000010E0B5C0B6A0B3607500B1809E109C0A8
:100FF000E9FF0AC0EAFF03C0EEFF04C0EFFF7DD6A1
:1010000004011E51020DF450046EF3CF03F0000EE4
:101010000326030E042203C0E9FF04C0EAFFEE6AC0
:10102000EF6A1BC403F003A244D000500EE100C0DD
:1010300003F0002A046A1F0E0326040E042203C0D4
:10104000E9FF04C0EAFF420EEF6E00C003F0002A81
:10105000046A1F0E0326040E042204011E51076EAB
:10106000640E072603C0E9FF04C0EAFF07C0EFFFD4
:1010700000C003F0002A046A1F0E0326040E042297
:101080000650076E03C0E9FF04C0EAFF07C0EFFF88
:1010900000C003F0002A046A1F0E0326040E042277
:1010A0000550076E03C0E9FF04C0EAFF07C0EFFF69
:1010B00024D61EC403F00650E56E0550E56EE56AC1
:1010C0000350E56E000EE56E2F0EE56E3E0EE56EEA
:1010D0009EEC21F0070EE12610D602C001F0005070
:1010E0001EE01BC402F002A21AD000C002F0002AC7
:1010F000036A1F0E0226040E032202C0E9FF03C08A
:10110000EAFF0A0EEF6E0050E56E800EE56E040EEB
:10111000E56E1F0EE56E9FEC16F0040EE126015001
:10112000E4CF0CF0E4CF0BF0E4CF0AF0E4CF09F009
:10113000E4CF08F0E4CF07F0E4CF06F0E4CF05F009
:10114000E4CF04F0E4CF03F0E4CF02F0E4CF01F009
:10115000E4CF00F0120000C0E5FF01C0E5FF02C0CF
:10116000E5FF03C0E5FF05C0E5FF08EC2AF0949217
:101170008B9205EC25F0F3CF01F0F4CF02F0E9CF2C
:1011800003F0880F04017C6F130E01207D6F000EA9
:1011900002207E6F000E03207F6F9382810E006E0F
:1011A0000F0E016E0F0E036E380E00260350012243
:1011B0000F0E036E800E005E0350015A810E026E08
:1011C0000F0E036E0F0E056E380E02260550032219
:1011D0000F0E056E800E025E0550035A02C0E9FF35
:1011E00003C0EAFFEFCF02F0029200C0E9FF01C0A6
:1011F000EAFF02C0EFFF9388810E006E0F0E016EB2
:101200000F0E036E380E0026035001220F0E036EE0
:10121000800E005E0350015A810E026E0F0E036EA7
:101220000F0E056E380E0226055003220F0E056EB6
:10123000800E025E0550035A02C0E9FF03C0EAFFB8
:10124000EFCF02F0029800C0E9FF01C0EAFF02C040
:10125000EFFF938A810E006E0F0E016E0F0E036E6C
:10126000380E0026035001220F0E036E800E005E22
:101270000350015A810E026E0F0E036E0F0E056EA3
:10128000380E0226055003220F0E056E800E025EF8
:101290000550035A02C0E9FF03C0EAFFEFCF02F096
:1012A000029A00C0E9FF01C0EAFF02C0EFFF938489
:1012B000810E006E0F0E016E0F0E036E380E0026AB
:1012C000035001220F0E036E800E005E0350015A80
:1012D000810E026E0F0E036E0F0E056E380E022683
:1012E000055003220F0E056E800E025E0550035A54
:1012F00002C0E9FF03C0EAFFEFCF02F0029400C092
:10130000E9FF01C0EAFF02C0EFFF9386810E006E85
:101310000F0E016E0F0E036E380E002603500122D1
:101320000F0E036E800E005E0350015A810E026E96
:101330000F0E036E0F0E056E380E022605500322A7
:101340000F0E056E800E025E0550035A02C0E9FFC3
:1013500003C0EAFFEFCF02F0029600C0E9FF01C030
:10136000EAFF02C0EFFF22EC17F09280800E006EC1
:101370000F0E016E0F0E036E380E00260350012271
:10138000800E026E0F0E036E800E005E0350015A37
:101390000F0E056E380E0226055003220F0E056E45
:1013A000800E025E0550035A02C0E9FF03C0EAFF47
:1013B000EFCF02F0028000C0E9FF01C0EAFF02C0E7
:1013C000EFFF000EE56AE56A51EC1AF0E652E652CC
:1013D000270EE56EE56A080EE56EBCEC12F0030E12
:1013E000E126700EE56E800EE56E0F0EE56E230EA3
:1013F000E56EBCEC1EF0040EE126060EE56E800ED6
:10140000E56E0F0EE56E230EE56E1DEC22F0040E68
:10141000E126400EE56EE56A800EE56E0F0EE56E84
:10142000230EE56ED7EC20F0050EE126400EE56EAA
:10143000010EE56E800EE56E0F0EE56E230EE56E75
:10144000D7EC20F0050EE126E56A020EE56E800E6F
:10145000E56E0F0EE56E230EE56ED7EC20F0050E5F
:10146000E126400EE56E030EE56E800EE56E0F0E72
:10147000E56E230EE56ED7EC20F0050EE126400E5A
:10148000E56E040EE56E800EE56E0F0EE56E230E22
:10149000E56ED7EC20F0050EE126800EE56E0F0E0E
:1014A000E56E230EE56E08EC19F0030EE126E4CF9D
:1014B00005F0E4CF03F0E4CF02F0E4CF01F0E4CF95
:1014C00000F0120043732025642025642025640A5F
:1014D0000000430025630000800EE56E040EE56EFB
:1014E000D30EE56E5DEC1FF0030EE126800EE56E77
:1014F000040EE56EB30EE56E5DEC1FF0030EE12603
:10150000800EE56E040EE56ED50EE56E5DEC1FF007
:10151000030EE126800EE56E040EE56EB50EE56E57
:101520005DEC1FF0030EE126800EE56E040EE56E05
:10153000D70EE56E5DEC1FF0030EE126800EE56E22
:10154000040EE56EB70EE56E5DEC1FF0030EE126AE
:10155000800EE56E040EE56ED90EE56E5DEC1FF0B3
:10156000030EE126800EE56E040EE56EB90EE56E03
:101570005DEC1FF0030EE126800EE56E040EE56EB5
:10158000DB0EE56E5DEC1FF0030EE126800EE56ECE
:10159000040EE56EBB0EE56E5DEC1FF0030EE1265A
:1015A000800EE56E040EE56EDD0EE56E5DEC1FF05F
:1015B000030EE126800EE56E040EE56EBD0EE56EAF
:1015C0005DEC1FF0030EE126800EE56E040EE56E65
:1015D000DF0EE56E5DEC1FF0030EE126800EE56E7A
:1015E000040EE56EBF0EE56E5DEC1FF0030EE12606
:1015F000800EE56E040EE56EE10EE56E5DEC1FF00B
:10160000030EE126800EE56E040EE56EC10EE56E5A
:101610005DEC1FF0030EE126800EE56E040EE56E14
:10162000E30EE56E5DEC1FF0030EE126800EE56E25
:10163000040EE56EC30EE56E5DEC1FF0030EE126B1
:10164000800EE56E040EE56EE50EE56E5DEC1FF0B6
:10165000030EE126800EE56E040EE56EC50EE56E06
:101660005DEC1FF0030EE126800EE56E040EE56EC4
:10167000E70EE56E5DEC1FF0030EE126800EE56ED1
:10168000040EE56EC70EE56E5DEC1FF0030EE1265D
:10169000800EE56E040EE56EE90EE56E5DEC1FF062
:1016A000030EE126800EE56E040EE56EC90EE56EB2
:1016B0005DEC1FF0030EE126800EE56E040EE56E74
:1016C000EB0EE56E5DEC1FF0030EE126800EE56E7D
:1016D000040EE56ECB0EE56E5DEC1FF0030EE12609
:1016E000800EE56E040EE56EED0EE56E5DEC1FF00E
:1016F000030EE126800EE56E040EE56ECD0EE56E5E
:101700005DEC1FF0030EE126800EE56E040EE56E23
:10171000EF0EE56E5DEC1FF0030EE126800EE56E28
:10172000040EE56ECF0EE56E5DEC1FF0030EE126B4
:10173000800EE56E040EE56EF10EE56E5DEC1FF0B9
:10174000030EE126800EE56E040EE56ED10EE56E09
:101750005DEC1FF0030EE126120000C0E5FF01C0A2
:10176000E5FF02C0E5FF03C0E5FF04011551D8B451
:101770000CD19DA81DD09EA81BD00301A851030128
:10178000A51905E16EEC29F00301A56BFED0000E52
:101790000301A825006E016A0F0E012200C0E9FFB7
:1017A00001C0EAFFEFCFA1F3A82BA1C3ADFFEDD09D
:1017B0009DAAEBD09EAAE9D0ABA205D00301A681D9
:1017C0006EEC29F0E2D0ABA405D00301A6836EEC49
:1017D00029F0DBD0ABA048D0AECFA1F316C400F007
:1017E000016A008EA1C302F0036A0250001803E1EF
:1017F0000350011801E004D00301A689AB96C5D0BF
:101800000301A15104E0A1510401161929E10301CA
:10181000A699AB960301A15103E00301A69702D05C
:101820000301A687A1C3AAF3A3C3ABF30301A3518A
:10183000006E00040301AC6F600E0301AB25006E67
:10184000016A000E012200C0E9FF01C0EAFFA1C346
:10185000EFFFAB2BAB51800A02E10301AB6B95D0DC
:101860000301A699AB8691D0AECFA1F30301A6A93F
:1018700021D016C400F0016A008EA1C302F0036AF1
:101880000250001803E10350011801E011D09D9AA5
:10189000AB9894900301A55104E1AD6A6EEC29F078
:1018A00007D000CFADFF010E0301A86F9D886DD05A
:1018B000AB866BD00301A1510301AA270301AB51F1
:1018C0000301AC191BE10301AA510CE1ABC3A3F363
:1018D0000301A6B712D09D9AAB989490AD6A6EECB6
:1018E00029F00BD00301A685A6B707D09D9AAB9827
:1018F0009490010EAD6E6EEC29F047D00301AB5110
:101900000301A41908E10301A4510301A31903E091
:101910006EEC29F03AD0A3C300F0016A004A012A14
:10192000E56A800EE56E0150E56E0050E56E77ECDD
:1019300019F0006E040EE12600500301A26F0301AE
:10194000AB190FE1A1C300F01F0E00140301AC6F2F
:10195000006E020E0024AC6F0301A3510301AC27FB
:10196000AC9FABC300F00301AB2B016A600E0026F5
:10197000000E012200C0E9FF01C0EAFFA1C3EFFF92
:10198000AB51800A02E10301AB6BE4CF03F0E4CF7B
:1019900002F0E4CF01F0E4CF00F01200D9CFE5FF70
:1019A000E1CFD9FF00C0E5FF01C0E5FF02C0E5FFC0
:1019B00003C0E5FF04C0E5FF05C0E5FF06C0E5FF85
:1019C00007C0E5FF020EDBCF00F0030EDBCF01F016
:1019D000040EDBCF02F0050EDBCF03F0060EDBCFEB
:1019E00004F0070EDBCF05F0080EDBCF06F0090E82
:1019F000DBCF07F000500301756F0150766F025086
:101A0000776F0350786F04500301796F05507A6F38
:101A100006507B6F07507C6F0301755103017B03F8
:101A2000F4CF01F0F3CF00F0005003017F6F0150BD
:101A3000806F0301755103017903F4CF01F0F3CFF7
:101A400000F0005003017D6F01507E6F030178515B
:101A500003017903F3CF00F0030180510026005009
:101A6000806F0301775103017A03F3CF01F0015036
:101A7000002600500301806F0301775103017903B1
:101A8000F4CF01F0F3CF00F003017F510026805125
:101A9000012200507F6F0150806F030176510301D6
:101AA0007A03F4CF03F0F3CF02F002500026035084
:101AB0000122005003017F6F0150806F03017651B6
:101AC00003017B03F3CF00F000500301846F030197
:101AD000765103017903F4CF01F0F3CF00F0005009
:101AE0000301826F0150836F0301755103017C0371
:101AF000F3CF00F000500301886F0301755103011B
:101B00007A03F4CF01F0F3CF00F000500301866FA9
:101B10000150876F0301816B0301856B03018151C4
:101B200003017D25006E0301825103017E21016EB8
:101B30000301835103017F21026E030184510301DC
:101B40008021036E00507D6F01507E6F02507F6FC9
:101B50000350806F0301855103017D25006E030151
:101B6000865103017E21016E0301875103017F210C
:101B7000026E0301885103018021036E03C0E9FF57
:101B800002C0F4FF01C0F3FF0050E4CF07F0E4CF40
:101B900006F0E4CF05F0E4CF04F0E4CF03F0E4CFA7
:101BA00002F0E4CF01F0E4CF00F0E4CFD9FF12005F
:101BB000D9CFE5FFE1CFD9FF00C0E5FF01C0E5FFC8
:101BC00002C0E5FF03C0E5FF04C0E5FF05C0E5FF77
:101BD00006C0E5FF07C0E5FF08C0E5FF09C0E5FF57
:101BE0000AC0E5FF0BC0E5FF0CC0E5FF0DC0E5FF37
:101BF0000EC0E5FF0FC0E5FF020EDBCF00F0030EC5
:101C0000DBCF01F0040EDBCF02F0050EDBCF03F0DB
:101C1000060EDBCF04F0070EDBCF05F0080EDBCF9E
:101C200006F0200E076E086A06C009F00A6A0B6A01
:101C30000C6AE56AE56AE56A0950E56E0350E56EEF
:101C40000250E56E0150E56E0050E56E8AEC11F031
:101C50000D6E080EE126300E0D263A0E0D5C05E3E2
:101C60000D500E6E270E0E240D6EFF0E0726082255
:101C7000200E07240E6E030E08200F6E0EC0E9FF23
:101C80000FC0EAFF0DC0EFFF0C50E56E0B50E56E84
:101C90000A50E56E0950E56E0350E56E0250E56EA0
:101CA0000150E56E0050E56EE4EC13F0006EF3CFEA
:101CB00001F0F4CF02F0E9CF03F0080EE126005066
:101CC000011002100310D8A4AFD707C000F008C05D
:101CD00001F004C002F005C003F000C004F001C030
:101CE00005F0004A012A200E0426030E052204C036
:101CF000E9FF05C0EAFFEFCF04F002C0E9FF03C02F
:101D0000EAFF04C0EFFF024A032A000E015C02E171
:101D1000200E005CE2E302C0E9FF03C0EAFF000E10
:101D2000EF6AE4CF0FF0E4CF0EF0E4CF0DF0E4CF94
:101D30000CF0E4CF0BF0E4CF0AF0E4CF09F0E4CFED
:101D400008F0E4CF07F0E4CF06F0E4CF05F0E4CFED
:101D500004F0E4CF03F0E4CF02F0E4CF01F0E4CFED
:101D600000F0E4CFD9FF1200D9CFE5FFE1CFD9FFD2
:101D700000C0E5FF01C0E5FF02C0E5FF03C0E5FFCD
:101D800004C0E5FF05C0E5FF06C0E5FF07C0E5FFAD
:101D900008C0E5FF09C0E5FF0AC0E5FF020EDBCF82
:101DA00000F0030EDBCF01F0040EDBCF02F0050ED6
:101DB000DBCF03F0060EDBCF04F0070EDBCF05F020
:101DC000040E066E0450800F590F02E1100E035CE2
:101DD00004E30F0E036E270E046E03500410D8B4F4
:101DE00048D003500410D8B454D006C007F00606FB
:101DF00005C008F0096AE56A0850E56E0450E56E12
:101E00000350E56E77EC19F00A6E040EE126E56AE0
:101E10000A50E56E0750E56E0250E56E0150E56E22
:101E20000050E56E93EC18F0060EE1260650020A0B
:101E300010E106C007F00606E56A0750E56E02509D
:101E4000E56E0150E56E0050E56ED7EC20F0050E12
:101E5000E1260950E56E0850E56E0450E56E03502A
:101E6000E56E1CEC18F0036EF3CF04F0040EE126CF
:101E7000B8D7030E066EE56AE56A040EE56E0250F9
:101E8000E56E0150E56E0050E56E93EC18F0060E1D
:101E9000E12606C003F0D88003AED89011E203C05B
:101EA00004F00306E56A0450E56E0250E56E015049
:101EB000E56E0050E56ED7EC20F0050EE126EBD77D
:101EC000E4CF0AF0E4CF09F0E4CF08F0E4CF07F064
:101ED000E4CF06F0E4CF05F0E4CF04F0E4CF03F064
:101EE000E4CF02F0E4CF01F0E4CF00F0E4CFD9FF7B
:101EF000120000C0E5FF01C0E5FF02C0E5FF03C01E
:101F0000E5FF000EE56A20EC26F0006EF3CF01F04D
:101F1000E652F00E0016003A013A0114011A0026AA
:101F200001320032F80E01B40126E86A01BEFF0E4C
:101F3000026EE56E0250E56E0150E56E0050E56EF2
:101F4000E56AE56AE56ACE0EE56ECEEC0CF0F3CFFD
:101F500001F0F4CF02F0E9CF03F0080EE1260150C2
:101F6000006E0250016ED89001320032D8900132DA
:101F700000320350E840E840C00B01120340E84043
:101F80003F0B820E0026030E01220150800F7C0FB2
:101F900002E14D0E005C04E34C0E006E040E016E77
:101FA0000150800F7D0F02E1840E005C04E2840E7C
:101FB000006E030E016E04010E5120E003019251E8
:101FC000FE0F026EFF0E9321036E0150800FF36E21
:101FD0000350800FF35C02E10250005C03E2040155
:101FE0000E6B2AD003019351800FF36E0150800FC6
:101FF000F35C02E10050925D1FE32FD00301925188
:10200000020F026E000E9321800FF36E0150800FBD
:10201000F35C02E10050025C04E2010E04010E6F69
:102020000BD00150800FF36E03019351800FF35CCE
:1020300002E19251005C11E200C092F301C093F3FF
:10204000E56AE56A03019351E56E9251E56EB8ECDD
:102050001CF0040EE126BDEC1AF0E4CF03F0E4CF4F
:1020600002F0E4CF01F0E4CF00F0120000C0E5FF81
:1020700001C0E5FF02C0E5FF03C0E5FF000EE56A11
:1020800020EC26F0006EF3CF01F0E652F00E0016C1
:10209000003A013A0114011A002601320032F80E0A
:1020A00001B40126E86A01BEFF0E026EE56E025021
:1020B000E56E0150E56E0050E56EE56AE56A030ED7
:1020C000E56E2A0EE56ECEEC0CF0F3CF01F0F4CF06
:1020D00002F0E9CF03F0080EE1260150006E025035
:1020E000016ED89001320032D89001320032035094
:1020F000E840E840C00B01120340E8403F0BFB0EF4
:102100000026D8A001060150800F7D0F02E1210EAC
:10211000005C04E3200E006E030E016ED88001AE59
:10212000D89002E3006A016A04010F5120E0030124
:102130009251FE0F026EFF0E9321036E0150800F2D
:10214000F36E0350800FF35C02E10250005C03E287
:1021500004010F6B2AD003019351800FF36E0150DD
:10216000800FF35C02E10050925D1FE324D0030175
:102170009251020F026E000E9321800FF36E0150F8
:10218000800FF35C02E10050025C04E2010E0401E6
:102190000F6F0BD00150800FF36E03019351800F2E
:1021A000F35C02E19251005C06E200C092F301C0D0
:1021B00093F3BDEC1AF0E4CF03F0E4CF02F0E4CFE8
:1021C00001F0E4CF00F0120000C0E5FF01C0E5FF20
:1021D00002C0E5FF03C0E5FF04C0E5FF0301A45111
:1021E0000301A31901E178D0A4C300F00050016EEF
:1021F0000128006E009E600E0024016E026A000E2F
:10220000022201C0E9FF02C0EAFFEFCFAEF31F0ECA
:102210000301AE17A4C3ADF3AE510301AD27AD5119
:10222000016E020E0124AD6FAD9F2FEC25F0016E03
:10223000015003E1016A012A01D0016A2FEC25F067
:102240000301AE6FAEC302F0800E0216AEC303F000
:102250001F0E031603C004F003C0AEF3045003E1E5
:10226000A3C3A4F34CD001502CE002501CE02FEC8F
:1022700025F0006E0301AE51016E0104AE6F0050F7
:10228000420A28E000504E0A03E11CEC21F022D063
:102290000050460A03E1A2EC29F01CD00050490A84
:1022A00019E1FF0017D02FEC25F0006E0301AE51AD
:1022B000016E0104AE6F0050620A0CE182EC24F062
:1022C00009D0A4C3AFF3025003E012EC1DF002D01A
:1022D000E0EC26F0ADC3A4F304011251040113197C
:1022E00006E00301A55103E127EC12F008D094B0F9
:1022F00006D00301A55103E1ACB26EEC29F0E4CFA6
:1023000004F0E4CF03F0E4CF02F0E4CF01F0E4CF37
:1023100000F01200D9CFE5FFE1CFD9FF00C0E5FF03
:1023200001C0E5FF02C0E5FF03C0E5FF04C0E5FF13
:1023300005C0E5FF06C0E5FF07C0E5FF08C0E5FFF3
:1023400009C0E5FF0AC0E5FF020EDBCF00F0030E77
:10235000DBCF01F0040EDBCF02F0050EDBCF03F084
:10236000060EDBCF04F0070EDBCF05F0080EDBCF47
:1023700006F0090EDBCF07F0086A045005100610BE
:10238000071005E1E968F468F368E86847D0096A6E
:102390000750800BE8440A6E0A501BE104500426E3
:1023A0000536063607360750035C08E10650025C26
:1023B00005E10550015C02E10450005C06E2D890A2
:1023C000073206320532043204D0092A09C008F067
:1023D000DFD70750035C08E10650025C05E10550B9
:1023E000015C02E10450005C08E30450005E05500B
:1023F000015A0650025A0750035AD8900732063243
:102400000532043208C009F008060950E2E103C0B1
:10241000E9FF02C0F4FF01C0F3FF0050E4CF0AF06F
:10242000E4CF09F0E4CF08F0E4CF07F0E4CF06F002
:10243000E4CF05F0E4CF04F0E4CF03F0E4CF02F002
:10244000E4CF01F0E4CF00F0E4CFD9FF120000C0E8
:10245000E5FF01C0E5FF02C0E5FF03C0E5FF04C0E2
:10246000E5FFACA27ED06CEC27F0006E005005E1D9
:102470000401136B0401126B74D013C401F00050FB
:1024800001266CEC27F0026E0050036E0304006E10
:102490000250230A1FE1010E005CD8A060D06CEC52
:1024A00027F0026E690A03E120EC24F058D00250B4
:1024B000720A03E16EEC29F052D00250730A01E077
:1024C0004ED09480AB869D8A9D98AE50AE50AB980E
:1024D000AB8845D00250430A05E00250420A01E0B1
:1024E0003ED006D000C003F0046A038E0350006E95
:1024F00000C0A7F300500F01006F010E0301A86F89
:1025000004011351011814E06CEC27F0026E030172
:10251000A727000E0301A825006E036A0F0E0322F1
:1025200000C0E9FF03C0EAFF02C0EFFFA82BE8D715
:10253000000E0301A825006E026A0F0E022203019D
:10254000A71D036E032A00C0E9FF02C0EAFF03C013
:10255000EFFF0301A82BA8C3A5F303019F6B01C0E4
:1025600013F4E4CF04F0E4CF03F0E4CF02F0E4CFBF
:1025700001F0E4CF00F01200D9CFE5FFE1CFD9FFA1
:1025800000C0E5FF01C0E5FF02C0E5FF03C0E5FFB5
:1025900004C0E5FF06C0E5FF020EDBCF00F0030E2E
:1025A000DBCF01F0040EDBCF02F03F0EC716C66A88
:1025B000C56A0050C6120150C7129488820E006E80
:1025C0000F0E016E0F0E046E380E0026045001220D
:1025D0000F0E046E800E005E0450015A820E036ED0
:1025E0000F0E046E0F0E066E380E032606500422E0
:1025F0000F0E066E800E035E0650045A03C0E9FFFC
:1026000004C0EAFFEFCF03F0039800C0E9FF01C068
:10261000EAFF03C0EFFF9486820E006E0F0E016E7C
:102620000F0E046E380E0026045001220F0E046EA9
:10263000800E005E0450015A820E036E0F0E046E6F
:102640000F0E066E380E0326065004220F0E066E7D
:10265000800E035E0650045A03C0E9FF04C0EAFF7F
:10266000EFCF03F0039600C0E9FF01C0EAFF03C00B
:10267000EFFF02C0C8FFC6CF00F0008A0050C66E50
:102680009E96A196E4CF06F0E4CF04F0E4CF03F0E9
:10269000E4CF02F0E4CF01F0E4CF00F0E4CFD9FFC3
:1026A0001200D9CFE5FFE1CFD9FF00C0E5FF01C09F
:1026B000E5FF02C0E5FF03C0E5FF04C0E5FF05C07C
:1026C000E5FF06C0E5FF07C0E5FF08C0E5FF09C05C
:1026D000E5FF0AC0E5FF020EDBCF00F0030EDBCF03
:1026E00001F0040EDBCF02F0050EDBCF03F0060E87
:1026F000DBCF04F0070EDBCF05F00038E8441F0BFA
:10270000066E076A960E0626030E072206C0E9FF2C
:1027100007C0EAFFEFCF08F00050096E070E091658
:10272000010E0A6E09500DE006E6E86CD8900A36F4
:10273000010FFDE306D0D8900ABED8800A32010FFF
:10274000FBE308500A1206C0E9FF07C0EAFF0AC00F
:10275000EFFF500E0024066E076A030E072206C024
:10276000E9FF07C0EAFF01C0EFFF016A400E002643
:10277000030E0122800E025E070E02160238F00BD5
:10278000036E070E05160550032600C0E9FF01C0C1
:10279000EAFF03C0EFFFE4CF0AF0E4CF09F0E4CF93
:1027A00008F0E4CF07F0E4CF06F0E4CF05F0E4CF83
:1027B00004F0E4CF03F0E4CF02F0E4CF01F0E4CF83
:1027C00000F0E4CFD9FF1200D9CFE5FFE1CFD9FF68
:1027D00000C0E5FF01C0E5FF02C0E5FF03C0E5FF63
:1027E00004C0E5FF05C0E5FF06C0E5FF07C0E5FF43
:1027F00008C0E5FF09C0E5FF0AC0E5FF0BC0E5FF23
:102800000CC0E5FF0DC0E5FF020EDBCF00F0030EAC
:10281000DBCF01F0040EDBCF02F0050EDBCF03F0BF
:10282000060EDBCF04F0070EDBCF05F0080EDBCF82
:1028300006F0090EDBCF07F0086A096A0A6A0B6A1C
:10284000200E0C6E0350800BE8440D6E00500026E5
:102850000136023603360850082609360A360B368A
:102860000D50D8A4088007500B5C08E106500A5CA4
:1028700005E10550095C02E10450085C09E30450DD
:10288000085E0550095A06500A5A07500B5A008034
:102890000C040D6E0DC00CF00D50D4E103C0E9FF27
:1028A00002C0F4FF01C0F3FF0050E4CF0DF0E4CF0D
:1028B0000CF0E4CF0BF0E4CF0AF0E4CF09F0E4CF62
:1028C00008F0E4CF07F0E4CF06F0E4CF05F0E4CF62
:1028D00004F0E4CF03F0E4CF02F0E4CF01F0E4CF62
:1028E00000F0E4CFD9FF120000C0E5FF01C0E5FF12
:1028F00003C0E5FF04C0E5FF05C0E5FF06C0E5FF36
:1029000007C0E5FF08C0E5FF09C0E5FF0AC0E5FF15
:102910000BC0E5FF94C300F095C301F00301943FA1
:1029200001D0952B0050E56E60EC29F0E652076E61
:10293000046A056A066A94C300F095C301F00301B6
:10294000943F01D0952B0050E56E60EC29F0E652E3
:102950000B6A0A6E086A0850041205120A50061221
:102960000B50071294C300F095C301F00301943F8C
:1029700001D0952B0050E56E60EC29F0E652036E15
:10298000006A03C001F0E86A03BEFF0E086E096E1C
:102990000050041201500512085006120950071287
:1029A00094C300F095C301F00301943F01D0952B2F
:1029B0000050E56E60EC29F0E652016A0412015005
:1029C00005120612071207C0E9FF06C0F4FF05C092
:1029D000F3FF0450E4CF0BF0E4CF0AF0E4CF09F0AA
:1029E000E4CF08F0E4CF07F0E4CF06F0E4CF05F041
:1029F000E4CF04F0E4CF03F0E4CF01F0E4CF00F043
:102A00001200D9CFE5FFE1CFD9FF00C0E5FF01C03B
:102A1000E5FF02C0E5FF03C0E5FF04C0E5FF05C018
:102A2000E5FF06C0E5FF07C0E5FF020EDBCF00F0C3
:102A3000030EDBCF01F0040EDBCF02F0050EDBCF7F
:102A400003F003C004F0056A0350D8B454D000C0AA
:102A5000E9FF01C0F3FF025040EC29F0066E430A83
:102A600008E1010E056E03C006F0076A068E0650E7
:102A7000036E0406002A02E3014A022A9D9AAB98DB
:102A800094909D989EA8FED7AC80AD6A00009EA849
:102A9000FED7AC9003C0ADFF00009EA8FED7055046
:102AA00004E0420EAD6E032604D0620EAD6E620EDF
:102AB0000326045015E000009EA8FED700C0E9FFE1
:102AC00001C0F3FF025040EC29F0056E05C0ADFFD8
:102AD000055003260406002A02E3014A022AE9D728
:102AE00000009EA8FED7031CAD6EAD2A00009EA874
:102AF000FED76EEC29F0E4CF07F0E4CF06F0E4CF88
:102B000005F0E4CF04F0E4CF03F0E4CF02F0E4CF2B
:102B100001F0E4CF00F0E4CFD9FF1200D9CFE5FFF8
:102B2000E1CFD9FF00C0E5FF01C0E5FF02C0E5FF2E
:102B300003C0E5FF04C0E5FF05C0E5FF06C0E5FFF3
:102B400007C0E5FF020EDBCF00F0030EDBCF01F084
:102B5000040EDBCF02F0050EDBCF03F002C006F05F
:102B60000650046E800A33E100C0E9FF01C0F3FFA4
:102B70000250C6EC27F0056EF3CF06F0F4CF07F055
:102B800003C0E5FF05C0E9FF06C0F3FF0750B8EC3E
:102B900029F000C0E9FF01C0F3FF0250C6EC27F0A6
:102BA000056EF3CF06F0F4CF07F0052A02E3064ADC
:102BB000072A05C0E5FF06C0F4FF07C0F6FF00C006
:102BC000E9FF01C0F3FF025051EC29F020D004C00E
:102BD00000F000AA1CD0007A0050046E04E10350FB
:102BE0000DEC2AF014D00450010A04E1035023EC48
:102BF0002AF00DD004500F0A04E10350EFEC23F04B
:102C000006D004500E0A03E1035020EC2AF0E4CF72
:102C100007F0E4CF06F0E4CF05F0E4CF04F0E4CF12
:102C200003F0E4CF02F0E4CF01F0E4CF00F0E4CF12
:102C3000D9FF120000C0E5FF01C0E5FF02C0E5FFBB
:102C400003C0E5FF04C0E5FFE4EC10F00EEC04F077
:102C500005EC25F0006EF3CF01F0F4CF02F0E9CFE0
:102C600003F004017C51005E7D51015A7E51025AED
:102C70007F51035A039E3F0E035C08E1FF0E025C86
:102C800005E1FF0E015C02E1FF0E005CD8B04CD004
:102C90000401073F01D0082B05EC25F0F3CF01F02C
:102CA000F4CF02F0E9CF03F0880F04017C6F130E1C
:102CB00001207D6F000E02207E6F000E03207F6FCB
:102CC00060EC06F000C400F001C402F002C404F09D
:102CD000E56A0050E56EE56A0250E56EE56A04506B
:102CE000E56E000EE56E140EE56EC40EE56E9EEC0C
:102CF00021F0090EE126E4EC10F036EC10F0E4ECE3
:102D000010F028EC1BF0E4EC10F004010751050A68
:102D100002E1085101E008D00401076B086B0401CF
:102D20000951D8A488EC28F0E4CF04F0E4CF03F0F4
:102D3000E4CF02F0E4CF01F0E4CF00F01200D9CFED
:102D4000E5FFE1CFD9FF00C0E5FF01C0E5FF02C00C
:102D5000E5FF03C0E5FF04C0E5FF05C0E5FF06C0D1
:102D6000E5FF07C0E5FF020EDBCF00F0030EDBCF6F
:102D700001F0040EDBCF02F0050EDBCF03F013C42D
:102D800014F4040112510401145F1451046E04047C
:102D9000146F03C004F0056A030E0426D8B0052A98
:102DA00014C406F0076A0750800FF36E0550800FB9
:102DB000F35C02E10450065C02E2E86830D0020EE7
:102DC000035C02E2E86A2BD00350046E0404036E35
:102DD000E56E98EC22F0E652046A0350045C14E2BB
:102DE00004500024056EE86A0120066EE86A02209D
:102DF00005C0E9FF06C0F3FF40EC29F0042AE56EA8
:102E000098EC22F0E652E9D713C414F404011251ED
:102E10000401145F1451006E0004146FE86AE4CFDB
:102E200007F0E4CF06F0E4CF05F0E4CF04F0E4CF00
:102E300003F0E4CF02F0E4CF01F0E4CF00F0E4CF00
:102E4000D9FF120000C0E5FF01C0E5FF02C0E5FFA9
:102E500003C0E5FF04C0E5FF006A960E0024016E82
:102E6000026A030E022201C0E9FF02C0EAFFEF6A14
:102E7000002A020E005CF1E3006A0050020DF450DB
:102E8000026EF3CF01F0E00E0124036E000E02206B
:102E9000046E03C0E9FF04C0EAFFEE6AEF6A5C0E4D
:102EA0000124036E040E0220046E03C0E9FF04C077
:102EB000EAFFEE6AEF6A930E0124036E040E02200D
:102EC000046E03C0E9FF04C0EAFFEE6AEF6AB30EC6
:102ED0000124036E040E0220046E03C0E9FF04C047
:102EE000EAFFEE6AEF6AD30E0126040E022201C049
:102EF000E9FF02C0EAFFEE687F0EEF6E400E00248D
:102F0000016E026A030E022201C0E9FF02C0EAFF5D
:102F1000EF68002A100E005CD8A0AFD7AF0EC06ECD
:102F2000C16A010EC26EC282E4CF04F0E4CF03F0A6
:102F3000E4CF02F0E4CF01F0E4CF00F01200432030
:102F4000412025642025640A0000D9CFE5FFE1CFA8
:102F5000D9FF00C0E5FF01C0E5FF02C0E5FF03C0E7
:102F6000E5FF04C0E5FF05C0E5FF020EDBCF00F082
:102F7000030EDBCF01F0040EDBCF02F00050020D98
:102F8000F450036EF3CF00F05C0E0024046E040EC8
:102F90000320056E04C0E9FF05C0EAFF01C0EEFF93
:102FA00002C0EFFF930E0024046E040E0320056E92
:102FB00004C0E9FF05C0EAFFEECF04F0EFCF05F053
:102FC0000150045C016E02500558026E000E00268E
:102FD000030E032200C0E9FF03C0EAFF01C0EEFFB9
:102FE00002C0EFFFD88002AED89004E3021E016C4D
:102FF000D8B4022A0250800F800F02E1030E015C58
:1030000002E2016A026A0150021007E100C0E9FF12
:1030100003C0EAFF000EEE6AEF6AE4CF05F0E4CFEA
:1030200004F0E4CF03F0E4CF02F0E4CF01F0E4CF0A
:1030300000F0E4CFD9FF1200D9CFE5FFE1CFD9FFEF
:1030400000C0E5FF01C0E5FF02C0E5FF03C0E5FFEA
:1030500004C0E5FF05C0E5FF06C0E5FF07C0E5FFCA
:10306000020EDBCF00F0030EDBCF01F0040EDBCF4E
:1030700002F0050EDBCF03F0D88001AED890046AD1
:103080000436045007E0011C066E001C056E054A5C
:10309000062A04D000C005F001C006F0D88003AEB7
:1030A000D890006A0036005007E0031C076E021C2F
:1030B000016E014A072A04D002C001F003C007F0E4
:1030C0000750E56E0150E56E0650E56E0550E56E61
:1030D0006AEC1DF0016EF3CF02F0040EE126005001
:1030E000041A04500AE0021C036E011C006E004A20
:1030F000032A03C0F3FF005003D002C0F3FF0150C6
:10310000E4CF07F0E4CF06F0E4CF05F0E4CF04F01D
:10311000E4CF03F0E4CF02F0E4CF01F0E4CF00F01D
:10312000E4CFD9FF1200D9CFE5FFE1CFD9FF00C02E
:10313000E5FF01C0E5FF02C0E5FF03C0E5FF04C0F5
:10314000E5FF05C0E5FF06C0E5FF07C0E5FF08C0D5
:10315000E5FF020EDBCF00F0030EDBCF01F0040E23
:10316000DBCF02F0050EDBCF03F0060EDBCF04F061
:10317000070EDBCF05F0050E035C35E2002A02E303
:10318000014A022A0350020DF3CF03F00350002638
:10319000E86A0122E86A0222036A066ACC0E042663
:1031A000530E0322000E062204C0F6FF03C0F7FFF1
:1031B00006C0F8FF0900F5CF04F0036A03300530BC
:1031C000076E066A0632086A045006120850071293
:1031D00006C0E5FF07C0F4FF00C0E9FF01C0F3FF30
:1031E00002508AEC29F0E4CF08F0E4CF07F0E4CFF6
:1031F00006F0E4CF05F0E4CF04F0E4CF03F0E4CF31
:1032000002F0E4CF01F0E4CF00F0E4CFD9FF1200E8
:10321000D9CFE5FFE1CFD9FF00C0E5FF01C0E5FF51
:1032200002C0E5FF03C0E5FF04C0E5FF05C0E5FF00
:1032300006C0E5FF020EDBCF00F0030EDBCF01F08E
:10324000040EDBCF02F000C0E9FF01C0F3FF025023
:1032500040EC29F0E56AE56E51EC24F0E652E652C6
:10326000000EE56A13EC28F0E652002A02E3014A58
:10327000022A036A080E035C27E20350020DF3CF13
:1032800004F0056A066A0050042601500522025027
:10329000062204C0E9FF05C0F3FF0650CAEC28F07F
:1032A000E56E13EC28F0E65204C0E9FF05C0F3FF19
:1032B0000650CAEC28F0F3CF05F00550E56E13EC8C
:1032C00028F0E652032AD6D747EC26F0E4CF06F0E2
:1032D000E4CF05F0E4CF04F0E4CF03F0E4CF02F054
:1032E000E4CF01F0E4CF00F0E4CFD9FF1200D9CF52
:1032F000E5FFE1CFD9FF00C0E5FF01C0E5FF02C057
:10330000E5FF03C0E5FF04C0E5FF05C0E5FF06C01B
:10331000E5FF020EDBCF00F0030EDBCF01F0040E61
:10332000DBCF02F0050EDBCF03F0D88001AED890E2
:10333000046A0436045007E0011C066E001C056E8A
:10334000054A062A04D000C005F001C006F0D88066
:1033500003AED89007E3031C016E021C006E004A06
:10336000012A04D002C000F003C001F00150E56E54
:103370000050E56E0650E56E0550E56E5BEC1CF006
:10338000006EF3CF01F0040EE12604500AE0011CA8
:10339000036E001C026E024A032A03C0F3FF0250B0
:1033A00003D001C0F3FF0050E4CF06F0E4CF05F0F6
:1033B000E4CF04F0E4CF03F0E4CF02F0E4CF01F077
:1033C000E4CF00F0E4CFD9FF1200D9CFE5FFE1CF81
:1033D000D9FF00C0E5FF01C0E5FF02C0E5FF03C063
:1033E000E5FF04C0E5FF05C0E5FF020EDBCF00F0FE
:1033F000030EDBCF01F0040EDBCF02F0050EDBCFB6
:1034000003F094C304F095C305F00301943F01D089
:10341000952B0350E56E0450E56E28EC27F0E6523C
:10342000E65294C304F095C305F00301943F01D024
:10343000952B0250056EE56E0450E56E28EC27F0E2
:10344000E652E65294C304F095C305F00301943F9D
:1034500001D0952B0150E56E0450E56E28EC27F065
:10346000E652E65294C304F095C305F00301943F7D
:1034700001D0952B0050E56E0450E56E28EC27F046
:10348000E652E652E4CF05F0E4CF04F0E4CF03F0D7
:10349000E4CF02F0E4CF01F0E4CF00F0E4CFD9FFB5
:1034A0001200D9CFE5FFE1CFD9FF00C0E5FF01C091
:1034B000E5FF02C0E5FF03C0E5FF04C0E5FF05C06E
:1034C000E5FF06C0E5FF020EDBCF00F0030EDBCF09
:1034D00001F00038E8441F0B026E036A960E0226C4
:1034E000030E032202C0E9FF03C0EAFFEFCF04F09E
:1034F0000050056E070E0516010E066E05500DE014
:1035000006E6E86CD8900636010FFDE306D0D890A9
:1035100006BED8800632010FFBE30450061202C03B
:10352000E9FF03C0EAFF06C0EFFF500E0024026E61
:10353000036A030E032202C0E9FF03C0EAFF01C0D1
:10354000EFFF016A400E0026030E012200C0E9FFD2
:1035500001C0EAFFFF0EEF68E4CF06F0E4CF05F00C
:10356000E4CF04F0E4CF03F0E4CF02F0E4CF01F0C5
:10357000E4CF00F0E4CFD9FF120000C0E5FF01C0A6
:10358000E5FF02C0E5FF03C0E5FF03019351E56ECF
:103590009251E56EE56A0A0EE56E0DEC1FF0006EC5
:1035A000F3CF01F0040EE12604010351010A04E106
:1035B000011E006CD8B4012A430E0301606F640E33
:1035C000616F530E626F0150026E636F0050646F43
:1035D0000A0E656F060EE56E800EE56E030EE56E53
:1035E000600EE56E01EC15F0040EE12604010451B5
:1035F0000C0DF3CF00F0002A002A04010351E56E00
:103600000050E56E03019351E56E9251E56EB8EC02
:103610001CF0040EE12605EC25F0F3CF01F0F4CF09
:1036200002F0E9CF03F0800F04010A6F840E01203D
:103630000B6F1E0E02200C6F000E03200D6FE4CFE7
:1036400003F0E4CF02F0E4CF01F0E4CF00F0120089
:1036500000C0E5FF01C0E5FF02C0E5FF03C0E5FFD4
:1036600004C0E5FF006A81B2002A0050D880E866F5
:10367000D890006A0036016A81B8012A0150D880CA
:10368000E866D890016A0136026A81BA022A0250BD
:10369000D880E866D890026A0236036A81B4032AA9
:1036A0000350D880E866D890036A0336046A81B66E
:1036B000042A0450D880E866D890046A0436005082
:1036C0000401001904E000C000F404EC27F00150EC
:1036D0000401011904E001C001F4DBEC24F0025004
:1036E0000401021904E002C002F4AAEC25F0035020
:1036F0000401031904E003C003F414EC2AF004509D
:103700000401041904E004C004F482EC25F0E4CFC1
:1037100004F0E4CF03F0E4CF02F0E4CF01F0E4CF13
:1037200000F01200D9CFE5FFE1CFD9FF00C0E5FFDF
:1037300001C0E5FF02C0E5FF03C0E5FF04C0E5FFEF
:1037400005C0E5FF06C0E5FF020EDBCF00F0030E6B
:10375000DBCF01F0040EDBCF02F003019E5119E133
:1037600074EC14F0036EF3CF04F0F4CF05F0E9CF5E
:1037700006F003C0E5FF04C0F4FF05C0F6FF06C075
:10378000F7FF00C0E9FF01C0F3FF02502FEC29F062
:103790001ED003019E51010A1AE100C0E9FF01C0D9
:1037A000F3FF02504CEC27F0006EF3CF01F0F4CFA2
:1037B00002F0E9CF03F00350E56E0250E56E0150D0
:1037C000E56E0050E56EE5EC19F0040EE126E4CF5D
:1037D00006F0E4CF05F0E4CF04F0E4CF03F0E4CF4B
:1037E00002F0E4CF01F0E4CF00F0E4CFD9FF120003
:1037F000D9CFE5FFE1CFD9FF00C0E5FF01C0E5FF6C
:1038000002C0E5FF03C0E5FF04C0E5FF05C0E5FF1A
:1038100006C0E5FF020EDBCF00F0030EDBCF01F0A8
:10382000040EDBCF02F0050EDBCF03F0060EDBCF7C
:1038300004F0070EDBCF05F0080EDBCF06F0D880D2
:1038400003AED89015E306500A0A12E104C0E9FF5E
:1038500005C0EAFF2D0EEF6E044A052A031E021E64
:10386000011E006C05E1012A03E1022AD8B4032AF3
:103870000650E56E0550E56E0450E56E0350E56EAA
:103880000250E56E0150E56E0050E56ED8EC0DF08B
:10389000070EE126E4CF06F0E4CF05F0E4CF04F014
:1038A000E4CF03F0E4CF02F0E4CF01F0E4CF00F086
:1038B000E4CFD9FF1200D9CFE5FFE1CFD9FF00C097
:1038C000E5FF01C0E5FF02C0E5FF03C0E5FF04C05E
:1038D000E5FF05C0E5FF06C0E5FF020EDBCF00F007
:1038E000030EDBCF01F0040EDBCF02F0050EDBCFC1
:1038F00003F0046A056A0350800BE844066E065024
:1039000011E10250022603360350015C02E102502D
:10391000005C04E2D8900332023204D0052A05C0CC
:1039200004F0E9D70350015C02E10250005C04E3BB
:103930000250005E0350015AD8900332023204C094
:1039400005F004060550EEE101C0F3FF0050E4CF9E
:1039500006F0E4CF05F0E4CF04F0E4CF03F0E4CFC9
:1039600002F0E4CF01F0E4CF00F0E4CFD9FF120081
:10397000D9CFE5FFE1CFD9FF00C0E5FF01C0E5FFEA
:1039800002C0E5FF03C0E5FF020EDBCF00F0030E2F
:10399000DBCF01F0040EDBCF02F0050EDBCF03F02E
:1039A0000A0EE56E0150E56E0050E56E800EE56E84
:1039B0000F0EE56E230EE56EB4EC0EF0060EE1265A
:1039C0000250E56E020EE56E800EE56E0F0EE56E9E
:1039D000230EE56ED7EC20F0050EE12603500DE036
:1039E000400EE56EE56A800EE56E0F0EE56E230E65
:1039F000E56ED7EC20F0050EE126800EE56E0F0E89
:103A0000E56E230EE56E08EC19F0030EE126E4CF17
:103A100003F0E4CF02F0E4CF01F0E4CF00F0E4CF14
:103A2000D9FF120000C0E5FF01C0E5FF02C0E5FFBD
:103A30002FEC25F0006E4C0A08E12FEC25F0300A3F
:103A400002E08B8240D08B923ED00050450A27E1A5
:103A5000000EE56E140EE56ED20EE56E9EEC21F0C2
:103A6000030EE1261AEC2AF0006E00C001F001C03E
:103A700002F0010602500FE02FEC25F0E56AE56E3A
:103A8000000EE56E140EE56ED40EE56E9EEC21F090
:103A9000050EE126ECD70A0EEFEC23F014D000500F
:103AA000510A11E12FEC25F0300A03E1006A002AE7
:103AB00001D0006A0050D880E866D890006A0036CD
:103AC00000500401096FE4CF02F0E4CF01F0E4CF2D
:103AD00000F01200D9CFE5FFE1CFD9FF00C0E5FF2C
:103AE00001C0E5FF02C0E5FF03C0E5FF04C0E5FF3C
:103AF00005C0E5FF06C0E5FF07C0E5FF020EDBCF0E
:103B000000F0030EDBCF01F0040EDBCF02F0050E58
:103B1000DBCF03F0046A056A100E066E0150800BBD
:103B2000E844076E0050002601360450042605368E
:103B30000750D8A404800350055C02E10250045CE5
:103B400005E30250045E0350055A00800604076E28
:103B500007C006F00750E2E101C0F3FF0050E4CFD8
:103B600007F0E4CF06F0E4CF05F0E4CF04F0E4CFB3
:103B700003F0E4CF02F0E4CF01F0E4CF00F0E4CFB3
:103B8000D9FF1200D9CFE5FFE1CFD9FF00C0E5FF93
:103B900001C0E5FF02C0E5FF03C0E5FF020EDBCF79
:103BA00000F0030EDBCF01F0040EDBCF02F000C00B
:103BB000E9FF01C0F3FF025040EC29F0036E03500F
:103BC00029E0C6A610D00350E56E13EC28F0036E72
:103BD000E652035002E0FD0E1ED049EC23F0C5ACC6
:103BE00014D0FE0E18D09E9600C0E9FF01C0F3FF6E
:103BF000025040EC29F0C96EC6889EA6FED7C7B415
:103C000004D0C7B002D0FE0E06D0002AD0E3014A8D
:103C1000022ACDD7E86AE4CF03F0E4CF02F0E4CF84
:103C200001F0E4CF00F0E4CFD9FF1200D9CFE5FFD7
:103C3000E1CFD9FF00C0E5FF01C0E5FF02C0E5FF0D
:103C400003C0E5FF04C0E5FF05C0E5FF020EDBCFC2
:103C500000F0030EDBCF01F0040EDBCF02F0050E07
:103C6000DBCF03F0046A03C005F00306055022E031
:103C7000B0EC24F0056E05C0E5FF00C0E9FF01C00F
:103C8000F3FF0250B8EC29F0002A02E3014A022AAD
:103C900004C005F0C5A6E7D7A1A602D0E8680BD0FE
:103CA000052A05C004F00350F5E059EC25F0C5B82D
:103CB000FED7F0D70450E4CF05F0E4CF04F0E4CF12
:103CC00003F0E4CF02F0E4CF01F0E4CF00F0E4CF62
:103CD000D9FF120000C0E5FF01C0E5FF02C0E5FF0B
:103CE00003C0E5FFA4C300F0016AAFC302F0036A9A
:103CF0000250005E0350015AE56A800EE56E0150E5
:103D0000E56E0050E56E77EC19F0006E040EE126CA
:103D10000006AFC301F0430EEFEC23F0200EEFECF2
:103D200023F0005020E0600E0124026E036A000EB2
:103D3000032202C0E9FF03C0EAFFEFCF02F0E56A09
:103D40000250E56E000EE56E520EE56EF40EE56E65
:103D50009EEC21F0050EE126012A0150800A01E1C6
:103D6000016A0006DED7E4CF03F0E4CF02F0E4CF2F
:103D700001F0E4CF00F01200D9CFE5FFE1CFD9FF89
:103D800000C0E5FF01C0E5FF02C0E5FF03C0E5FF9D
:103D9000020EDBCF00F0030EDBCF01F0040EDBCF11
:103DA00002F0050EDBCF03F003C0E5FF00C0E9FF22
:103DB00001C0F3FF0250B8EC29F0E56A0350E56E4C
:103DC00051EC24F0E652E652210EE56E13EC28F099
:103DD000E65247EC26F0E56A0250E56E0150E56ECA
:103DE0000050E56E5EEC21F0040EE1260F0EE56E4C
:103DF0000250E56E0150E56E0050E56E1DEC22F0BC
:103E0000040EE126E4CF03F0E4CF02F0E4CF01F0AA
:103E1000E4CF00F0E4CFD9FF1200D9CFE5FFE1CF26
:103E2000D9FF00C0E5FF01C0E5FF02C0E5FF03C008
:103E3000E5FF020EDBCF00F0030EDBCF01F0040E36
:103E4000DBCF02F0050EDBCF03F000500301986FCB
:103E50000150996F025003019A6F03509B6F030149
:103E6000985103019A03F4CF01F0F3CF00F0005012
:103E700003019C6F01509D6F0301985103019B0347
:103E8000F3CF00F00301995103019A03F3CF01F03E
:103E90000150002603019D51002600509D6F9DC3D7
:103EA000F3FF9C51E4CF03F0E4CF02F0E4CF01F044
:103EB000E4CF00F0E4CFD9FF1200D9CFE5FFE1CF86
:103EC000D9FF00C0E5FF01C0E5FF02C0E5FF03C068
:103ED000E5FF04C0E5FF020EDBCF00F0030EDBCFF1
:103EE00001F0040EDBCF02F003019E5111E1BBECA7
:103EF00023F0036EF3CF04F003C0E5FF04C0F4FF2A
:103F000000C0E9FF01C0F3FF02508AEC29F016D08F
:103F100003019E51010A12E100C0E9FF01C0F3FF55
:103F20000250CAEC28F0006EF3CF01F00150E56EAC
:103F30000050E56E5BEC22F0E652E652E4CF04F06E
:103F4000E4CF03F0E4CF02F0E4CF01F0E4CF00F0DF
:103F5000E4CFD9FF1200EA0EF66E530EF76E000E94
:103F6000F86E0900F550056E0900F550066E04E183
:103F7000056702D0F8EF1FF00900F550006E090048
:103F8000F550016E0900F550026E09000900F55068
:103F9000E96E0900F550EA6E090009000900F550C4
:103FA000036E0900F550046E09000900F6CF07F012
:103FB000F7CF08F0F8CF09F000C0F6FF01C0F7FF17
:103FC00002C0F8FF035002E1045007E00900F55079
:103FD000EE6E0306F8E20406F9D707C0F6FF08C044
:103FE000F7FF09C0F8FF050601E20606B7EF1FF06C
:103FF0001200D9CFE5FFE1CFD9FF00C0E5FF01C036
:10400000E5FF02C0E5FF03C0E5FF04C0E5FF05C012
:10401000E5FF06C0E5FF020EDBCF00F0030EDBCFAD
:1040200001F0040EDBCF02F0002A02E3014A022A6B
:10403000036A080E035C17E20350020DF3CF04F08D
:10404000056A066A00500426015005220250062225
:10405000E56AF46A04C0E9FF05C0F3FF06508AEC84
:1040600029F0032AE6D7E4CF06F0E4CF05F0E4CF49
:1040700004F0E4CF03F0E4CF02F0E4CF01F0E4CFAA
:1040800000F0E4CFD9FF1200D9CFE5FFE1CFD9FF8F
:1040900000C0E5FF01C0E5FF02C0E5FF03C0E5FF8A
:1040A00004C0E5FF020EDBCF00F00038E8441F0B30
:1040B000016E026A960E0126030E022201C0E9FF7C
:1040C00002C0EAFFEFCF03F0070E0016010E046EE8
:1040D00000500DE006E6E86CD8900436010FFDE3D1
:1040E00006D0D89004BED8800432010FFBE3041C34
:1040F000006E0350001601C0E9FF02C0EAFF00C0D5
:10410000EFFFE4CF04F0E4CF03F0E4CF02F0E4CF1C
:1041100001F0E4CF00F0E4CFD9FF1200D9CFE5FFE2
:10412000E1CFD9FF00C0E5FF01C0E5FF02C0E5FF18
:1041300003C0E5FF04C0E5FF05C0E5FF020EDBCFCD
:1041400000F00050010A22E1016A0150020DF45012
:10415000036EF3CF02F0B30E0224046E040E0320AC
:10416000056E04C0E9FF05C0EAFFEE687F0EEF6E42
:10417000D30E0226040E032202C0E9FF03C0EAFFA9
:10418000EE6AEF6A012A100E015CDFE300C018F44A
:10419000E4CF05F0E4CF04F0E4CF03F0E4CF02F085
:1041A000E4CF01F0E4CF00F0E4CFD9FF1200D9CF83
:1041B000E5FFE1CFD9FF00C0E5FF01C0E5FF02C088
:1041C000E5FF03C0E5FF04C0E5FF020EDBCF00F012
:1041D000030EDBCF01F0040EDBCF02F0050EDBCFC8
:1041E00003F0060EDBCF04F0050E035C18E2002A94
:1041F00002E3014A022A0350020DF3CF03F00350F9
:104200000026E86A0122E86A022204C0E5FFF46A97
:1042100000C0E9FF01C0F3FF02508AEC29F0E4CFAF
:1042200004F0E4CF03F0E4CF02F0E4CF01F0E4CFF8
:1042300000F0E4CFD9FF120000C0E5FF01C0E5FFA8
:1042400002C0E5FF2FEC25F0006E2FEC25F0016E8B
:104250000050026ED00E0224006E0A0E005C05E3D0
:104260000050026EF90E0224006E0150026ED00E54
:104270000224016E0A0E015C05E30150026EF90E84
:104280000224016E080E005C12E2100E015CD8B030
:104290000ED00038F00B0124006E0FEC23F0016EFD
:1042A000015005E10050E56EFBEC27F0E652E4CF4B
:1042B00002F0E4CF01F0E4CF00F01200D9CFE5FF27
:1042C000E1CFD9FF00C0E5FF01C0E5FF02C0E5FF77
:1042D00003C0E5FF020EDBCF00F0030EDBCF01F0E1
:1042E000040EDBCF02F0050EDBCF03F0040E035CFF
:1042F000D8B0036A00C0E9FF01C0F3FF025040ECF0
:1043000029F0E56AE56E51EC24F0E652E6520344EA
:10431000FE0B036E810E03120350E56E13EC28F0C2
:10432000E65247EC26F0E4CF03F0E4CF02F0E4CF0E
:1043300001F0E4CF00F0E4CFD9FF1200D9CFE5FFC0
:10434000E1CFD9FF00C0E5FF01C0E5FF02C0E5FFF6
:10435000020ED924006E000EDA20016E800E026E6D
:10436000030E0026000E012202220250E56E0150CB
:10437000E56E0050E56E040EDBCFE5FF030EDBCFEC
:10438000E5FF020EDBCFE5FF03018B51E56E8A519D
:10439000E56E8951E56E0EEC00F0006EF3CF01F092
:1043A000090EE12601C0F3FF0050E4CF02F0E4CF94
:1043B00001F0E4CF00F0E4CFD9FF1200D9CFE5FF40
:1043C000E1CFD9FF00C0E5FF01C0E5FF02C0E5FF76
:1043D00003C0E5FF020EDBCF00F0030EDBCF01F0E0
:1043E000040EDBCF02F003019E510DE19EEC28F09C
:1043F000036E03C0E5FF00C0E9FF01C0F3FF0250F8
:10440000B8EC29F00FD003019E51010A0BE100C066
:10441000E9FF01C0F3FF025040EC29F0E56E95EC96
:1044200026F0E652E4CF03F0E4CF02F0E4CF01F04F
:10443000E4CF00F0E4CFD9FF1200D9CFE5FFE1CF00
:10444000D9FF00C0E5FF01C0E5FF02C0E5FF03C0E2
:10445000E5FF020EDBCF00F0030EDBCF01F0040E10
:10446000DBCF02F0050EDBCF03F0100E035C02E39E
:104470000F0E036E00C0E9FF01C0F3FF025040ECD5
:1044800029F0E56AE56E51EC24F0E652E652E00EC2
:1044900003120350E56E13EC28F0E65247EC26F0C9
:1044A000E4CF03F0E4CF02F0E4CF01F0E4CF00F07A
:1044B000E4CFD9FF1200D9CFE5FFE1CFD9FF00C08B
:1044C000E5FF01C0E5FF02C0E5FF03C0E5FF020E06
:1044D000DBCF00F0030EDBCF01F094C302F095C3F5
:1044E00003F00301943F01D0952B0150E56E02507B
:1044F000E56E28EC27F0E652E65294C302F095C32D
:1045000003F00301943F01D0952B0050E56E02505B
:10451000E56E28EC27F0E652E652E4CF03F0E4CF54
:1045200002F0E4CF01F0E4CF00F0E4CFD9FF1200B5
:10453000D9CFE5FFE1CFD9FF00C0E5FF01C0E5FF1E
:1045400002C0E5FF03C0E5FF04C0E5FF020EDBCFBC
:1045500000F012C401F0026A014A022A13C403F0F7
:10456000046A0150031803E10250041801E001D06D
:104570000ED0000E04011225016E026A010E022205
:1045800001C0E9FF02C0EAFF00C0EFFF122BE4CF39
:1045900004F0E4CF03F0E4CF02F0E4CF01F0E4CF85
:1045A00000F0E4CFD9FF1200D9CFE5FFE1CFD9FF6A
:1045B00000C0E5FF01C0E5FF02C0E5FF03C0E5FF65
:1045C000020EDBCF00F0016AAFC302F0036A0250B3
:1045D000002603500122E56A800EE56E0150E56E6B
:1045E0000050E56E77EC19F0006EF3CF01F0040E89
:1045F000E126600E0026000E012200C0E9FF01C086
:10460000EAFFEFCF00F00050E4CF03F0E4CF02F078
:10461000E4CF01F0E4CF00F0E4CFD9FF120000C0F6
:10462000E5FF01C0E5FF02C0E5FF010E006E2FECC3
:1046300025F0016E01C002F0015023E00050E56E4C
:1046400060EC29F0016EE652015010E10A0E005CA8
:104650000BE20A0E006EE56E60EC29F0016EE65288
:10466000015004E1E8680ED0E8680CD0015002184F
:1046700002E0E86807D0002A1B0E005CD8E3E86877
:1046800001D0E86AE4CF02F0E4CF01F0E4CF00F01B
:10469000120000C0E5FF01C0E5FF02C0E5FF03C056
:1046A000E5FF04C0E5FF05C0E5FFE80E006E030E60
:1046B000016E0050FF0F026EFF0E0120036E02C05C
:1046C00000F003C001F00250031010E0C5CF02F06B
:1046D000036A1F0E0216046AC7B4042A056A04504E
:1046E00002120550031202500310E3E1E4CF05F07B
:1046F000E4CF04F0E4CF03F0E4CF02F0E4CF01F024
:10470000E4CF00F01200F3CFE5FFF4CFE5FFE9CFEF
:10471000E5FFEACFE5FFFACFE5FFFBCFE5FF0401B8
:1047200010510F01366F040111510F01376FD65030
:10473000346FD750356FF2A411D00401103F01D06F
:10474000112BF294040110510F01366F0401115125
:104750000F01376FD650346FD750356FE4CFFBFF62
:10476000E4CFFAFFE4CFEAFFE4CFE9FFE4CFF4FFC0
:10477000E4CFF3FF110000C0E5FF01C0E5FF02C078
:10478000E5FF03C0E5FF94C300F095C301F003010A
:10479000943F01D0952B0050E56E60EC29F0E65275
:1047A000036E026A94C300F095C301F00301943FC5
:1047B00001D0952B0050E56E60EC29F0E652016ABD
:1047C00002120150031203C0F3FF0250E4CF03F0C2
:1047D000E4CF02F0E4CF01F0E4CF00F0120000C01B
:1047E000E5FF01C0E5FF02C0E5FF006E390E0401E0
:1047F0001725016E026A040E022201C0E9FF02C001
:10480000EAFF00C0EFFF220E175D01E2172B0050F8
:104810000A0A0FE104011751E56E800EE56E040EE1
:10482000E56E390EE56E9FEC16F0040EE1260401EC
:10483000176BE4CF02F0E4CF01F0E4CF00F01200F8
:104840000401126B0401136B0401146994808B90B2
:104850009480B06A3F0EAF6EB886AC8AAC84AC8CE4
:10486000AC90AB8CAB8E0301A66B0301A06B030174
:10487000A36B0301A46B0301A56B000EE56A60EC5A
:1048800029F00401166FE6529F989F9A010E0401C9
:10489000156F0301896B8A6B2F0E8B6F6EEC29F0FD
:1048A0001200D9CFE5FFE1CFD9FF00C0E5FF01C07D
:1048B000E5FF02C0E5FF020EDBCF00F0030EDBCF09
:1048C00001F06EEC26F00044FE0B026E0150D88021
:1048D000E866D890016A01360150D880E866D89021
:1048E000016A0136015002120250E56E13EC28F005
:1048F000E652E4CF02F0E4CF01F0E4CF00F0E4CFE1
:10490000D9FF120000C0E5FF01C0E5FF03C0E5FFCD
:104910002FEC25F0C80A1DE12FEC25F0550A19E10E
:104920002FEC25F00401066F2FEC25F00401056F34
:104930002FEC25F0006A016E2FEC25F0036A0024AD
:104940000401366F03500120376F2FEC25F004016E
:10495000916FE4CF03F0E4CF01F0E4CF00F0120058
:1049600000C0E5FF01C0E5FF02C0E5FF03C0E5FFB1
:10497000E80E006E030E016E49EC23F0C586005070
:10498000FF0F026EFF0E0120036E02C000F003C095
:1049900001F00250031005E002EC2AF0026E025012
:1049A000EEE0C950E4CF03F0E4CF02F0E4CF01F031
:1049B000E4CF00F0120000C0E5FF430E04012D6FAC
:1049C000640E2E6F410E2F6F420E306F4F0E316FFF
:1049D000520E326F540E336F04010151006E300ECF
:1049E000002600500401346F0A0E356F090EE56E83
:1049F000800EE56E040EE56E2D0EE56E01EC15F0F1
:104A0000040EE126E4CF00F012000401105103016E
:104A1000736F040111510301746FD650716FD75039
:104A2000726F73510401101905E1030174510401FF
:104A300011190CE0040110510301736F04011151AD
:104A40000301746FD650716FD750726F74C3E9FF52
:104A500073C3F4FF72C3F3FF03017151120000C06E
:104A6000E5FF01C0E5FF0301A4510301AD1905E015
:104A70000301A4510301A31902E1E86A15D0A4C3FC
:104A800000F00301A42B016A600E0026000E012233
:104A900000C0E9FF01C0EAFFEFCF00F0A451800A97
:104AA00002E10301A46B0050E4CF01F0E4CF00F079
:104AB000120000C0E5FF01C0E5FF02C0E5FF03C032
:104AC000E5FFE80E006E030E016E49EC23F09E96A2
:104AD000C59AC5880050FF0F026EFF0E0120036EBD
:104AE00002C000F003C001F00250031002E09EA6D5
:104AF000F1D7E4CF03F0E4CF02F0E4CF01F0E4CF4C
:104B000000F0120000C0E5FF430E04018A6F640E3E
:104B10008B6F4D0E8C6F4F0E8D6F440E8E6F040198
:104B20000451006E300E0026005004018F6F0A0EF3
:104B3000906F070EE56E800EE56E040EE56E8A0E30
:104B4000E56E01EC15F0040EE126BDEC1AF0E4CFA1
:104B500000F0120000C0E5FF430E0401816F640EF7
:104B6000826F480E836F4F0E846F4D0E856F450E1A
:104B7000866F04010251006E300E002600500401C1
:104B8000876F0A0E886F080EE56E800EE56E040EC4
:104B9000E56E810EE56E01EC15F0040EE126E4CF22
:104BA00000F0120000C0E5FF11EC2AF00401896B4F
:104BB000806B8983006A89B3002A0050010BE844A6
:104BC000F46E8051FD0BF410806FD58ED59CD59A74
:104BD000D588D596D594D582D580F28AF184D08EA9
:104BE000F28EF28CBA80FF0EBB68BA84E4CF00F07C
:104BF0001200D9CFE5FFE1CFD9FF00C0E5FF01C02A
:104C0000E5FF020EDBCF00F00050020DF450016E04
:104C1000F3CF00F0000E0026030E012200C0E9FFD2
:104C200001C0EAFFEECF00F0EFCF01F001C0F3FFCB
:104C30000050E4CF01F0E4CF00F0E4CFD9FF120040
:104C4000D9CFE5FFE1CFD9FF00C0E5FF01C0E5FF07
:104C5000020EDBCF00F00050020DF450016EF3CFD6
:104C600000F0E00E0026000E012200C0E9FF01C0A6
:104C7000EAFFEECF00F0EFCF01F001C0F3FF0050EC
:104C8000E4CF01F0E4CF00F0E4CFD9FF120000C080
:104C9000E5FF01C0E5FF02C0E5FF03C0E5FFE80E48
:104CA000006E030E016E49EC23F0C5840050FF0F27
:104CB000026EFF0E0120036E02C000F003C001F07F
:104CC0000250031002E0C5B4F1D7E4CF03F0E4CF03
:104CD00002F0E4CF01F0E4CF00F0120000C0E5FFE5
:104CE00001C0E5FF02C0E5FF03C0E5FFE80E006E6E
:104CF000030E016E49EC23F0C5800050FF0F026ED9
:104D0000FF0E0120036E02C000F003C001F002504C
:104D1000031002E0C5B0F1D7E4CF03F0E4CF02F016
:104D2000E4CF01F0E4CF00F01200D9CFE5FFE1CFEE
:104D3000D9FF00C0E5FF01C0E5FF02C0E5FF020E9C
:104D4000DBCF00F094C301F095C302F00301943F60
:104D500001D0952B0050E56E0150E56E28EC27F050
:104D6000E652E652E4CF02F0E4CF01F0E4CF00F0E7
:104D7000E4CFD9FF1200D8CFE5FFE0CFE5FFE56E25
:104D8000F3CFE5FFF4CFE5FFE9CFE5FFEACFE5FF9D
:104D9000FACFE5FFFBCFE5FFADEC0BF0E4CFFBFF77
:104DA000E4CFFAFFE4CFEAFFE4CFE9FFE4CFF4FF7A
:104DB000E4CFF3FFE450E4CFE0FFE4CFD8FF1000EE
:104DC00000C0E5FF01C0E5FF02C0E5FF2FEC25F0C4
:104DD000010A13E10F0E016E230E006E800E026EAB
:104DE0002FEC25F0E56E0250E56E0150E56E0050A7
:104DF000E56E1DEC22F0040EE126E4CF02F0E4CFD4
:104E000001F0E4CF00F0120000C0E5FF430E030103
:104E1000666F640E676F470E686F4F0E696F04010F
:104E20000051006E300E0026005003016A6F0A0E1A
:104E30006B6F060EE56E800EE56E030EE56E660E78
:104E4000E56E01EC15F0040EE126E4CF00F012004F
:104E5000D9CFE5FFE1CFD9FF00C0E5FF020EDBCFE0
:104E600000F0030EDBCFA8FF00C0A9FFA69EA69C02
:104E7000A684F29EF29C550EA76EAA0EA76EA6827D
:104E8000A6A202D00000FCD7A694F28EF28CE4CF4A
:104E900000F0E4CFD9FF1200E8AE0AD0F3CFEAFF6A
:104EA000EE50EECFF3FFEECFF4FFEECFE9FF1200AE
:104EB000E8BC29EF2AF0E9CFF6FFF3CFF7FFF86E51
:104EC0000900F5500900F5CFF3FF0900F5CFF4FF15
:104ED0000900F5CFE9FF120000C0E5FF01C0E5FFC2
:104EE000040112510401131902E1E86A0FD0000E07
:104EF00004011325006E016A010E012200C0E9FFC2
:104F000001C0EAFFEFCF00F0132B0050E4CF01F017
:104F1000E4CF00F01200F2CFEAFFF29EA69EA69C1C
:104F2000A684E9CFA9FFF3CFAAFFE4CFA8FFCDEC79
:104F300029F0F4CFA8FFCDEC29F0F6CFA8FFCDECF7
:104F400029F0F7CFA8FFCDEC29F0A694EABEF28EA7
:104F50001200F2CFF6FFF29EA69EA69CE9CFA9FF13
:104F6000F3CFAAFFA680A850A94AAA2AA680A8CF54
:104F7000F3FFA94AAA2AA680A8CFF4FFA94AAA2A21
:104F8000A680A8CFEAFFF6BEF28E1200E8AE08D0E7
:104F9000F3CFEAFFEE50EECFF3FFEECFF4FF1200B7
:104FA000E8BC31EF2AF0E9CFF6FFF3CFF7FFF86E58
:104FB0000900F5500900F5CFF3FF0900F5CFF4FF24
:104FC0001200F2CFEAFFF29EA69EA69CA684E9CF2D
:104FD000A9FFF3CFAAFFE4CFA8FFCDEC29F0F4CFCF
:104FE000A8FFCDEC29F0F6CFA8FFCDEC29F0A694D0
:104FF000EABEF28E1200D9CFE5FFE1CFD9FF00C0A3
:10500000E5FF020EDBCF00F000C016F40050E56EA5
:10501000000EE56A28EC27F0E652E652E4CF00F0F5
:10502000E4CFD9FF1200D9CFE5FFE1CFD9FF00C00F
:10503000E5FF020EDBCF00F0C69E00C0C9FFC6AE82
:1050400002D0E86803D049EC23F0E86AE4CF00F02E
:10505000E4CFD9FF1200F2CFF6FFF29EA69EA69CE7
:10506000E9CFA9FFF3CFAAFFA680A850A94AAA2A90
:10507000A680A8CFF3FFA94AAA2AA680A8CFF4FF4A
:10508000F6BEF28E120000000000000000000001D9
:1050900000000000000000000000FF00000000020F
:1050A00000020000004200000000000000000000BC
:1050B0000000000000C0E5FF01C0E5FF600E030135
:1050C000A425006E016A000E012200C0E9FF01C0A4
:1050D000EAFFEFCF00F00050E4CF01F0E4CF00F0A2
:1050E0001200D9CFE5FFE1CFD9FF00C0E5FF020EE6
:1050F000DBCF00F0610E005C05E37B0E005C02E29A
:10510000010E01D0E86AE4CF00F0E4CFD9FF12002D
:10511000430E03016C6F640E6D6F550E6E6F0A0EB9
:105120006F6F040EE56E800EE56E030EE56E6C0E7D
:10513000E56E01EC15F0040EE126120000C0E5FF5B
:1051400001C0E5FF94C300F095C301F00301943F53
:1051500001D0952B0050E56E60EC29F0E652E4CFCB
:1051600001F0E4CF00F01200D9CFE5FFE1CFD9FF85
:1051700000C0E5FF020EDBCF00F000C015F40050C8
:1051800004E16EEC29F09D9A9D98E4CF00F0E4CF05
:10519000D9FF1200E8AE06D0F3CFEAFFEE50EECF13
:1051A000F3FF1200E8BC27EF2AF0E9CFF6FFF3CFB8
:1051B000F7FFF86E0900F5500900F5CFF3FF120074
:1051C000F2CFEAFFF29EA69EA69CA684E9CFA9FF95
:1051D000F3CFAAFFE4CFA8FFCDEC29F0F4CFA8FFCE
:1051E000CDEC29F0A694EABEF28E120012EEFFF08A
:1051F00022EEFFF0F86AA68EA69CE9680E0EEA6E13
:105200000068000EED6A0050FDE1ABEC1FF006EC0B
:1052100000F0FFD7F2CFF6FFF29EA69EA69CE9CF44
:10522000A9FFF3CFAAFFA680A850A94AAA2AA68060
:10523000A8CFF3FFF6BEF28E1200F2CFEAFFF29E85
:10524000A69EA69CA684E9CFA9FFF3CFAAFFE4CF30
:10525000A8FFCDEC29F0A694EABEF28E1200E8AECB
:105260000BD0F3CFEAFFE4CFEEFFF4CFEEFFF6CFA3
:10527000EEFFF7CFEEFF1200E8BC2BEF2AF0120092
:10528000E8AE04D0F3CFEAFFEE501200E8BC25EF01
:105290002AF0E9CFF6FFF3CFF7FFF86E0900F550DB
:1052A0001200E8AE09D0F3CFEAFFE4CFEEFFF4CF6F
:1052B000EEFFF6CFEEFF1200E8BC33EF2AF012004B
:1052C000D9CFE5FFE1CFD9FF020EDBCFA9FFA69C26
:1052D000A69EA680A850E4CFD9FF1200ACA2FED7AC
:1052E0009480AE500000AE50AB98AB88AB869D8AE0
:1052F0009D98120025642000F2CFF6FFF29EA69E34
:10530000A69CE9CFA9FFF3CFAAFFA680A850F6BEBE
:10531000F28E1200E8AE07D0F3CFEAFFE4CFEEFF43
:10532000F4CFEEFF1200E8BC2FEF2AF01200700E4F
:10533000D36E9B8CFF0E9268936894689668626A3D
:10534000F19E120000C0E5FF0FEC23F0006E00504C
:1053500001E1FF00E4CF00F012000F01456B900E59
:105360000F01446F030E0F01436F0F01458F1200B1
:10537000E8AE05D0F3CFEAFFE4CFEEFF1200E8BCC1
:105380002DEF2AF01200D9CFE5FFE1CFD9FF020EB1
:10539000DBCF1BF4E4CFD9FF1200550EA76EAA0E87
:1053A000A76EA682A6B2FED7A94AAA2A010E0301B9
:1053B0009E6F1C0E0301946F956B120049EC23F055
:1053C0009E96C58AC5889EA6FED712003F065B4FF3
:1053D000666D7D077F6F777C395E797103019E6B07
:1053E0001C0E0301946F956B1200010086500000A3
:1053F000000400002D00000049EC23F0C582C5B276
:10540000FED71200C7A002D0010E01D0E86A120038
:10541000D2EC25F020EC24F01200ACA2FED7AD6E49
:10542000120097EC29F01200BDEC1AF012000301F3
:10543000A45112000301AE511200040115511200D3
:10544000E8CF7FFF1200C96E12007CEF29F00AEF4F
:1054500029F0A9EF27F08BEF27F01DEF29F0E0EFFF
:0A54600028F02BEF28F0E1EF27F011
:020000040030CA
:010006008574
:00000001FF
