:020000040000FA
:1000000017EF28F0C69A120073EF22F0ABEC08F05D
:10001000B9EC13F0FDD71200DDEF25F0D9CFE5FFE5
:10002000E1CFD9FF00C0E5FF01C0E5FF02C0E5FF59
:1000300003C0E5FF04C0E5FF05C0E5FF06C0E5FF1E
:1000400007C0E5FF08C0E5FF09C0E5FF0AC0E5FFFE
:100050000BC0E5FF0CC0E5FF0DC0E5FF0EC0E5FFDE
:100060000FC0E5FF10C0E5FF11C0E5FF12C0E5FFBE
:1000700013C0E5FF14C0E5FF15C0E5FF16C0E5FF9E
:1000800017C0E5FF18C0E5FF19C0E5FF1AC0E5FF7E
:100090001BC0E5FF1CC0E5FF1DC0E5FF1EC0E5FF5E
:1000A000020EDBCF00F0030EDBCF01F0040EDBCF3E
:1000B00002F0050EDBCF03F0060EDBCF04F0070ED7
:1000C000DBCF05F0080EDBCF06F0090EDBCF07F023
:1000D0000A0EDBCF08F0096A0A6A02C00DF00D5063
:1000E000800A0DE1025003018E6F01508D6F0050A8
:1000F0008C6F030E016E8C0E006E800E026E03C0BC
:10010000E9FF04C0F3FF055061EC28F00B6E0B50C3
:10011000D8B4C4EF03F00B50250A02E0ABEF03F0B4
:100120000C6A0D6A0E6A0F6A106A0A0E116E126A64
:10013000136A146A200E156E1668176A2B0E186E55
:10014000032A02E3044A052A03C0E9FF04C0F3FFBF
:10015000055061EC28F0196E250A13E11950E56E7F
:100160000250E56E0150E56E0050E56E61EC15F051
:10017000040EE126094A0A2A032A02E3044A052A50
:10018000BED71950300A06E1300E156E032A02E37D
:10019000044A052A03C0E9FF04C0F3FF055061ECDF
:1001A00028F02D0A06E1010E146E032A02E3044A28
:1001B000052A03C0E9FF04C0F3FF055061EC28F0F5
:1001C000200A08E1010E176E200E186E032A02E3C2
:1001D000044A052A03C0E9FF04C0F3FF055061EC9F
:1001E00028F02B0A06E1010E176E032A02E3044AE7
:1001F000052A03C0E9FF04C0F3FF055061EC28F0B5
:10020000196E310E195C2BE33A0E195C28E203C01B
:1002100019F004C01AF005C01BF019C0E9FF1AC09C
:10022000F3FF1B5061EC28F01C6E300E1C5C11E3D8
:100230003A0E1C5C0EE213500A0DF3CF1DF01C5059
:100240001D26D00E1D24136E192A02E31A4A1B2AFA
:10025000E4D719C003F01AC004F01BC005F003C0B6
:10026000E9FF04C0F3FF055061EC28F02E0A2DE1F0
:10027000032A02E3044A052A166A03C019F004C0DF
:100280001AF005C01BF019C0E9FF1AC0F3FF1B509C
:1002900061EC28F01C6E300E1C5C11E33A0E1C5C05
:1002A0000EE216500A0DF3CF1DF01C501D26D00E85
:1002B0001D24166E192A02E31A4A1B2AE4D719C014
:1002C00003F01AC004F01BC005F003C0E9FF04C02E
:1002D000F3FF055061EC28F0196E6C0A07E1010E7E
:1002E0000C6E032A02E3044A052A09D01950680A51
:1002F00006E1010E0E6E032A02E3044A052A03C03A
:10030000E9FF04C0F3FF055061EC28F0750A06E12F
:10031000010E106E032A02E3044A052A03C0E9FF16
:1003200004C0F3FF055061EC28F0196E730A05E173
:10033000010E0D6E200E156E3FD01950780A03E1A4
:10034000100E116E39D01950580A05E1100E116EB9
:10035000010E126E31D01950630A02E1116A2CD0DD
:1003600019506F0A03E1080E116E26D01950660A63
:1003700003E1010E0F6E20D01950640A1DE01950E0
:10038000690A1AE0105005E0FF0E03260422052238
:1003900013D01950E56E0250E56E0150E56E005025
:1003A000E56E61EC15F0040EE126094A0A2A032ADB
:1003B00002E3044A052AA3D60D5021E00650030F9C
:1003C0000D6E000E0720196E000E08201A6E0DC06B
:1003D00006F019C007F01AC008F0FD0E0D26FF0E3A
:1003E00019221A220DC0E9FF19C0F3FF1A50E8ECD8
:1003F00026F00D6EF3CF19F0F4CF1AF0FDD00F50A8
:100400000DE0000E1A6E080E196E100E0D6E040E21
:100410000626000E072208221668EED016680C5039
:1004200023E00650040F0C6E000E07200F6E000E26
:1004300008201B6E0CC006F00FC007F01BC008F0B0
:10044000FC0E0C26FF0E0F221B220CC0E9FF0FC072
:10045000F3FF1B506EEC26F00C6EF3CF0FF0F4CFD1
:100460001BF0E9CF1CF067D00E502FE00650020FB2
:100470000E6E000E07201D6E000E08201E6E0EC0B0
:1004800006F01DC007F01EC008F0FE0E0E26FF0E7F
:100490001D221E220EC0E9FF1DC0F3FF1E50EBEC13
:1004A00027F00E6E0EC00CF00F6A1B6A1C6A11500A
:1004B0000A0A03E11050D8B43ED00C500E6E0EC0A4
:1004C0000CF00F6A1B6A1C6A36D00650020F0E6EC3
:1004D000000E07201D6E000E08201E6E0EC006F0D6
:1004E0001DC007F01EC008F0FE0E0E26FF0E1D22D6
:1004F0001E220EC0E9FF1DC0F3FF1E50EBEC27F0DB
:100500000E6EF3CF1DF00EC00CF01DC00FF0E86AA8
:100510001DBEFF0E1B6E1C6E11500A0A02E1105028
:100520000AE00C500E6E0F501D6E0EC00CF01DC078
:100530000FF01B6A1C6A040E196EF40E0D6E800E0D
:100540001A6E1150D8B440D0105013E01150E56E1F
:10055000040EE56EF40EE56E1C50E56E1B50E56E64
:100560000F50E56E0C50E56EDAEC0DF0070EE1264B
:1005700012D01150E56E040EE56EF40EE56E1C50BF
:10058000E56E1B50E56E0F50E56E0C50E56EDBEC32
:100590001AF0070EE12617502FE00DC0E9FF19C031
:1005A000F3FF1A5061EC28F02D0A26E0FF0E0D260D
:1005B00019221A2218C0E5FF0DC0E9FF19C0F3FF88
:1005C0001A50D9EC28F018D00CC0E5FF0DC0E9FF97
:1005D00019C0F3FF1A50D9EC28F00D50010F0C6E22
:1005E000000E19200E6E000E1A20E56A0CC0E9FFFD
:1005F0000EC0F3FFD9EC28F00DC00CF019C00EF0BE
:100600001AC00FF013C010F0105010E00CC0E9FF3A
:100610000EC0F3FF0F5061EC28F0176E175006E084
:100620000C2A02E30E4A0F2A1006EED710C013F070
:1006300014501EE109C00CF00AC00EF010C00FF0FB
:100640000F5010E01550E56E0250E56E0150E56E5A
:100650000050E56E61EC15F0040EE1260C4A0E2AFE
:100660000F06EED70CC009F00EC00AF00FC013F051
:1006700016C00CF00DC00DF019C00EF01AC00FF02E
:1006800009C010F00AC015F00DC0E9FF0EC0F3FF5D
:100690000F5061EC28F0166E1650D8B43ED00CC046
:1006A00016F0176A161E171E1650171005E00CC01C
:1006B00016F00C06165031E00DC0E9FF0EC0F3FF36
:1006C0000F5061EC28F0116E125010E01150E56EE1
:1006D0007CEC27F0166EE652165004E0DF0E111483
:1006E000166E02D011C016F016C011F01150E56E52
:1006F0000250E56E0150E56E0050E56E61EC15F0BC
:10070000040EE1260D2A02E30E4A0F2A104A152A8A
:100710001350D8B4B9D71306B7D710C009F015C015
:100720000AF014502BE010C00CF015C00DF013C0EF
:100730000EF00E501FE0200EE56E0250E56E0150E7
:10074000E56E0050E56E61EC15F0040EE1260C4AF2
:100750000D2A0E06EED70B50E56E0250E56E0150E5
:10076000E56E0050E56E61EC15F0040EE126094AD5
:100770000A2A04D00CC009F00DC00AF0032A02E3D3
:10078000044A052A7FEF00F00AC0F3FF0950E4CFC6
:100790001EF0E4CF1DF0E4CF1CF0E4CF1BF0E4CF5B
:1007A0001AF0E4CF19F0E4CF18F0E4CF17F0E4CF5B
:1007B00016F0E4CF15F0E4CF14F0E4CF13F0E4CF5B
:1007C00012F0E4CF11F0E4CF10F0E4CF0FF0E4CF5B
:1007D0000EF0E4CF0DF0E4CF0CF0E4CF0BF0E4CF5B
:1007E0000AF0E4CF09F0E4CF08F0E4CF07F0E4CF5B
:1007F00006F0E4CF05F0E4CF04F0E4CF03F0E4CF5B
:1008000002F0E4CF01F0E4CF00F0E4CFD9FF120012
:100810003C4E4F20464C4F41543E000000C0E5FF87
:1008200001C0E5FF02C0E5FF03C0E5FF04C0E5FF2E
:1008300005C0E5FF06C0E5FF07C0E5FF08C0E5FF0E
:1008400009C0E5FF0AC0E5FFC2A204D004011B51A4
:1008500049EF06F004011C51D8B431D104011B51F9
:10086000020DF450016EF3CF00F0E00E0026000EF2
:10087000012200C0E9FF01C0EAFFEECF00F0EFCF98
:1008800001F0400E1B25026E036A030E032202C014
:10089000E9FF03C0EAFFEFCF02F00250FF0A01E1D7
:1008A00066D002380F0B036E920E0324046E056AA5
:1008B0000F0E0522066A920E03260F0E062203C0B3
:1008C000E9FF06C0EAFFEFCF03F00250066E070E05
:1008D0000616010E076E06500DE006E6E86CD8908D
:1008E0000736010FFDE306D0D89007BED880073247
:1008F000010FFBE3071C066E0350061604C0E9FF58
:1009000005C0EAFF06C0EFFF02380F0B036E890E29
:100910000324046E056A0F0E0522066A890E03265B
:100920000F0E062203C0E9FF06C0EAFFEFCF03F077
:100930000250066E070E0616010E076E06500DE0F9
:1009400006E6E86CD8900736010FFDE306D0D89094
:1009500007BED8800732010FFBE3071C066E035069
:10096000061604C0E9FF05C0EAFF06C0EFFF040158
:100970001B51020DF450046EF3CF03F0E00E03267A
:10098000000E042200380F0B056E0138066EF00BC6
:10099000061A052606320532F80E06B4062605505C
:1009A000005C056E06500158066EC3CF07F0086A5A
:1009B0000750052608500622C4CF07F0086A0750E2
:1009C0000A6E096A095005260A50062203C0E9FF8B
:1009D00004C0EAFF05C0EEFF06C0EFFF0401175197
:1009E000010A01E06AD004011B51020DF450046EAB
:1009F000F3CF03F0E00E0324056E000E0420066E14
:100A000005C0E9FF06C0EAFFEECF00F0EFCF01F02E
:100A1000B30E0326040E042203C0E9FF04C0EAFF5C
:100A2000EECF05F0EFCF06F09C0E0526D8A0060607
:100A30000150800FF36E0650800FF35C02E1055009
:100A4000005C0EE20050640F056E000E0120066E81
:100A500003C0E9FF04C0EAFF05C0EEFF06C0EFFFD8
:100A600004011B51020DF450046EF3CF03F0D30EBA
:100A70000326040E042203C0E9FF04C0EAFFEECF00
:100A800005F0EFCF06F0640E0526D8B0062A065012
:100A9000800FF36E0150800FF35C02E10050055CA3
:100AA0000CE29C0E0026D8A0010603C0E9FF04C09A
:100AB000EAFF00C0EEFF01C0EFFF04011C6B040160
:100AC0001B2B100E1B5D01E31B6B04011B39E8445B
:100AD0001F0B006E016A950E0026030E012200C056
:100AE000E9FF01C0EAFFEFCF00F01BC401F0070EE1
:100AF0000116010E036E000E046E015006E0E86C54
:100B0000D89003360436010FFCE3056A0050031643
:100B10000550041603500410D880E866D890036A84
:100B200003360350D8A4B3D0500E04011B25006E29
:100B3000016A030E012200C0E9FF01C0EAFFEFCF06
:100B400000F00044E844FC0B016E0128C26E400E28
:100B50001B25006E016A030E012200C0E9FF01C0DF
:100B6000EAFFEFCF02F00250FF0A01E18CD0023819
:100B70000F0B006E920E0024016E036A0F0E03220B
:100B8000046A920E00260F0E042200C0E9FF04C082
:100B9000EAFFEFCF00F00250046E070E0416010EBC
:100BA000056E04500DE006E6E86CD8900536010F9E
:100BB000FDE306D0D89005BED8800532010FFBE3D7
:100BC0000050051201C0E9FF03C0EAFF05C0EFFFB6
:100BD000380E006E0F0E016E02380F0B036E046AA2
:100BE0000350002604500122380E056E0F0E066ECB
:100BF000055003260650042203C0E9FF04C0EAFFA3
:100C0000EFCF03F0070E0216010E046E02500DE046
:100C100006E6E86CD8900436010FFDE306D0D890C4
:100C200004BED8800432010FFBE30350041200C05D
:100C3000E9FF01C0EAFF04C0EFFF0F014583000098
:100C4000000045930F0144930BC0E5FFF2CF0BF07A
:100C5000F29E44810000000000000000000000003F
:100C60000000000000000000000000000000000084
:100C700000000000000000000000000044910BBED6
:100C8000F28EE4CF0BF0C282010E04011C6F04014E
:100C90001B51E4CF0AF0E4CF09F0E4CF08F0E4CF31
:100CA00007F0E4CF06F0E4CF05F0E4CF04F0E4CFA2
:100CB00003F0E4CF02F0E4CF01F0E4CF00F0120043
:100CC00000C0E5FF01C0E5FF02C0E5FF03C0E5FF8E
:100CD00004C0E5FF05C0E5FF06C0E5FF07C0E5FF6E
:100CE00008C0E5FF09C0E5FF0AC0E5FF0BC0E5FF4E
:100CF0000CC0E5FF006A016A026A040E025CD8B00B
:100D0000ECD101C003F0012A100E035CD8B0E5D18C
:100D100004011D2B100E1D5D01E31D6B04011D3927
:100D2000E8441F0B036E046A950E0326030E04228B
:100D300003C0E9FF04C0EAFFEFCF03F01DC404F0D5
:100D4000070E0416010E056E000E066E045006E036
:100D5000E86CD89005360636010FFCE3076A0350AD
:100D600005160750061605500610D880E866D8907C
:100D7000056A05360550D8A4C0D704011D51020DDF
:100D8000F450046EF3CF03F0E00E0324056E000E62
:100D90000420066E05C0E9FF06C0EAFFEECF05F0AD
:100DA000EFCF06F01AC407F007A09DD0B30E0324BE
:100DB000076E040E0420086E07C0E9FF08C0EAFFB2
:100DC000EECF07F0EFCF08F00650800FF36E08501B
:100DD000800FF35C02E10750055C03E2056A066AD6
:100DE00060D0D30E0326040E042203C0E9FF04C022
:100DF000EAFFEECF03F0EFCF04F00450800FF36E64
:100E00000650800FF35C02E10550035C04E20568C4
:100E10003F0E066E46D00750055C096E0850065816
:100E20000A6EE86A0ABEFF0E0B6EE56E0B50E56EA9
:100E30000A50E56E0950E56EE56AE56A400EE56E1A
:100E4000000EE56AD0EC0CF0096EF3CF0AF0F4CF97
:100E50000BF0E9CF0CF0080EE1260750035C076E9B
:100E600008500458086EE86A08BEFF0E036EE56E6F
:100E70000350E56E0850E56E0750E56E0C50E56EC8
:100E80000B50E56E0A50E56E0950E56E29EC13F043
:100E9000036EF3CF04F0080EE1260350056E0450F4
:100EA000066E04011951800FF36E0650800FF35C3B
:100EB00002E10550185D03E3056A066A14D00401D7
:100EC0001851FF08036E3F0E1955046E0650800F2F
:100ED000F36E0450800FF35C02E10350055C03E302
:100EE00005683F0E066E04011D51020DF450046E9C
:100EF000F3CF03F0930E0326040E042203C0E9FF90
:100F000004C0EAFFEECF03F0EFCF04F00350055C1E
:100F1000036E04500658046ED88004AED89004E3E3
:100F2000041E036CD8B4042A022A04011951800F4C
:100F3000F36E0450800FF35C02E10350185DD8B0EB
:100F4000DCD604011D51020DF450086EF3CF07F0FA
:100F5000930E0726040E082207C0E9FF08C0EAFF27
:100F600005C0EEFF06C0EFFF1AC407F007A459D072
:100F70001D51020DF450086EF3CF07F0000E072448
:100F8000096E030E08200A6E09C0E9FF0AC0EAFFD5
:100F9000EECF0BF0EFCF0CF00B500C10D8B441D0CB
:100FA0005C0E0726040E082207C0E9FF08C0EAFF0E
:100FB000EECF07F0EFCF08F00750055C036E085046
:100FC0000658046E03101CE00450800F800F02E1ED
:100FD000010E035C076A07360C50800F800F02E198
:100FE000010E0B5C0B6A0B3607500B1809E109C0A8
:100FF000E9FF0AC0EAFF03C0EEFF04C0EFFF7DD6A1
:1010000004011D51020DF450046EF3CF03F0000EE5
:101010000326030E042203C0E9FF04C0EAFFEE6AC0
:10102000EF6A1AC403F003A244D000500EE100C0DE
:1010300003F0002A046A1E0E0326040E042203C0D5
:10104000E9FF04C0EAFF420EEF6E00C003F0002A81
:10105000046A1E0E0326040E042204011D51076EAD
:10106000640E072603C0E9FF04C0EAFF07C0EFFFD4
:1010700000C003F0002A046A1E0E0326040E042298
:101080000650076E03C0E9FF04C0EAFF07C0EFFF88
:1010900000C003F0002A046A1E0E0326040E042278
:1010A0000550076E03C0E9FF04C0EAFF07C0EFFF69
:1010B00024D61DC403F00650E56E0550E56EE56AC2
:1010C0000350E56E000EE56E2D0EE56EDA0EE56E50
:1010D0008EEC20F0070EE12610D602C001F0005081
:1010E0001EE01AC402F002A21AD000C002F0002AC8
:1010F000036A1E0E0226040E032202C0E9FF03C08B
:10110000EAFF0A0EEF6E0050E56E800EE56E040EEB
:10111000E56E1E0EE56EEDEC15F0040EE1260150B5
:10112000E4CF0CF0E4CF0BF0E4CF0AF0E4CF09F009
:10113000E4CF08F0E4CF07F0E4CF06F0E4CF05F009
:10114000E4CF04F0E4CF03F0E4CF02F0E4CF01F009
:10115000E4CF00F0120000C0E5FF01C0E5FF02C0CF
:10116000E5FF03C0E5FF05C0E5FF29EC29F09492F7
:101170008B92939E8A9E29EC24F0F3CF01F0F4CF5A
:1011800002F0E9CF03F0880F04017C6F130E0120F9
:101190007D6F000E02207E6F000E03207F6F938212
:1011A000810E006E0F0E016E0F0E036E380E0026BC
:1011B000035001220F0E036E800E005E0350015A91
:1011C000810E026E0F0E036E0F0E056E380E022694
:1011D000055003220F0E056E800E025E0550035A65
:1011E00002C0E9FF03C0EAFFEFCF02F0029200C0A5
:1011F000E9FF01C0EAFF02C0EFFF9388810E006E95
:101200000F0E016E0F0E036E380E002603500122E2
:101210000F0E036E800E005E0350015A810E026EA7
:101220000F0E036E0F0E056E380E022605500322B8
:101230000F0E056E800E025E0550035A02C0E9FFD4
:1012400003C0EAFFEFCF02F0029800C0E9FF01C03F
:10125000EAFF02C0EFFF938A810E006E0F0E016E4F
:101260000F0E036E380E0026035001220F0E036E80
:10127000800E005E0350015A810E026E0F0E036E47
:101280000F0E056E380E0226055003220F0E056E56
:10129000800E025E0550035A02C0E9FF03C0EAFF58
:1012A000EFCF02F0029A00C0E9FF01C0EAFF02C0DE
:1012B000EFFF9384810E006E0F0E016E0F0E036E12
:1012C000380E0026035001220F0E036E800E005EC2
:1012D0000350015A810E026E0F0E036E0F0E056E43
:1012E000380E0226055003220F0E056E800E025E98
:1012F0000550035A02C0E9FF03C0EAFFEFCF02F036
:10130000029400C0E9FF01C0EAFF02C0EFFF93862C
:10131000810E006E0F0E016E0F0E036E380E00264A
:10132000035001220F0E036E800E005E0350015A1F
:10133000810E026E0F0E036E0F0E056E380E022622
:10134000055003220F0E056E800E025E0550035AF3
:1013500002C0E9FF03C0EAFFEFCF02F0029600C02F
:10136000E9FF01C0EAFF02C0EFFF70EC16F09280C7
:10137000800E006E0F0E016E0F0E036E380E0026EB
:1013800003500122800E026E0F0E036E800E005E6F
:101390000350015A0F0E056E380E02260550032227
:1013A0000F0E056E800E025E0550035A02C0E9FF63
:1013B00003C0EAFFEFCF02F0028000C0E9FF01C0E6
:1013C000EAFF02C0EFFF000EE56AE56A9FEC19F044
:1013D000E652E652270EE56EE56A080EE56E01EC70
:1013E00012F0030EE126700EE56E800EE56E0F0E14
:1013F000E56E230EE56EFCEC1DF0040EE126060EF4
:10140000E56E800EE56E0F0EE56E230EE56E0DECBB
:1014100021F0040EE126400EE56EE56A800EE56ED1
:101420000F0EE56E230EE56EC7EC1FF0050EE126EC
:10143000400EE56E010EE56E800EE56E0F0EE56E58
:10144000230EE56EC7EC1FF0050EE126E56A020EDD
:10145000E56E800EE56E0F0EE56E230EE56EC7ECB1
:101460001FF0050EE126400EE56E030EE56E800EC0
:10147000E56E0F0EE56E230EE56EC7EC1FF0050E50
:10148000E126400EE56E040EE56E800EE56E0F0E51
:10149000E56E230EE56EC7EC1FF0050EE126800E0B
:1014A000E56E0F0EE56E230EE56E56EC18F0030E9A
:1014B000E126E4CF05F0E4CF03F0E4CF02F0E4CF7F
:1014C00001F0E4CF00F0120043732025642025646E
:1014D0002025640A0000430025630000800EE56EAD
:1014E000040EE56ED30EE56E4DEC1EF0030EE12604
:1014F000800EE56E040EE56EB30EE56E4DEC1EF04B
:10150000030EE126800EE56E040EE56ED50EE56E47
:101510004DEC1EF0030EE126800EE56E040EE56E26
:10152000B50EE56E4DEC1EF0030EE126800EE56E65
:10153000040EE56ED70EE56E4DEC1EF0030EE126AF
:10154000800EE56E040EE56EB70EE56E4DEC1EF0F6
:10155000030EE126800EE56E040EE56ED90EE56EF3
:101560004DEC1EF0030EE126800EE56E040EE56ED6
:10157000B90EE56E4DEC1EF0030EE126800EE56E11
:10158000040EE56EDB0EE56E4DEC1EF0030EE1265B
:10159000800EE56E040EE56EBB0EE56E4DEC1EF0A2
:1015A000030EE126800EE56E040EE56EDD0EE56E9F
:1015B0004DEC1EF0030EE126800EE56E040EE56E86
:1015C000BD0EE56E4DEC1EF0030EE126800EE56EBD
:1015D000040EE56EDF0EE56E4DEC1EF0030EE12607
:1015E000800EE56E040EE56EBF0EE56E4DEC1EF04E
:1015F000030EE126800EE56E040EE56EE10EE56E4B
:101600004DEC1EF0030EE126800EE56E040EE56E35
:10161000C10EE56E4DEC1EF0030EE126800EE56E68
:10162000040EE56EE30EE56E4DEC1EF0030EE126B2
:10163000800EE56E040EE56EC30EE56E4DEC1EF0F9
:10164000030EE126800EE56E040EE56EE50EE56EF6
:101650004DEC1EF0030EE126800EE56E040EE56EE5
:10166000C50EE56E4DEC1EF0030EE126800EE56E14
:10167000040EE56EE70EE56E4DEC1EF0030EE1265E
:10168000800EE56E040EE56EC70EE56E4DEC1EF0A5
:10169000030EE126800EE56E040EE56EE90EE56EA2
:1016A0004DEC1EF0030EE126800EE56E040EE56E95
:1016B000C90EE56E4DEC1EF0030EE126800EE56EC0
:1016C000040EE56EEB0EE56E4DEC1EF0030EE1260A
:1016D000800EE56E040EE56ECB0EE56E4DEC1EF051
:1016E000030EE126800EE56E040EE56EED0EE56E4E
:1016F0004DEC1EF0030EE126800EE56E040EE56E45
:10170000CD0EE56E4DEC1EF0030EE126800EE56E6B
:10171000040EE56EEF0EE56E4DEC1EF0030EE126B5
:10172000800EE56E040EE56ECF0EE56E4DEC1EF0FC
:10173000030EE126800EE56E040EE56EF10EE56EF9
:101740004DEC1EF0030EE126800EE56E040EE56EF4
:10175000D10EE56E4DEC1EF0030EE126120000C026
:10176000E5FF01C0E5FF02C0E5FF03C0E5FF04019E
:101770001451D8B40CD19DA81DD09EA81BD0030134
:10178000A15103019E1905E18FEC28F003019E6B26
:10179000FED0000E0301A125006E016A0F0E01228A
:1017A00000C0E9FF01C0EAFFEFCF9AF3A12B9AC373
:1017B000ADFFEDD09DAAEBD09EAAE9D0ABA205D09B
:1017C00003019F818FEC28F0E2D0ABA405D0030188
:1017D0009F838FEC28F0DBD0ABA048D0AECF9AF33C
:1017E00015C400F0016A008E9AC302F0036A025029
:1017F000001803E10350011801E004D003019F89A0
:10180000AB96C5D003019A5104E09A510401151911
:1018100029E103019F99AB9603019A5103E003016B
:101820009F9702D003019F879AC3A3F39CC3A4F39D
:1018300003019C51006E00040301A56F600E0301BB
:10184000A425006E016A000E012200C0E9FF01C05C
:10185000EAFF9AC3EFFFA42BA451800A02E103011F
:10186000A46B95D003019F99AB8691D0AECF9AF32C
:1018700003019FA921D015C400F0016A008E9AC30C
:1018800002F0036A0250001803E10350011801E05E
:1018900011D09D9AAB98949003019E5104E1AD6ADA
:1018A0008FEC28F007D000CFADFF010E0301A16F30
:1018B0009D886DD0AB866BD003019A510301A3279D
:1018C0000301A4510301A5191BE10301A3510CE17C
:1018D000A4C39CF303019FB712D09D9AAB98949038
:1018E000AD6A8FEC28F00BD003019F859FB707D01E
:1018F0009D9AAB989490010EAD6E8FEC28F047D076
:101900000301A45103019D1908E103019D51030145
:101910009C1903E08FEC28F03AD09CC300F0016AD8
:10192000004A012AE56A800EE56E0150E56E00501E
:10193000E56EC5EC18F0006E040EE12600500301C0
:101940009B6F0301A4190FE19AC300F01F0E00144E
:101950000301A56F006E020E0024A56F03019C51C8
:101960000301A527A59FA4C300F00301A42B016ACE
:10197000600E0026000E012200C0E9FF01C0EAFF50
:101980009AC3EFFFA451800A02E10301A46BE4CFE4
:1019900003F0E4CF02F0E4CF01F0E4CF00F0120056
:1019A000D9CFE5FFE1CFD9FF00C0E5FF01C0E5FFDA
:1019B00002C0E5FF03C0E5FF04C0E5FF05C0E5FF89
:1019C00006C0E5FF07C0E5FF020EDBCF00F0030E07
:1019D000DBCF01F0040EDBCF02F0050EDBCF03F00E
:1019E000060EDBCF04F0070EDBCF05F0080EDBCFD1
:1019F00006F0090EDBCF07F000500301756F0150B0
:101A0000766F0250776F0350786F04500301796F3F
:101A100005507A6F06507B6F07507C6F030175513C
:101A200003017B03F4CF01F0F3CF00F0005003017A
:101A30007F6F0150806F0301755103017903F4CF6B
:101A400001F0F3CF00F0005003017D6F01507E6F75
:101A50000301785103017903F3CF00F003018051B2
:101A600000260050806F0301775103017A03F3CF02
:101A700001F00150002600500301806F03017751EF
:101A800003017903F4CF01F0F3CF00F003017F519C
:101A900000268051012200507F6F0150806F0301AA
:101AA000765103017A03F4CF03F0F3CF02F0025032
:101AB000002603500122005003017F6F0150806F08
:101AC0000301765103017B03F3CF00F000500301C3
:101AD000846F0301765103017903F4CF01F0F3CF52
:101AE00000F000500301826F0150836F03017551B4
:101AF00003017C03F3CF00F000500301886F030162
:101B0000755103017A03F4CF01F0F3CF00F00050D8
:101B10000301866F0150876F0301816B0301856BA1
:101B20000301815103017D25006E030182510301F0
:101B30007E21016E0301835103017F21026E0301A7
:101B4000845103018021036E00507D6F01507E6F30
:101B500002507F6F0350806F0301855103017D2583
:101B6000006E0301865103017E21016E030187513E
:101B700003017F21026E0301885103018021036E5E
:101B800003C0E9FF02C0F4FF01C0F3FF0050E4CF3F
:101B900007F0E4CF06F0E4CF05F0E4CF04F0E4CFA3
:101BA00003F0E4CF02F0E4CF01F0E4CF00F0E4CFA3
:101BB000D9FF1200D9CFE5FFE1CFD9FF00C0E5FF83
:101BC00001C0E5FF02C0E5FF03C0E5FF04C0E5FF7B
:101BD00005C0E5FF06C0E5FF07C0E5FF08C0E5FF5B
:101BE00009C0E5FF0AC0E5FF0BC0E5FF0CC0E5FF3B
:101BF0000DC0E5FF0EC0E5FF0FC0E5FF020EDBCF15
:101C000000F0030EDBCF01F0040EDBCF02F0050E77
:101C1000DBCF03F0060EDBCF04F0070EDBCF05F0C1
:101C2000080EDBCF06F0200E076E086A06C009F02A
:101C30000A6A0B6A0C6AE56AE56AE56A0950E56EAC
:101C40000350E56E0250E56E0150E56E0050E56E02
:101C5000CFEC10F00D6E080EE126300E0D263A0E78
:101C60000D5C05E30D500E6E270E0E240D6EFF0E5B
:101C700007260822200E07240E6E030E08200F6E82
:101C80000EC0E9FF0FC0EAFF0DC0EFFF0C50E56E7C
:101C90000B50E56E0A50E56E0950E56E0350E56E97
:101CA0000250E56E0150E56E0050E56E29EC13F030
:101CB000006EF3CF01F0F4CF02F0E9CF03F0080E8D
:101CC000E1260050011002100310D8A4AFD707C0BE
:101CD00000F008C001F004C002F005C003F000C02D
:101CE00004F001C005F0004A012A200E0426030E6C
:101CF000052204C0E9FF05C0EAFFEFCF04F002C0EF
:101D0000E9FF03C0EAFF04C0EFFF024A032A000E06
:101D1000015C02E1200E005CE2E302C0E9FF03C0C7
:101D2000EAFF000EEF6AE4CF0FF0E4CF0EF0E4CF4D
:101D30000DF0E4CF0CF0E4CF0BF0E4CF0AF0E4CFE9
:101D400009F0E4CF08F0E4CF07F0E4CF06F0E4CFE9
:101D500005F0E4CF04F0E4CF03F0E4CF02F0E4CFE9
:101D600001F0E4CF00F0E4CFD9FF1200D9CFE5FFB6
:101D7000E1CFD9FF00C0E5FF01C0E5FF02C0E5FFEC
:101D800003C0E5FF04C0E5FF05C0E5FF06C0E5FFB1
:101D900007C0E5FF08C0E5FF09C0E5FF0AC0E5FF91
:101DA000020EDBCF00F0030EDBCF01F0040EDBCF21
:101DB00002F0050EDBCF03F0060EDBCF04F0070EBA
:101DC000DBCF05F0040E066E0450800F590F02E1C0
:101DD000100E035C04E30F0E036E270E046E035017
:101DE0000410D8B448D003500410D8B454D006C05E
:101DF00007F0060605C008F0096AE56A0850E56EB6
:101E00000450E56E0350E56EC5EC18F00A6E040E42
:101E1000E126E56A0A50E56E0750E56E0250E56E70
:101E20000150E56E0050E56EE1EC17F0060EE1267C
:101E30000650020A10E106C007F00606E56A0750E0
:101E4000E56E0250E56E0150E56E0050E56EC7ECA0
:101E50001FF0050EE1260950E56E0850E56E0450AE
:101E6000E56E0350E56E6AEC17F0036EF3CF04F0F5
:101E7000040EE126B8D7030E066EE56AE56A040E85
:101E8000E56E0250E56E0150E56E0050E56EE1EC46
:101E900017F0060EE12606C003F0D88003AED890F6
:101EA00011E203C004F00306E56A0450E56E025037
:101EB000E56E0150E56E0050E56EC7EC1FF0050EB3
:101EC000E126EBD7E4CF0AF0E4CF09F0E4CF08F045
:101ED000E4CF07F0E4CF06F0E4CF05F0E4CF04F060
:101EE000E4CF03F0E4CF02F0E4CF01F0E4CF00F060
:101EF000E4CFD9FF120000C0E5FF01C0E5FF02C03A
:101F0000E5FF03C0E5FF000EE56A1CEC25F0006E5E
:101F1000F3CF01F0E652F00E0016003A013A011438
:101F2000011A002601320032F80E01B40126E86AD7
:101F300001BEFF0E026EE56E0250E56E0150E56EC9
:101F40000050E56EE56AE56A030EE56E2A0EE56E61
:101F5000D0EC0CF0F3CF01F0F4CF02F0E9CF03F0B6
:101F6000080EE1260150006E0250016ED890013239
:101F70000032D890013200320350E840E840C00BF4
:101F800001120340E8403F0BFB0E0026D8A00106DB
:101F90000150800F7D0F02E1210E005C04E3200E52
:101FA000006E030E016ED88001AED89002E3006A85
:101FB000016A04010E5120E003019151FE0F026EEF
:101FC000FF0E9221036E0150800FF36E0350800FBD
:101FD000F35C02E10250005C03E204010E6B2AD0C4
:101FE00003019251800FF36E0150800FF35C02E108
:101FF0000050915D1FE324D003019151020F026E46
:10200000000E9221800FF36E0150800FF35C02E10D
:102010000050025C04E2010E04010E6F0BD001506F
:10202000800FF36E03019251800FF35C02E1915136
:10203000005C06E200C091F301C092F33EEC1BF09D
:10204000E4CF03F0E4CF02F0E4CF01F0E4CF00F0FE
:10205000120000C0E5FF01C0E5FF02C0E5FF03C0BC
:10206000E5FF04C0E5FF03019D5103019C1901E157
:1020700078D09DC300F00050016E0128006E009ED4
:10208000600E0024016E026A000E022201C0E9FF08
:1020900002C0EAFFEFCFA7F31F0E0301A7179DC3EE
:1020A000A6F3A7510301A627A651016E020E012433
:1020B000A66FA69F53EC24F0016E015003E1016A64
:1020C000012A01D0016A53EC24F00301A76FA7C3D2
:1020D00002F0800E0216A7C303F01F0E031603C002
:1020E00004F003C0A7F3045003E19CC39DF34CD05C
:1020F00001502CE002501CE053EC24F0006E030170
:10210000A751016E0104A76F0050420A28E0005059
:102110004E0A03E10CEC20F022D00050460A03E105
:10212000C3EC28F01CD00050490A19E1FF0017D079
:1021300053EC24F0006E0301A751016E0104A76F58
:102140000050620A0CE1A6EC23F009D09DC3A8F36D
:10215000025003E052EC1CF002D002EC26F0A6C3C1
:102160009DF3040111510401121906E003019E516F
:1021700003E16CEC11F008D094B006D003019E513D
:1021800003E1ACB28FEC28F0E4CF04F0E4CF03F02D
:10219000E4CF02F0E4CF01F0E4CF00F01200D9CF99
:1021A000E5FFE1CFD9FF00C0E5FF01C0E5FF02C0B8
:1021B000E5FF03C0E5FF04C0E5FF05C0E5FF06C07D
:1021C000E5FF07C0E5FF08C0E5FF09C0E5FF0AC05D
:1021D000E5FF020EDBCF00F0030EDBCF01F0040EB3
:1021E000DBCF02F0050EDBCF03F0060EDBCF04F0F1
:1021F000070EDBCF05F0080EDBCF06F0090EDBCFB4
:1022000007F0086A045005100610071005E1E96898
:10221000F468F368E86847D0096A0750800BE8441F
:102220000A6E0A501BE104500426053606360736AE
:102230000750035C08E10650025C05E10550015CB3
:1022400002E10450005C06E2D89007320632053203
:10225000043204D0092A09C008F0DFD70750035C14
:1022600008E10650025C05E10550015C02E1045002
:10227000005C08E30450005E0550015A0650025A03
:102280000750035AD890073206320532043208C08C
:1022900009F008060950E2E103C0E9FF02C0F4FFBB
:1022A00001C0F3FF0050E4CF0AF0E4CF09F0E4CF1F
:1022B00008F0E4CF07F0E4CF06F0E4CF05F0E4CF78
:1022C00004F0E4CF03F0E4CF02F0E4CF01F0E4CF78
:1022D00000F0E4CFD9FF120000C0E5FF01C0E5FF28
:1022E00002C0E5FF03C0E5FF04C0E5FFACA27ED05D
:1022F0008EEC26F0006E005005E10401126B040123
:10230000116B74D012C401F0005001268EEC26F03F
:10231000026E0050036E0304006E0250230A1FE198
:10232000010E005CD8A060D08EEC26F0026E690A27
:1023300003E144EC23F058D00250720A03E18FEC21
:1023400028F052D00250730A01E04ED09480AB8640
:102350009D8A9D98AE50AE50AB98AB8845D0025048
:10236000430A05E00250420A01E03ED006D000C018
:1023700003F0046A038E0350006E00C0A0F3005007
:102380000F01006F010E0301A16F0401125101182A
:1023900014E08EEC26F0026E0301A027000E03016C
:1023A000A125006E036A0F0E032200C0E9FF03C0DF
:1023B000EAFF02C0EFFFA12BE8D7000E0301A12521
:1023C000006E026A0F0E02220301A01D036E032A93
:1023D00000C0E9FF02C0EAFF03C0EFFF0301A12B29
:1023E000A1C39EF30301986B01C012F4E4CF04F083
:1023F000E4CF03F0E4CF02F0E4CF01F0E4CF00F04B
:102400001200D9CFE5FFE1CFD9FF00C0E5FF01C041
:10241000E5FF02C0E5FF03C0E5FF04C0E5FF06C01D
:10242000E5FF020EDBCF00F0030EDBCF01F0040E60
:10243000DBCF02F03F0EC716C66AC56A0050C6124F
:102440000150C7129488820E006E0F0E016E0F0E9F
:10245000046E380E0026045001220F0E046E800E0A
:10246000005E0450015A820E036E0F0E046E0F0EB2
:10247000066E380E0326065004220F0E066E800EDE
:10248000035E0650045A03C0E9FF04C0EAFFEFCF21
:1024900003F0039800C0E9FF01C0EAFF03C0EFFFAB
:1024A0009486820E006E0F0E016E0F0E046E380EB3
:1024B0000026045001220F0E046E800E005E0450B0
:1024C000015A820E036E0F0E046E0F0E066E380E4A
:1024D0000326065004220F0E066E800E035E065081
:1024E000045A03C0E9FF04C0EAFFEFCF03F00396EC
:1024F00000C0E9FF01C0EAFF03C0EFFF02C0C8FF50
:10250000C6CF00F0008A0050C66E9E96A196E4CF1A
:1025100006F0E4CF04F0E4CF03F0E4CF02F0E4CF20
:1025200001F0E4CF00F0E4CFD9FF1200D9CFE5FFEE
:10253000E1CFD9FF00C0E5FF01C0E5FF02C0E5FF24
:1025400003C0E5FF04C0E5FF05C0E5FF06C0E5FFE9
:1025500007C0E5FF08C0E5FF09C0E5FF0AC0E5FFC9
:10256000020EDBCF00F0030EDBCF01F0040EDBCF59
:1025700002F0050EDBCF03F0060EDBCF04F0070EF2
:10258000DBCF05F00038E8441F0B066E076A950E96
:102590000626030E072206C0E9FF07C0EAFFEFCFB9
:1025A00008F00050096E070E0916010E0A6E095058
:1025B0000DE006E6E86CD8900A36010FFDE306D080
:1025C000D8900ABED8800A32010FFBE308500A12E5
:1025D00006C0E9FF07C0EAFF0AC0EFFF500E002463
:1025E000066E076A030E072206C0E9FF07C0EAFF6E
:1025F00001C0EFFF016A400E0026030E0122800E8B
:10260000025E070E02160238F00B036E070E051667
:102610000550032600C0E9FF01C0EAFF03C0EFFF39
:10262000E4CF0AF0E4CF09F0E4CF08F0E4CF07F0FC
:10263000E4CF06F0E4CF05F0E4CF04F0E4CF03F0FC
:10264000E4CF02F0E4CF01F0E4CF00F0E4CFD9FF13
:102650001200D9CFE5FFE1CFD9FF00C0E5FF01C0EF
:10266000E5FF02C0E5FF03C0E5FF04C0E5FF05C0CC
:10267000E5FF06C0E5FF07C0E5FF08C0E5FF09C0AC
:10268000E5FF0AC0E5FF0BC0E5FF0CC0E5FF0DC08C
:10269000E5FF020EDBCF00F0030EDBCF01F0040EEE
:1026A000DBCF02F0050EDBCF03F0060EDBCF04F02C
:1026B000070EDBCF05F0080EDBCF06F0090EDBCFEF
:1026C00007F0086A096A0A6A0B6A200E0C6E03504A
:1026D000800BE8440D6E00500026013602360336AA
:1026E0000850082609360A360B360D50D8A4088043
:1026F00007500B5C08E106500A5C05E10550095CD7
:1027000002E10450085C09E30450085E0550095AD0
:1027100006500A5A07500B5A00800C040D6E0DC06B
:102720000CF00D50D4E103C0E9FF02C0F4FF01C07A
:10273000F3FF0050E4CF0DF0E4CF0CF0E4CF0BF04A
:10274000E4CF0AF0E4CF09F0E4CF08F0E4CF07F0DB
:10275000E4CF06F0E4CF05F0E4CF04F0E4CF03F0DB
:10276000E4CF02F0E4CF01F0E4CF00F0E4CFD9FFF2
:10277000120000C0E5FF01C0E5FF02C0E5FF03C095
:10278000E5FF04C0E5FF29EC10F00EEC04F029ECA5
:1027900024F0006EF3CF01F0F4CF02F0E9CF03F0A4
:1027A00004017C51005E7D51015A7E51025A7F51D5
:1027B000035A039E3F0E035C08E1FF0E025C05E135
:1027C000FF0E015C02E1FF0E005CD8B055D00401A1
:1027D000073F01D0082B29EC24F0F3CF01F0F4CF10
:1027E00002F0E9CF03F0880F04017C6F130E012083
:1027F0007D6F000E02207E6F000E03207F6F60EC65
:1028000006F000C400F001C402F002C404F0E56A5E
:102810000050E56EE56A0250E56EE56A0450E56E2B
:10282000000EE56E140EE56EC80EE56E8EEC20F01F
:10283000090EE12629EC10F07BEC0FF029EC10F0EA
:102840000BEC1AF029EC10F004010751050A02E123
:10285000085101E008D00401076B086B040109511D
:10286000D8A4A9EC27F0ABEC22F004010651010A30
:1028700002E08A8E01D08A9EE4CF04F0E4CF03F018
:10288000E4CF02F0E4CF01F0E4CF00F0120000C08A
:10289000E5FF01C0E5FF03C0E5FF04C0E5FF05C09B
:1028A000E5FF06C0E5FF07C0E5FF08C0E5FF09C07A
:1028B000E5FF0AC0E5FF0BC0E5FF93C300F094C33A
:1028C00001F00301933F01D0942B0050E56E81ECA1
:1028D00028F0E652076E046A056A066A93C300F0A0
:1028E00094C301F00301933F01D0942B0050E56E97
:1028F00081EC28F0E6520B6A0A6E086A085004124E
:1029000005120A5006120B50071293C300F094C32D
:1029100001F00301933F01D0942B0050E56E81EC50
:1029200028F0E652036E006A03C001F0E86A03BEB5
:10293000FF0E086E096E0050041201500512085077
:1029400006120950071293C300F094C301F003016B
:10295000933F01D0942B0050E56E81EC28F0E652B5
:10296000016A0412015005120612071207C0E9FF9E
:1029700006C0F4FF05C0F3FF0450E4CF0BF0E4CF32
:102980000AF0E4CF09F0E4CF08F0E4CF07F0E4CF99
:1029900006F0E4CF05F0E4CF04F0E4CF03F0E4CF99
:1029A00001F0E4CF00F01200D9CFE5FFE1CFD9FF6D
:1029B00000C0E5FF01C0E5FF02C0E5FF03C0E5FF81
:1029C00004C0E5FF05C0E5FF06C0E5FF07C0E5FF61
:1029D000020EDBCF00F0030EDBCF01F0040EDBCFE5
:1029E00002F0050EDBCF03F003C004F0056A0350CC
:1029F000D8B454D000C0E9FF01C0F3FF025061EC2D
:102A000028F0066E430A08E1010E056E03C006F0C9
:102A1000076A068E0650036E0406002A02E3014A86
:102A2000022A9D9AAB9894909D989EA8FED7AC8060
:102A3000AD6A00009EA8FED7AC9003C0ADFF0000B9
:102A40009EA8FED7055004E0420EAD6E032604D0CA
:102A5000620EAD6E620E0326045015E000009EA8C3
:102A6000FED700C0E9FF01C0F3FF025061EC28F07F
:102A7000056E05C0ADFF055003260406002A02E3DB
:102A8000014A022AE9D700009EA8FED7031CAD6EBA
:102A9000AD2A00009EA8FED78FEC28F0E4CF07F007
:102AA000E4CF06F0E4CF05F0E4CF04F0E4CF03F088
:102AB000E4CF02F0E4CF01F0E4CF00F0E4CFD9FF9F
:102AC0001200D9CFE5FFE1CFD9FF00C0E5FF01C07B
:102AD000E5FF02C0E5FF03C0E5FF04C0E5FF05C058
:102AE000E5FF06C0E5FF07C0E5FF020EDBCF00F003
:102AF000030EDBCF01F0040EDBCF02F0050EDBCFBF
:102B000003F002C006F00650046E800A33E100C0F4
:102B1000E9FF01C0F3FF0250E8EC26F0056EF3CFA9
:102B200006F0F4CF07F003C0E5FF05C0E9FF06C0DB
:102B3000F3FF0750D9EC28F000C0E9FF01C0F3FF14
:102B40000250E8EC26F0056EF3CF06F0F4CF07F064
:102B5000052A02E3064A072A05C0E5FF06C0F4FF7E
:102B600007C0F6FF00C0E9FF01C0F3FF025072EC9E
:102B700028F020D004C000F000AA1CD0007A005039
:102B8000046E04E103502EEC29F014D00450010A25
:102B900004E1035044EC29F00DD004500F0A04E185
:102BA000035013EC23F006D004500E0A03E1035047
:102BB00041EC29F0E4CF07F0E4CF06F0E4CF05F0D4
:102BC000E4CF04F0E4CF03F0E4CF02F0E4CF01F06F
:102BD000E4CF00F0E4CFD9FF1200D9CFE5FFE1CF79
:102BE000D9FF00C0E5FF01C0E5FF02C0E5FF03C05B
:102BF000E5FF04C0E5FF05C0E5FF06C0E5FF07C02F
:102C0000E5FF020EDBCF00F0030EDBCF01F0040E78
:102C1000DBCF02F0050EDBCF03F012C413F4040186
:102C200011510401135F1351046E0404136F03C0A8
:102C300004F0056A030E0426D8B0052A13C406F072
:102C4000076A0750800FF36E0550800FF35C02E1B6
:102C50000450065C02E2E86830D0020E035C02E237
:102C6000E86A2BD00350046E0404036EE56E88EC12
:102C700021F0E652046A0350045C14E2045000247C
:102C8000056EE86A0120066EE86A022005C0E9FFC9
:102C900006C0F3FF61EC28F0042AE56E88EC21F011
:102CA000E652E9D712C413F4040111510401135F71
:102CB0001351006E0004136FE86AE4CF07F0E4CF0D
:102CC00006F0E4CF05F0E4CF04F0E4CF03F0E4CF66
:102CD00002F0E4CF01F0E4CF00F0E4CFD9FF12001E
:102CE00000C0E5FF01C0E5FF02C0E5FF03C0E5FF4E
:102CF00004C0E5FF006A950E0024016E026A030E0F
:102D0000022201C0E9FF02C0EAFFEF6A002A020EB8
:102D1000005CF1E3006A0050020DF450026EF3CF44
:102D200001F0E00E0124036E000E0220046E03C0C9
:102D3000E9FF04C0EAFFEE6AEF6A5C0E0124036E4D
:102D4000040E0220046E03C0E9FF04C0EAFFEE6A2D
:102D5000EF6A930E0124036E040E0220046E03C07A
:102D6000E9FF04C0EAFFEE6AEF6AB30E0124036EC6
:102D7000040E0220046E03C0E9FF04C0EAFFEE6AFD
:102D8000EF6AD30E0126040E022201C0E9FF02C041
:102D9000EAFFEE687F0EEF6E400E0024016E026ABD
:102DA000030E022201C0E9FF02C0EAFFEF68002A19
:102DB000100E005CD8A0AFD7AF0EC06EC16A010E76
:102DC000C26EC282E4CF04F0E4CF03F0E4CF02F09D
:102DD000E4CF01F0E4CF00F012004320412025644D
:102DE0002025640A0000D9CFE5FFE1CFD9FF00C05C
:102DF000E5FF01C0E5FF02C0E5FF03C0E5FF04C039
:102E0000E5FF05C0E5FF020EDBCF00F0030EDBCFD0
:102E100001F0040EDBCF02F00050020DF450036EFF
:102E2000F3CF00F05C0E0024046E040E0320056E48
:102E300004C0E9FF05C0EAFF01C0EEFF02C0EFFFDA
:102E4000930E0024046E040E0320056E04C0E9FFF7
:102E500005C0EAFFEECF04F0EFCF05F00150045CAF
:102E6000016E02500558026E000E0026030E03226A
:102E700000C0E9FF03C0EAFF01C0EEFF02C0EFFFA0
:102E8000D88002AED89004E3021E016CD8B4022AA6
:102E90000250800F800F02E1030E015C02E2016A22
:102EA000026A0150021007E100C0E9FF03C0EAFF17
:102EB000000EEE6AEF6AE4CF05F0E4CF04F0E4CF51
:102EC00003F0E4CF02F0E4CF01F0E4CF00F0E4CF70
:102ED000D9FF1200D9CFE5FFE1CFD9FF00C0E5FF50
:102EE00001C0E5FF02C0E5FF03C0E5FF04C0E5FF48
:102EF00005C0E5FF06C0E5FF07C0E5FF020EDBCF1A
:102F000000F0030EDBCF01F0040EDBCF02F0050E64
:102F1000DBCF03F0D88001AED890046A04360450A9
:102F200007E0011C066E001C056E054A062A04D047
:102F300000C005F001C006F0D88003AED890006A4A
:102F40000036005007E0031C076E021C016E014AA8
:102F5000072A04D002C001F003C007F00750E56E55
:102F60000150E56E0650E56E0550E56EAAEC1CF0CA
:102F7000016EF3CF02F0040EE1260050041A045053
:102F80000AE0021C036E011C006E004A032A03C003
:102F9000F3FF005003D002C0F3FF0150E4CF07F06D
:102FA000E4CF06F0E4CF05F0E4CF04F0E4CF03F083
:102FB000E4CF02F0E4CF01F0E4CF00F0E4CFD9FF9A
:102FC0001200D9CFE5FFE1CFD9FF00C0E5FF01C076
:102FD000E5FF02C0E5FF03C0E5FF04C0E5FF05C053
:102FE000E5FF06C0E5FF07C0E5FF08C0E5FF020EEC
:102FF000DBCF00F0030EDBCF01F0040EDBCF02F0DD
:10300000050EDBCF03F0060EDBCF04F0070EDBCF9F
:1030100005F0050E035C35E2002A02E3014A022AAC
:103020000350020DF3CF03F003500026E86A01229B
:10303000E86A0222036A066A0E0E0426520E032272
:10304000000E062204C0F6FF03C0F7FF06C0F8FF1B
:103050000900F5CF04F0036A03300530076E066AF5
:103060000632086A045006120850071206C0E5FF2F
:1030700007C0F4FF00C0E9FF01C0F3FF0250ABEC52
:1030800028F0E4CF08F0E4CF07F0E4CF06F0E4CF77
:1030900005F0E4CF04F0E4CF03F0E4CF02F0E4CF96
:1030A00001F0E4CF00F0E4CFD9FF1200D9CFE5FF63
:1030B000E1CFD9FF00C0E5FF01C0E5FF02C0E5FF99
:1030C00003C0E5FF04C0E5FF05C0E5FF06C0E5FF5E
:1030D000020EDBCF00F0030EDBCF01F0040EDBCFDE
:1030E00002F000C0E9FF01C0F3FF025061EC28F0DC
:1030F000E56AE56E75EC23F0E652E652000EE56AED
:1031000035EC27F0E652002A02E3014A022A036A5C
:10311000080E035C27E20350020DF3CF04F0056AAA
:10312000066A00500426015005220250062204C0FF
:10313000E9FF05C0F3FF0650EBEC27F0E56E35EC38
:1031400027F0E65204C0E9FF05C0F3FF0650EBECA0
:1031500027F0F3CF05F00550E56E35EC27F0E65289
:10316000032AD6D743EC25F0E4CF06F0E4CF05F0F0
:10317000E4CF04F0E4CF03F0E4CF02F0E4CF01F0B9
:10318000E4CF00F0E4CFD9FF1200D9CFE5FFE1CFC3
:10319000D9FF00C0E5FF01C0E5FF02C0E5FF03C0A5
:1031A000E5FF04C0E5FF05C0E5FF06C0E5FF020E30
:1031B000DBCF00F0030EDBCF01F0040EDBCF02F01B
:1031C000050EDBCF03F0D88001AED890046A043638
:1031D000045007E0011C066E001C056E054A062A15
:1031E00004D000C005F001C006F0D88003AED8902E
:1031F00007E3031C016E021C006E004A012A04D082
:1032000002C000F003C001F00150E56E0050E56E11
:103210000650E56E0550E56E9BEC1BF0006EF3CF9B
:1032200001F0040EE12604500AE0011C036E001CAC
:10323000026E024A032A03C0F3FF025003D001C00A
:10324000F3FF0050E4CF06F0E4CF05F0E4CF04F044
:10325000E4CF03F0E4CF02F0E4CF01F0E4CF00F0DC
:10326000E4CFD9FF1200D9CFE5FFE1CFD9FF00C0ED
:10327000E5FF01C0E5FF02C0E5FF03C0E5FF04C0B4
:10328000E5FF05C0E5FF020EDBCF00F0030EDBCF4C
:1032900001F0040EDBCF02F0050EDBCF03F093C389
:1032A00004F094C305F00301933F01D0942B035025
:1032B000E56E0450E56E4AEC26F0E652E65293C302
:1032C00004F094C305F00301933F01D0942B025006
:1032D000056EE56E0450E56E4AEC26F0E652E652C5
:1032E00093C304F094C305F00301933F01D0942BE2
:1032F0000150E56E0450E56E4AEC26F0E652E652C7
:1033000093C304F094C305F00301933F01D0942BC1
:103310000050E56E0450E56E4AEC26F0E652E652A7
:10332000E4CF05F0E4CF04F0E4CF03F0E4CF02F003
:10333000E4CF01F0E4CF00F0E4CFD9FF1200D9CF01
:10334000E5FFE1CFD9FF00C0E5FF01C0E5FF02C006
:10335000E5FF03C0E5FF04C0E5FF05C0E5FF06C0CB
:10336000E5FF020EDBCF00F0030EDBCF01F00038EB
:10337000E8441F0B026E036A950E0226030E032219
:1033800002C0E9FF03C0EAFFEFCF04F00050056E72
:10339000070E0516010E066E05500DE006E6E86CF8
:1033A000D8900636010FFDE306D0D89006BED8802F
:1033B0000632010FFBE30450061202C0E9FF03C00E
:1033C000EAFF06C0EFFF500E0024026E036A030EF0
:1033D000032202C0E9FF03C0EAFF01C0EFFF016A58
:1033E000400E0026030E012200C0E9FF01C0EAFFE3
:1033F000FF0EEF68E4CF06F0E4CF05F0E4CF04F071
:10340000E4CF03F0E4CF02F0E4CF01F0E4CF00F02A
:10341000E4CFD9FF120000C0E5FF01C0E5FF02C004
:10342000E5FF03C0E5FF04C0E5FF006A81B2002AA2
:103430000050D880E866D890006A0036016A81B8EA
:10344000012A0150D880E866D890016A0136026AE4
:1034500081BA022A0250D880E866D890026A023601
:10346000036A81B4032A0350D880E866D890036ABF
:103470000336046A81B6042A0450D880E866D890DE
:10348000046A043600500401001904E000C000F48E
:1034900026EC26F001500401011904E001C001F4FA
:1034A000FFEC23F002500401021904E002C002F410
:1034B000A6EC24F003500401031904E003C003F454
:1034C00035EC29F004500401041904E004C004F4AC
:1034D00091EC25F0E4CF04F0E4CF03F0E4CF02F068
:1034E000E4CF01F0E4CF00F01200D9CFE5FFE1CF47
:1034F000D9FF00C0E5FF01C0E5FF02C0E5FF03C042
:10350000E5FF04C0E5FF05C0E5FF06C0E5FF020ECC
:10351000DBCF00F0030EDBCF01F0040EDBCF02F0B7
:103520000301975119E147EC14F0036EF3CF04F057
:10353000F4CF05F0E9CF06F003C0E5FF04C0F4FFC7
:1035400005C0F6FF06C0F7FF00C0E9FF01C0F3FFAA
:10355000025050EC28F01ED003019751010A1AE1E5
:1035600000C0E9FF01C0F3FF02506EEC26F0006ED0
:10357000F3CF01F0F4CF02F0E9CF03F00350E56E92
:103580000250E56E0150E56E0050E56E33EC19F027
:10359000040EE126E4CF06F0E4CF05F0E4CF04F01A
:1035A000E4CF03F0E4CF02F0E4CF01F0E4CF00F089
:1035B000E4CFD9FF1200D9CFE5FFE1CFD9FF00C09A
:1035C000E5FF01C0E5FF02C0E5FF03C0E5FF04C061
:1035D000E5FF05C0E5FF06C0E5FF020EDBCF00F00A
:1035E000030EDBCF01F0040EDBCF02F0050EDBCFC4
:1035F00003F0060EDBCF04F0070EDBCF05F0080E5C
:10360000DBCF06F0D88003AED89015E306500A0A47
:1036100012E104C0E9FF05C0EAFF2D0EEF6E044A77
:10362000052A031E021E011E006C05E1012A03E1AA
:10363000022AD8B4032A0650E56E0550E56E045000
:10364000E56E0350E56E0250E56E0150E56E0050E8
:10365000E56EDAEC0DF0070EE126E4CF06F0E4CFDC
:1036600005F0E4CF04F0E4CF03F0E4CF02F0E4CFC0
:1036700001F0E4CF00F0E4CFD9FF120000C0E5FF75
:1036800001C0E5FF02C0E5FF03C0E5FF91C300F004
:1036900092C301F0E86A030192BFFF0E026EE56E6D
:1036A0000250E56E0150E56E0050E56EE56AE56A90
:1036B000E56A2D0EE56ED0EC0CF0006EF3CF01F054
:1036C000F4CF02F0E9CF03F0080EE1260334033211
:1036D000023201320032033403320232013200324C
:1036E00004010351010A04E1011E006CD8B4012A4F
:1036F000430E0301606F640E616F530E626F0150E1
:10370000026E636F0050646F0A0E656F060EE56E01
:10371000800EE56E030EE56E600EE56ED4EC14F0DF
:10372000040EE126E4CF03F0E4CF02F0E4CF01F091
:10373000E4CF00F01200D9CFE5FFE1CFD9FF00C000
:10374000E5FF01C0E5FF02C0E5FF03C0E5FF04C0DF
:10375000E5FF05C0E5FF06C0E5FF020EDBCF00F088
:10376000030EDBCF01F0040EDBCF02F0050EDBCF42
:1037700003F0046A056A0350800BE844066E0650A5
:1037800011E10250022603360350015C02E10250AF
:10379000005C04E2D8900332023204D0052A05C04E
:1037A00004F0E9D70350015C02E10250005C04E33D
:1037B0000250005E0350015AD8900332023204C016
:1037C00005F004060550EEE101C0F3FF0050E4CF20
:1037D00006F0E4CF05F0E4CF04F0E4CF03F0E4CF4B
:1037E00002F0E4CF01F0E4CF00F0E4CFD9FF120003
:1037F000D9CFE5FFE1CFD9FF00C0E5FF01C0E5FF6C
:1038000002C0E5FF03C0E5FF020EDBCF00F0030EB0
:10381000DBCF01F0040EDBCF02F0050EDBCF03F0AF
:103820000A0EE56E0150E56E0050E56E800EE56E05
:103830000F0EE56E230EE56EB6EC0EF0060EE126D9
:103840000250E56E020EE56E800EE56E0F0EE56E1F
:10385000230EE56EC7EC1FF0050EE12603500DE0C8
:10386000400EE56EE56A800EE56E0F0EE56E230EE6
:10387000E56EC7EC1FF0050EE126800EE56E0F0E1B
:10388000E56E230EE56E56EC18F0030EE126E4CF4C
:1038900003F0E4CF02F0E4CF01F0E4CF00F0E4CF96
:1038A000D9FF120000C0E5FF01C0E5FF02C0E5FF3F
:1038B00053EC24F0006E4C0A08E153EC24F0300A7B
:1038C00002E08B8240D08B923ED00050450A27E127
:1038D000000EE56E140EE56ED60EE56E8EEC20F051
:1038E000030EE1263BEC29F0006E00C001F001C0A0
:1038F00002F0010602500FE053EC24F0E56AE56E99
:10390000000EE56E140EE56ED80EE56E8EEC20F01E
:10391000050EE126ECD70A0E13EC23F014D000506C
:10392000510A11E153EC24F0300A03E1006A002A45
:1039300001D0006A0050D880E866D890006A00364E
:1039400000500401096FE4CF02F0E4CF01F0E4CFAE
:1039500000F01200D9CFE5FFE1CFD9FF00C0E5FFAD
:1039600001C0E5FF02C0E5FF03C0E5FF04C0E5FFBD
:1039700005C0E5FF06C0E5FF07C0E5FF020EDBCF8F
:1039800000F0030EDBCF01F0040EDBCF02F0050EDA
:10399000DBCF03F0046A056A100E066E0150800B3F
:1039A000E844076E00500026013604500426053610
:1039B0000750D8A404800350055C02E10250045C67
:1039C00005E30250045E0350055A00800604076EAA
:1039D00007C006F00750E2E101C0F3FF0050E4CF5A
:1039E00007F0E4CF06F0E4CF05F0E4CF04F0E4CF35
:1039F00003F0E4CF02F0E4CF01F0E4CF00F0E4CF35
:103A0000D9FF1200D9CFE5FFE1CFD9FF00C0E5FF14
:103A100001C0E5FF02C0E5FF03C0E5FF020EDBCFFA
:103A200000F0030EDBCF01F0040EDBCF02F000C08C
:103A3000E9FF01C0F3FF025061EC28F0036E035070
:103A400029E0C6A610D00350E56E35EC27F0036ED2
:103A5000E652035002E0FD0E1ED039EC22F0C5AC58
:103A600014D0FE0E18D09E9600C0E9FF01C0F3FFEF
:103A7000025061EC28F0C96EC6889EA6FED7C7B476
:103A800004D0C7B002D0FE0E06D0002AD0E3014A0F
:103A9000022ACDD7E86AE4CF03F0E4CF02F0E4CF06
:103AA00001F0E4CF00F0E4CFD9FF1200D9CFE5FF59
:103AB000E1CFD9FF00C0E5FF01C0E5FF02C0E5FF8F
:103AC00003C0E5FF04C0E5FF05C0E5FF020EDBCF44
:103AD00000F0030EDBCF01F0040EDBCF02F0050E89
:103AE000DBCF03F0046A03C005F00306055022E0B3
:103AF000D4EC23F0056E05C0E5FF00C0E9FF01C06E
:103B0000F3FF0250D9EC28F0002A02E3014A022A0E
:103B100004C005F0C5A6E7D7A1A602D0E8680BD07F
:103B2000052A05C004F00350F5E07DEC24F0C5B88B
:103B3000FED7F0D70450E4CF05F0E4CF04F0E4CF93
:103B400003F0E4CF02F0E4CF01F0E4CF00F0E4CFE3
:103B5000D9FF120000C0E5FF01C0E5FF02C0E5FF8C
:103B600003C0E5FF9DC300F0016AA8C302F0036A29
:103B70000250005E0350015AE56A800EE56E015066
:103B8000E56E0050E56EC5EC18F0006E040EE126FF
:103B90000006A8C301F0430E13EC23F0200E13EC33
:103BA00023F0005020E0600E0124026E036A000E34
:103BB000032202C0E9FF03C0EAFFEFCF02F0E56A8B
:103BC0000250E56E000EE56E510EE56E360EE56EA6
:103BD0008EEC20F0050EE126012A0150800A01E159
:103BE000016A0006DED7E4CF03F0E4CF02F0E4CFB1
:103BF00001F0E4CF00F01200D9CFE5FFE1CFD9FF0B
:103C000000C0E5FF01C0E5FF02C0E5FF03C0E5FF1E
:103C1000020EDBCF00F0030EDBCF01F0040EDBCF92
:103C200002F0050EDBCF03F003C0E5FF00C0E9FFA3
:103C300001C0F3FF0250D9EC28F0E56A0350E56EAD
:103C400075EC23F0E652E652210EE56E35EC27F0D6
:103C5000E65243EC25F0E56A0250E56E0150E56E50
:103C60000050E56E4EEC20F0040EE1260F0EE56EDE
:103C70000250E56E0150E56E0050E56E0DEC21F04E
:103C8000040EE126E4CF03F0E4CF02F0E4CF01F02C
:103C9000E4CF00F0E4CFD9FF1200D9CFE5FFE1CFA8
:103CA000D9FF00C0E5FF01C0E5FF02C0E5FF03C08A
:103CB000E5FF04C0E5FF020EDBCF00F0030EDBCF13
:103CC00001F0040EDBCF02F00301975111E1DFECAC
:103CD00022F0036EF3CF04F003C0E5FF04C0F4FF4D
:103CE00000C0E9FF01C0F3FF0250ABEC28F016D092
:103CF00003019751010A12E100C0E9FF01C0F3FF7F
:103D00000250EBEC27F0006EF3CF01F00150E56EAE
:103D10000050E56E4BEC21F0E652E652E4CF04F0A1
:103D2000E4CF03F0E4CF02F0E4CF01F0E4CF00F001
:103D3000E4CFD9FF12002C0EF66E520EF76E000E75
:103D4000F86E0900F550056E0900F550066E04E1A5
:103D5000056702D0E8EF1EF00900F550006E09007B
:103D6000F550016E0900F550026E09000900F5508A
:103D7000E96E0900F550EA6E090009000900F550E6
:103D8000036E0900F550046E09000900F6CF07F034
:103D9000F7CF08F0F8CF09F000C0F6FF01C0F7FF39
:103DA00002C0F8FF035002E1045007E00900F5509B
:103DB000EE6E0306F8E20406F9D707C0F6FF08C066
:103DC000F7FF09C0F8FF050601E20606A7EF1EF09F
:103DD0001200D9CFE5FFE1CFD9FF00C0E5FF01C058
:103DE000E5FF02C0E5FF03C0E5FF04C0E5FF05C035
:103DF000E5FF06C0E5FF020EDBCF00F0030EDBCFD0
:103E000001F0040EDBCF02F0002A02E3014A022A8D
:103E1000036A080E035C17E20350020DF3CF04F0AF
:103E2000056A066A00500426015005220250062247
:103E3000E56AF46A04C0E9FF05C0F3FF0650ABEC85
:103E400028F0032AE6D7E4CF06F0E4CF05F0E4CF6C
:103E500004F0E4CF03F0E4CF02F0E4CF01F0E4CFCC
:103E600000F0E4CFD9FF1200D9CFE5FFE1CFD9FFB1
:103E700000C0E5FF01C0E5FF02C0E5FF03C0E5FFAC
:103E800004C0E5FF020EDBCF00F00038E8441F0B52
:103E9000016E026A950E0126030E022201C0E9FF9F
:103EA00002C0EAFFEFCF03F0070E0016010E046E0A
:103EB00000500DE006E6E86CD8900436010FFDE3F3
:103EC00006D0D89004BED8800432010FFBE3041C56
:103ED000006E0350001601C0E9FF02C0EAFF00C0F7
:103EE000EFFFE4CF04F0E4CF03F0E4CF02F0E4CF3F
:103EF00001F0E4CF00F0E4CFD9FF1200D9CFE5FF05
:103F0000E1CFD9FF00C0E5FF01C0E5FF02C0E5FF3A
:103F100003C0E5FF04C0E5FF05C0E5FF020EDBCFEF
:103F200000F00050010A22E1016A0150020DF45034
:103F3000036EF3CF02F0B30E0224046E040E0320CE
:103F4000056E04C0E9FF05C0EAFFEE687F0EEF6E64
:103F5000D30E0226040E032202C0E9FF03C0EAFFCB
:103F6000EE6AEF6A012A100E015CDFE300C017F46D
:103F7000E4CF05F0E4CF04F0E4CF03F0E4CF02F0A7
:103F8000E4CF01F0E4CF00F0E4CFD9FF1200D9CFA5
:103F9000E5FFE1CFD9FF00C0E5FF01C0E5FF02C0AA
:103FA000E5FF03C0E5FF04C0E5FF020EDBCF00F034
:103FB000030EDBCF01F0040EDBCF02F0050EDBCFEA
:103FC00003F0060EDBCF04F0050E035C18E2002AB6
:103FD00002E3014A022A0350020DF3CF03F003501B
:103FE0000026E86A0122E86A022204C0E5FFF46ABA
:103FF00000C0E9FF01C0F3FF0250ABEC28F0E4CFB2
:1040000004F0E4CF03F0E4CF02F0E4CF01F0E4CF1A
:1040100000F0E4CFD9FF120000C0E5FF01C0E5FFCA
:1040200002C0E5FF53EC24F0006E53EC24F0016E67
:104030000050026ED00E0224006E0A0E005C05E3F2
:104040000050026EF90E0224006E0150026ED00E76
:104050000224016E0A0E015C05E30150026EF90EA6
:104060000224016E080E005C12E2100E015CD8B052
:104070000ED00038F00B0124006EFFEC21F0016E31
:10408000015005E10050E56E1DEC27F0E652E4CF4B
:1040900002F0E4CF01F0E4CF00F01200D9CFE5FF49
:1040A000E1CFD9FF00C0E5FF01C0E5FF02C0E5FF99
:1040B00003C0E5FF020EDBCF00F0030EDBCF01F003
:1040C000040EDBCF02F0050EDBCF03F0040E035C21
:1040D000D8B0036A00C0E9FF01C0F3FF025061ECF1
:1040E00028F0E56AE56E75EC23F0E652E6520344EB
:1040F000FE0B036E810E03120350E56E35EC27F0C4
:10410000E65243EC25F0E4CF03F0E4CF02F0E4CF35
:1041100001F0E4CF00F0E4CFD9FF1200D9CFE5FFE2
:10412000E1CFD9FF00C0E5FF01C0E5FF02C0E5FF18
:10413000020ED924006E000EDA20016E800E026E8F
:10414000030E0026000E012202220250E56E0150ED
:10415000E56E0050E56E040EDBCFE5FF030EDBCF0E
:10416000E5FF020EDBCFE5FF04013751E56E365166
:10417000E56E3551E56E0EEC00F0006EF3CF01F008
:10418000090EE12601C0F3FF0050E4CF02F0E4CFB6
:1041900001F0E4CF00F0E4CFD9FF1200D9CFE5FF62
:1041A000E1CFD9FF00C0E5FF01C0E5FF02C0E5FF98
:1041B00003C0E5FF020EDBCF00F0030EDBCF01F002
:1041C000040EDBCF02F0030197510DE1BFEC27F0A5
:1041D000036E03C0E5FF00C0E9FF01C0F3FF02501A
:1041E000D9EC28F00FD003019751010A0BE100C070
:1041F000E9FF01C0F3FF025061EC28F0E56EB7EC77
:1042000025F0E652E4CF03F0E4CF02F0E4CF01F072
:10421000E4CF00F0E4CFD9FF1200D9CFE5FFE1CF22
:10422000D9FF00C0E5FF01C0E5FF02C0E5FF03C004
:10423000E5FF020EDBCF00F0030EDBCF01F0040E32
:10424000DBCF02F0050EDBCF03F0100E035C02E3C0
:104250000F0E036E00C0E9FF01C0F3FF025061ECD6
:1042600028F0E56AE56E75EC23F0E652E652E00EC2
:1042700003120350E56E35EC27F0E65243EC25F0CF
:10428000E4CF03F0E4CF02F0E4CF01F0E4CF00F09C
:10429000E4CFD9FF1200D9CFE5FFE1CFD9FF00C0AD
:1042A000E5FF01C0E5FF02C0E5FF03C0E5FF020E28
:1042B000DBCF00F0030EDBCF01F093C302F094C319
:1042C00003F00301933F01D0942B0150E56E02509F
:1042D000E56E4AEC26F0E652E65293C302F094C330
:1042E00003F00301933F01D0942B0050E56E025080
:1042F000E56E4AEC26F0E652E652E4CF03F0E4CF56
:1043000002F0E4CF01F0E4CF00F0E4CFD9FF1200D7
:10431000D9CFE5FFE1CFD9FF00C0E5FF01C0E5FF40
:1043200002C0E5FF03C0E5FF04C0E5FF020EDBCFDE
:1043300000F011C401F0026A014A022A12C403F01B
:10434000046A0150031803E10250041801E001D08F
:104350000ED0000E04011125016E026A010E022228
:1043600001C0E9FF02C0EAFF00C0EFFF112BE4CF5C
:1043700004F0E4CF03F0E4CF02F0E4CF01F0E4CFA7
:1043800000F0E4CFD9FF1200D9CFE5FFE1CFD9FF8C
:1043900000C0E5FF01C0E5FF02C0E5FF03C0E5FF87
:1043A000020EDBCF00F0016AA8C302F0036A0250DC
:1043B000002603500122E56A800EE56E0150E56E8D
:1043C0000050E56EC5EC18F0006EF3CF01F0040E5E
:1043D000E126600E0026000E012200C0E9FF01C0A8
:1043E000EAFFEFCF00F00050E4CF03F0E4CF02F09B
:1043F000E4CF01F0E4CF00F0E4CFD9FF120000C019
:10440000E5FF01C0E5FF02C0E5FF010E006E53ECC1
:1044100024F0016E01C002F0015023E00050E56E6F
:1044200081EC28F0016EE652015010E10A0E005CAA
:104430000BE20A0E006EE56E81EC28F0016EE6528A
:10444000015004E1E8680ED0E8680CD00150021871
:1044500002E0E86807D0002A1B0E005CD8E3E86899
:1044600001D0E86AE4CF02F0E4CF01F0E4CF00F03D
:10447000120000C0E5FF01C0E5FF02C0E5FF03C078
:10448000E5FF04C0E5FF05C0E5FFE80E006E030E82
:10449000016E0050FF0F026EFF0E0120036E02C07E
:1044A00000F003C001F00250031010E0C5CF02F08D
:1044B000036A1F0E0216046AC7B4042A056A045070
:1044C00002120550031202500310E3E1E4CF05F09D
:1044D000E4CF04F0E4CF03F0E4CF02F0E4CF01F046
:1044E000E4CF00F01200F3CFE5FFF4CFE5FFE9CF12
:1044F000E5FFEACFE5FFFACFE5FFFBCFE5FF0401DB
:104500000F510F01366F040110510F01376FD65054
:10451000346FD750356FF2A411D004010F3F01D092
:10452000102BF29404010F510F01366F040110514A
:104530000F01376FD650346FD750356FE4CFFBFF84
:10454000E4CFFAFFE4CFEAFFE4CFE9FFE4CFF4FFE2
:10455000E4CFF3FF110000C0E5FF01C0E5FF006AF2
:1045600004010651010A01E1002A0050D880E866E2
:10457000D890006A00360050040DF3CF00F0080E0A
:104580000026005004010403F3CF00F0002A002AA3
:10459000016A0401035101E1012A0150E56E005056
:1045A000E56E03019251E56E9151E56EF8EC1BF05A
:1045B000040EE126E4CF01F0E4CF00F0120000C0C9
:1045C000E5FF01C0E5FF02C0E5FF03C0E5FF93C3BF
:1045D00000F094C301F00301933F01D0942B0050ED
:1045E000E56E81EC28F0E652036E026A93C300F098
:1045F00094C301F00301933F01D0942B0050E56E6A
:1046000081EC28F0E652016A02120150031203C045
:10461000F3FF0250E4CF03F0E4CF02F0E4CF01F067
:10462000E4CF00F0120000C0E5FF01C0E5FF02C0CA
:10463000E5FF006E390E04011625016E026A040EB4
:10464000022201C0E9FF02C0EAFF00C0EFFF220E14
:10465000165D01E2162B00500A0A0FE10401165103
:10466000E56E800EE56E040EE56E390EE56EEDEC3E
:1046700015F0040EE1260401166BE4CF02F0E4CF3E
:1046800001F0E4CF00F012000401116B0401126B81
:104690000401136994808B909480B06A3F0EAF6ED2
:1046A000B886AC8AAC84AC8CAC90AB8CAB8E03017E
:1046B0009F6B0301996B03019C6B03019D6B0301CD
:1046C0009E6B000EE56A81EC28F00401156FE6523E
:1046D0009F989F9A010E0401146F0401356B366B8D
:1046E0002F0E376F8FEC28F01200D9CFE5FFE1CF06
:1046F000D9FF00C0E5FF01C0E5FF02C0E5FF020EE3
:10470000DBCF00F0030EDBCF01F06AEC25F00044B4
:10471000FE0B026E0150D880E866D890016A01361F
:104720000150D880E866D890016A01360150021223
:104730000250E56E35EC27F0E652E4CF02F0E4CF0C
:1047400001F0E4CF00F0E4CFD9FF120000C0E5FF94
:1047500001C0E5FF03C0E5FF53EC24F0C80A1DE1EA
:1047600053EC24F0550A19E153EC24F00401066FD0
:1047700053EC24F00401056F53EC24F0006A016E41
:1047800053EC24F0036A002403018F6F03500120CF
:10479000906F53EC24F00401916FE4CF03F0E4CF69
:1047A00001F0E4CF00F0120000C0E5FF01C0E5FF1A
:1047B00002C0E5FF03C0E5FFE80E006E030E016EC8
:1047C00039EC22F0C5860050FF0F026EFF0E01206B
:1047D000036E02C000F003C001F00250031005E0B8
:1047E00023EC29F0026E0250EEE0C950E4CF03F052
:1047F000E4CF02F0E4CF01F0E4CF00F0120000C0FB
:10480000E5FF430E04012C6F640E2D6F410E2E6FD9
:10481000420E2F6F4F0E306F520E316F540E326FAB
:1048200004010151006E300E002600500401336F68
:104830000A0E346F090EE56E800EE56E040EE56E0D
:104840002C0EE56ED4EC14F0040EE126E4CF00F05B
:10485000120004010F510301736F04011051030191
:10486000746FD650716FD750726F735104010F1966
:1048700005E103017451040110190CE004010F510A
:104880000301736F040110510301746FD650716FEF
:10489000D750726F74C3E9FF73C3F4FF72C3F3FFA1
:1048A00003017151120000C0E5FF01C0E5FF0301E3
:1048B0009D510301A61905E003019D5103019C19B7
:1048C00002E1E86A15D09DC300F003019D2B016A47
:1048D000600E0026000E012200C0E9FF01C0EAFFC1
:1048E000EFCF00F09D51800A02E103019D6B005063
:1048F000E4CF01F0E4CF00F0120000C0E5FF01C0FA
:10490000E5FF02C0E5FF03C0E5FFE80E006E030E01
:10491000016E39EC22F09E96C59AC5880050FF0FB3
:10492000026EFF0E0120036E02C000F003C001F012
:104930000250031002E09EA6F1D7E4CF03F0E4CFCB
:1049400002F0E4CF01F0E4CF00F0120000C0E5FF78
:10495000430E0401816F640E826F480E836F4F0E09
:10496000846F4D0E856F450E866F04010251006EF7
:10497000300E002600500401876F0A0E886F080E63
:10498000E56E800EE56E040EE56E810EE56ED4ECEC
:1049900014F0040EE126E4CF00F0120000C0E5FFA1
:1049A00032EC29F00401896B806B8983006A89B33A
:1049B000002A0050010BE844F46E8051FD0BF41006
:1049C000806FD58ED59CD59AD588D596D594D5822D
:1049D000D580F28AF184D08EF28EF28CBA80FF0EEE
:1049E000BB68BA84E4CF00F01200D9CFE5FFE1CF75
:1049F000D9FF00C0E5FF01C0E5FF020EDBCF00F0EC
:104A00000050020DF450016EF3CF00F0000E0026AE
:104A1000030E012200C0E9FF01C0EAFFEECF00F063
:104A2000EFCF01F001C0F3FF0050E4CF01F0E4CF7D
:104A300000F0E4CFD9FF1200D9CFE5FFE1CFD9FFD5
:104A400000C0E5FF01C0E5FF020EDBCF00F0005023
:104A5000020DF450016EF3CF00F0E00E0026000EC0
:104A6000012200C0E9FF01C0EAFFEECF00F0EFCF66
:104A700001F001C0F3FF0050E4CF01F0E4CF00F0FB
:104A8000E4CFD9FF120000C0E5FF01C0E5FF02C07E
:104A9000E5FF03C0E5FFE80E006E030E016E39EC82
:104AA00022F0C5840050FF0F026EFF0E0120036E3E
:104AB00002C000F003C001F00250031002E0C5B4D0
:104AC000F1D7E4CF03F0E4CF02F0E4CF01F0E4CF7C
:104AD00000F0120000C0E5FF01C0E5FF02C0E5FFE5
:104AE00003C0E5FFE80E006E030E016E39EC22F004
:104AF000C5800050FF0F026EFF0E0120036E02C042
:104B000000F003C001F00250031002E0C5B0F1D77D
:104B1000E4CF03F0E4CF02F0E4CF01F0E4CF00F003
:104B2000120000C0E5FF430E04018A6F640E8B6F14
:104B30004D0E8C6F4F0E8D6F440E8E6F040104511D
:104B4000006E300E0026005004018F6F0A0E906F29
:104B5000070EE56E800EE56E040EE56E8A0EE56EBC
:104B6000D4EC14F0040EE126E4CF00F01200D9CF0B
:104B7000E5FFE1CFD9FF00C0E5FF01C0E5FF02C0BE
:104B8000E5FF020EDBCF00F093C301F094C302F007
:104B90000301933F01D0942B0050E56E0150E56E68
:104BA0004AEC26F0E652E652E4CF02F0E4CF01F000
:104BB000E4CF00F0E4CFD9FF1200D8CFE5FFE0CF7B
:104BC000E5FFE56EF3CFE5FFF4CFE5FFE9CFE5FFC5
:104BD000EACFE5FFFACFE5FFFBCFE5FFAFEC0BF047
:104BE000E4CFFBFFE4CFFAFFE4CFEAFFE4CFE9FF35
:104BF000E4CFF4FFE4CFF3FFE450E4CFE0FFE4CFF1
:104C0000D8FF100000C0E5FF01C0E5FF02C0E5FFCE
:104C100053EC24F0010A13E10F0E016E230E006E17
:104C2000800E026E53EC24F0E56E0250E56E0150EA
:104C3000E56E0050E56E0DEC21F0040EE126E4CFA8
:104C400002F0E4CF01F0E4CF00F0120000C0E5FF75
:104C5000430E0301666F640E676F470E686F4F0E59
:104C6000696F04010051006E300E002600500301F0
:104C70006A6F0A0E6B6F060EE56E800EE56E030E10
:104C8000E56E660EE56ED4EC14F0040EE126E4CF7A
:104C900000F01200D9CFE5FFE1CFD9FF00C0E5FF5A
:104CA000020EDBCF00F0030EDBCFA8FF00C0A9FF90
:104CB000A69EA69CA684F29EF29C550EA76EAA0EF6
:104CC000A76EA682A6A202D00000FCD7A694F28E00
:104CD000F28CE4CF00F0E4CFD9FF1200E8AE0AD0A6
:104CE000F3CFEAFFEE50EECFF3FFEECFF4FFEECFBF
:104CF000E9FF1200E8BC4AEF29F0E9CFF6FFF3CF55
:104D0000F7FFF86E0900F5500900F5CFF3FF090031
:104D1000F5CFF4FF0900F5CFE9FF120000C0E5FF71
:104D200001C0E5FF040111510401121902E1E86A12
:104D30000FD0000E04011225006E016A010E01223F
:104D400000C0E9FF01C0EAFFEFCF00F0122B0050D6
:104D5000E4CF01F0E4CF00F01200F2CFEAFFF29EC0
:104D6000A69EA69CA684E9CFA9FFF3CFAAFFE4CF15
:104D7000A8FFEEEC28F0F4CFA8FFEEEC28F0F6CF79
:104D8000A8FFEEEC28F0F7CFA8FFEEEC28F0A694F1
:104D9000EABEF28E1200F2CFF6FFF29EA69EA69C0D
:104DA000E9CFA9FFF3CFAAFFA680A850A94AAA2A53
:104DB000A680A8CFF3FFA94AAA2AA680A8CFF4FF0D
:104DC000A94AAA2AA680A8CFEAFFF6BEF28E120050
:104DD000E8AE08D0F3CFEAFFEE50EECFF3FFEECF10
:104DE000F4FF1200E8BC52EF29F0E9CFF6FFF3CF51
:104DF000F7FFF86E0900F5500900F5CFF3FF090041
:104E0000F5CFF4FF1200F2CFEAFFF29EA69EA69C19
:104E1000A684E9CFA9FFF3CFAAFFE4CFA8FFEEEC69
:104E200028F0F4CFA8FFEEEC28F0F6CFA8FFEEECC8
:104E300028F0A694EABEF28E1200D9CFE5FFE1CFAA
:104E4000D9FF00C0E5FF020EDBCF00F000C015F473
:104E50000050E56E000EE56A4AEC26F0E652E65296
:104E6000E4CF00F0E4CFD9FF1200D9CFE5FFE1CFC6
:104E7000D9FF00C0E5FF020EDBCF00F0C69E00C0E8
:104E8000C9FFC6AE02D0E86803D039EC22F0E86A68
:104E9000E4CF00F0E4CFD9FF1200F2CFF6FFF29E8C
:104EA000A69EA69CE9CFA9FFF3CFAAFFA680A85093
:104EB000A94AAA2AA680A8CFF3FFA94AAA2AA680AF
:104EC000A8CFF4FFF6BEF28E120000C0E5FF01C0CD
:104ED000E5FF600E03019D25006E016A000E0122B0
:104EE00000C0E9FF01C0EAFFEFCF00F00050E4CFBF
:104EF00001F0E4CF00F01200D9CFE5FFE1CFD9FFF8
:104F000000C0E5FF020EDBCF00F0610E005C05E3A0
:104F10007B0E005C02E2010E01D0E86AE4CF00F0F3
:104F2000E4CFD9FF120000000000000000000001E3
:104F3000000000000000000000FF00000000020070
:104F4000020000004200000000000000000000001D
:104F50000000430E03016C6F640E6D6F550E6E6F93
:104F60000A0E6F6F040EE56E800EE56E030EE56EA1
:104F70006C0EE56ED4EC14F0040EE126120000C0B5
:104F8000E5FF01C0E5FF93C300F094C301F0030106
:104F9000933F01D0942B0050E56E81EC28F0E6524F
:104FA000E4CF01F0E4CF00F01200D9CFE5FFE1CF6C
:104FB000D9FF00C0E5FF020EDBCF00F000C014F403
:104FC000005004E18FEC28F09D9A9D98E4CF00F00A
:104FD000E4CFD9FF1200E8AE06D0F3CFEAFFEE50DF
:104FE000EECFF3FF1200E8BC48EF29F0E9CFF6FF5F
:104FF000F3CFF7FFF86E0900F5500900F5CFF3FF86
:105000001200F2CFEAFFF29EA69EA69CA684E9CFEC
:10501000A9FFF3CFAAFFE4CFA8FFEEEC28F0F4CF6E
:10502000A8FFEEEC28F0A694EABEF28E120012EE73
:10503000FFF022EEFFF0F86AA68EA69CE9680E0E3D
:10504000EA6E0068000EED6A0050FDE19BEC1EF078
:1050500006EC00F0FFD7F2CFF6FFF29EA69EA69CCC
:10506000E9CFA9FFF3CFAAFFA680A850A94AAA2A90
:10507000A680A8CFF3FFF6BEF28E1200F2CFEAFFB1
:10508000F29EA69EA69CA684E9CFA9FFF3CFAAFF15
:10509000E4CFA8FFEEEC28F0A694EABEF28E120050
:1050A000E8AE0BD0F3CFEAFFE4CFEEFFF4CFEEFF94
:1050B000F6CFEEFFF7CFEEFF1200E8BC4CEF29F081
:1050C0001200E8AE04D0F3CFEAFFEE501200E8BCC5
:1050D00046EF29F0E9CFF6FFF3CFF7FFF86E0900AE
:1050E000F5501200E8AE09D0F3CFEAFFE4CFEEFFAF
:1050F000F4CFEEFFF6CFEEFF1200E8BC54EF29F03C
:105100001200D9CFE5FFE1CFD9FF020EDBCFA9FF17
:10511000A69CA69EA680A850E4CFD9FF1200ACA200
:10512000FED79480AE500000AE50AB98AB88AB86F3
:105130009D8A9D98120025642000F2CFF6FFF29E12
:10514000A69EA69CE9CFA9FFF3CFAAFFA680A850F0
:10515000F6BEF28E1200E8AE07D0F3CFEAFFE4CF3E
:10516000EEFFF4CFEEFF1200E8BC50EF29F0120082
:10517000700ED36E9B8CFF0E92689368946896684D
:10518000626AF19E120000C0E5FFFFEC21F0006EA4
:10519000005001E1FF00E4CF00F012000F01456B69
:1051A000900E0F01446F030E0F01436F0F01458FE7
:1051B0001200E8AE05D0F3CFEAFFE4CFEEFF120015
:1051C000E8BC4EEF29F01200D9CFE5FFE1CFD9FFBF
:1051D000020EDBCF1AF4E4CFD9FF1200550EA76EF2
:1051E000AA0EA76EA682A6B2FED7A94AAA2A010EC7
:1051F0000301976F1C0E0301936F946B120039EC3F
:1052000022F09E96C58AC5889EA6FED712003F064C
:105210005B4F666D7D077F6F777C395E7971030127
:10522000976B1C0E0301936F946B12000100264FC5
:105230000000000400002C00000039EC22F0C582C0
:10524000C5B2FED71200C7A002D0010E01D0E86A95
:105250001200CEEC24F044EC23F01200ACA2FED7F6
:10526000AD6E1200B8EC28F012003EEC1BF01200FC
:1052700003019D5112000301A751120004011451B2
:105280001200E8CF7FFF1200C96E12009DEF28F0D8
:105290002BEF28F0CBEF26F0ADEF26F03EEF28F015
:0C52A00001EF28F04DEF27F003EF27F09E
:020000040030CA
:010006008574
:00000001FF
