:020000040000FA
:1000000020EF28F0C69A120029EF23F0ABEC08F09D
:10001000F7EC15F0FDD71200B9EF25F0D9CFE5FFC9
:10002000E1CFD9FF00C0E5FF01C0E5FF02C0E5FF59
:1000300003C0E5FF04C0E5FF05C0E5FF06C0E5FF1E
:1000400007C0E5FF08C0E5FF09C0E5FF0AC0E5FFFE
:100050000BC0E5FF0CC0E5FF0DC0E5FF0EC0E5FFDE
:100060000FC0E5FF10C0E5FF11C0E5FF12C0E5FFBE
:1000700013C0E5FF14C0E5FF15C0E5FF16C0E5FF9E
:1000800017C0E5FF18C0E5FF19C0E5FF1AC0E5FF7E
:100090001BC0E5FF1CC0E5FF1DC0E5FF1EC0E5FF5E
:1000A000020EDBCF00F0030EDBCF01F0040EDBCF3E
:1000B00002F0050EDBCF03F0060EDBCF04F0070ED7
:1000C000DBCF05F0080EDBCF06F0090EDBCF07F023
:1000D0000A0EDBCF08F0096A0A6A02C00DF00D5063
:1000E000800A0DE102500301826F0150816F0050C0
:1000F000806F030E016E800E006E800E026E03C0D4
:10010000E9FF04C0F3FF05506AEC28F00B6E0B50BA
:10011000D8B4C4EF03F00B50250A02E0ABEF03F0B4
:100120000C6A0D6A0E6A0F6A106A0A0E116E126A64
:10013000136A146A200E156E1668176A2B0E186E55
:10014000032A02E3044A052A03C0E9FF04C0F3FFBF
:1001500005506AEC28F0196E250A13E11950E56E76
:100160000250E56E0150E56E0050E56E6BEC15F047
:10017000040EE126094A0A2A032A02E3044A052A50
:10018000BED71950300A06E1300E156E032A02E37D
:10019000044A052A03C0E9FF04C0F3FF05506AECD6
:1001A00028F02D0A06E1010E146E032A02E3044A28
:1001B000052A03C0E9FF04C0F3FF05506AEC28F0EC
:1001C000200A08E1010E176E200E186E032A02E3C2
:1001D000044A052A03C0E9FF04C0F3FF05506AEC96
:1001E00028F02B0A06E1010E176E032A02E3044AE7
:1001F000052A03C0E9FF04C0F3FF05506AEC28F0AC
:10020000196E310E195C2BE33A0E195C28E203C01B
:1002100019F004C01AF005C01BF019C0E9FF1AC09C
:10022000F3FF1B506AEC28F01C6E300E1C5C11E3CF
:100230003A0E1C5C0EE213500A0DF3CF1DF01C5059
:100240001D26D00E1D24136E192A02E31A4A1B2AFA
:10025000E4D719C003F01AC004F01BC005F003C0B6
:10026000E9FF04C0F3FF05506AEC28F02E0A2DE1E7
:10027000032A02E3044A052A166A03C019F004C0DF
:100280001AF005C01BF019C0E9FF1AC0F3FF1B509C
:100290006AEC28F01C6E300E1C5C11E33A0E1C5CFC
:1002A0000EE216500A0DF3CF1DF01C501D26D00E85
:1002B0001D24166E192A02E31A4A1B2AE4D719C014
:1002C00003F01AC004F01BC005F003C0E9FF04C02E
:1002D000F3FF05506AEC28F0196E6C0A07E1010E75
:1002E0000C6E032A02E3044A052A09D01950680A51
:1002F00006E1010E0E6E032A02E3044A052A03C03A
:10030000E9FF04C0F3FF05506AEC28F0750A06E126
:10031000010E106E032A02E3044A052A03C0E9FF16
:1003200004C0F3FF05506AEC28F0196E730A05E16A
:10033000010E0D6E200E156E3FD01950780A03E1A4
:10034000100E116E39D01950580A05E1100E116EB9
:10035000010E126E31D01950630A02E1116A2CD0DD
:1003600019506F0A03E1080E116E26D01950660A63
:1003700003E1010E0F6E20D01950640A1DE01950E0
:10038000690A1AE0105005E0FF0E03260422052238
:1003900013D01950E56E0250E56E0150E56E005025
:1003A000E56E6BEC15F0040EE126094A0A2A032AD1
:1003B00002E3044A052AA3D60D5021E00650030F9C
:1003C0000D6E000E0720196E000E08201A6E0DC06B
:1003D00006F019C007F01AC008F0FD0E0D26FF0E3A
:1003E00019221A220DC0E9FF19C0F3FF1A50DAECE6
:1003F00026F00D6EF3CF19F0F4CF1AF0FDD00F50A8
:100400000DE0000E1A6E080E196E100E0D6E040E21
:100410000626000E072208221668EED016680C5039
:1004200023E00650040F0C6E000E07200F6E000E26
:1004300008201B6E0CC006F00FC007F01BC008F0B0
:10044000FC0E0C26FF0E0F221B220CC0E9FF0FC072
:10045000F3FF1B5026EC26F00C6EF3CF0FF0F4CF19
:100460001BF0E9CF1CF067D00E502FE00650020FB2
:100470000E6E000E07201D6E000E08201E6E0EC0B0
:1004800006F01DC007F01EC008F0FE0E0E26FF0E7F
:100490001D221E220EC0E9FF1DC0F3FF1E50DFEC1F
:1004A00027F00E6E0EC00CF00F6A1B6A1C6A11500A
:1004B0000A0A03E11050D8B43ED00C500E6E0EC0A4
:1004C0000CF00F6A1B6A1C6A36D00650020F0E6EC3
:1004D000000E07201D6E000E08201E6E0EC006F0D6
:1004E0001DC007F01EC008F0FE0E0E26FF0E1D22D6
:1004F0001E220EC0E9FF1DC0F3FF1E50DFEC27F0E7
:100500000E6EF3CF1DF00EC00CF01DC00FF0E86AA8
:100510001DBEFF0E1B6E1C6E11500A0A02E1105028
:100520000AE00C500E6E0F501D6E0EC00CF01DC078
:100530000FF01B6A1C6A040E196EF40E0D6E800E0D
:100540001A6E1150D8B440D0105013E01150E56E1F
:10055000040EE56EF40EE56E1C50E56E1B50E56E64
:100560000F50E56E0C50E56E83EC0EF0070EE126A1
:1005700012D01150E56E040EE56EF40EE56E1C50BF
:10058000E56E1B50E56E0F50E56E0C50E56E74EC99
:100590001BF0070EE12617502FE00DC0E9FF19C030
:1005A000F3FF1A506AEC28F02D0A26E0FF0E0D2604
:1005B00019221A2218C0E5FF0DC0E9FF19C0F3FF88
:1005C0001A50E2EC28F018D00CC0E5FF0DC0E9FF8E
:1005D00019C0F3FF1A50E2EC28F00D50010F0C6E19
:1005E000000E19200E6E000E1A20E56A0CC0E9FFFD
:1005F0000EC0F3FFE2EC28F00DC00CF019C00EF0B5
:100600001AC00FF013C010F0105010E00CC0E9FF3A
:100610000EC0F3FF0F506AEC28F0176E175006E07B
:100620000C2A02E30E4A0F2A1006EED710C013F070
:1006300014501EE109C00CF00AC00EF010C00FF0FB
:100640000F5010E01550E56E0250E56E0150E56E5A
:100650000050E56E6BEC15F0040EE1260C4A0E2AF4
:100660000F06EED70CC009F00EC00AF00FC013F051
:1006700016C00CF00DC00DF019C00EF01AC00FF02E
:1006800009C010F00AC015F00DC0E9FF0EC0F3FF5D
:100690000F506AEC28F0166E1650D8B43ED00CC03D
:1006A00016F0176A161E171E1650171005E00CC01C
:1006B00016F00C06165031E00DC0E9FF0EC0F3FF36
:1006C0000F506AEC28F0116E125010E01150E56ED8
:1006D00086EC27F0166EE652165004E0DF0E111479
:1006E000166E02D011C016F016C011F01150E56E52
:1006F0000250E56E0150E56E0050E56E6BEC15F0B2
:10070000040EE1260D2A02E30E4A0F2A104A152A8A
:100710001350D8B4B9D71306B7D710C009F015C015
:100720000AF014502BE010C00CF015C00DF013C0EF
:100730000EF00E501FE0200EE56E0250E56E0150E7
:10074000E56E0050E56E6BEC15F0040EE1260C4AE8
:100750000D2A0E06EED70B50E56E0250E56E0150E5
:10076000E56E0050E56E6BEC15F0040EE126094ACB
:100770000A2A04D00CC009F00DC00AF0032A02E3D3
:10078000044A052A7FEF00F00AC0F3FF0950E4CFC6
:100790001EF0E4CF1DF0E4CF1CF0E4CF1BF0E4CF5B
:1007A0001AF0E4CF19F0E4CF18F0E4CF17F0E4CF5B
:1007B00016F0E4CF15F0E4CF14F0E4CF13F0E4CF5B
:1007C00012F0E4CF11F0E4CF10F0E4CF0FF0E4CF5B
:1007D0000EF0E4CF0DF0E4CF0CF0E4CF0BF0E4CF5B
:1007E0000AF0E4CF09F0E4CF08F0E4CF07F0E4CF5B
:1007F00006F0E4CF05F0E4CF04F0E4CF03F0E4CF5B
:1008000002F0E4CF01F0E4CF00F0E4CFD9FF120012
:100810003C4E4F20464C4F41543E000000C0E5FF87
:1008200001C0E5FF02C0E5FF03C0E5FF04C0E5FF2E
:1008300005C0E5FF06C0E5FF07C0E5FF08C0E5FF0E
:1008400009C0E5FF0AC0E5FFC2A204D004011951A6
:1008500049EF06F004011A51D8B431D104011951FD
:10086000020DF450016EF3CF00F0E00E0026000EF2
:10087000012200C0E9FF01C0EAFFEECF00F0EFCF98
:1008800001F0400E1925026E036A030E032202C016
:10089000E9FF03C0EAFFEFCF02F00250FF0A01E1D7
:1008A00066D002380F0B036E920E0324046E056AA5
:1008B0000F0E0522066A920E03260F0E062203C0B3
:1008C000E9FF06C0EAFFEFCF03F00250066E070E05
:1008D0000616010E076E06500DE006E6E86CD8908D
:1008E0000736010FFDE306D0D89007BED880073247
:1008F000010FFBE3071C066E0350061604C0E9FF58
:1009000005C0EAFF06C0EFFF02380F0B036E890E29
:100910000324046E056A0F0E0522066A890E03265B
:100920000F0E062203C0E9FF06C0EAFFEFCF03F077
:100930000250066E070E0616010E076E06500DE0F9
:1009400006E6E86CD8900736010FFDE306D0D89094
:1009500007BED8800732010FFBE3071C066E035069
:10096000061604C0E9FF05C0EAFF06C0EFFF040158
:100970001951020DF450046EF3CF03F0E00E03267C
:10098000000E042200380F0B056E0138066EF00BC6
:10099000061A052606320532F80E06B4062605505C
:1009A000005C056E06500158066EC3CF07F0086A5A
:1009B0000750052608500622C4CF07F0086A0750E2
:1009C0000A6E096A095005260A50062203C0E9FF8B
:1009D00004C0EAFF05C0EEFF06C0EFFF0401155199
:1009E000010A01E06AD004011951020DF450046EAD
:1009F000F3CF03F0E00E0324056E000E0420066E14
:100A000005C0E9FF06C0EAFFEECF00F0EFCF01F02E
:100A1000B30E0326040E042203C0E9FF04C0EAFF5C
:100A2000EECF05F0EFCF06F09C0E0526D8A0060607
:100A30000150800FF36E0650800FF35C02E1055009
:100A4000005C0EE20050640F056E000E0120066E81
:100A500003C0E9FF04C0EAFF05C0EEFF06C0EFFFD8
:100A600004011951020DF450046EF3CF03F0D30EBC
:100A70000326040E042203C0E9FF04C0EAFFEECF00
:100A800005F0EFCF06F0640E0526D8B0062A065012
:100A9000800FF36E0150800FF35C02E10050055CA3
:100AA0000CE29C0E0026D8A0010603C0E9FF04C09A
:100AB000EAFF00C0EEFF01C0EFFF04011A6B040162
:100AC000192B100E195D01E3196B04011939E84463
:100AD0001F0B006E016A890E0026030E012200C062
:100AE000E9FF01C0EAFFEFCF00F019C401F0070EE3
:100AF0000116010E036E000E046E015006E0E86C54
:100B0000D89003360436010FFCE3056A0050031643
:100B10000550041603500410D880E866D890036A84
:100B200003360350D8A4B3D0500E04011925006E2B
:100B3000016A030E012200C0E9FF01C0EAFFEFCF06
:100B400000F00044E844FC0B016E0128C26E400E28
:100B50001925006E016A030E012200C0E9FF01C0E1
:100B6000EAFFEFCF02F00250FF0A01E18CD0023819
:100B70000F0B006E920E0024016E036A0F0E03220B
:100B8000046A920E00260F0E042200C0E9FF04C082
:100B9000EAFFEFCF00F00250046E070E0416010EBC
:100BA000056E04500DE006E6E86CD8900536010F9E
:100BB000FDE306D0D89005BED8800532010FFBE3D7
:100BC0000050051201C0E9FF03C0EAFF05C0EFFFB6
:100BD000380E006E0F0E016E02380F0B036E046AA2
:100BE0000350002604500122380E056E0F0E066ECB
:100BF000055003260650042203C0E9FF04C0EAFFA3
:100C0000EFCF03F0070E0216010E046E02500DE046
:100C100006E6E86CD8900436010FFDE306D0D890C4
:100C200004BED8800432010FFBE30350041200C05D
:100C3000E9FF01C0EAFF04C0EFFF0F014583000098
:100C4000000045930F0144930BC0E5FFF2CF0BF07A
:100C5000F29E44810000000000000000000000003F
:100C60000000000000000000000000000000000084
:100C700000000000000000000000000044910BBED6
:100C8000F28EE4CF0BF0C282010E04011A6F040150
:100C90001951E4CF0AF0E4CF09F0E4CF08F0E4CF33
:100CA00007F0E4CF06F0E4CF05F0E4CF04F0E4CFA2
:100CB00003F0E4CF02F0E4CF01F0E4CF00F0120043
:100CC00000C0E5FF01C0E5FF02C0E5FF03C0E5FF8E
:100CD00004C0E5FF05C0E5FF06C0E5FF07C0E5FF6E
:100CE00008C0E5FF09C0E5FF0AC0E5FF0BC0E5FF4E
:100CF0000CC0E5FF006A016A026A040E025CD8B00B
:100D0000ECD101C003F0012A100E035CD8B0E5D18C
:100D100004011B2B100E1B5D01E31B6B04011B392F
:100D2000E8441F0B036E046A890E0326030E042297
:100D300003C0E9FF04C0EAFFEFCF03F01BC404F0D7
:100D4000070E0416010E056E000E066E045006E036
:100D5000E86CD89005360636010FFCE3076A0350AD
:100D600005160750061605500610D880E866D8907C
:100D7000056A05360550D8A4C0D704011B51020DE1
:100D8000F450046EF3CF03F0E00E0324056E000E62
:100D90000420066E05C0E9FF06C0EAFFEECF05F0AD
:100DA000EFCF06F018C407F007A09DD0B30E0324C0
:100DB000076E040E0420086E07C0E9FF08C0EAFFB2
:100DC000EECF07F0EFCF08F00650800FF36E08501B
:100DD000800FF35C02E10750055C03E2056A066AD6
:100DE00060D0D30E0326040E042203C0E9FF04C022
:100DF000EAFFEECF03F0EFCF04F00450800FF36E64
:100E00000650800FF35C02E10550035C04E20568C4
:100E10003F0E066E46D00750055C096E0850065816
:100E20000A6EE86A0ABEFF0E0B6EE56E0B50E56EA9
:100E30000A50E56E0950E56EE56AE56A400EE56E1A
:100E4000000EE56A70EC0CF0096EF3CF0AF0F4CFF7
:100E50000BF0E9CF0CF0080EE1260750035C076E9B
:100E600008500458086EE86A08BEFF0E036EE56E6F
:100E70000350E56E0850E56E0750E56E0C50E56EC8
:100E80000B50E56E0A50E56E0950E56EC1EC13F0AB
:100E9000036EF3CF04F0080EE1260350056E0450F4
:100EA000066E04011751800FF36E0650800FF35C3D
:100EB00002E10550165D03E3056A066A14D00401D9
:100EC0001651FF08036E3F0E1755046E0650800F33
:100ED000F36E0450800FF35C02E10350055C03E302
:100EE00005683F0E066E04011B51020DF450046E9E
:100EF000F3CF03F0930E0326040E042203C0E9FF90
:100F000004C0EAFFEECF03F0EFCF04F00350055C1E
:100F1000036E04500658046ED88004AED89004E3E3
:100F2000041E036CD8B4042A022A04011751800F4E
:100F3000F36E0450800FF35C02E10350165DD8B0ED
:100F4000DCD604011B51020DF450086EF3CF07F0FC
:100F5000930E0726040E082207C0E9FF08C0EAFF27
:100F600005C0EEFF06C0EFFF18C407F007A459D074
:100F70001B51020DF450086EF3CF07F0000E07244A
:100F8000096E030E08200A6E09C0E9FF0AC0EAFFD5
:100F9000EECF0BF0EFCF0CF00B500C10D8B441D0CB
:100FA0005C0E0726040E082207C0E9FF08C0EAFF0E
:100FB000EECF07F0EFCF08F00750055C036E085046
:100FC0000658046E03101CE00450800F800F02E1ED
:100FD000010E035C076A07360C50800F800F02E198
:100FE000010E0B5C0B6A0B3607500B1809E109C0A8
:100FF000E9FF0AC0EAFF03C0EEFF04C0EFFF7DD6A1
:1010000004011B51020DF450046EF3CF03F0000EE7
:101010000326030E042203C0E9FF04C0EAFFEE6AC0
:10102000EF6A18C403F003A244D000500EE100C0E0
:1010300003F0002A046A1C0E0326040E042203C0D7
:10104000E9FF04C0EAFF420EEF6E00C003F0002A81
:10105000046A1C0E0326040E042204011B51076EB1
:10106000640E072603C0E9FF04C0EAFF07C0EFFFD4
:1010700000C003F0002A046A1C0E0326040E04229A
:101080000650076E03C0E9FF04C0EAFF07C0EFFF88
:1010900000C003F0002A046A1C0E0326040E04227A
:1010A0000550076E03C0E9FF04C0EAFF07C0EFFF69
:1010B00024D61BC403F00650E56E0550E56EE56AC4
:1010C0000350E56E000EE56E2E0EE56EF80EE56E31
:1010D00044EC21F0070EE12610D602C001F00050CA
:1010E0001EE018C402F002A21AD000C002F0002ACA
:1010F000036A1C0E0226040E032202C0E9FF03C08D
:10110000EAFF0A0EEF6E0050E56E800EE56E040EEB
:10111000E56E1C0EE56E7CEC16F0040EE126015027
:10112000E4CF0CF0E4CF0BF0E4CF0AF0E4CF09F009
:10113000E4CF08F0E4CF07F0E4CF06F0E4CF05F009
:10114000E4CF04F0E4CF03F0E4CF02F0E4CF01F009
:10115000E4CF00F0120000C0E5FF01C0E5FF02C0CF
:10116000E5FF03C0E5FF05C0E5FF32EC29F09492EE
:101170008B9253EC24F0F3CF01F0F4CF02F0E9CFDF
:1011800003F0880F04017C6F130E01207D6F000EA9
:1011900002207E6F000E03207F6F9382810E006E0F
:1011A0000F0E016E0F0E036E380E00260350012243
:1011B0000F0E036E800E005E0350015A810E026E08
:1011C0000F0E036E0F0E056E380E02260550032219
:1011D0000F0E056E800E025E0550035A02C0E9FF35
:1011E00003C0EAFFEFCF02F0029200C0E9FF01C0A6
:1011F000EAFF02C0EFFF9388810E006E0F0E016EB2
:101200000F0E036E380E0026035001220F0E036EE0
:10121000800E005E0350015A810E026E0F0E036EA7
:101220000F0E056E380E0226055003220F0E056EB6
:10123000800E025E0550035A02C0E9FF03C0EAFFB8
:10124000EFCF02F0029800C0E9FF01C0EAFF02C040
:10125000EFFF938A810E006E0F0E016E0F0E036E6C
:10126000380E0026035001220F0E036E800E005E22
:101270000350015A810E026E0F0E036E0F0E056EA3
:10128000380E0226055003220F0E056E800E025EF8
:101290000550035A02C0E9FF03C0EAFFEFCF02F096
:1012A000029A00C0E9FF01C0EAFF02C0EFFFFFECB5
:1012B00016F09280800E006E0F0E016E0F0E036E00
:1012C000380E002603500122800E026E0F0E036EB0
:1012D000800E005E0350015A0F0E056E380E022676
:1012E000055003220F0E056E800E025E0550035A54
:1012F00002C0E9FF03C0EAFFEFCF02F0028000C0A6
:10130000E9FF01C0EAFF02C0EFFF000EE56AE56AEF
:10131000A2EC1AF0E652E652270EE56EE56A080ED8
:10132000E56E99EC12F0030EE126700EE56E800E6C
:10133000E56E0F0EE56E230EE56EDEEC1DF0040E7D
:10134000E126060EE56E800EE56E0F0EE56E230EAD
:10135000E56EC3EC21F0040EE126400EE56EE56A71
:10136000800EE56E0F0EE56E230EE56EF9EC1FF0B4
:10137000050EE126400EE56E010EE56E800EE56E6F
:101380000F0EE56E230EE56EF9EC1FF0050EE1265B
:10139000E56A020EE56E800EE56E0F0EE56E230E19
:1013A000E56EF9EC1FF0050EE126400EE56E030E2A
:1013B000E56E800EE56E0F0EE56E230EE56EF9EC20
:1013C0001FF0050EE126400EE56E040EE56E800E60
:1013D000E56E0F0EE56E230EE56EF9EC1FF0050EBF
:1013E000E126800EE56E0F0EE56E230EE56E59ECDC
:1013F00019F0030EE126E4CF05F0E4CF03F0E4CFCB
:1014000002F0E4CF01F0E4CF00F012004373202596
:10141000642025642025640A000043002563000041
:10142000800EE56E040EE56ED30EE56E7FEC1EF0C9
:10143000030EE126800EE56E040EE56EB30EE56E3A
:101440007FEC1EF0030EE126800EE56E040EE56EC5
:10145000D50EE56E7FEC1EF0030EE126800EE56EE4
:10146000040EE56EB50EE56E7FEC1EF0030EE12670
:10147000800EE56E040EE56ED70EE56E7FEC1EF075
:10148000030EE126800EE56E040EE56EB70EE56EE6
:101490007FEC1EF0030EE126800EE56E040EE56E75
:1014A000D90EE56E7FEC1EF0030EE126800EE56E90
:1014B000040EE56EB90EE56E7FEC1EF0030EE1261C
:1014C000800EE56E040EE56EDB0EE56E7FEC1EF021
:1014D000030EE126800EE56E040EE56EBB0EE56E92
:1014E0007FEC1EF0030EE126800EE56E040EE56E25
:1014F000DD0EE56E7FEC1EF0030EE126800EE56E3C
:10150000040EE56EBD0EE56E7FEC1EF0030EE126C7
:10151000800EE56E040EE56EDF0EE56E7FEC1EF0CC
:10152000030EE126800EE56E040EE56EBF0EE56E3D
:101530007FEC1EF0030EE126800EE56E040EE56ED4
:10154000E10EE56E7FEC1EF0030EE126800EE56EE7
:10155000040EE56EC10EE56E7FEC1EF0030EE12673
:10156000800EE56E040EE56EE30EE56E7FEC1EF078
:10157000030EE126800EE56E040EE56EC30EE56EE9
:101580007FEC1EF0030EE126800EE56E040EE56E84
:10159000E50EE56E7FEC1EF0030EE126800EE56E93
:1015A000040EE56EC50EE56E7FEC1EF0030EE1261F
:1015B000800EE56E040EE56EE70EE56E7FEC1EF024
:1015C000030EE126800EE56E040EE56EC70EE56E95
:1015D0007FEC1EF0030EE126800EE56E040EE56E34
:1015E000E90EE56E7FEC1EF0030EE126800EE56E3F
:1015F000040EE56EC90EE56E7FEC1EF0030EE126CB
:10160000800EE56E040EE56EEB0EE56E7FEC1EF0CF
:10161000030EE126800EE56E040EE56ECB0EE56E40
:101620007FEC1EF0030EE126800EE56E040EE56EE3
:10163000ED0EE56E7FEC1EF0030EE126800EE56EEA
:10164000040EE56ECD0EE56E7FEC1EF0030EE12676
:10165000800EE56E040EE56EEF0EE56E7FEC1EF07B
:10166000030EE126800EE56E040EE56ECF0EE56EEC
:101670007FEC1EF0030EE126800EE56E040EE56E93
:10168000F10EE56E7FEC1EF0030EE126800EE56E96
:10169000040EE56ED10EE56E7FEC1EF0030EE12622
:1016A000120000C0E5FF01C0E5FF02C0E5FF03C076
:1016B000E5FF04011251D8B40AD19DA81DD09EA8FF
:1016C0001BD003019C510301991905E198EC28F006
:1016D0000301996BFCD0000E03019C25006E016A8A
:1016E0000F0E012200C0E9FF01C0EAFFEFCF95F322
:1016F0009C2B95C3ADFFEBD09EAAE9D0ABA205D041
:1017000003019A8198EC28F0E2D0ABA405D0030144
:101710009A8398EC28F0DBD0ABA048D0AECF95F3FD
:1017200013C400F0016A008E95C302F0036A0250F0
:10173000001803E10350011801E004D003019A8965
:10174000AB96C5D00301955104E0955104011319DE
:1017500029E103019A99AB960301955103E0030136
:101760009A9702D003019A8795C39EF397C39FF37C
:1017700003019751006E00040301A06F600E030186
:101780009F25006E016A000E012200C0E9FF01C022
:10179000EAFF95C3EFFF9F2B9F51800A02E10301EF
:1017A0009F6B95D003019A99AB8691D0AECF95F3FC
:1017B00003019AA921D013C400F0016A008E95C3D9
:1017C00002F0036A0250001803E10350011801E01F
:1017D00011D094909D9AAB980301995104E1AD6AA0
:1017E00098EC28F007D000CFADFF010E03019C6FED
:1017F0009D886DD0AB866BD00301955103019E2768
:1018000003019F510301A0191BE103019E510CE14B
:101810009FC397F303019AB712D094909D9AAB9807
:10182000AD6A98EC28F00BD003019A859AB707D0DF
:1018300094909D9AAB98010EAD6E98EC28F047D02D
:1018400003019F510301981908E103019851030115
:10185000971903E098EC28F03AD097C300F0016A9A
:10186000004A012AE56A800EE56E0150E56E0050DF
:10187000E56EC8EC19F0006E040EE126005003017D
:10188000966F03019F190FE195C300F01F0E00141E
:101890000301A06F006E020E0024A06F0301975198
:1018A0000301A027A09F9FC300F003019F2B016AA3
:1018B000600E0026000E012200C0E9FF01C0EAFF11
:1018C00095C3EFFF9F51800A02E103019F6BE4CFB4
:1018D00003F0E4CF02F0E4CF01F0E4CF00F0120017
:1018E000D9CFE5FFE1CFD9FF00C0E5FF01C0E5FF9B
:1018F00002C0E5FF03C0E5FF04C0E5FF05C0E5FF4A
:1019000006C0E5FF07C0E5FF020EDBCF00F0030EC7
:10191000DBCF01F0040EDBCF02F0050EDBCF03F0CE
:10192000060EDBCF04F0070EDBCF05F0080EDBCF91
:1019300006F0090EDBCF07F000500301696F01507C
:101940006A6F02506B6F03506C6F045003016D6F30
:1019500005506E6F06506F6F0750706F030169512D
:1019600003016F03F4CF01F0F3CF00F00050030147
:10197000736F0150746F0301695103016D03F4CF5C
:1019800001F0F3CF00F000500301716F0150726F4E
:1019900003016C5103016D03F3CF00F00301745197
:1019A00000260050746F03016B5103016E03F3CFE7
:1019B00001F00150002600500301746F03016B51C8
:1019C00003016D03F4CF01F0F3CF00F00301735175
:1019D0000026745101220050736F0150746F03018F
:1019E0006A5103016E03F4CF03F0F3CF02F002500B
:1019F00000260350012200500301736F0150746FE1
:101A000003016A5103016F03F3CF00F0005003019B
:101A1000786F03016A5103016D03F4CF01F0F3CF36
:101A200000F000500301766F0150776F0301695198
:101A300003017003F3CF00F0005003017C6F03013A
:101A4000695103016E03F4CF01F0F3CF00F00050B1
:101A500003017A6F01507B6F0301756B0301796B92
:101A60000301755103017125006E030176510301D5
:101A70007221016E0301775103017321026E03018C
:101A8000785103017421036E0050716F0150726F21
:101A90000250736F0350746F030179510301712574
:101AA000006E03017A5103017221016E03017B5123
:101AB00003017321026E03017C5103017421036E43
:101AC00003C0E9FF02C0F4FF01C0F3FF0050E4CF00
:101AD00007F0E4CF06F0E4CF05F0E4CF04F0E4CF64
:101AE00003F0E4CF02F0E4CF01F0E4CF00F0E4CF64
:101AF000D9FF120000C0E5FF01C0E5FF02C0E5FF0D
:101B000003C0E5FF000EE56A1EEC25F0006EF3CF82
:101B100001F0E652F00E0016003A013A0114011AE3
:101B2000002601320032F80E01B40126E86A01BE37
:101B3000FF0E026EE56E0250E56E0150E56E00503C
:101B4000E56EE56AE56AE56ACE0EE56E70EC0CF0CE
:101B5000F3CF01F0F4CF02F0E9CF03F0080EE12655
:101B60000150006E0250016ED89001320032D890C0
:101B7000013200320350E840E840C00B011203403C
:101B8000E8403F0B820E0026030E01220150800F19
:101B90007C0F02E14D0E005C04E34C0E006E040E5F
:101BA000016E0150800F7D0F02E1840E005C04E2A3
:101BB000840E006E030E016E04010C5120E003013F
:101BC0008351FE0F026EFF0E8421036E0150800FC1
:101BD000F36E0350800FF35C02E10250005C03E2FD
:101BE00004010C6B2BD003018451800FF36E015064
:101BF000800FF35C02E10050835D20E37BD00301A2
:101C00008351020F026E000E8421800FF36E01508B
:101C1000800FF35C02E10050025C04E2010E04015B
:101C20000C6F0CD00150800FF36E03018451800FB4
:101C3000F35C02E18351005C01E35CD000C083F3FC
:101C400001C084F383C300F084C301F0E86A030198
:101C500084BFFF0E026EE56E0250E56E0150E56E28
:101C60000050E56EE56A140EE56E4B0EE56E500E03
:101C7000E56EC1EC13F0006EF3CF01F0080EE12623
:101C8000E56A3C0EE56E0150E56E0050E56EF9EC3C
:101C900017F0026EF3CF03F0040EE1260350E56E59
:101CA0000250E56EE56A640EE56E2FEC1EF0026EE2
:101CB000F3CF03F0040EE126E56A3C0EE56E015019
:101CC000E56E0050E56EC8EC19F0006EF3CF01F040
:101CD000040EE1260050022601500322020EE56E9A
:101CE0000350E56E0250E56E3EEC20F0030EE12657
:101CF000E5EC18F0E4CF03F0E4CF02F0E4CF01F01C
:101D0000E4CF00F01200D9CFE5FFE1CFD9FF00C04A
:101D1000E5FF01C0E5FF02C0E5FF03C0E5FF04C029
:101D2000E5FF05C0E5FF06C0E5FF07C0E5FF08C009
:101D3000E5FF09C0E5FF0AC0E5FF0BC0E5FF0CC0E9
:101D4000E5FF0DC0E5FF0EC0E5FF0FC0E5FF020E89
:101D5000DBCF00F0030EDBCF01F0040EDBCF02F08F
:101D6000050EDBCF03F0060EDBCF04F0070EDBCF52
:101D700005F0080EDBCF06F0200E076E086A06C0DD
:101D800009F00A6A0B6A0C6AE56AE56AE56A0950B5
:101D9000E56E0350E56E0250E56E0150E56E0050B1
:101DA000E56E67EC11F00D6E080EE126300E0D2683
:101DB0003A0E0D5C05E30D500E6E270E0E240D6ECF
:101DC000FF0E07260822200E07240E6E030E0820A1
:101DD0000F6E0EC0E9FF0FC0EAFF0DC0EFFF0C5001
:101DE000E56E0B50E56E0A50E56E0950E56E035046
:101DF000E56E0250E56E0150E56E0050E56EC1ECF7
:101E000013F0006EF3CF01F0F4CF02F0E9CF03F04E
:101E1000080EE1260050011002100310D8A4AFD71D
:101E200007C000F008C001F004C002F005C003F0D4
:101E300000C004F001C005F0004A012A200E04266B
:101E4000030E052204C0E9FF05C0EAFFEFCF04F04E
:101E500002C0E9FF03C0EAFF04C0EFFF024A032A01
:101E6000000E015C02E1200E005CE2E302C0E9FF2B
:101E700003C0EAFF000EEF6AE4CF0FF0E4CF0EF0EC
:101E8000E4CF0DF0E4CF0CF0E4CF0BF0E4CF0AF098
:101E9000E4CF09F0E4CF08F0E4CF07F0E4CF06F098
:101EA000E4CF05F0E4CF04F0E4CF03F0E4CF02F098
:101EB000E4CF01F0E4CF00F0E4CFD9FF1200D9CF96
:101EC000E5FFE1CFD9FF00C0E5FF01C0E5FF02C09B
:101ED000E5FF03C0E5FF04C0E5FF05C0E5FF06C060
:101EE000E5FF07C0E5FF08C0E5FF09C0E5FF0AC040
:101EF000E5FF020EDBCF00F0030EDBCF01F0040E96
:101F0000DBCF02F0050EDBCF03F0060EDBCF04F0D3
:101F1000070EDBCF05F0040E066E0450800F590F3C
:101F200002E1100E035C04E30F0E036E270E046E35
:101F300003500410D8B448D003500410D8B454D07F
:101F400006C007F0060605C008F0096AE56A0850F1
:101F5000E56E0450E56E0350E56EC8EC19F00A6EAC
:101F6000040EE126E56A0A50E56E0750E56E025060
:101F7000E56E0150E56E0050E56E70EC18F0060E4F
:101F8000E1260650020A10E106C007F00606E56ADF
:101F90000750E56E0250E56E0150E56E0050E56EAB
:101FA000F9EC1FF0050EE1260950E56E0850E56ECC
:101FB0000450E56E0350E56EF9EC17F0036EF3CFB5
:101FC00004F0040EE126B8D7030E066EE56AE56A52
:101FD000040EE56E0250E56E0150E56E0050E56EB0
:101FE00070EC18F0060EE12606C003F0D88003AEB0
:101FF000D89011E203C004F00306E56A0450E56ED0
:102000000250E56E0150E56E0050E56EF9EC1FF0F0
:10201000050EE126EBD7E4CF0AF0E4CF09F0E4CFD8
:1020200008F0E4CF07F0E4CF06F0E4CF05F0E4CF0A
:1020300004F0E4CF03F0E4CF02F0E4CF01F0E4CF0A
:1020400000F0E4CFD9FF120000C0E5FF01C0E5FFBA
:1020500002C0E5FF03C0E5FF04C0E5FF030198519E
:102060000301971901E178D098C300F00050016E88
:102070000128006E009E600E0024016E026A000EB0
:10208000022201C0E9FF02C0EAFFEFCFA2F31F0E58
:102090000301A21798C3A1F3A2510301A127A151E3
:1020A000016E020E0124A16FA19F7DEC24F0016E50
:1020B000015003E1016A012A01D0016A7DEC24F09C
:1020C0000301A26FA2C302F0800E0216A2C303F0A6
:1020D0001F0E031603C004F003C0A2F3045003E173
:1020E00097C398F34CD001502CE002501CE07DECDB
:1020F00024F0006E0301A251016E0104A26F005092
:10210000420A28E000504E0A03E182EC20F022D07F
:102110000050460A03E1CCEC28F01CD00050490ADC
:1021200019E1FF0017D07DEC24F0006E0301A251ED
:10213000016E0104A26F0050620A0CE1CAEC10F0BB
:1021400009D098C3A3F3025003E034EC1CF002D092
:10215000DEEC25F0A1C398F304010F51040110191E
:1021600006E00301995103E104EC12F008D094B0A9
:1021700006D00301995103E1ACB298EC28F0E4CF0A
:1021800004F0E4CF03F0E4CF02F0E4CF01F0E4CFB9
:1021900000F0120000C0E5FF01C0E5FF02C0E5FF4E
:1021A00003C0E5FF7DEC24F0C80A01E087D07DEC98
:1021B00024F0550A19E17DEC24F00401046F7DEC54
:1021C00024F00401036F7DEC24F0006A016E7DECC5
:1021D00024F0036A00240301856F03500120866FF9
:1021E0007DEC24F00301916F0401085109110A11DB
:1021F0000B1120E053EC24F0006EF3CF01F0F4CF8C
:1022000002F0E9CF03F004010851005E0951015AC0
:102210000A51025A0B51035A039E3F0E035C08E118
:10222000FF0E025C05E1FF0E015C02E1FF0E005CA7
:10223000D8B044D00401086B096B0A6B0B6B85C3E3
:1022400000F086C301F0E86A030186BFFF0E026E4C
:10225000E56E0250E56E0150E56E0050E56EE56AF0
:10226000E56A270EE56E0F0EE56E70EC0CF0006E61
:10227000F3CF01F0F4CF02F0E9CF03F0080EE1262E
:10228000E56AE56A3F0EE56ECF0EE56E0350E56E3A
:102290000250E56E0150E56E0050E56EC1EC13F0A2
:1022A000006EF3CF01F0080EE126E56A0150E56EFD
:1022B0000050E56E3EEC20F0030EE126E4CF03F083
:1022C000E4CF02F0E4CF01F0E4CF00F01200D9CF68
:1022D000E5FFE1CFD9FF00C0E5FF01C0E5FF02C087
:1022E000E5FF03C0E5FF04C0E5FF05C0E5FF06C04C
:1022F000E5FF07C0E5FF08C0E5FF09C0E5FF0AC02C
:10230000E5FF020EDBCF00F0030EDBCF01F0040E81
:10231000DBCF02F0050EDBCF03F0060EDBCF04F0BF
:10232000070EDBCF05F0080EDBCF06F0090EDBCF82
:1023300007F0086A045005100610071005E1E96867
:10234000F468F368E86847D0096A0750800BE844EE
:102350000A6E0A501BE1045004260536063607367D
:102360000750035C08E10650025C05E10550015C82
:1023700002E10450005C06E2D890073206320532D2
:10238000043204D0092A09C008F0DFD70750035CE3
:1023900008E10650025C05E10550015C02E10450D1
:1023A000005C08E30450005E0550015A0650025AD2
:1023B0000750035AD890073206320532043208C05B
:1023C00009F008060950E2E103C0E9FF02C0F4FF8A
:1023D00001C0F3FF0050E4CF0AF0E4CF09F0E4CFEE
:1023E00008F0E4CF07F0E4CF06F0E4CF05F0E4CF47
:1023F00004F0E4CF03F0E4CF02F0E4CF01F0E4CF47
:1024000000F0E4CFD9FF120000C0E5FF01C0E5FFF6
:1024100002C0E5FF03C0E5FF04C0E5FFACA27ED02B
:1024200046EC26F0006E005005E10401106B04013B
:102430000F6B74D010C401F00050012646EC26F05A
:10244000026E0050036E0304006E0250230A1FE167
:10245000010E005CD8A060D046EC26F0026E690A3E
:1024600003E1C6EC23F058D00250720A03E198EC65
:1024700028F052D00250730A01E04ED09480AB860F
:102480009D8A9D98AE50AE50AB98AB8845D0025017
:10249000430A05E00250420A01E03ED006D000C0E7
:1024A00003F0046A038E0350006E00C09BF30050DB
:1024B0000F01006F010E03019C6F04011051011800
:1024C00014E046EC26F0026E03019B27000E030188
:1024D0009C25006E036A0F0E032200C0E9FF03C0B3
:1024E000EAFF02C0EFFF9C2BE8D7000E03019C25FA
:1024F000006E026A0F0E022203019B1D036E032A67
:1025000000C0E9FF02C0EAFF03C0EFFF03019C2BFC
:102510009CC399F30301936B01C010F4E4CF04F062
:10252000E4CF03F0E4CF02F0E4CF01F0E4CF00F019
:102530001200D9CFE5FFE1CFD9FF00C0E5FF01C010
:10254000E5FF02C0E5FF03C0E5FF04C0E5FF06C0EC
:10255000E5FF020EDBCF00F0030EDBCF01F0040E2F
:10256000DBCF02F03F0EC716C66AC56A0050C6121E
:102570000150C7129488820E006E0F0E016E0F0E6E
:10258000046E380E0026045001220F0E046E800ED9
:10259000005E0450015A820E036E0F0E046E0F0E81
:1025A000066E380E0326065004220F0E066E800EAD
:1025B000035E0650045A03C0E9FF04C0EAFFEFCFF0
:1025C00003F0039800C0E9FF01C0EAFF03C0EFFF7A
:1025D0009486820E006E0F0E016E0F0E046E380E82
:1025E0000026045001220F0E046E800E005E04507F
:1025F000015A820E036E0F0E046E0F0E066E380E19
:102600000326065004220F0E066E800E035E06504F
:10261000045A03C0E9FF04C0EAFFEFCF03F00396BA
:1026200000C0E9FF01C0EAFF03C0EFFF02C0C8FF1E
:10263000C6CF00F0008A0050C66E9E96A196E4CFE9
:1026400006F0E4CF04F0E4CF03F0E4CF02F0E4CFEF
:1026500001F0E4CF00F0E4CFD9FF1200D9CFE5FFBD
:10266000E1CFD9FF00C0E5FF01C0E5FF02C0E5FFF3
:1026700003C0E5FF04C0E5FF05C0E5FF06C0E5FFB8
:1026800007C0E5FF08C0E5FF09C0E5FF0AC0E5FF98
:10269000020EDBCF00F0030EDBCF01F0040EDBCF28
:1026A00002F0050EDBCF03F0060EDBCF04F0070EC1
:1026B000DBCF05F00038E8441F0B066E076A890E71
:1026C0000626030E072206C0E9FF07C0EAFFEFCF88
:1026D00008F00050096E070E0916010E0A6E095027
:1026E0000DE006E6E86CD8900A36010FFDE306D04F
:1026F000D8900ABED8800A32010FFBE308500A12B4
:1027000006C0E9FF07C0EAFF0AC0EFFF500E002431
:10271000066E076A030E072206C0E9FF07C0EAFF3C
:1027200001C0EFFF016A400E0026030E0122800E59
:10273000025E070E02160238F00B036E070E051636
:102740000550032600C0E9FF01C0EAFF03C0EFFF08
:10275000E4CF0AF0E4CF09F0E4CF08F0E4CF07F0CB
:10276000E4CF06F0E4CF05F0E4CF04F0E4CF03F0CB
:10277000E4CF02F0E4CF01F0E4CF00F0E4CFD9FFE2
:102780001200D9CFE5FFE1CFD9FF00C0E5FF01C0BE
:10279000E5FF02C0E5FF03C0E5FF04C0E5FF05C09B
:1027A000E5FF06C0E5FF07C0E5FF08C0E5FF09C07B
:1027B000E5FF0AC0E5FF0BC0E5FF0CC0E5FF0DC05B
:1027C000E5FF020EDBCF00F0030EDBCF01F0040EBD
:1027D000DBCF02F0050EDBCF03F0060EDBCF04F0FB
:1027E000070EDBCF05F0080EDBCF06F0090EDBCFBE
:1027F00007F0086A096A0A6A0B6A200E0C6E035019
:10280000800BE8440D6E0050002601360236033678
:102810000850082609360A360B360D50D8A4088011
:1028200007500B5C08E106500A5C05E10550095CA5
:1028300002E10450085C09E30450085E0550095A9F
:1028400006500A5A07500B5A00800C040D6E0DC03A
:102850000CF00D50D4E103C0E9FF02C0F4FF01C049
:10286000F3FF0050E4CF0DF0E4CF0CF0E4CF0BF019
:10287000E4CF0AF0E4CF09F0E4CF08F0E4CF07F0AA
:10288000E4CF06F0E4CF05F0E4CF04F0E4CF03F0AA
:10289000E4CF02F0E4CF01F0E4CF00F0E4CFD9FFC1
:1028A000120000C0E5FF01C0E5FF03C0E5FF04C062
:1028B000E5FF05C0E5FF06C0E5FF07C0E5FF08C06E
:1028C000E5FF09C0E5FF0AC0E5FF0BC0E5FF87C3D0
:1028D00000F088C301F00301873F01D0882B00502E
:1028E000E56E8AEC28F0E652076E046A056A066A0D
:1028F00087C300F088C301F00301873F01D0882B14
:102900000050E56E8AEC28F0E6520B6A0A6E086AFF
:102910000850041205120A5006120B50071287C302
:1029200000F088C301F00301873F01D0882B0050DD
:10293000E56E8AEC28F0E652036E006A03C001F0EF
:10294000E86A03BEFF0E086E096E005004120150C3
:102950000512085006120950071287C300F088C3F9
:1029600001F00301873F01D0882B0050E56E8AEC0F
:1029700028F0E652016A04120150051206120712ED
:1029800007C0E9FF06C0F4FF05C0F3FF0450E4CF21
:102990000BF0E4CF0AF0E4CF09F0E4CF08F0E4CF85
:1029A00007F0E4CF06F0E4CF05F0E4CF04F0E4CF85
:1029B00003F0E4CF01F0E4CF00F01200D9CFE5FF3F
:1029C000E1CFD9FF00C0E5FF01C0E5FF02C0E5FF90
:1029D00003C0E5FF04C0E5FF05C0E5FF06C0E5FF55
:1029E00007C0E5FF020EDBCF00F0030EDBCF01F0E6
:1029F000040EDBCF02F0050EDBCF03F003C004F0C2
:102A0000056A0350D8B454D000C0E9FF01C0F3FFF9
:102A100002506AEC28F0066E430A08E1010E056ECA
:102A200003C006F0076A068E0650036E0406002AED
:102A300002E3014A022A94909D9AAB989D989EA821
:102A4000FED7AC80AD6A00009EA8FED7AC9003C054
:102A5000ADFF00009EA8FED7055004E0420EAD6E0B
:102A6000032604D0620EAD6E620E0326045015E0FC
:102A700000009EA8FED700C0E9FF01C0F3FF02508E
:102A80006AEC28F0056E05C0ADFF0550032604066C
:102A9000002A02E3014A022AE9D700009EA8FED7D5
:102AA000031CAD6EAD2A00009EA8FED798EC28F05E
:102AB000E4CF07F0E4CF06F0E4CF05F0E4CF04F074
:102AC000E4CF03F0E4CF02F0E4CF01F0E4CF00F074
:102AD000E4CFD9FF1200D9CFE5FFE1CFD9FF00C085
:102AE000E5FF01C0E5FF02C0E5FF03C0E5FF04C04C
:102AF000E5FF05C0E5FF06C0E5FF07C0E5FF020EE4
:102B0000DBCF00F0030EDBCF01F0040EDBCF02F0D1
:102B1000050EDBCF03F002C006F00650046E800AFB
:102B200033E100C0E9FF01C0F3FF0250DAEC26F008
:102B3000056EF3CF06F0F4CF07F003C0E5FF05C044
:102B4000E9FF06C0F3FF0750E2EC28F000C0E9FF00
:102B500001C0F3FF0250DAEC26F0056EF3CF06F069
:102B6000F4CF07F0052A02E3064A072A05C0E5FF6D
:102B700006C0F4FF07C0F6FF00C0E9FF01C0F3FF85
:102B800002507BEC28F020D004C000F000AA1CD03A
:102B9000007A0050046E04E1035037EC29F014D0A1
:102BA0000450010A04E103504AEC29F00DD004500E
:102BB0000F0A04E1035095EC23F006D004500E0AEE
:102BC00003E1035047EC29F0E4CF07F0E4CF06F02F
:102BD000E4CF05F0E4CF04F0E4CF03F0E4CF02F05B
:102BE000E4CF01F0E4CF00F0E4CFD9FF120000C041
:102BF000E5FF01C0E5FF02C0E5FF03C0E5FF04C03B
:102C0000E5FF24EC10F00EEC04F053EC24F0006E21
:102C1000F3CF01F0F4CF02F0E9CF03F004017C51CF
:102C2000005E7D51015A7E51025A7F51035A039E24
:102C30003F0E035C08E1FF0E025C05E1FF0E015C44
:102C400002E1FF0E005CD8B04CD00401053F01D07A
:102C5000062B53EC24F0F3CF01F0F4CF02F0E9CFD0
:102C600003F0880F04017C6F130E01207D6F000EAE
:102C700002207E6F000E03207F6F60EC06F000C420
:102C800000F001C402F002C404F0E56A0050E56EF1
:102C9000E56A0250E56EE56A0450E56E000EE56EE9
:102CA000140EE56E0C0EE56E44EC21F0090EE126E3
:102CB00024EC10F07AEC0DF024EC10F0C4EC20F0D1
:102CC00024EC10F004010551050A02E1065101E06F
:102CD00008D00401056B066B04010751D8A49DECD4
:102CE00027F0E4CF04F0E4CF03F0E4CF02F0E4CF28
:102CF00001F0E4CF00F01200D9CFE5FFE1CFD9FF1A
:102D000000C0E5FF01C0E5FF02C0E5FF03C0E5FF2D
:102D100004C0E5FF05C0E5FF06C0E5FF07C0E5FF0D
:102D2000020EDBCF00F0030EDBCF01F0040EDBCF91
:102D300002F0050EDBCF03F010C411F404010F51B3
:102D40000401115F1151046E0404116F03C004F0FB
:102D5000056A030E0426D8B0052A11C406F0076AD6
:102D60000750800FF36E0550800FF35C02E10450B2
:102D7000065C02E2E86830D0020E035C02E2E86A18
:102D80002BD00350046E0404036EE56E3EEC22F07B
:102D9000E652046A0350045C14E204500024056EF9
:102DA000E86A0120066EE86A022005C0E9FF06C055
:102DB000F3FF6AEC28F0042AE56E3EEC22F0E652BE
:102DC000E9D710C411F404010F510401115F11512E
:102DD000006E0004116FE86AE4CF07F0E4CF06F05C
:102DE000E4CF05F0E4CF04F0E4CF03F0E4CF02F049
:102DF000E4CF01F0E4CF00F0E4CFD9FF120000C02F
:102E0000E5FF01C0E5FF02C0E5FF03C0E5FF04C028
:102E1000E5FF006A890E0024016E026A030E022299
:102E200001C0E9FF02C0EAFFEF6A002A020E005C5F
:102E3000F1E3006A0050020DF450026EF3CF01F08E
:102E4000E00E0124036E000E0220046E03C0E9FFB1
:102E500004C0EAFFEE6AEF6A5C0E0124036E040E02
:102E60000220046E03C0E9FF04C0EAFFEE6AEF6AC5
:102E7000930E0124036E040E0220046E03C0E9FFCA
:102E800004C0EAFFEE6AEF6AB30E0124036E040E7B
:102E90000220046E03C0E9FF04C0EAFFEE6AEF6A95
:102EA000D30E0126040E022201C0E9FF02C0EAFF90
:102EB000EE687F0EEF6E400E0024016E026A030E74
:102EC000022201C0E9FF02C0EAFFEF68002A100EEB
:102ED000005CD8A0AFD7AF0EC06EC16A010EC26E43
:102EE000C282E4CF04F0E4CF03F0E4CF02F0E4CFF9
:102EF00001F0E4CF00F0120043204120256420259A
:102F0000640A0000D9CFE5FFE1CFD9FF00C0E5FF9B
:102F100001C0E5FF02C0E5FF03C0E5FF04C0E5FF17
:102F200005C0E5FF020EDBCF00F0030EDBCF01F0A2
:102F3000040EDBCF02F00050020DF450036EF3CF0D
:102F400000F05C0E0024046E040E0320056E04C025
:102F5000E9FF05C0EAFF01C0EEFF02C0EFFF930EDC
:102F60000024046E040E0320056E04C0E9FF05C0B2
:102F7000EAFFEECF04F0EFCF05F00150045C016EE4
:102F800002500558026E000E0026030E032200C0F8
:102F9000E9FF03C0EAFF01C0EEFF02C0EFFFD880E7
:102FA00002AED89004E3021E016CD8B4022A02508B
:102FB000800F800F02E1030E015C02E2016A026AE7
:102FC0000150021007E100C0E9FF03C0EAFF000E54
:102FD000EE6AEF6AE4CF05F0E4CF04F0E4CF03F04B
:102FE000E4CF02F0E4CF01F0E4CF00F0E4CFD9FF6A
:102FF0001200D9CFE5FFE1CFD9FF00C0E5FF01C046
:10300000E5FF02C0E5FF03C0E5FF04C0E5FF05C022
:10301000E5FF06C0E5FF07C0E5FF020EDBCF00F0CD
:10302000030EDBCF01F0040EDBCF02F0050EDBCF89
:1030300003F0D88001AED890046A0436045007E04B
:10304000011C066E001C056E054A062A04D000C04D
:1030500005F001C006F0D88003AED890006A0036B3
:10306000005007E0031C076E021C016E014A072A8C
:1030700004D002C001F003C007F00750E56E015014
:10308000E56E0650E56E0550E56E8CEC1CF0016EA9
:10309000F3CF02F0040EE1260050041A04500AE0B7
:1030A000021C036E011C006E004A032A03C0F3FFDA
:1030B000005003D002C0F3FF0150E4CF07F0E4CF8B
:1030C00006F0E4CF05F0E4CF04F0E4CF03F0E4CF62
:1030D00002F0E4CF01F0E4CF00F0E4CFD9FF12001A
:1030E000D9CFE5FFE1CFD9FF00C0E5FF01C0E5FF83
:1030F00002C0E5FF03C0E5FF04C0E5FF05C0E5FF32
:1031000006C0E5FF07C0E5FF08C0E5FF020EDBCF04
:1031100000F0030EDBCF01F0040EDBCF02F0050E52
:10312000DBCF03F0060EDBCF04F0070EDBCF05F09C
:10313000050E035C35E2002A02E3014A022A03502D
:10314000020DF3CF03F003500026E86A0122E86A7B
:103150000222036A066A200E0426520E0322000E83
:10316000062204C0F6FF03C0F7FF06C0F8FF0900FF
:10317000F5CF04F0036A03300530076E066A0632A5
:10318000086A045006120850071206C0E5FF07C07F
:10319000F4FF00C0E9FF01C0F3FF0250B4EC28F0D7
:1031A000E4CF08F0E4CF07F0E4CF06F0E4CF05F079
:1031B000E4CF04F0E4CF03F0E4CF02F0E4CF01F079
:1031C000E4CF00F0E4CFD9FF120000C0E5FF01C05A
:1031D000E5FF02C0E5FF03C0E5FF83C300F084C341
:1031E00001F0E86A030184BFFF0E026EE56E025033
:1031F000E56E0150E56E0050E56EE56AE56A030E86
:10320000E56EE80EE56E70EC0CF0006EF3CF01F0A9
:10321000F4CF02F0E9CF03F0080EE126E56AE56A93
:10322000030EE56EE80EE56E0350E56E0250E56EA6
:103230000150E56E0050E56EC1EC13F0006EF3CF67
:1032400001F0080EE126430E04012A6F640E2B6F75
:10325000530E2C6F01502D6F00502E6F0A0E2F6FE2
:10326000060EE56E800EE56E040EE56E2A0EE56E26
:10327000DEEC14F0040EE12653EC24F0F3CF01F061
:10328000F4CF02F0E9CF03F0800F0401086F840E41
:103290000120096F1E0E02200A6F000E03200B6F23
:1032A000E4CF03F0E4CF02F0E4CF01F0E4CF00F08C
:1032B0001200D9CFE5FFE1CFD9FF00C0E5FF01C083
:1032C000E5FF02C0E5FF03C0E5FF04C0E5FF05C060
:1032D000E5FF06C0E5FF020EDBCF00F0030EDBCFFB
:1032E00001F0040EDBCF02F000C0E9FF01C0F3FFE4
:1032F00002506AEC28F0E56AE56EF7EC23F0E6523E
:10330000E652000EE56A3FEC27F0E652002A02E39F
:10331000014A022A036A080E035C27E20350020DE9
:10332000F3CF04F0056A066A005004260150052216
:103330000250062204C0E9FF05C0F3FF0650DFEC8F
:1033400027F0E56E3FEC27F0E65204C0E9FF05C028
:10335000F3FF0650DFEC27F0F3CF05F00550E56EE4
:103360003FEC27F0E652032AD6D745EC25F0E4CF10
:1033700006F0E4CF05F0E4CF04F0E4CF03F0E4CFAF
:1033800002F0E4CF01F0E4CF00F0E4CFD9FF120067
:10339000D9CFE5FFE1CFD9FF00C0E5FF01C0E5FFD0
:1033A00002C0E5FF03C0E5FF04C0E5FF05C0E5FF7F
:1033B00006C0E5FF020EDBCF00F0030EDBCF01F00D
:1033C000040EDBCF02F0050EDBCF03F0D88001AE98
:1033D000D890046A0436045007E0011C066E001CF5
:1033E000056E054A062A04D000C005F001C006F0AB
:1033F000D88003AED89007E3031C016E021C006E58
:10340000004A012A04D002C000F003C001F00150BC
:10341000E56E0050E56E0650E56E0550E56ED7ECA2
:103420001BF0006EF3CF01F0040EE12604500AE019
:10343000011C036E001C026E024A032A03C0F3FF44
:10344000025003D001C0F3FF0050E4CF06F0E4CFF8
:1034500005F0E4CF04F0E4CF03F0E4CF02F0E4CFD2
:1034600001F0E4CF00F0E4CFD9FF1200D9CFE5FF9F
:10347000E1CFD9FF00C0E5FF01C0E5FF02C0E5FFD5
:1034800003C0E5FF04C0E5FF05C0E5FF020EDBCF8A
:1034900000F0030EDBCF01F0040EDBCF02F0050ECF
:1034A000DBCF03F087C304F088C305F00301873F37
:1034B00001D0882B0350E56E0450E56E02EC26F037
:1034C000E652E65287C304F088C305F00301873F44
:1034D00001D0882B0250056EE56E0450E56E02ECBB
:1034E00026F0E652E65287C304F088C305F00301D4
:1034F000873F01D0882B0150E56E0450E56E02EC49
:1035000026F0E652E65287C304F088C305F00301B3
:10351000873F01D0882B0050E56E0450E56E02EC29
:1035200026F0E652E652E4CF05F0E4CF04F0E4CF13
:1035300003F0E4CF02F0E4CF01F0E4CF00F0E4CFF9
:10354000D9FF1200D9CFE5FFE1CFD9FF00C0E5FFD9
:1035500001C0E5FF02C0E5FF03C0E5FF04C0E5FFD1
:1035600005C0E5FF06C0E5FF020EDBCF00F0030E4D
:10357000DBCF01F00038E8441F0B026E036A890EAE
:103580000226030E032202C0E9FF03C0EAFFEFCFC9
:1035900004F00050056E070E0516010E066E05506C
:1035A0000DE006E6E86CD8900636010FFDE306D084
:1035B000D89006BED8800632010FFBE304500612F5
:1035C00002C0E9FF03C0EAFF06C0EFFF500E00246F
:1035D000026E036A030E032202C0E9FF03C0EAFF82
:1035E00001C0EFFF016A400E0026030E012200C059
:1035F000E9FF01C0EAFFFF0EEF68E4CF06F0E4CF79
:1036000005F0E4CF04F0E4CF03F0E4CF02F0E4CF20
:1036100001F0E4CF00F0E4CFD9FF1200D9CFE5FFED
:10362000E1CFD9FF00C0E5FF01C0E5FF02C0E5FF23
:1036300003C0E5FF04C0E5FF05C0E5FF06C0E5FFE8
:10364000020EDBCF00F0030EDBCF01F0040EDBCF68
:1036500002F00301925119E151EC14F0036EF3CF23
:1036600004F0F4CF05F0E9CF06F003C0E5FF04C095
:10367000F4FF05C0F6FF06C0F7FF00C0E9FF01C078
:10368000F3FF025059EC28F01ED003019251010AB9
:103690001AE100C0E9FF01C0F3FF025026EC26F05A
:1036A000006EF3CF01F0F4CF02F0E9CF03F0035046
:1036B000E56E0250E56E0150E56E0050E56E36ECA9
:1036C0001AF0040EE126E4CF06F0E4CF05F0E4CFD3
:1036D00004F0E4CF03F0E4CF02F0E4CF01F0E4CF54
:1036E00000F0E4CFD9FF1200D9CFE5FFE1CFD9FF39
:1036F00000C0E5FF01C0E5FF02C0E5FF03C0E5FF34
:1037000004C0E5FF05C0E5FF06C0E5FF020EDBCF04
:1037100000F0030EDBCF01F0040EDBCF02F0050E4C
:10372000DBCF03F0060EDBCF04F0070EDBCF05F096
:10373000080EDBCF06F0D88003AED89015E3065014
:103740000A0A12E104C0E9FF05C0EAFF2D0EEF6E80
:10375000044A052A031E021E011E006C05E1012A0F
:1037600003E1022AD8B4032A0650E56E0550E56E3F
:103770000450E56E0350E56E0250E56E0150E56EB3
:103780000050E56E83EC0EF0070EE126E4CF06F064
:10379000E4CF05F0E4CF04F0E4CF03F0E4CF02F08F
:1037A000E4CF01F0E4CF00F0E4CFD9FF1200D9CF8D
:1037B000E5FFE1CFD9FF00C0E5FF01C0E5FF02C092
:1037C000E5FF03C0E5FF04C0E5FF05C0E5FF06C057
:1037D000E5FF020EDBCF00F0030EDBCF01F0040E9D
:1037E000DBCF02F0050EDBCF03F0046A056A03505D
:1037F000800BE844066E065011E1025002260336A3
:103800000350015C02E10250005C04E2D8900332F4
:10381000023204D0052A05C004F0E9D70350015C48
:1038200002E10250005C04E30250005E0350015AC2
:10383000D8900332023204C005F004060550EEE1D0
:1038400001C0F3FF0050E4CF06F0E4CF05F0E4CF71
:1038500004F0E4CF03F0E4CF02F0E4CF01F0E4CFD2
:1038600000F0E4CFD9FF120000C0E5FF01C0E5FF82
:1038700002C0E5FF7DEC24F0006E4C0A08E17DEC0F
:1038800024F0300A02E08B8240D08B923ED0005070
:10389000450A27E1000EE56E140EE56E1A0EE56E80
:1038A00044EC21F0030EE12641EC29F0006E00C04B
:1038B00001F001C002F0010602500FE07DEC24F09F
:1038C000E56AE56E000EE56E140EE56E1C0EE56E03
:1038D00044EC21F0050EE126ECD70A0E95EC23F01E
:1038E00014D00050510A11E17DEC24F0300A03E1BC
:1038F000006A002A01D0006A0050D880E866D8909B
:10390000006A003600500401076FE4CF02F0E4CFF4
:1039100001F0E4CF00F01200D9CFE5FFE1CFD9FFED
:1039200000C0E5FF01C0E5FF02C0E5FF03C0E5FF01
:1039300004C0E5FF05C0E5FF06C0E5FF07C0E5FFE1
:10394000020EDBCF00F0030EDBCF01F0040EDBCF65
:1039500002F0050EDBCF03F0046A056A100E066E56
:103960000150800BE844076E0050002601360450D9
:10397000042605360750D8A404800350055C02E1F4
:103980000250045C05E30250045E0350055A0080B7
:103990000604076E07C006F00750E2E101C0F3FF1E
:1039A0000050E4CF07F0E4CF06F0E4CF05F0E4CF19
:1039B00004F0E4CF03F0E4CF02F0E4CF01F0E4CF71
:1039C00000F0E4CFD9FF1200D9CFE5FFE1CFD9FF56
:1039D00000C0E5FF01C0E5FF02C0E5FF03C0E5FF51
:1039E000020EDBCF00F0030EDBCF01F0040EDBCFC5
:1039F00002F000C0E9FF01C0F3FF02506AEC28F0BA
:103A0000036E035029E0C6A610D00350E56E3FECCC
:103A100027F0036EE652035002E0FD0E1ED0EFECDD
:103A200022F0C5AC14D0FE0E18D09E9600C0E9FF5F
:103A300001C0F3FF02506AEC28F0C96EC6889EA64A
:103A4000FED7C7B404D0C7B002D0FE0E06D0002AFD
:103A5000D0E3014A022ACDD7E86AE4CF03F0E4CFED
:103A600002F0E4CF01F0E4CF00F0E4CFD9FF120080
:103A7000D9CFE5FFE1CFD9FF00C0E5FF01C0E5FFE9
:103A800002C0E5FF03C0E5FF04C0E5FF05C0E5FF98
:103A9000020EDBCF00F0030EDBCF01F0040EDBCF14
:103AA00002F0050EDBCF03F0046A03C005F0030645
:103AB000055022E028EC24F0056E05C0E5FF00C0AB
:103AC000E9FF01C0F3FF0250E2EC28F0002A02E314
:103AD000014A022A04C005F0C5A6E7D7A1A602D074
:103AE000E8680BD0052A05C004F00350F5E0A7EC08
:103AF00024F0C5B8FED7F0D70450E4CF05F0E4CFEA
:103B000004F0E4CF03F0E4CF02F0E4CF01F0E4CF1F
:103B100000F0E4CFD9FF120000C0E5FF01C0E5FFCF
:103B200002C0E5FF03C0E5FF98C300F0016AA3C32C
:103B300002F0036A0250005E0350015AE56A800EEB
:103B4000E56E0150E56E0050E56EC8EC19F0006EB0
:103B5000040EE1260006A3C301F0430E95EC23F00A
:103B6000200E95EC23F0005020E0600E0124026E40
:103B7000036A000E032202C0E9FF03C0EAFFEFCF91
:103B800002F0E56A0250E56E000EE56E510EE56E3C
:103B9000480EE56E44EC21F0050EE126012A0150A5
:103BA000800A01E1016A0006DED7E4CF03F0E4CF2A
:103BB00002F0E4CF01F0E4CF00F01200D9CFE5FF2E
:103BC000E1CFD9FF00C0E5FF01C0E5FF02C0E5FF7E
:103BD00003C0E5FF020EDBCF00F0030EDBCF01F0E8
:103BE000040EDBCF02F0050EDBCF03F003C0E5FFD0
:103BF00000C0E9FF01C0F3FF0250E2EC28F0E56AE3
:103C00000350E56EF7EC23F0E652E652210EE56E26
:103C10003FEC27F0E65245EC25F0E56A0250E56EF0
:103C20000150E56E0050E56E04EC21F0040EE12633
:103C30000F0EE56E0250E56E0150E56E0050E56E28
:103C4000C3EC21F0040EE126E4CF03F0E4CF02F050
:103C5000E4CF01F0E4CF00F0E4CFD9FF1200D9CFD8
:103C6000E5FFE1CFD9FF00C0E5FF01C0E5FF02C0DD
:103C7000E5FF03C0E5FF020EDBCF00F0030EDBCF54
:103C800001F0040EDBCF02F0050EDBCF03F0005095
:103C900003018B6F01508C6F025003018D6F035035
:103CA0008E6F03018B5103018D03F4CF01F0F3CF2D
:103CB00000F0005003018F6F0150906F03018B5192
:103CC00003018E03F3CF00F003018C5103018D0338
:103CD000F3CF01F00150002603019051002600505F
:103CE000906F90C3F3FF8F51E4CF03F0E4CF02F065
:103CF000E4CF01F0E4CF00F0E4CFD9FF1200D9CF38
:103D0000E5FFE1CFD9FF00C0E5FF01C0E5FF02C03C
:103D1000E5FF03C0E5FF04C0E5FF020EDBCF00F0C6
:103D2000030EDBCF01F0040EDBCF02F00301925152
:103D300011E161EC23F0036EF3CF04F003C0E5FF63
:103D400004C0F4FF00C0E9FF01C0F3FF0250B4EC6F
:103D500028F016D003019251010A12E100C0E9FFD8
:103D600001C0F3FF0250DFEC27F0006EF3CF01F04B
:103D70000150E56E0050E56E01EC22F0E652E6528D
:103D8000E4CF04F0E4CF03F0E4CF02F0E4CF01F09D
:103D9000E4CF00F0E4CFD9FF12003E0EF66E520ED3
:103DA000F76E000EF86E0900F550056E0900F5502B
:103DB000066E04E1056702D01AEF1FF00900F55006
:103DC000006E0900F550016E0900F550026E090001
:103DD0000900F550E96E0900F550EA6E0900090086
:103DE0000900F550036E0900F550046E0900090042
:103DF000F6CF07F0F7CF08F0F8CF09F000C0F6FFD4
:103E000001C0F7FF02C0F8FF035002E1045007E0D1
:103E10000900F550EE6E0306F8E20406F9D707C074
:103E2000F6FF08C0F7FF09C0F8FF050601E2060625
:103E3000D9EF1EF01200D9CFE5FFE1CFD9FF00C0C6
:103E4000E5FF01C0E5FF02C0E5FF03C0E5FF04C0D8
:103E5000E5FF05C0E5FF06C0E5FF020EDBCF00F081
:103E6000030EDBCF01F0040EDBCF02F0002A02E3E9
:103E7000014A022A036A080E035C17E20350020D8E
:103E8000F3CF04F0056A066A0050042601500522AB
:103E900002500622E56AF46A04C0E9FF05C0F3FF98
:103EA0000650B4EC28F0032AE6D7E4CF06F0E4CFBE
:103EB00005F0E4CF04F0E4CF03F0E4CF02F0E4CF68
:103EC00001F0E4CF00F0E4CFD9FF1200D9CFE5FF35
:103ED000E1CFD9FF00C0E5FF01C0E5FF02C0E5FF6B
:103EE00003C0E5FF04C0E5FF020EDBCF00F00038A1
:103EF000E8441F0B016E026A890E0126030E02229E
:103F000001C0E9FF02C0EAFFEFCF03F0070E001681
:103F1000010E046E00500DE006E6E86CD890043601
:103F2000010FFDE306D0D89004BED8800432010F03
:103F3000FBE3041C006E0350001601C0E9FF02C041
:103F4000EAFF00C0EFFFE4CF04F0E4CF03F0E4CFDA
:103F500002F0E4CF01F0E4CF00F0E4CFD9FF12008B
:103F6000D9CFE5FFE1CFD9FF00C0E5FF01C0E5FFF4
:103F700002C0E5FF03C0E5FF04C0E5FF05C0E5FFA3
:103F8000020EDBCF00F00050010A22E1016A01506D
:103F9000020DF450036EF3CF02F0B30E0224046E50
:103FA000040E0320056E04C0E9FF05C0EAFFEE68B9
:103FB0007F0EEF6ED30E0226040E032202C0E9FF2D
:103FC00003C0EAFFEE6AEF6A012A100E015CDFE32C
:103FD00000C015F4E4CF05F0E4CF04F0E4CF03F023
:103FE000E4CF02F0E4CF01F0E4CF00F0E4CFD9FF5A
:103FF0001200D9CFE5FFE1CFD9FF00C0E5FF01C036
:10400000E5FF02C0E5FF03C0E5FF04C0E5FF020EC7
:10401000DBCF00F0030EDBCF01F0040EDBCF02F0AC
:10402000050EDBCF03F0060EDBCF04F0050E035CBC
:1040300018E2002A02E3014A022A0350020DF3CFDC
:1040400003F003500026E86A0122E86A022204C055
:10405000E5FFF46A00C0E9FF01C0F3FF0250B4ECD1
:1040600028F0E4CF04F0E4CF03F0E4CF02F0E4CF93
:1040700001F0E4CF00F0E4CFD9FF1200D9CFE5FF83
:10408000E1CFD9FF00C0E5FF01C0E5FF02C0E5FFB9
:10409000020EDBCF00F0030EDBCF01F0040EDBCF0E
:1040A00002F00A0EE56E0150E56E0050E56E800EDE
:1040B000E56E0F0EE56E230EE56E5FEC0FF0060E5B
:1040C000E1260250E56E020EE56E800EE56E0F0EE3
:1040D000E56E230EE56EF9EC1FF0050EE126800E6D
:1040E000E56E0F0EE56E230EE56E59EC19F0030E2A
:1040F000E126E4CF02F0E4CF01F0E4CF00F0E4CF1A
:10410000D9FF120000C0E5FF01C0E5FF02C0E5FFD6
:104110007DEC24F0006E7DEC24F0016E0050026E08
:10412000D00E0224006E0A0E005C05E30050026E01
:10413000F90E0224006E0150026ED00E0224016EB0
:104140000A0E015C05E30150026EF90E0224016EB5
:10415000080E005C12E2100E015CD8B00ED00038E0
:10416000F00B0124006EB5EC22F0016E015005E168
:104170000050E56E27EC27F0E652E4CF02F0E4CFE2
:1041800001F0E4CF00F0120000C0E5FF01C0E5FF40
:1041900002C0E5FF006A81B2002A0050D880E866BC
:1041A000D890006A0036016A81B8012A0150D8808F
:1041B000E866D890016A0136026A81BA022A025082
:1041C000D880E866D890026A0236005004010019CF
:1041D00004E000C000F40FEC27F0015004010119C5
:1041E00004E001C001F465EC26F00250040102195C
:1041F00004E002C002F4BEEC26F0E4CF02F0E4CF0B
:1042000001F0E4CF00F01200D9CFE5FFE1CFD9FFF4
:1042100000C0E5FF01C0E5FF02C0E5FF03C0E5FF08
:10422000020EDBCF00F0030EDBCF01F0040EDBCF7C
:1042300002F0050EDBCF03F0040E035CD8B0036A76
:1042400000C0E9FF01C0F3FF02506AEC28F0E56A04
:10425000E56EF7EC23F0E652E6520344FE0B036EE4
:10426000810E03120350E56E3FEC27F0E65245EC59
:1042700025F0E4CF03F0E4CF02F0E4CF01F0E4CF87
:1042800000F0E4CFD9FF1200D9CFE5FFE1CFD9FF8D
:1042900000C0E5FF01C0E5FF02C0E5FF020ED92422
:1042A000006E000EDA20016E800E026E030E0026F4
:1042B000000E012202220250E56E0150E56E005010
:1042C000E56E040EDBCFE5FF030EDBCFE5FF020E4C
:1042D000DBCFE5FF04013751E56E3651E56E355110
:1042E000E56E0EEC00F0006EF3CF01F0090EE12652
:1042F00001C0F3FF0050E4CF02F0E4CF01F0E4CFBF
:1043000000F0E4CFD9FF1200D9CFE5FFE1CFD9FF0C
:1043100000C0E5FF01C0E5FF02C0E5FF03C0E5FF07
:10432000020EDBCF00F0030EDBCF01F0040EDBCF7B
:1043300002F0030192510DE1B3EC27F0036E03C0CC
:10434000E5FF00C0E9FF01C0F3FF0250E2EC28F0F6
:104350000FD003019251010A0BE100C0E9FF01C037
:10436000F3FF02506AEC28F0E56E93EC25F0E6527C
:10437000E4CF03F0E4CF02F0E4CF01F0E4CF00F0AB
:10438000E4CFD9FF1200D9CFE5FFE1CFD9FF00C0BC
:10439000E5FF01C0E5FF02C0E5FF03C0E5FF020E37
:1043A000DBCF00F0030EDBCF01F0040EDBCF02F019
:1043B000050EDBCF03F0100E035C02E30F0E036E5D
:1043C00000C0E9FF01C0F3FF02506AEC28F0E56A83
:1043D000E56EF7EC23F0E652E652E00E03120350CE
:1043E000E56E3FEC27F0E65245EC25F0E4CF03F014
:1043F000E4CF02F0E4CF01F0E4CF00F0E4CFD9FF46
:104400001200D9CFE5FFE1CFD9FF00C0E5FF01C021
:10441000E5FF02C0E5FF03C0E5FF020EDBCF00F0C1
:10442000030EDBCF01F087C302F088C303F0030162
:10443000873F01D0882B0150E56E0250E56E02ECFB
:1044400026F0E652E65287C302F088C303F0030168
:10445000873F01D0882B0050E56E0250E56E02ECDC
:1044600026F0E652E652E4CF03F0E4CF02F0E4CFC8
:1044700001F0E4CF00F0E4CFD9FF1200D9CFE5FF7F
:10448000E1CFD9FF00C0E5FF01C0E5FF02C0E5FFB5
:1044900003C0E5FF04C0E5FF020EDBCF00F00FC450
:1044A00001F0026A014A022A10C403F0046A0150B2
:1044B000031803E10250041801E001D00ED0000EF1
:1044C00004010F25016E026A010E022201C0E9FFFC
:1044D00002C0EAFF00C0EFFF0F2BE4CF04F0E4CFEF
:1044E00003F0E4CF02F0E4CF01F0E4CF00F0E4CF3A
:1044F000D9FF1200D9CFE5FFE1CFD9FF00C0E5FF1A
:1045000001C0E5FF02C0E5FF03C0E5FF020EDBCFFF
:1045100000F0016AA3C302F0036A025000260350B0
:104520000122E56A800EE56E0150E56E0050E56EF1
:10453000C8EC19F0006EF3CF01F0040EE126600E16
:104540000026000E012200C0E9FF01C0EAFFEFCF04
:1045500000F00050E4CF03F0E4CF02F0E4CF01F02C
:10456000E4CF00F0E4CFD9FF120000C0E5FF01C0A6
:10457000E5FF02C0E5FF010E006E7DEC24F0016E48
:1045800001C002F0015023E00050E56E8AEC28F0F3
:10459000016EE652015010E10A0E005C0BE20A0EB9
:1045A000006EE56E8AEC28F0016EE652015004E1DF
:1045B000E8680ED0E8680CD00150021802E0E86804
:1045C00007D0002A1B0E005CD8E3E86801D0E86A37
:1045D000E4CF02F0E4CF01F0E4CF00F0120000C01D
:1045E000E5FF01C0E5FF02C0E5FF03C0E5FF04C031
:1045F000E5FF05C0E5FFE80E006E030E016E0050FA
:10460000FF0F026EFF0E0120036E02C000F003C018
:1046100001F00250031010E0C5CF02F0036A1F0E34
:104620000216046AC7B4042A056A0450021205502F
:10463000031202500310E3E1E4CF05F0E4CF04F0ED
:10464000E4CF03F0E4CF02F0E4CF01F0E4CF00F0D8
:104650001200F3CFE5FFF4CFE5FFE9CFE5FFEACFA6
:10466000E5FFFACFE5FFFBCFE5FF04010D510F0198
:10467000366F04010E510F01376FD650346FD7508B
:10468000356FF2A411D004010D3F01D00E2BF2942E
:1046900004010D510F01366F04010E510F01376FE8
:1046A000D650346FD750356FE4CFFBFFE4CFFAFF1D
:1046B000E4CFEAFFE4CFE9FFE4CFF4FFE4CFF3FF78
:1046C000110000C0E5FF01C0E5FF02C0E5FF03C027
:1046D000E5FF87C300F088C301F00301873F01D0E5
:1046E000882B0050E56E8AEC28F0E652036E026AD1
:1046F00087C300F088C301F00301873F01D0882BF6
:104700000050E56E8AEC28F0E652016A0212015070
:10471000031203C0F3FF0250E4CF03F0E4CF02F032
:10472000E4CF01F0E4CF00F0120000C0E5FF01C0CB
:10473000E5FF02C0E5FF006E390E04011425016E8D
:10474000026A040E022201C0E9FF02C0EAFF00C0B3
:10475000EFFF220E145D01E2142B00500A0A0FE154
:1047600004011451E56E800EE56E040EE56E390EFF
:10477000E56E7CEC16F0040EE1260401146BE4CF28
:1047800002F0E4CF01F0E4CF00F0120004010F6B5F
:104790000401106B0401116994808B909480B06ABD
:1047A0003F0EAF6EB886AC8AAC84AC8CAC90AB8C50
:1047B000AB8E03019A6B0301946B0301976B0301AA
:1047C000986B0301996B000EE56A8AEC28F00401EE
:1047D000136FE6529F989F9A010E0401126F040115
:1047E000356B366B2F0E376F98EC28F01200D9CF4F
:1047F000E5FFE1CFD9FF00C0E5FF01C0E5FF02C042
:10480000E5FF020EDBCF00F0030EDBCF01F06CEC16
:1048100025F00044FE0B026E0150D880E866D89067
:10482000016A01360150D880E866D890016A0136E5
:10483000015002120250E56E3FEC27F0E652E4CF41
:1048400002F0E4CF01F0E4CF00F0E4CFD9FF120092
:1048500000C0E5FF01C0E5FF02C0E5FF03C0E5FFC2
:10486000E80E006E030E016EEFEC22F0C5860050DC
:10487000FF0F026EFF0E0120036E02C000F003C0A6
:1048800001F00250031005E02CEC29F0026E0250FA
:10489000EEE0C950E4CF03F0E4CF02F0E4CF01F042
:1048A000E4CF00F0120004010D510301676F040111
:1048B0000E510301686FD650656FD750666F675110
:1048C00004010D1905E10301685104010E190CE002
:1048D00004010D510301676F04010E510301686F5C
:1048E000D650656FD750666F68C3E9FF67C3F4FFA2
:1048F00066C3F3FF03016551120000C0E5FF01C06C
:10490000E5FF030198510301A11905E00301985146
:104910000301971902E1E86A15D098C300F003017A
:10492000982B016A600E0026000E012200C0E9FFEC
:1049300001C0EAFFEFCF00F09851800A02E10301C5
:10494000986B0050E4CF01F0E4CF00F0120000C0FB
:10495000E5FF01C0E5FF02C0E5FF03C0E5FFE80E8B
:10496000006E030E016EEFEC22F09E96C59AC5888C
:104970000050FF0F026EFF0E0120036E02C000F018
:1049800003C001F00250031002E09EA6F1D7E4CF6D
:1049900003F0E4CF02F0E4CF01F0E4CF00F0120026
:1049A00000C0E5FF3BEC29F00401896B806B898333
:1049B000006A89B3002A0050010BE844F46E80516C
:1049C000FD0BF410806FD58ED59CD59AD588D596E1
:1049D000D594D582D580F28AF184D08EF28EF28C75
:1049E000BA80FF0EBB68BA84E4CF00F01200D9CFC2
:1049F000E5FFE1CFD9FF00C0E5FF01C0E5FF020EF2
:104A0000DBCF00F00050020DF450016EF3CF00F048
:104A1000000E0026030E012200C0E9FF01C0EAFFDC
:104A2000EECF00F0EFCF01F001C0F3FF0050E4CF74
:104A300001F0E4CF00F0E4CFD9FF1200D9CFE5FFB9
:104A4000E1CFD9FF00C0E5FF01C0E5FF020EDBCFDB
:104A500000F00050020DF450016EF3CF00F0E00EB4
:104A60000026000E012200C0E9FF01C0EAFFEECFE0
:104A700000F0EFCF01F001C0F3FF0050E4CF01F0F0
:104A8000E4CF00F0E4CFD9FF120000C0E5FF01C081
:104A9000E5FF02C0E5FF03C0E5FFE80E006E030E70
:104AA000016EEFEC22F0C5840050FF0F026EFF0E86
:104AB0000120036E02C000F003C001F00250031099
:104AC00002E0C5B4F1D7E4CF03F0E4CF02F0E4CFC5
:104AD00001F0E4CF00F0120000C0E5FF01C0E5FFE7
:104AE00002C0E5FF03C0E5FFE80E006E030E016E95
:104AF000EFEC22F0C5800050FF0F026EFF0E012088
:104B0000036E02C000F003C001F00250031002E087
:104B1000C5B0F1D7E4CF03F0E4CF02F0E4CF01F069
:104B2000E4CF00F01200D9CFE5FFE1CFD9FF00C0FC
:104B3000E5FF01C0E5FF02C0E5FF020EDBCF00F09C
:104B400087C301F088C302F00301873F01D0882B9F
:104B50000050E56E0150E56E02EC26F0E652E6529A
:104B6000E4CF02F0E4CF01F0E4CF00F0E4CFD9FFCE
:104B70001200D8CFE5FFE0CFE5FFE56EF3CFE5FF0C
:104B8000F4CFE5FFE9CFE5FFEACFE5FFFACFE5FF98
:104B9000FBCFE5FF51EC0BF0E4CFFBFFE4CFFAFFD6
:104BA000E4CFEAFFE4CFE9FFE4CFF4FFE4CFF3FF83
:104BB000E450E4CFE0FFE4CFD8FF100000C0E5FFF1
:104BC00001C0E5FF02C0E5FF7DEC24F0010A13E11E
:104BD0000F0E016E230E006E800E026E7DEC24F02F
:104BE000E56E0250E56E0150E56E0050E56EC3ECD7
:104BF00021F0040EE126E4CF02F0E4CF01F0E4CF8F
:104C000000F01200D9CFE5FFE1CFD9FF00C0E5FFEA
:104C1000020EDBCF00F0030EDBCFA8FF00C0A9FF20
:104C2000A69EA69CA684F29EF29C550EA76EAA0E86
:104C3000A76EA682A6A202D00000FCD7A694F28E90
:104C4000F28CE4CF00F0E4CFD9FF1200E8AE0AD036
:104C5000F3CFEAFFEE50EECFF3FFEECFF4FFEECF4F
:104C6000E9FF1200E8BC50EF29F0E9CFF6FFF3CFDF
:104C7000F7FFF86E0900F5500900F5CFF3FF0900C2
:104C8000F5CFF4FF0900F5CFE9FF120000C0E5FF02
:104C900001C0E5FF04010F510401101902E1E86AA7
:104CA0000FD0000E04011025006E016A010E0122D2
:104CB00000C0E9FF01C0EAFFEFCF00F0102B005069
:104CC000E4CF01F0E4CF00F01200430E0401816F45
:104CD000640E826F410E836F420E846F4F0E856F9C
:104CE000520E866F540E876F0A0E886F080EE56E9F
:104CF000800EE56E040EE56E810EE56EDEEC14F0BE
:104D0000040EE1261200F2CFEAFFF29EA69EA69CB8
:104D1000A684E9CFA9FFF3CFAAFFE4CFA8FFF7EC61
:104D200028F0F4CFA8FFF7EC28F0F6CFA8FFF7ECB7
:104D300028F0F7CFA8FFF7EC28F0A694EABEF28E91
:104D40001200F2CFF6FFF29EA69EA69CE9CFA9FF25
:104D5000F3CFAAFFA680A850A94AAA2AA680A8CF66
:104D6000F3FFA94AAA2AA680A8CFF4FFA94AAA2A33
:104D7000A680A8CFEAFFF6BEF28E1200430E040111
:104D80008A6F640E8B6F480E8C6F4F0E8D6F4D0EB9
:104D90008E6F450E8F6F0A0E906F070EE56E800EB8
:104DA000E56E040EE56E8A0EE56EDEEC14F0040E80
:104DB000E1261200E8AE08D0F3CFEAFFEE50EECFC6
:104DC000F3FFEECFF4FF1200E8BC58EF29F0E9CF73
:104DD000F6FFF3CFF7FFF86E0900F5500900F5CFA5
:104DE000F3FF0900F5CFF4FF1200F2CFEAFFF29EC5
:104DF000A69EA69CA684E9CFA9FFF3CFAAFFE4CF85
:104E0000A8FFF7EC28F0F4CFA8FFF7EC28F0F6CFD6
:104E1000A8FFF7EC28F0A694EABEF28E1200430E2B
:104E20000401306F640E316F470E326F4F0E336FD7
:104E30000A0E346F050EE56E800EE56E040EE56E0B
:104E4000300EE56EDEEC14F0040EE1261200D9CF30
:104E5000E5FFE1CFD9FF00C0E5FF020EDBCF00F098
:104E600000C013F40050E56E000EE56A02EC26F077
:104E7000E652E652E4CF00F0E4CFD9FF1200D9CFDA
:104E8000E5FFE1CFD9FF00C0E5FF020EDBCF00F068
:104E9000C69E00C0C9FFC6AE02D0E86803D0EFECE2
:104EA00022F0E86AE4CF00F0E4CFD9FF1200F2CF9D
:104EB000F6FFF29EA69EA69CE9CFA9FFF3CFAAFF1C
:104EC000A680A850A94AAA2AA680A8CFF3FFA94A7B
:104ED000AA2AA680A8CFF4FFF6BEF28E120000C068
:104EE000E5FF01C0E5FF600E03019825006E016A31
:104EF000000E012200C0E9FF01C0EAFFEFCF00F081
:104F00000050E4CF01F0E4CF00F01200D9CFE5FF6C
:104F1000E1CFD9FF00C0E5FF020EDBCF00F0610E4C
:104F2000005C05E37B0E005C02E2010E01D0E86A42
:104F3000E4CF00F0E4CFD9FF1200430E0301606F0D
:104F4000640E616F550E626F0A0E636F040EE56E9C
:104F5000800EE56E030EE56E600EE56EDEEC14F07D
:104F6000040EE126120000C0E5FF01C0E5FF87C383
:104F700000F088C301F00301873F01D0882B005067
:104F8000E56E8AEC28F0E652E4CF01F0E4CF00F0C1
:104F90001200D9CFE5FFE1CFD9FF00C0E5FF020E37
:104FA000DBCF00F000C012F4005004E198EC28F0D0
:104FB0009D9A9D98E4CF00F0E4CFD9FF1200E8AEAF
:104FC00006D0F3CFEAFFEE50EECFF3FF1200E8BCBD
:104FD0004EEF29F0E9CFF6FFF3CFF7FFF86E0900A7
:104FE000F5500900F5CFF3FF1200F2CFEAFFF29E71
:104FF000A69EA69CA684E9CFA9FFF3CFAAFFE4CF83
:10500000A8FFF7EC28F0F4CFA8FFF7EC28F0A6945F
:10501000EABEF28E12000000000000000000000056
:1050200000000000000000FF00000000020002007D
:10503000000042000000000000000000000000002E
:1050400012EEFFF022EEFFF0F86AA68EA69CE96849
:105050000E0EEA6E0068000EED6A0050FDE1CDEC28
:105060001EF006EC00F0FFD7F2CFF6FFF29EA69EF0
:10507000A69CE9CFA9FFF3CFAAFFA680A850A94A12
:10508000AA2AA680A8CFF3FFF6BEF28E1200F2CFB6
:10509000EAFFF29EA69EA69CA684E9CFA9FFF3CFC5
:1050A000AAFFE4CFA8FFF7EC28F0A694EABEF28EA0
:1050B0001200E8AE0BD0F3CFEAFFE4CFEEFFF4CF5F
:1050C000EEFFF6CFEEFFF7CFEEFF1200E8BC52EF97
:1050D00029F01200E8AE04D0F3CFEAFFEE50120040
:1050E000E8BC4CEF29F0E9CFF6FFF3CFF7FFF86EFD
:1050F0000900F5501200E8AE09D0F3CFEAFFE4CF83
:10510000EEFFF4CFEEFFF6CFEEFF1200E8BC5AEF51
:1051100029F01200D9CFE5FFE1CFD9FF020EDBCF96
:10512000A9FFA69CA69EA680A850E4CFD9FF120096
:10513000ACA2FED79480AE500000AE50AB98AB88C6
:10514000AB869D8A9D98120025642000F2CFF6FF61
:10515000F29EA69EA69CE9CFA9FFF3CFAAFFA68048
:10516000A850F6BEF28E1200E8AE07D0F3CFEAFFE9
:10517000E4CFEEFFF4CFEEFF1200E8BC56EF29F0CB
:105180001200700ED36E9B8CFF0E92689368946829
:105190009668626AF19E120000C0E5FFB5EC22F04D
:1051A000006E005001E1FF00E4CF00F012000F019B
:1051B000456B900E0F01446F030E0F01436F0F01FB
:1051C000458F1200E8AE05D0F3CFEAFFE4CFEEFF43
:1051D0001200E8BC54EF29F01200D9CFE5FFE1CF6F
:1051E000D9FF020EDBCF18F4E4CFD9FF1200550E21
:1051F000A76EAA0EA76EA682A6B2FED7A94AAA2AB1
:10520000010E0301926F1C0E0301876F886B120061
:10521000EFEC22F09E96C58AC5889EA6FED71200A6
:105220003F065B4F666D7D077F6F777C395E7971D6
:105230000301926B1C0E0301876F886B1200010043
:1052400016500000000400002A000000EFEC22F0DD
:10525000C582C5B2FED71200C7A002D0010E01D090
:10526000E86A1200D0EC24F0C6EC23F01200ACA2E5
:10527000FED7AD6E1200C1EC28F012000301985168
:1052800012000301A2511200040112511200E8CFD2
:105290007FFF1200C96E1200A6EF28F034EF28F04D
:1052A000A1EF26F083EF26F047EF28F0F5EF27F087
:0852B00057EF27F0F5EF26F09F
:020000040030CA
:010006008574
:00000001FF
