:020000040000FA
:100000007BEF3AF0C96E120026EF36F0C5EC0FF028
:10001000C4EC0CF0FDD7120080EF38F0D9CFE5FF2B
:10002000E1CFD9FF00C0E5FF01C0E5FF02C0E5FF59
:1000300003C0E5FF04C0E5FF05C0E5FF06C0E5FF1E
:1000400007C0E5FF08C0E5FF09C0E5FF0AC0E5FFFE
:100050000BC0E5FF0CC0E5FF0DC0E5FF0EC0E5FFDE
:100060000FC0E5FF10C0E5FF11C0E5FF12C0E5FFBE
:1000700013C0E5FF14C0E5FF15C0E5FF16C0E5FF9E
:1000800017C0E5FF18C0E5FF19C0E5FF1AC0E5FF7E
:100090001BC0E5FF1CC0E5FF1DC0E5FF1EC0E5FF5E
:1000A0001FC0E5FF20C0E5FF21C0E5FF22C0E5FF3E
:1000B00023C0E5FF24C0E5FF25C0E5FF26C0E5FF1E
:1000C00027C0E5FF020EDBCF00F0030EDBCF01F00F
:1000D000040EDBCF02F00250086E0150076E005094
:1000E000066EE56A100EE56E0850E56E0750E56E87
:1000F0000650E56E800EE56E050EE56E100EE56E9F
:1001000091EC2CF0080EE12618C503F019C504F097
:100110001AC505F01BC506F003C007F004C008F0BF
:1001200005C009F006C00AF0D8800AAED8900AE3EC
:100130000A1E091E081E076C05E1082A03E1092AA8
:10014000D8B40A2A10C50BF011C50CF0E86A0501F5
:1001500011BFFF0E0D6E0E6E13390F0B0F6E14399B
:10016000106EF00B101A0F2610320F321551E838AE
:10017000E840F80B10121539E840070BE8B4F8090D
:10018000116E126A11BE12680F500B5C0F6E105088
:100190000C58106E11500D58116E12500E58126EF0
:1001A000800F810F08E1FF0E115C05E1FF0E105C6E
:1001B00002E1FE0E0F5CD8A050D01250800F800FCD
:1001C00008E1000E115C05E1000E105C02E1030E77
:1001D0000F5CD8B042D00A340A30166E0930156E62
:1001E0000830146E0730136E1EC517F01FC518F0C7
:1001F000E86A05011FBFFF0E196E800FF36E1650DF
:10020000800FF35C08E11550195C05E11450185C8F
:1002100002E11350175C21E30D38F00B166E0C3819
:10022000156E0F0B151A1626153616360B38E844C0
:10023000E00B146E0B50E838E8441F0B1512050153
:10024000126B1450136F1550146F1650156F186BF6
:10025000196B1A6B1B6BDEEF04F0073408340B6E5E
:100260000C6A0C360950E844FE0B0C120850076E5D
:100270000950086EF00E0716073A083A0814081AD3
:100280000726083207320A50E838E840F80B08120F
:100290000A38E840070B0BC009F00CC00AF0E86A06
:1002A0000CBEFF0E0D6E0E6E07C013F008C014F0EA
:1002B000E86A08BEFF0E156EE56E1550E56E145027
:1002C000E56E1350E56E0E50E56E0D50E56E0A506A
:1002D000E56E0950E56E31EC22F0096EF3CF0AF0BD
:1002E000F4CF0DF0E9CF0EF0080EE1261EC513F095
:1002F0001FC514F0E86A05011FBFFF0E156E166ECC
:10030000E56E1550E56E1450E56E1350E56E0E5017
:10031000E56E0D50E56E0A50E56E0950E56E03EC92
:1003200025F0096EF3CF0AF0080EE12616C50DF090
:1003300017C50EF0E86A050117BFFF0E176E186E9D
:1003400017401B6E1B4218401C6E1C42C00E1C1630
:100350001B141B181C121B1A0E50E840E8403F0BE0
:100360001B120D40196E19420E401A6E1A42C00E31
:100370001A16191419181A12191AD88006AED8901C
:10038000D8B06FD109C00DF00AC00EF0E86A0ABEFD
:10039000FF0E176E800FF36E1250800FF35C08E1B2
:1003A0001150175C05E110500E5C02E10F500D5C1E
:1003B000D8B02FD10650800FF36E1C50800FF35C25
:1003C00008E11B50055C05E11A50045C02E119507C
:1003D000035CD8B0F7D01CC50DF01DC50EF0E86A5F
:1003E00005011DBFFF0E176E186E03500D26045039
:1003F0000E2205501722065018220D500501186FC5
:100400000E50196F17501A6F18501B6F1EC50DF044
:100410001FC50EF01CC517F01DC518F00E50800F3B
:10042000F36E1850800FF35C02E117500D5CD8B0EA
:10043000ADD018C51DF019C51EF01AC51FF01BC59B
:1004400020F01D341E34216E226A22361F50E844EB
:10045000FE0B221221500B6E22500C6E1E380F0B19
:10046000216E1F38226EF00B221A212622322132F1
:100470002050E838E840F80B22122038E840070BFB
:100480002150076E2250086E0BC021F00CC022F0E4
:10049000E86A0CBEFF0E236E246E07C025F008C06C
:1004A00026F0E86A08BEFF0E276EE56E2750E56E5F
:1004B0002650E56E2550E56E2450E56E2350E56E1E
:1004C0002250E56E2150E56E31EC22F0216EF3CF23
:1004D00022F0F4CF23F0E9CF24F0080EE1260DC07E
:1004E00025F00EC026F0E86A0EBEFF0E276EE56E00
:1004F0002750E56E2650E56E2550E56E2450E56EDA
:100500002350E56E2250E56E2150E56E03EC25F098
:10051000216EF3CF22F0080EE1262150096E225001
:100520000A6E09C021F00AC022F0E86A0ABEFF0E76
:10053000236E246E1250800FF36E2450800FF35CF4
:1005400008E12350115C05E12250105C02E12150CA
:100550000F5C1CE20D50175C0D6E0E5018580E6E9D
:10056000E86A0EBEFF0E176E186E0D501D5E0E501F
:100570001E5A17501F5A1850205A1D500501186F47
:100580001E50196F1F501A6F20501B6F1C50800F88
:10059000F36E05011B51800FF35C08E11A511B5CDF
:1005A00005E119511A5C02E11851195CD8B0DCD18F
:1005B00019500501186F1A50196F1B501A6F1C50F3
:1005C0001B6FD2D11C50800FF36E0650800FF35C6E
:1005D00008E105501B5C05E104501A5C02E1035080
:1005E000195CD8B0C1D11350035C0D6E145004587F
:1005F0000E6E15500558176E16500658186E0D5091
:100600000501186F0E50196F17501A6F18501B6F95
:10061000ABD11CC50DF01DC50EF0E86A05011DBF6C
:10062000FF0E176E186E13500D2614500E22155023
:100630001722165018220D50035C0D6E0E500458F0
:100640000E6E17500558176E18500658186E0D503C
:100650000501186F0E50196F17501A6F18501B6F45
:1006600083D10A1E096CD8B40A2A09C00DF00AC049
:100670000EF0E86A0ABEFF0E176E186E1250800F59
:10068000F36E1850800FF35C08E11750115C05E120
:100690000E50105C02E10D500F5CD8B042D11C1C12
:1006A000186E1B1C176E1A1C0E6E191C0D6E0D2A6F
:1006B00004E10E2A02E1174A182A1850800FF36E3F
:1006C0000650800FF35C08E10550175C05E104500B
:1006D0000E5C02E103500D5CD8B0FCD01CC519F0D3
:1006E0001DC51AF0E86A05011DBFFF0E1B6E1C6ECA
:1006F0001950035C196E1A5004581A6E1B50055895
:100700001B6E1C5006581C6E19500501186F1A50AC
:10071000196F1B501A6F1C501B6F1EC519F01FC597
:100720001AF01CC51BF01DC51CF01A50800FF36E8B
:100730001C50800FF35C02E11B50195CD8B0AED0A6
:1007400018C51DF019C51EF01AC51FF01BC520F0F5
:100750001D341E34216E226A22361F50E844FE0BDF
:100760002212221E216C02E1222A00E121500B6E8E
:1007700022500C6E1E380F0B216E1F38226EF00BAC
:10078000221A2126223221322050E838E840F80B84
:1007900022122038E840070B221E216C02E1222A97
:1007A00000E12150076E2250086EE86A0CBEFF0E71
:1007B000216E226EE86A08BEFF0E236EE56E23509E
:1007C000E56E0850E56E0750E56E2250E56E21504B
:1007D000E56E0C50E56E0B50E56E31EC22F0076EC5
:1007E000F3CF08F0F4CF0BF0E9CF0CF0080EE126C0
:1007F00019C021F01AC022F0E86A1ABEFF0E236E5B
:10080000E56E2350E56E2250E56E2150E56E0C50EA
:10081000E56E0B50E56E0850E56E0750E56E03EC93
:1008200025F0076EF3CF08F0080EE126081E076CCE
:1008300002E1082A00E10750096E08500A6EE86AD2
:100840000ABEFF0E076E800FF36E1250800FF35C2E
:1008500008E11150075C05E110500A5C02E10F50FD
:10086000095C1CE219501B5C196E1A501C581A6E58
:10087000E86A1ABEFF0E076E086E19501D261A5040
:100880001E2207501F22085020221D500501186FFC
:100890001E50196F1F501A6F20501B6F05011B51FE
:1008A000800FF36E1850800FF35C08E117501A5D4B
:1008B00005E10E50195D02E10D50185DD8B054D01D
:1008C0000D500501186F0E50196F17501A6F185000
:1008D0001B6F4AD00650800FF36E1850800FF35CE8
:1008E00008E11750055C05E10E50045C02E10D5073
:1008F000035CD8B039D013500324076E1450042081
:10090000086E15500520096E165006200A6E075015
:100910000501186F0850196F09501A6F0A501B6FA4
:1009200023D01CC507F01DC508F0E86A05011DBFEE
:10093000FF0E096E0A6E0750132608501422095044
:1009400015220A5016221350032614500422155063
:1009500005221650062203500501186F0450196F26
:1009600005501A6F06501B6F05011835046E1935B6
:10097000036E043603360434030B046E1A51E84444
:10098000E844FC0B04121A35066E1B35056E06365C
:1009900005360634030B06B0FC09066E1251032619
:1009A0001351042214510522155106220350126FCF
:1009B0000450136F0550146F0650156FE56A100E42
:1009C000E56E800EE56E050EE56E100EE56E0250CA
:1009D000E56E0150E56E0050E56E91EC2CF0080ECE
:1009E000E126E4CF27F0E4CF26F0E4CF25F0E4CFF2
:1009F00024F0E4CF23F0E4CF22F0E4CF21F0E4CFE1
:100A000020F0E4CF1FF0E4CF1EF0E4CF1DF0E4CFE0
:100A10001CF0E4CF1BF0E4CF1AF0E4CF19F0E4CFE0
:100A200018F0E4CF17F0E4CF16F0E4CF15F0E4CFE0
:100A300014F0E4CF13F0E4CF12F0E4CF11F0E4CFE0
:100A400010F0E4CF0FF0E4CF0EF0E4CF0DF0E4CFE0
:100A50000CF0E4CF0BF0E4CF0AF0E4CF09F0E4CFE0
:100A600008F0E4CF07F0E4CF06F0E4CF05F0E4CFE0
:100A700004F0E4CF03F0E4CF02F0E4CF01F0E4CFE0
:100A800000F0E4CFD9FF1200D9CFE5FFE1CFD9FFC5
:100A900000C0E5FF01C0E5FF02C0E5FF03C0E5FFC0
:100AA00004C0E5FF05C0E5FF06C0E5FF07C0E5FFA0
:100AB00008C0E5FF09C0E5FF0AC0E5FF0BC0E5FF80
:100AC0000CC0E5FF0DC0E5FF0EC0E5FF0FC0E5FF60
:100AD00010C0E5FF11C0E5FF12C0E5FF13C0E5FF40
:100AE00014C0E5FF15C0E5FF16C0E5FF17C0E5FF20
:100AF00018C0E5FF19C0E5FF1AC0E5FF1BC0E5FF00
:100B00001CC0E5FF1DC0E5FF1EC0E5FF020EDBCFE8
:100B100000F0030EDBCF01F0040EDBCF02F0050E78
:100B2000DBCF03F0060EDBCF04F0070EDBCF05F0C2
:100B3000080EDBCF06F0090EDBCF07F00A0EDBCF85
:100B400008F0096A0A6A02C00DF00D50800A0DE132
:100B5000025005016A6F0150696F0050686F050E01
:100B6000016E680E006E800E026E03C0E9FF04C0C5
:100B7000F3FF0550C5EC3AF00B6E0B50D8B4FAEF0A
:100B800008F00B50250A02E0E1EF08F00C6A0D6A4C
:100B90000E6A0F6A106A0A0E116E126A136A146ADC
:100BA000200E156E1668176A2B0E186E032A02E3C4
:100BB000044A052A03C0E9FF04C0F3FF0550C5EC51
:100BC0003AF0196E250A13E11950E56E0250E56EF0
:100BD0000150E56E0050E56EFFEC2AF0040EE126B0
:100BE000094A0A2A032A02E3044A052ABED71950F1
:100BF000300A06E1300E156E032A02E3044A052A84
:100C000003C0E9FF04C0F3FF0550C5EC3AF02D0A1C
:100C100006E1010E146E032A02E3044A052A03C00A
:100C2000E9FF04C0F3FF0550C5EC3AF0200A08E1E3
:100C3000010E176E200E186E032A02E3044A052ADD
:100C400003C0E9FF04C0F3FF0550C5EC3AF02B0ADE
:100C500006E1010E176E032A02E3044A052A03C0C7
:100C6000E9FF04C0F3FF0550C5EC3AF0196E310EF0
:100C7000195C2BE33A0E195C28E203C019F004C09A
:100C80001AF005C01BF019C0E9FF1AC0F3FF1B5092
:100C9000C5EC3AF01C6E300E1C5C11E33A0E1C5C85
:100CA0000EE213500A0DF3CF1DF01C501D26D00E7E
:100CB0001D24136E192A02E31A4A1B2AE4D719C00D
:100CC00003F01AC004F01BC005F003C0E9FF04C024
:100CD000F3FF0550C5EC3AF02E0A2DE1032A02E39A
:100CE000044A052A166A03C019F004C01AF005C0A8
:100CF0001BF019C0E9FF1AC0F3FF1B50C5EC3AF016
:100D00001C6E300E1C5C11E33A0E1C5C0EE2165099
:100D10000A0DF3CF1DF01C501D26D00E1D24166E9B
:100D2000192A02E31A4A1B2AE4D719C003F01AC091
:100D300004F01BC005F003C0E9FF04C0F3FF055039
:100D4000C5EC3AF0196E6C0A07E1010E0C6E032A2D
:100D500002E3044A052A09D01950680A06E1010E87
:100D60000E6E032A02E3044A052A03C0E9FF04C009
:100D7000F3FF0550C5EC3AF0750A06E1010E106E5E
:100D8000032A02E3044A052A03C0E9FF04C0F3FF73
:100D90000550C5EC3AF0196E730A05E1010E0D6EAF
:100DA000200E156E3FD01950780A03E1100E116E17
:100DB00039D01950580A05E1100E116E010E126E4D
:100DC00031D01950630A02E1116A2CD019506F0A10
:100DD00003E1080E116E26D01950660A03E1010ED8
:100DE0000F6E20D01950640A1DE01950690A1AE0EC
:100DF000105005E0FF0E03260422052213D01950DF
:100E0000E56E0250E56E0150E56E0050E56EFFECB8
:100E10002AF0040EE126094A0A2A032A02E3044AB8
:100E2000052AA3D60D5021E00650030F0D6E000ECB
:100E30000720196E000E08201A6E0DC006F019C0AA
:100E400007F01AC008F0FD0E0D26FF0E19221A2217
:100E50000DC0E9FF19C0F3FF1A5066EC39F00D6EB2
:100E6000F3CF19F0F4CF1AF0FDD00F500DE0000EC3
:100E70001A6E120E196E7C0E0D6E040E0626000EF2
:100E8000072208221668EED016680C5023E00650A0
:100E9000040F0C6E000E07200F6E000E08201B6E54
:100EA0000CC006F00FC007F01BC008F0FC0E0C26AB
:100EB000FF0E0F221B220CC0E9FF0FC0F3FF1B50D7
:100EC000ECEC38F00C6EF3CF0FF0F4CF1BF0E9CF61
:100ED0001CF067D00E502FE00650020F0E6E000E71
:100EE00007201D6E000E08201E6E0EC006F01DC0ED
:100EF00007F01EC008F0FE0E0E26FF0E1D221E2259
:100F00000EC0E9FF1DC0F3FF1E5025EC3AF00E6E37
:100F10000EC00CF00F6A1B6A1C6A11500A0A03E12A
:100F20001050D8B43ED00C500E6E0EC00CF00F6AAC
:100F30001B6A1C6A36D00650020F0E6E000E072088
:100F40001D6E000E08201E6E0EC006F01DC007F0BC
:100F50001EC008F0FE0E0E26FF0E1D221E220EC021
:100F6000E9FF1DC0F3FF1E5025EC3AF00E6EF3CFE3
:100F70001DF00EC00CF01DC00FF0E86A1DBEFF0E84
:100F80001B6E1C6E11500A0A02E110500AE00C5050
:100F90000E6E0F501D6E0EC00CF01DC00FF01B6AC0
:100FA0001C6A050E196E2E0E0D6E800E1A6E1150F3
:100FB000D8B440D0105013E01150E56E050EE56E28
:100FC0002E0EE56E1C50E56E1B50E56E0F50E56E63
:100FD0000C50E56E27EC24F0070EE12612D01150DC
:100FE000E56E050EE56E2E0EE56E1C50E56E1B508F
:100FF000E56E0F50E56E0C50E56E7EEC30F0070E9E
:10100000E12617502FE00DC0E9FF19C0F3FF1A5079
:10101000C5EC3AF02D0A26E0FF0E0D2619221A2201
:1010200018C0E5FF0DC0E9FF19C0F3FF1A503DECF1
:101030003BF018D00CC0E5FF0DC0E9FF19C0F3FF6D
:101040001A503DEC3BF00D50010F0C6E000E1920B4
:101050000E6E000E1A20E56A0CC0E9FF0EC0F3FF09
:101060003DEC3BF00DC00CF019C00EF01AC00FF0B3
:1010700013C010F0105010E00CC0E9FF0EC0F3FFD9
:101080000F50C5EC3AF0176E175006E00C2A02E339
:101090000E4A0F2A1006EED710C013F014501EE1AE
:1010A00009C00CF00AC00EF010C00FF00F5010E095
:1010B0001550E56E0250E56E0150E56E0050E56E8C
:1010C000FFEC2AF0040EE1260C4A0E2A0F06EED79A
:1010D0000CC009F00EC00AF00FC013F016C00CF0DF
:1010E0000DC00DF019C00EF01AC00FF009C010F0BD
:1010F0000AC015F00DC0E9FF0EC0F3FF0F50C5EC9C
:101100003AF0166E1650D8B43ED00CC016F0176ADE
:10111000161E171E1650171005E00CC016F00C0610
:10112000165031E00DC0E9FF0EC0F3FF0F50C5ECC3
:101130003AF0116E125010E01150E56EE2EC39F009
:10114000166EE652165004E0DF0E1114166E02D031
:1011500011C016F016C011F01150E56E0250E56E88
:101160000150E56E0050E56EFFEC2AF0040EE1261A
:101170000D2A02E30E4A0F2A104A152A1350D8B43A
:10118000B9D71306B7D710C009F015C00AF014502C
:101190002BE010C00CF015C00DF013C00EF00E5077
:1011A0001FE0200EE56E0250E56E0150E56E005026
:1011B000E56EFFEC2AF0040EE1260C4A0D2A0E061D
:1011C000EED70B50E56E0250E56E0150E56E005013
:1011D000E56EFFEC2AF0040EE126094A0A2A04D043
:1011E0000CC009F00DC00AF0032A02E3044A052AE4
:1011F000B5EF05F00AC0F3FF0950E4CF1EF0E4CFCD
:101200001DF0E4CF1CF0E4CF1BF0E4CF1AF0E4CFE4
:1012100019F0E4CF18F0E4CF17F0E4CF16F0E4CFE4
:1012200015F0E4CF14F0E4CF13F0E4CF12F0E4CFE4
:1012300011F0E4CF10F0E4CF0FF0E4CF0EF0E4CFE4
:101240000DF0E4CF0CF0E4CF0BF0E4CF0AF0E4CFE4
:1012500009F0E4CF08F0E4CF07F0E4CF06F0E4CFE4
:1012600005F0E4CF04F0E4CF03F0E4CF02F0E4CFE4
:1012700001F0E4CF00F0E4CFD9FF12003C4E4F2044
:10128000464C4F41543E0000D9CFE5FFE1CFD9FF96
:1012900000C0E5FF01C0E5FF02C0E5FF03C0E5FFB8
:1012A00004C0E5FF05C0E5FF06C0E5FF07C0E5FF98
:1012B00008C0E5FF09C0E5FF0AC0E5FF0BC0E5FF78
:1012C0000CC0E5FF0DC0E5FF020EDBCF00F0030E02
:1012D000DBCF01F0040EDBCF02F00050090F066EE9
:1012E000000E0120076E000E0220086E0B6E0750E4
:1012F0000A6E0650096EE56A0D0EE56E0B50E56E3E
:101300000A50E56E0950E56E800EE56E040EE56E3E
:10131000290EE56E91EC2CF0080EE12600C009F0D4
:1013200001C00AF002C00BF0E56AE56E0B50E56EF5
:101330000A50E56E0950E56E800EE56E040EE56E0E
:10134000810EE56E91EC2CF0080EE12681C403F0CD
:101350000350010A04E00350030A01E018D105011B
:101360002851036E2951046E04013151056E32512A
:10137000096E0550035C05016F6F09500458706FCA
:10138000050128510401316F050129510401326F13
:1013900005012A510401336F05012B510401346FFB
:1013A00005016F517011D8A47ED091EC37F0036E17
:1013B000F3CF04F0F4CF05F0E9CF09F00501205197
:1013C0000A6E21510B6E22510C6E23510D6E0A5084
:1013D000035E0B50045A0C50055A0D50095A035025
:1013E0000401FC6F0450FD6F0550FE6F7F0E091461
:1013F000FF6F040135B125D00401FD35FF31046EC6
:10140000FE31036E043404320332000E04BEFF0EBC
:10141000096E056E86C40AF00B6A0C6A0D6A0D50DF
:10142000800FF36E0950800FF35C08E105500C5CEF
:1014300005E104500B5C02E103500A5C02E2040186
:101440003581040135B149D02DC403F02EC404F018
:101450002FC405F030C409F00401FF51800FF36E72
:101460000950800FF35C08E10550FE5D05E1045072
:10147000FD5D02E10350FC5D08E203C0FCF404C022
:10148000FDF405C0FEF409C0FFF405012CA304D04F
:10149000010E036E046A02D00368046803C06FF58E
:1014A00004C070F51AD00401359124C5FCF425C59B
:1014B000FDF426C5FEF427C5FFF40401FC51040128
:1014C0002D6F0401FD5104012E6F0401FE51040132
:1014D0002F6F0401FF510401306F0401FF51800F91
:1014E000800F08E1000EFE5D05E1000EFD5D02E1EA
:1014F000010EFC5D06E205013A6B3B6B3C6B3D6BFC
:1015000046D00401FC51036EFD51046EFE51056E80
:10151000FF51E56E0550E56E0450E56E0350E56E33
:10152000010EE56E000EE56AE56AE56AC6EC28F094
:10153000036EF3CF04F0F4CF05F0E9CF09F0080E05
:10154000E1266FC50AF070C50BF0E86A050170BFAF
:10155000FF0E0C6E0D6E0950E56E0550E56E0450E1
:10156000E56E0350E56E0D50E56E0C50E56E0B50C8
:10157000E56E0A50E56E31EC22F005013A6FF3CFCB
:101580003BF5F4CF3CF5E9CF3DF5080EE126020E20
:101590000401815DD8A03AD105012CA137D10050BA
:1015A000230F036E000E0120046E000E0220E56E74
:1015B0000450E56E0350E56E0EEC00F0030EE126DC
:1015C0000050230F036E000E0120046E000E022057
:1015D000056E020E0326000E0422052203C0E9FF59
:1015E00004C0F3FF0550ECEC38F0F3CF04F0F4CF77
:1015F00005F0E9CF09F00450036E0550046E095060
:10160000056E0934096A05BE0968053204320332E1
:1016100005012851035C05013E6F0501295104585D
:1016200005013F6F05012A5105580501406F05016D
:101630002B5109580501416FD88041AFD89022E362
:101640000401831D046E821D036E034A042AE86AA6
:1016500004BEFF0E056E096E05014151800FF36E49
:101660000950800FF35C08E10550405D05E104502E
:101670003F5D02E103503E5D05E305013E6B3F6BBC
:10168000406B416B05014151800F800F08E1000E56
:10169000405D05E1000E3F5D02E1010E3E5D1EE38F
:1016A00082C403F083C404F0E86A040183BFFF0E20
:1016B000056E800FF36E05014151800FF35C08E168
:1016C0004051055C05E13F51045C02E13E51035C81
:1016D00005E305013E6B3F6B406B416B0401875195
:1016E00009E0E86CD89005013E373F374037413775
:1016F000010FF9E305014151800F800F08E1000E51
:10170000405D05E1800E3F5D02E1000E3E5D07E3B6
:1017100005013E697F0E3F6F406B416B14D00501A0
:101720004151800F810F08E1FF0E405D05E1800E01
:101730003F5D02E1000E3E5D06E205013E6B800E5C
:101740003F6F406941690050330F036E000E012066
:10175000046E000E0220056E05013E51096E3F51D8
:10176000E56E0950E56E0550E56E0450E56E0350D8
:10177000E56E2BEC19F0050EE12604018151030AF8
:1017800023E10050330F036E000E0120046E000EA3
:101790000220056E0B0E0326000E0422052203C054
:1017A000E9FF04C0F3FF0550ECEC38F0F3CF04F090
:1017B000F4CF05F00450036E0550046E035004018D
:1017C000296F04502A6F22D00050330F036E000E91
:1017D0000120046E000E0220056E0B0E0326000E83
:1017E0000422052203C0E9FF04C0F3FF0550ECEC1E
:1017F00038F0F3CF04F0F4CF05F00450036E055039
:10180000046E035004012B6F04502C6F81C403F04D
:101810000350010A04E00350030A01E07DD029C40B
:1018200003F02AC404F0E86A04012ABFFF0E056E23
:10183000096E05013A51035C05013E6F05013B51FC
:10184000045805013F6F05013C5105580501406FE3
:1018500005013D5109580501416F800F800F08E1D6
:10186000000E405D05E1800E3F5D02E1000E3E5D31
:1018700007E305013E697F0E3F6F406B416B14D05B
:1018800005014151800F810F08E1FF0E405D05E128
:10189000800E3F5D02E1000E3E5D06E205013E6BFB
:1018A000800E3F6F406941690050440F036E000E87
:1018B0000120046E000E0220056E05013E51096EE6
:1018C0003F51E56E0950E56E0550E56E0450E56E3A
:1018D0000350E56E2BEC19F0050EE126440E0026B0
:1018E000000E012202220B0E0026000E012202220F
:1018F00000C0E9FF01C0F3FF0250ECEC38F0F3CF79
:1019000001F0F4CF02F00150006E0250016E005061
:1019100004012B6F01502C6F0850086EE56A0D0E04
:10192000E56E800EE56E040EE56E290EE56E08503C
:10193000E56E0750E56E0650E56E91EC2CF0080E52
:10194000E126E4CF0DF0E4CF0CF0E4CF0BF0E4CFD0
:101950000AF0E4CF09F0E4CF08F0E4CF07F0E4CFD9
:1019600006F0E4CF05F0E4CF04F0E4CF03F0E4CFD9
:1019700002F0E4CF01F0E4CF00F0E4CFD9FF120091
:1019800025642025640A000000C0E5FF01C0E5FFD2
:1019900002C0E5FF03C0E5FF04C0E5FF05C0E5FFA9
:1019A00006C0E5FF07C0E5FF6FEC26F091EC37F0CD
:1019B000006EF3CF01F0F4CF02F0E9CF03F00401A1
:1019C0007C51005E7D51015A7E51025A7F51035A6B
:1019D000039E3F0E035C08E1FF0E025C05E1FF0E73
:1019E000015C02E1FF0E005CD8B0B4EF0FF091ECA7
:1019F00037F0F3CF01F0F4CF02F0E9CF03F0100F8E
:101A000004017C6F270E01207D6F000E02207E6F87
:101A1000000E03207F6F65EC37F0B3EC34F008C0A4
:101A2000E5FFF2CF08F0F29E0401A9510501206FF5
:101A30000401AA510501216F0401AB510501226F78
:101A40000401AC510501236F0401AD510501246F60
:101A50000401AE510501256F0401AF510501266F48
:101A60000401B0510501276F0401B1510501286F30
:101A70000401B2510501296F0401B35105012A6F18
:101A80000401B45105012B6F0401B55105012C6F00
:101A90000401AD6BAE6BAF6BB06B08BEF28EE4CFE2
:101AA00008F0800EE56E040EE56E930EE56E44ECD4
:101AB00009F0030EE1269EC471F59FC472F505017D
:101AC0007251800F7C0F02E1000E715D04E305018D
:101AD0007169030E726F05017251800F840F02E16C
:101AE000010E715D05E2010E0501716FFC0E726F52
:101AF00005017251800F800F02E1010E715D10E34C
:101B000005017251800FF36E04019751800FF35C51
:101B100003E196510501715D03E20501716B726B82
:101B2000D880050172AFD89015E30401971D016EAE
:101B3000961D006E004A012A0150800FF36E0501C8
:101B40007251800FF35C02E17151005C03E2050108
:101B5000716B726B04019AA309D0B5A507D0D88028
:101B6000050172AFD89002E3716B726BD8800501EA
:101B700072AFD89007E37151FF0F006E030E722110
:101B8000016E04D071C500F072C501F000C073F59C
:101B900001C074F505017351020BE840010BE838F0
:101BA000E844F46E0F015D51DF0BF4105D6F050129
:101BB0007351010B010BE838F46E0F015D51EF0B0F
:101BC000F4105D6F050174357431016E7331006E70
:101BD00001340132003200500F015E6FD8800501E0
:101BE00072AFD89002E3898801D089980401075127
:101BF000030A01E052D0030E016E230E006E800E28
:101C0000026E0401B9390F0B036EBA39046EF00B82
:101C1000041A032604320332BB51E838E840F80BBB
:101C20000412BB39E840070BE8B4F809056E066AF0
:101C300005BE06680650E56E0550E56E0450E56E7B
:101C40000350E56EE56AE56AE56A1B0EE56E31EC68
:101C500022F0036EF3CF04F0F4CF05F0080EE12676
:101C600003360436033604360334030B0418041A0F
:101C70000418036E0550E844E844FC0B04120450B9
:101C8000E56E0350E56E0250E56E0150E56E0050C2
:101C9000E56E9AEC36F0050EE12608C0E5FFF2CFBE
:101CA00008F0F29E030116510501206F0301175140
:101CB0000501216F030118510501226F030119511C
:101CC0000501236F03011A510501246F03011B5104
:101CD0000501256F03011C510501266F03011D51EC
:101CE0000501276F03011E510501286F03011F51D4
:101CF0000501296F0301205105012A6F03012151BC
:101D000005012B6F0301225105012C6F03011A6B92
:101D10001B6B1C6B1D6B08BEF28EE4CF08F0800EAF
:101D2000E56E030EE56E000EE56E44EC09F0030E61
:101D3000E1260BC371F50CC372F505017251800FDA
:101D40007C0F02E1000E715D04E305017169030E71
:101D5000726F05017251800F840F02E1010E715DF7
:101D600005E2010E0501716FFC0E726F05017251E3
:101D7000800F800F02E1010E715D10E305017251C9
:101D8000800FF36E03010451800FF35C03E10351F4
:101D90000501715D03E20501716B726BD88005016D
:101DA00072AFD89015E30301041D016E031D006E90
:101DB000004A012A0150800FF36E05017251800F15
:101DC000F35C02E17151005C03E20501716B726B1F
:101DD000030107A309D022A507D0D880050172AF5F
:101DE000D89002E3716B726BD880050172AFD89006
:101DF00007E37151FF0F006E030E7221016E04D0D4
:101E000071C500F072C501F000C073F501C074F532
:101E100005017351020BE840010BE838E844F46E09
:101E2000BD50DF0BF410BD6E7351010B010BE83890
:101E3000F46EBD50EF0BF410BD6E74357431016E4D
:101E40007331006E0134013200320050BE6ED88012
:101E5000050172AFD89002E38A8001D08A906FECBE
:101E600026F004010751030A32E10401B9390F0BCE
:101E7000006EBA39016EF00B011A002601320032F1
:101E8000BB51E838E840F80B0112BB39E840070BBA
:101E9000E8B4F809026E036A02BE0368B6C404F02F
:101EA000B7C405F0E86A0401B7BFFF0E066E076EFF
:101EB0000050041809E10150051806E10250061807
:101EC00003E10350071801E002D00401076B006A28
:101ED0000401B5B1002A016A07C402F0036AB939E6
:101EE0000F0B046EBA39056EF00B051A0426053285
:101EF0000432BB51E838E840F80B0512BB39E84022
:101F0000070BE8B4F809066E076A06BE07680150B9
:101F1000E56E0050E56E0350E56E0250E56E075029
:101F2000E56E0650E56E0550E56E0450E56E000E58
:101F3000E56E3D0EE56E120EE56EF3EC34F00B0E21
:101F4000E1260401093F01D00A2B04010951640A6A
:101F500002E10A5101E008D00401096B0A6B040197
:101F60000B51D8A491EC33F0E4CF07F0E4CF06F0A6
:101F7000E4CF05F0E4CF04F0E4CF03F0E4CF02F0C7
:101F8000E4CF01F0E4CF00F0120000C0E5FF01C093
:101F9000E5FF02C0E5FF03C0E5FF05C0E5FF75EC06
:101FA0003BF094928B9291EC37F0F3CF01F0F4CFA9
:101FB00002F0E9CF03F0880F04017C6F130E0120BB
:101FC0007D6F000E02207E6F000E03207F6F0EECEF
:101FD0002CF089988A9A8A86040189839298939A28
:101FE0009396040192939283800E006E040E016E0C
:101FF0000F0E036E380E0026035001220F0E036EE3
:10200000800E005E0350015A800E026E040E036EB5
:102010000F0E056E380E0226055003220F0E056EB8
:10202000800E025E0550035A02C0E9FF03C0EAFFBA
:10203000EFCF02F0029200C0E9FF01C0EAFF02C048
:10204000EFFF928A800E006E0F0E016E0F0E036E70
:10205000380E002603500122800E026E0F0E036E12
:10206000800E005E0350015A0F0E056E380E0226D8
:10207000055003220F0E056E800E025E0550035AB6
:1020800002C0E9FF03C0EAFFEFCF02F0029A00C0EE
:10209000E9FF01C0EAFF02C0EFFF9486820E006EE6
:1020A0000F0E016E0F0E036E380E00260350012234
:1020B0000F0E036E800E005E0350015A820E026EF8
:1020C0000F0E036E0F0E056E380E0226055003220A
:1020D0000F0E056E800E025E0550035A02C0E9FF26
:1020E00003C0EAFFEFCF02F0029600C0E9FF01C093
:1020F000EAFF02C0EFFF0C0E0F015D6F0F015D9B49
:102100005D990F015E6B0F015A6B0F015A8104013B
:10211000936B020E946F956B0A0E966F976B100E71
:10212000986F070E996F9A919A83800EE56E040E50
:10213000E56EB60EE56E50EC32F0030EE126800E31
:10214000E56E040EE56ED70EE56E9FEC27F0030EEC
:10215000E126800EE56E040EE56EC60EE56E9FEC80
:1021600027F0030EE1260401B16BB26BB36BB46BC5
:10217000B591B5959C6B9D6B9E6B9F6BA46BA56B8E
:10218000A66BA76B8A908A928A88040189839390B0
:1021900093929398040192939283800E006E040EA2
:1021A000016E0F0E036E380E0026035001220F0E33
:1021B000036E800E005E0350015A800E026E040E04
:1021C000036E0F0E056E380E0226055003220F0E09
:1021D000056E800E025E0550035A02C0E9FF03C07F
:1021E000EAFFEFCF02F0029200C0E9FF01C0EAFF70
:1021F00002C0EFFF9488820E006E0F0E016E0F0E6C
:10220000036E380E0026035001220F0E036E800E5F
:10221000005E0350015A820E026E0F0E036E0F0E07
:10222000056E380E0226055003220F0E056E800E35
:10223000025E0550035A02C0E9FF03C0EAFFEFCF78
:1022400002F0029800C0E9FF01C0EAFF02C0EFFF00
:10225000948A820E006E0F0E016E0F0E036E380E02
:102260000026035001220F0E036E800E005E035005
:10227000015A820E026E0F0E036E0F0E056E380E9F
:102280000226055003220F0E056E800E025E0550D9
:10229000035A02C0E9FF03C0EAFFEFCF02F0029A3F
:1022A00000C0E9FF01C0EAFF02C0EFFF0C0EBD6EE7
:1022B000BD9ABD98BE6AB96AB9840301006B020E6B
:1022C000016F026B0A0E036F046B100E056F070E91
:1022D000066F07910783800EE56E030EE56E230EF1
:1022E000E56E50EC32F0030EE126800EE56E030E33
:1022F000E56E440EE56E9FEC27F0030EE126800E9E
:10230000E56E030EE56E330EE56E9FEC27F0030ECF
:10231000E12603011E6B1F6B206B216B229122951E
:10232000096B0A6B0B6B0C6B116B126B136B146BE1
:102330009384810E006E0F0E016E0F0E036E380E29
:102340000026035001220F0E036E800E005E035024
:10235000015A810E026E0F0E036E0F0E056E380EBF
:102360000226055003220F0E056E800E025E0550F8
:10237000035A02C0E9FF03C0EAFFEFCF02F0029464
:1023800000C0E9FF01C0EAFF02C0EFFF948C820E9B
:10239000006E0F0E016E0F0E036E380E00260350F6
:1023A00001220F0E036E800E005E0350015A820E52
:1023B000026E0F0E036E0F0E056E380E02260550CC
:1023C00003220F0E056E800E025E0550035A02C0F6
:1023D000E9FF03C0EAFFEFCF02F0029C00C0E9FF73
:1023E00001C0EAFF02C0EFFF948E820E006E0F0E56
:1023F000016E0F0E036E380E0026035001220F0EE1
:10240000036E800E005E0350015A820E026E0F0EA4
:10241000036E0F0E056E380E0226055003220F0EB6
:10242000056E800E025E0550035A02C0E9FF03C02C
:10243000EAFFEFCF02F0029E00C0E9FF01C0EAFF11
:1024400002C0EFFF5CEC3BF0330ECD6E9D809F80B1
:10245000E4CF05F0E4CF03F0E4CF02F0E4CF01F0E5
:10246000E4CF00F01200D9CFE5FFE1CFD9FF00C0E3
:10247000E5FF01C0E5FF02C0E5FF03C0E5FF04C0C2
:10248000E5FF05C0E5FF06C0E5FF07C0E5FF08C0A2
:10249000E5FF09C0E5FF0AC0E5FF0BC0E5FF0CC082
:1024A000E5FF020EDBCF00F0030EDBCF01F0040EE0
:1024B000DBCF02F0036A046ABBEC37F0056EFE0A5C
:1024C00001E077D0A3EC32F0BBEC37F0066E030EE0
:1024D000065CD8A05AD0060E065CD8B056D0FD0EC9
:1024E0000624076EFA6AFB6A0734FA36E834FA36CD
:1024F000FC0B020FE56E250EFA22000EFB22E450C3
:10250000F96E87EF12F099EF12F0B2EF12F000506F
:10251000090F076E000E0120086E000E022007C092
:10252000E9FF08C0F3FF25EC3AF0036EF3CF04F0A7
:102530002CD00050090F076E000E0120086E000E0F
:102540000220096E020E0726000E0822092207C08B
:10255000E9FF08C0F3FF095025EC3AF0036EF3CF12
:1025600004F013D00050070F076E000E0120086E14
:10257000000E022007C0E9FF08C0F3FFC5EC3AF0E7
:10258000010B076E07C003F0046A06C007F0045091
:10259000E56E0350E56EE56A0750E56E000EE56EE8
:1025A000190EE56E800EE56EF3EC34F0070EE126B1
:1025B0009AD1080E055CD8B096D1FA6AFB6A053448
:1025C000FA36E834FA36FC0BD80FE56E250EFA22FF
:1025D000000EFB22E450F96EFCEF12F017EF13F03F
:1025E00029EF13F03BEF13F06DEF13F0A3EF13F0AF
:1025F000C2EF13F01FEF14F00050230F056E000E12
:102600000120076E000E0220E56E0750E56E0550B2
:10261000E56E58EC1BF0030EE126020EE56E00C0DD
:10262000E9FF01C0F3FF02503DEC3BF05CD10050EC
:10263000330F056E000E0120076E000E0220E56EBE
:102640000750E56E0550E56ED4EC1FF0030EE12651
:102650004AD10050440F056E000E0120076E000E97
:102660000220E56E0750E56E0550E56ED4EC1FF0D4
:10267000030EE12638D10050090F056E000E01202F
:10268000076E000E0220086EBBEC37F00C6E0B6A72
:10269000E56A0CC0F4FF05C0E9FF07C0F3FF08506E
:1026A0000FEC3BF0BBEC37F00A6A0B260A500C2209
:1026B0000BC0E5FF0CC0F4FF05C0E9FF07C0F3FF46
:1026C00008500FEC3BF0010EE56E00C0E9FF01C0C1
:1026D000F3FF02503DEC3BF006D10050090F056EB0
:1026E000000E0120076E000E0220086E020E052665
:1026F000000E07220822BBEC37F00C6E0B6AE56A6D
:102700000CC0F4FF05C0E9FF07C0F3FF08500FEC51
:102710003BF0BBEC37F00A6A0B260A500C220BC0C8
:10272000E5FF0CC0F4FF05C0E9FF07C0F3FF085048
:102730000FEC3BF0E56A00C0E9FF01C0F3FF025077
:102740003DEC3BF0D0D00050070F056E000E01208D
:10275000076E000E0220086EBBEC37F0010BF46E22
:1027600005C0E9FF07C0F3FF0850C5EC3AF0FE0BC7
:10277000F410E56E05C0E9FF07C0F3FF08503DEC1B
:102780003BF0B1D0BBEC37F0066E0050160F056E73
:10279000000E0120076E000E0220086E05500C0F7F
:1027A000096E000E07200A6E000E08200B6E065000
:1027B000D880E866D8900C6A0C360C50D880E86651
:1027C000D8900C6A0C360C50010BF46E09C0E9FF6E
:1027D0000AC0F3FF0B50C5EC3AF0FE0BF410E56EA7
:1027E00009C0E9FF0AC0F3FF0B503DEC3BF0065077
:1027F000010A01E078D0080E0526000E0722082203
:10280000E56AF46AF66AF76A05C0E9FF07C0F3FFF4
:102810000850B4EC3AF00050230F056E000E012072
:10282000066E000E0220E56AE56AE56E0650E56E6A
:102830000550E56E56EC29F0050EE12654D0BBECB0
:1028400037F0046E036ABBEC37F0066A03260650C5
:1028500004220050160F056E000E0120066E000EB9
:102860000220076E05500C0F086E000E0620096E40
:10287000000E07200A6E08C0E9FF09C0F3FFC5EC8F
:102880003AF0E880E56E08C0E9FF09C0F3FF0A509E
:102890003DEC3BF0080E0526000E0622072203C081
:1028A00008F004C009F008C0E5FF09C0F4FFF66AAB
:1028B000F76A05C0E9FF06C0F3FF0750B4EC3AF031
:1028C000230E0026000E012202220450E56E035062
:1028D000E56E0250E56E0150E56E0050E56EFEECCF
:1028E0002DF0050EE126E4CF0CF0E4CF0BF0E4CFA1
:1028F0000AF0E4CF09F0E4CF08F0E4CF07F0E4CF2A
:1029000006F0E4CF05F0E4CF04F0E4CF03F0E4CF29
:1029100002F0E4CF01F0E4CF00F0E4CFD9FF1200E1
:1029200000C0E5FF01C0E5FF02C0E5FF03C0E5FF11
:1029300004C0E5FF05C0E5FF06C0E5FF07C0E5FFF1
:1029400008C0E5FF09C0E5FF0AC0E5FFC2A204D048
:1029500004011851C9EF16F004011951D8B42FD150
:1029600004011851020DF450016EF3CF00F0E00E97
:102970000026000E012200C0E9FF01C0EAFFEECFF1
:1029800000F0EFCF01F0E80E1825026E036A040E86
:10299000032202C0E9FF03C0EAFFEFCF02F00250BA
:1029A000FF0A01E166D002380F0B036E920E03247A
:1029B000046E056A0F0E0522066A920E03260F0E9C
:1029C000062203C0E9FF06C0EAFFEFCF03F0025082
:1029D000066E070E0616010E076E06500DE006E69F
:1029E000E86CD8900736010FFDE306D0D89007BEFB
:1029F000D8800732010FFBE3071C066E0350061652
:102A000004C0E9FF05C0EAFF06C0EFFF02380F0B64
:102A1000036E890E0324046E056A0F0E0522066AF2
:102A2000890E03260F0E062203C0E9FF06C0EAFF47
:102A3000EFCF03F00250066E070E0616010E076E6A
:102A400006500DE006E6E86CD8900736010FFDE36E
:102A500006D0D89007BED8800732010FFBE3071CD1
:102A6000066E0350061604C0E9FF05C0EAFF06C063
:102A7000EFFF04011851020DF450046EF3CF03F080
:102A8000E00E0326000E042201340130066E0030F1
:102A9000056E06340632053206340632053205501C
:102AA000005C056E06500158066EC3CF07F0086A39
:102AB0000750052608500622C4CF07F0086A0750C1
:102AC0000A6E096A095005260A50062203C0E9FF6A
:102AD00004C0EAFF05C0EEFF06C0EFFF0401145179
:102AE000010A01E06AD004011851020DF450046E8D
:102AF000F3CF03F0E00E0324056E000E0420066EF3
:102B000005C0E9FF06C0EAFFEECF00F0EFCF01F00D
:102B1000750E0326030E042203C0E9FF04C0EAFF7A
:102B2000EECF05F0EFCF06F09C0E0526D8A00606E6
:102B30000150800FF36E0650800FF35C02E10550E8
:102B4000005C0EE20050640F056E000E0120066E60
:102B500003C0E9FF04C0EAFF05C0EEFF06C0EFFFB7
:102B600004011851020DF450046EF3CF03F0950EDA
:102B70000326030E042203C0E9FF04C0EAFFEECFE0
:102B800005F0EFCF06F0640E0526D8B0062A0650F1
:102B9000800FF36E0150800FF35C02E10050055C82
:102BA0000CE29C0E0026D8A0010603C0E9FF04C079
:102BB000EAFF00C0EEFF01C0EFFF0401196B040142
:102BC000182B100E185D01E3186B04011839E84446
:102BD0001F0B006E016A6B0E0026050E012200C05D
:102BE000E9FF01C0EAFFEFCF00F018C401F0070EC3
:102BF0000116010E036E000E046E015006E0E86C33
:102C0000D89003360436010FFCE3056A0050031622
:102C10000550041603500410D880E866D890036A63
:102C200003360350D8A4B3D0000E04011825006E5B
:102C3000016A050E012200C0E9FF01C0EAFFEFCFE3
:102C400000F00044E844FC0B016E0128C26EE80E5F
:102C50001825006E016A040E012200C0E9FF01C0C0
:102C6000EAFFEFCF02F00250FF0A01E18CD00238F8
:102C70000F0B006E920E0024016E036A0F0E0322EA
:102C8000046A920E00260F0E042200C0E9FF04C061
:102C9000EAFFEFCF00F00250046E070E0416010E9B
:102CA000056E04500DE006E6E86CD8900536010F7D
:102CB000FDE306D0D89005BED8800532010FFBE3B6
:102CC0000050051201C0E9FF03C0EAFF05C0EFFF95
:102CD000380E006E0F0E016E02380F0B036E046A81
:102CE0000350002604500122380E056E0F0E066EAA
:102CF000055003260650042203C0E9FF04C0EAFF82
:102D0000EFCF03F0070E0216010E046E02500DE025
:102D100006E6E86CD8900436010FFDE306D0D890A3
:102D200004BED8800432010FFBE30350041200C03C
:102D3000E9FF01C0EAFF04C0EFFF0F014583000077
:102D4000000045930F0144930BC0E5FFF2CF0BF059
:102D5000F29E44810000000000000000000000001E
:102D60000000000000000000000000000000000063
:102D700000000000000000000000000044910BBEB5
:102D8000F28EE4CF0BF0C282010E0401196F040130
:102D90001851E4CF0AF0E4CF09F0E4CF08F0E4CF13
:102DA00007F0E4CF06F0E4CF05F0E4CF04F0E4CF81
:102DB00003F0E4CF02F0E4CF01F0E4CF00F0120022
:102DC00000C0E5FF01C0E5FF02C0E5FF03C0E5FF6D
:102DD00004C0E5FF05C0E5FF06C0E5FF07C0E5FF4D
:102DE00008C0E5FF09C0E5FF0AC0E5FF0BC0E5FF2D
:102DF0000CC0E5FF006A016A026A040E025CD8B0EA
:102E0000ECD101C003F0012A100E035CD8B0E5D16B
:102E100004011A2B100E1A5D01E31A6B04011A3912
:102E2000E8441F0B036E046A6B0E0326050E042292
:102E300003C0E9FF04C0EAFFEFCF03F01AC404F0B7
:102E4000070E0416010E056E000E066E045006E015
:102E5000E86CD89005360636010FFCE3076A03508C
:102E600005160750061605500610D880E866D8905B
:102E7000056A05360550D8A4C0D704011A51020DC1
:102E8000F450046EF3CF03F0E00E0324056E000E41
:102E90000420066E05C0E9FF06C0EAFFEECF05F08C
:102EA000EFCF06F017C407F007A09DD0750E0324DE
:102EB000076E030E0420086E07C0E9FF08C0EAFF92
:102EC000EECF07F0EFCF08F00650800FF36E0850FA
:102ED000800FF35C02E10750055C03E2056A066AB5
:102EE00060D0950E0326030E042203C0E9FF04C040
:102EF000EAFFEECF03F0EFCF04F00450800FF36E43
:102F00000650800FF35C02E10550035C04E20568A3
:102F10003F0E066E46D00750055C096E08500658F5
:102F20000A6EE86A0ABEFF0E0B6EE56E0B50E56E88
:102F30000A50E56E0950E56EE56AE56A400EE56EF9
:102F4000000EE56A31EC22F0096EF3CF0AF0F4CFFF
:102F50000BF0E9CF0CF0080EE1260750035C076E7A
:102F600008500458086EE86A08BEFF0E036EE56E4E
:102F70000350E56E0850E56E0750E56E0C50E56EA7
:102F80000B50E56E0A50E56E0950E56EC6EC28F070
:102F9000036EF3CF04F0080EE1260350056E0450D3
:102FA000066E04011651800FF36E0650800FF35C1D
:102FB00002E10550155D03E3056A066A14D00401B9
:102FC0001551FF08036E3F0E1655046E0650800F14
:102FD000F36E0450800FF35C02E10350055C03E3E1
:102FE00005683F0E066E04011A51020DF450046E7E
:102FF000F3CF03F0550E0326030E042203C0E9FFAE
:1030000004C0EAFFEECF03F0EFCF04F00350055CFD
:10301000036E04500658046ED88004AED89004E3C2
:10302000041E036CD8B4042A022A04011651800F2E
:10303000F36E0450800FF35C02E10350155DD8B0CD
:10304000DCD604011A51020DF450086EF3CF07F0DC
:10305000550E0726030E082207C0E9FF08C0EAFF45
:1030600005C0EEFF06C0EFFF17C407F007A459D054
:103070001A51020DF450086EF3CF07F0B50E072475
:10308000096E030E08200A6E09C0E9FF0AC0EAFFB4
:10309000EECF0BF0EFCF0CF00B500C10D8B441D0AA
:1030A0005C0E0726040E082207C0E9FF08C0EAFFED
:1030B000EECF07F0EFCF08F00750055C036E085025
:1030C0000658046E03101CE00450800F800F02E1CC
:1030D000010E035C076A07360C50800F800F02E177
:1030E000010E0B5C0B6A0B3607500B1809E109C087
:1030F000E9FF0AC0EAFF03C0EEFF04C0EFFF7DD680
:1031000004011A51020DF450046EF3CF03F0B50E12
:103110000326030E042203C0E9FF04C0EAFFEE6A9F
:10312000EF6A17C403F003A244D000500EE100C0C0
:1031300003F0002A046A1B0E0326040E042203C0B7
:10314000E9FF04C0EAFF420EEF6E00C003F0002A60
:10315000046A1B0E0326040E042204011A51076E92
:10316000640E072603C0E9FF04C0EAFF07C0EFFFB3
:1031700000C003F0002A046A1B0E0326040E04227A
:103180000650076E03C0E9FF04C0EAFF07C0EFFF67
:1031900000C003F0002A046A1B0E0326040E04225A
:1031A0000550076E03C0E9FF04C0EAFF07C0EFFF48
:1031B00024D61AC403F00650E56E0550E56EE56AA4
:1031C0000350E56E000EE56E590EE56E160EE56EC7
:1031D000F3EC34F0070EE12610D602C001F00050E7
:1031E0001EE017C402F002A21AD000C002F0002AAA
:1031F000036A1B0E0226040E032202C0E9FF03C06D
:10320000EAFF0A0EEF6E0050E56E800EE56E040ECA
:10321000E56E1B0EE56E8BEC2BF0040EE1260150E3
:10322000E4CF0CF0E4CF0BF0E4CF0AF0E4CF09F0E8
:10323000E4CF08F0E4CF07F0E4CF06F0E4CF05F0E8
:10324000E4CF04F0E4CF03F0E4CF02F0E4CF01F0E8
:10325000E4CF00F01200D9CFE5FFE1CFD9FF00C0E5
:10326000E5FF01C0E5FF02C0E5FF03C0E5FF04C0C4
:10327000E5FF05C0E5FF06C0E5FF07C0E5FF08C0A4
:10328000E5FF09C0E5FF0AC0E5FF0BC0E5FF020E40
:10329000DBCF00F0030EDBCF01F0040EDBCF02F03A
:1032A000050EDBCF03F0060EDBCF04F002500A6EF2
:1032B0000150096E0050086EE56A110EE56E0A5065
:1032C000E56E0950E56E0850E56E800EE56E0F0E56
:1032D000E56E230EE56E91EC2CF0080EE12632CF60
:1032E00005F033CF06F0E86A0F0133BFFF0E076E1B
:1032F0000501496F0650486F0550476F466B03C084
:1033000005F004C006F0E86A04BEFF0E076E086E02
:1033100023CF09F0E56AE56AE56A0950E56E0850D1
:10332000E56E0750E56E0650E56E0550E56E31EC32
:1033300022F00501426FF3CF43F5F4CF44F5E9CF16
:1033400045F5080EE1260F012451D8B4AFD0045042
:10335000800F800F02E1010E035C25E30F0129516C
:10336000800F7C0F08E1000E285D05E1000E275D4F
:1033700002E1000E265D17E20F013151800FF36E5E
:1033800005014951800FF35C0DE148510F01305D9B
:1033900009E1050147510F012F5D04E10501465187
:1033A0000F012E5D33E3D88004AED890D8A043D06F
:1033B0000F012951800F840F08E1000E285D05E1FF
:1033C000000E275D02E1010E265D35E30501491D72
:1033D0000A6E481D096E471D046E461D036E032AC2
:1033E00004E1042A02E1094A0A2A0A50800FF36E16
:1033F0000F013151800FF35C08E13051095C05E1A8
:103400002F51045C02E12E51035C15E205500F01BF
:103410002625036E06502721046E07502821096EC9
:10342000085029210A6E0350266F0450276F095057
:10343000286F0A50296F0F0126390F0B036E2739A9
:10344000046EF00B041A03262851E838F00B04121E
:1034500028390F0B096E29390A6EF00B0A1A092652
:10346000F00E0AB60A2624CF0BF0E56AE56AE56A93
:103470000B50E56E0A50E56E0950E56E0450E56E9E
:103480000350E56E31EC22F0036EF3CF04F0F4CF7D
:1034900009F0E9CF0AF0080EE126035005014227A2
:1034A00004504323095044230A5045230F0125515A
:1034B000D8B465D02A51055C05014A6F0F012B5124
:1034C000065805014B6F0F012C51075805014C6F31
:1034D0000F012D51085805014D6F800F800F08E135
:1034E000010E4C5D05E1000E4B5D02E1000E4A5DF0
:1034F00006E305014A694B694C6B4D6B13D005011E
:103500004D51800F810F08E1FF0E4C5D05E1000E6B
:103510004B5D02E1000E4A5D05E205014A6B4B6B13
:103520004C694D6905014A514A25036E4B35046EBD
:103530004C35096E4D350A6E25CF0BF0E56AE56A0C
:10354000E56A0B50E56E0A50E56E0950E56E0450D1
:10355000E56E0350E56E31EC22F0036EF3CF04F01C
:10356000F4CF09F0E9CF0AF0080EE1260350050177
:10357000422704504323095044230A504523055051
:103580000F012A6F06502B6F07502C6F08502D6FBC
:1035900005014951800FF36E05014551800FF35C21
:1035A0000DE144510501485D09E105014351050163
:1035B000475D04E1050142510501465D11E2050147
:1035C00046510F012E6F050147510F012F6F050165
:1035D00048510F01306F050149510F01316F3AD049
:1035E0000501491D066E481D056E471D046E461DEA
:1035F000036E032A04E1042A02E1054A062A0501B2
:103600004551800FF36E0650800FF35C08E10550C2
:10361000445D05E10450435D02E10350425D0AE26E
:1036200003500F012E6F04502F6F0550306F06505E
:10363000316F10D0050142510F012E6F050143512A
:103640000F012F6F050144510F01306F05014551E6
:103650000F01316FE56A110EE56E800EE56E0F0EFB
:10366000E56E230EE56E0250E56E0150E56E0050EA
:10367000E56E91EC2CF0080EE126E4CF0BF0E4CFE0
:103680000AF0E4CF09F0E4CF08F0E4CF07F0E4CF8C
:1036900006F0E4CF05F0E4CF04F0E4CF03F0E4CF8C
:1036A00002F0E4CF01F0E4CF00F0E4CFD9FF120044
:1036B000D9CFE5FFE1CFD9FF00C0E5FF01C0E5FFAD
:1036C00002C0E5FF03C0E5FF04C0E5FF05C0E5FF5C
:1036D00006C0E5FF07C0E5FF08C0E5FF09C0E5FF3C
:1036E0000AC0E5FF0BC0E5FF020EDBCF00F0030EC2
:1036F000DBCF01F0040EDBCF02F0036A046ABBECFF
:1037000037F0056EFE0A01E095D0A3EC32F0BBEC79
:1037100037F0066E06500EE00650010A1DE0065016
:10372000020A2CE006500A0A3BE006500B0A01E1AF
:1037300042D06ED00050060F076E000E0120086EBA
:10374000000E022007C0E9FF08C0F3FF25EC3AF0A5
:10375000036EF3CF04F05CD000500C0F076E000E28
:103760000120086E000E022007C0E9FF08C0F3FF29
:1037700025EC3AF0036EF3CF04F04AD000500E0F60
:10378000076E000E0120086E000E022007C0E9FF40
:1037900008C0F3FF25EC3AF0036EF3CF04F038D005
:1037A00000C0E9FF01C0F3FF025025EC3AF0036EC0
:1037B000F3CF04F02DD00050020F076E000E012051
:1037C000086E000E022007C0E9FF08C0F3FFECEC12
:1037D00038F0F3CF08F0F4CF09F0E9CF0AF0085041
:1037E000076E0950086EF00E0716073A083A0814DB
:1037F000081A0726083207320A50E838E840F80B62
:1038000008120A38E840070B0750036E0850046E90
:103810000450E56E0350E56EE56A0650E56E000E55
:10382000E56E650EE56E3E0EE56EF3EC34F0070EC8
:10383000E126DBD0055014E00550010A3AE00550BE
:10384000020A01E15FD005500A0A01E184D0055067
:103850000B0A01E199D005500C0A01E1AED0C5D0A8
:103860000050060F056E000E0120066E000E0220AD
:10387000076EBBEC37F00B6E0A6AE56A0BC0F4FF0B
:1038800005C0E9FF06C0F3FF07500FEC3BF0BBECAF
:1038900037F0096A0A2609500B220AC0E5FF0BC05F
:1038A000F4FF05C0E9FF06C0F3FF07500FEC3BF043
:1038B0009CD000500C0F056E000E0120066E000E0D
:1038C0000220076EBBEC37F00B6E0A6AE56A0BC08C
:1038D000F4FF05C0E9FF06C0F3FF07500FEC3BF013
:1038E000BBEC37F0096A0A2609500B220AC0E5FF33
:1038F0000BC0F4FF05C0E9FF06C0F3FF07500FEC53
:103900003BF073D000500E0F056E000E0120066EC6
:10391000000E0220076EBBEC37F00B6E0A6AE56AF8
:103920000BC0F4FF05C0E9FF06C0F3FF07500FEC22
:103930003BF0BBEC37F0096A0A2609500B220AC09B
:10394000E5FF0BC0F4FF05C0E9FF06C0F3FF075019
:103950000FEC3BF04AD0BBEC37F0046E036ABBECD3
:1039600037F0066A0326065004220450E56E035021
:10397000E56E0250E56E0150E56E0050E56E9AEC82
:1039800036F0050EE12631D0BBEC37F0046E036A49
:10399000BBEC37F0066A0326065004220450E56E9D
:1039A0000350E56E0250E56E0150E56E0050E56E85
:1039B00056EC29F0050EE12618D0BBEC37F0046E6A
:1039C000036ABBEC37F0066A032606500422045053
:1039D000E56E0350E56E0250E56E0150E56E005055
:1039E000E56EFEEC2DF0050EE126E4CF0BF0E4CF02
:1039F0000AF0E4CF09F0E4CF08F0E4CF07F0E4CF19
:103A000006F0E4CF05F0E4CF04F0E4CF03F0E4CF18
:103A100002F0E4CF01F0E4CF00F0E4CFD9FF1200D0
:103A200000C0E5FF01C0E5FF02C0E5FF03C0E5FF00
:103A30009EA066D1006A80BA002A0050010BF46E85
:103A400004019B51FE0BF4109B6F040180B308D05E
:103A50000401B16BB26BB36BB46BB581B58502D0A9
:103A60000401B595006A04019BB1002A016A9BB567
:103A7000012A0050011801E18ED0006A04019BB1B7
:103A8000002A0050010BE844E844F46E9B51FB0B04
:103A9000F4109B6FA951AD5D006EAA51AE59016E35
:103AA000AB51AF59026EAC51B059036E0050AD6FBF
:103AB0000150AE6F0250AF6F0350B06F0F01345121
:103AC0000401A96F0F0135510401AA6F0F0136518E
:103AD0000401AB6F0F0137510401AC6F0F0134517A
:103AE000002635510122365102223751032200505F
:103AF0000401AD6F0150AE6F0250AF6F0350B06F55
:103B0000006A82B6002A0050010BE844F46E9B5113
:103B1000FD0BF4109B6F006A9BB1002A016A9BB3F6
:103B2000012A0150D880E866D890016A0136015018
:103B3000001A005019E0B1C400F0B2C401F0B3C4DF
:103B400002F0B4C403F0002A04E3012A02E3024AAB
:103B5000032A00500401B16F0150B26F0250B36FDD
:103B60000350B46FB58317D0B1C400F0B2C401F0F4
:103B7000B3C402F0B4C403F0FF0E002601220222F7
:103B8000032200500401B16F0150B26F0250B36FB5
:103B90000350B46FB593006A82B8002A0050010B3D
:103BA000F46E03010851FE0BF410086F040180B39A
:103BB00008D003011E6B1F6B206B216B22812285B5
:103BC00002D003012295006A030108B1002A016AAC
:103BD00008B5012A0050011801E18ED0006A0301E6
:103BE00008B1002A0050010BE844E844F46E085183
:103BF000FB0BF410086F16511A5D006E17511B591C
:103C0000016E18511C59026E19511D59036E005056
:103C10001A6F01501B6F02501C6F03501D6F0F0174
:103C200034510301166F0F0135510301176F0F0156
:103C300036510301186F0F0137510301196F0F013E
:103C400034510026355101223651022237510322C8
:103C5000005003011A6F01501B6F02501C6F03507C
:103C60001D6F006A82BA002A0050010BE844F46E0E
:103C70000851FD0BF410086F006A08B1002A016AB0
:103C800008B3012A0150D880E866D890016A01364D
:103C90000150001A005019E01EC300F01FC301F0CC
:103CA00020C302F021C303F0002A04E3012A02E347
:103CB000024A032A005003011E6F01501F6F025079
:103CC000206F0350216F228317D01EC300F01FC343
:103CD00001F020C302F021C303F0FF0E00260122F1
:103CE00002220322005003011E6F01501F6F025079
:103CF000206F0350216F2293CF68EB0ECE6E9E9003
:103D0000E4CF03F0E4CF02F0E4CF01F0E4CF00F021
:103D10001200437220256C642025642025640A006B
:103D2000430025630000800EE56E030EE56E950EE0
:103D3000E56EF5EC32F0030EE126800EE56E030E23
:103D4000E56E750EE56EF5EC32F0030EE126800EA1
:103D5000E56E030EE56E970EE56EF5EC32F0030EA0
:103D6000E126800EE56E030EE56E770EE56EF5EC4E
:103D700032F0030EE126800EE56E030EE56E990E1D
:103D8000E56EF5EC32F0030EE126800EE56E030ED3
:103D9000E56E790EE56EF5EC32F0030EE126800E4D
:103DA000E56E030EE56E9B0EE56EF5EC32F0030E4C
:103DB000E126800EE56E030EE56E7B0EE56EF5ECFA
:103DC00032F0030EE126800EE56E030EE56E9D0EC9
:103DD000E56EF5EC32F0030EE126800EE56E030E83
:103DE000E56E7D0EE56EF5EC32F0030EE126800EF9
:103DF000E56E030EE56E9F0EE56EF5EC32F0030EF8
:103E0000E126800EE56E030EE56E7F0EE56EF5ECA5
:103E100032F0030EE126800EE56E030EE56EA10E74
:103E2000E56EF5EC32F0030EE126800EE56E030E32
:103E3000E56E810EE56EF5EC32F0030EE126800EA4
:103E4000E56E030EE56EA30EE56EF5EC32F0030EA3
:103E5000E126800EE56E030EE56E830EE56EF5EC51
:103E600032F0030EE126800EE56E030EE56EA50E20
:103E7000E56EF5EC32F0030EE126800EE56E030EE2
:103E8000E56E850EE56EF5EC32F0030EE126800E50
:103E9000E56E030EE56EA70EE56EF5EC32F0030E4F
:103EA000E126800EE56E030EE56E870EE56EF5ECFD
:103EB00032F0030EE126800EE56E030EE56EA90ECC
:103EC000E56EF5EC32F0030EE126800EE56E030E92
:103ED000E56E890EE56EF5EC32F0030EE126800EFC
:103EE000E56E030EE56EAB0EE56EF5EC32F0030EFB
:103EF000E126800EE56E030EE56E8B0EE56EF5ECA9
:103F000032F0030EE126800EE56E030EE56EAD0E77
:103F1000E56EF5EC32F0030EE126800EE56E030E41
:103F2000E56E8D0EE56EF5EC32F0030EE126800EA7
:103F3000E56E030EE56EAF0EE56EF5EC32F0030EA6
:103F4000E126800EE56E030EE56E8F0EE56EF5EC54
:103F500032F0030EE126800EE56E030EE56EB10E23
:103F6000E56EF5EC32F0030EE126800EE56E030EF1
:103F7000E56E910EE56EF5EC32F0030EE126800E53
:103F8000E56E030EE56EB30EE56EF5EC32F0030E52
:103F9000E126800EE56E030EE56E930EE56EF5EC00
:103FA00032F0030EE1261200D9CFE5FFE1CFD9FFB1
:103FB00000C0E5FF01C0E5FF02C0E5FF03C0E5FF6B
:103FC00004C0E5FF05C0E5FF06C0E5FF07C0E5FF4B
:103FD00008C0E5FF020EDBCF00F0030EDBCF01F0DF
:103FE000040EDBCF02F0036A046ABBEC37F0056E07
:103FF000FE0A01E075D0A3EC32F0BBEC37F0066EA0
:10400000040E065CD8B05AD0FA6AFB6A0634FA3657
:10401000E834FA36FC0B260FE56E400EFA22000E4D
:10402000FB22E450F96E1BEF20F027EF20F03AEF6F
:1040300020F04DEF20F000C0E9FF01C0F3FF025077
:10404000C5EC3AF0076E07C003F0046A37D00050A1
:10405000010F076E000E0120086E000E022007C03F
:10406000E9FF08C0F3FFC5EC3AF0076E07C003F0A4
:10407000046A24D00050020F076E000E0120086E63
:10408000000E022007C0E9FF08C0F3FFC5EC3AF0BC
:10409000076E07C003F0046A11D000500F0F076EBF
:1040A000000E0120086E000E022007C0E9FF08C0C4
:1040B000F3FF25EC3AF0036EF3CF04F00450E56E05
:1040C0000350E56EE56A0650E56E000EE56E500E93
:1040D000E56E5E0EE56EF3EC34F0070EE1268DD052
:1040E000040E055CD8B089D0FA6AFB6A0534FA364A
:1040F000E834FA36FC0B060FE56E410EFA22000E8C
:10410000FB22E450F96E8BEF20F098EF20F0C3EF24
:1041100020F0D9EF20F0BBEC37F0036E03C0E5FFD1
:1041200000C0E9FF01C0F3FF02503DEC3BF065D059
:104130000050010F036E000E0120046E000E0220DD
:10414000056EBBEC37F0066E06C0E5FF03C0E9FF65
:1041500004C0F3FF05503DEC3BF00650D8A44DD011
:104160000050030F036E000E0120046E000E0220AB
:10417000E56AF46AF66AF76A03C0E9FF04C0F3FF70
:10418000B4EC3AF03AD00050020F036E000E01205A
:10419000046E000E0220056EBBEC37F0066E06C002
:1041A000E5FF03C0E9FF04C0F3FF05503DEC3BF021
:1041B00024D00F0E0026000E01220222BBEC37F0A5
:1041C000066E056AE56A06C0F4FF00C0E9FF01C09B
:1041D000F3FF02500FEC3BF0BBEC37F0046A05260E
:1041E0000450062205C0E5FF06C0F4FF00C0E9FF49
:1041F00001C0F3FF02500FEC3BF0E4CF08F0E4CF36
:1042000007F0E4CF06F0E4CF05F0E4CF04F0E4CF0C
:1042100003F0E4CF02F0E4CF01F0E4CF00F0E4CF0C
:10422000D9FF120000C0E5FF01C0E5FF02C0E5FFB5
:1042300003C0E5FF04011151D8B40AD1A3A81DD0D1
:10424000A4A81BD005017F5105017C1905E1F3EC01
:104250003AF005017C6BFCD0000E05017F25006E55
:10426000016A0F0E012200C0E9FF01C0EAFFEFCF93
:1042700078F57F2B78C573FFEBD0A4AAE9D071A2A3
:1042800005D005017D81F3EC3AF0E2D071A405D0B0
:1042900005017D83F3EC3AF0DBD071A048D074CFF8
:1042A00078F512C400F0016A008E78C502F0036A46
:1042B0000250001803E10350011801E004D0050189
:1042C0007D897196C5D00501785104E078510401CB
:1042D000121929E105017D9971960501785103E0D4
:1042E00005017D9702D005017D8778C581F57AC5E6
:1042F00082F505017A51006E00040501836F600E9E
:1043000005018225006E016A000E012200C0E9FF4E
:1043100001C0EAFF78C5EFFF822B8251800A02E1DB
:104320000501826B95D005017D99718691D074CF7E
:1043300078F505017DA921D012C400F0016A008E34
:1043400078C502F0036A0250001803E10350011817
:1043500001E011D09490A39A719805017C5104E179
:10436000736AF3EC3AF007D000CF73FF010E05013A
:104370007F6FA3886DD071866BD0050178510501E0
:10438000812705018251050183191BE10501815136
:104390000CE182C57AF505017DB712D09490A39AFD
:1043A0007198736AF3EC3AF00BD005017D857DB707
:1043B00007D09490A39A7198010E736EF3EC3AF0C3
:1043C00047D00501825105017B1908E105017B51A8
:1043D00005017A1903E0F3EC3AF03AD07AC500F01F
:1043E000016A004A012AE56A800EE56E0150E56E19
:1043F0000050E56E6CEC2EF0006E040EE1260050CD
:104400000501796F050182190FE178C500F01F0ED3
:1044100000140501836F006E020E0024836F0501F6
:104420007A5105018327839F82C500F00501822B05
:10443000016A600E0026000E012200C0E9FF01C0E3
:10444000EAFF78C5EFFF8251800A02E10501826B25
:10445000E4CF03F0E4CF02F0E4CF01F0E4CF00F0CA
:104460001200D9CFE5FFE1CFD9FF00C0E5FF01C0C1
:10447000E5FF02C0E5FF03C0E5FF04C0E5FF05C09E
:10448000E5FF06C0E5FF07C0E5FF020EDBCF00F049
:10449000030EDBCF01F0040EDBCF02F0050EDBCF05
:1044A00003F0060EDBCF04F0070EDBCF05F0080E9D
:1044B000DBCF06F0090EDBCF07F0005005014E6F91
:1044C00001504F6F0250506F0350516F045005015F
:1044D000526F0550536F0650546F0750556F0501CA
:1044E0004E5105015403F4CF01F0F3CF00F000501A
:1044F0000501586F0150596F05014E5105015203D6
:10450000F4CF01F0F3CF00F000500501566F0150D9
:10451000576F0501515105015203F3CF00F005011A
:10452000595100260050596F0501505105015303A0
:10453000F3CF01F00150002600500501596F05012D
:10454000505105015203F4CF01F0F3CF00F0050103
:1045500058510026595101220050586F0150596F8F
:1045600005014F5105015303F4CF03F0F3CF02F0DF
:10457000025000260350012200500501586F0150DF
:10458000596F05014F5105015403F3CF00F000505E
:1045900005015D6F05014F5105015203F4CF01F094
:1045A000F3CF00F0005005015B6F01505C6F050117
:1045B0004E5105015503F3CF00F000500501616F26
:1045C00005014E5105015303F4CF01F0F3CF00F084
:1045D000005005015F6F0150606F05015A6B0501C6
:1045E0005E6B05015A5105015625006E05015B51B0
:1045F00005015721016E05015C5105015821026E2C
:1046000005015D5105015921036E0050566F01509F
:10461000576F0250586F0350596F05015E510501E5
:104620005625006E05015F5105015721016E0501F8
:10463000605105015821026E0501615105015921A2
:10464000036E03C0E9FF02C0F4FF01C0F3FF005096
:10465000E4CF07F0E4CF06F0E4CF05F0E4CF04F0B8
:10466000E4CF03F0E4CF02F0E4CF01F0E4CF00F0B8
:10467000E4CFD9FF120000C0E5FF01C0E5FF02C092
:10468000E5FF03C0E5FF04C0E5FFBBEC37F0640ABB
:1046900001E0D2D0BBEC37F0006E4C0A08E1BBEC75
:1046A00037F0300A02E08B82C7D08B92C5D0005021
:1046B000470A21E1BBEC37F04F0A01E0BDD004010D
:1046C0000751020A01E0B8D0030E0401076F3F0E44
:1046D000E56ECF0EE56E800EE56E040EE56EB60E4D
:1046E000E56E9AEC36F0050EE126020E0401936F9A
:1046F0000301006FA1D00050480A01E067D0BBEC75
:1047000037F04F0A01E098D0BBEC37F04D0A01E0DA
:1047100093D0BBEC37F0450A01E08ED0040107517D
:1047200001E08AD0010E0401076F81A42ED004019C
:10473000B591B151016EB251026EB351036EB451D5
:10474000046E000E045C08E1000E035C05E10F0E30
:10475000025C02E1B60E015C09E3040104510401AC
:104760009E6F0401055104019F6F0CD00401051DCB
:10477000026E041D016E014A022A015004019E6F5F
:1047800002509F6F0401936B13D00401B16BB26BA5
:10479000B36BB46BE56AE56A800EE56E040EE56EF8
:1047A000B60EE56E56EC29F0050EE1260401B58142
:1047B00082AC08D00401025103010B6F04010351C4
:1047C00003010C6F0301006B229136D00050410AA7
:1047D0001BE1BBEC37F0420A2FE1BBEC37F04F0A8C
:1047E0002BE1BBEC37F0520A27E1BBEC37F0540A5F
:1047F00023E10401076B04019E6B9F6B936B030124
:104800000B6B0C6B006B18D00050550A03E191EC58
:1048100033F012D00050530A0FE1BBEC37F0006ABE
:10482000016EBBEC37F0036A0026035001220050F2
:104830000401BC6F0150BD6FE4CF04F0E4CF03F07E
:10484000E4CF02F0E4CF01F0E4CF00F01200D9CFC2
:10485000E5FFE1CFD9FF00C0E5FF01C0E5FF02C0E1
:10486000E5FF03C0E5FF04C0E5FF05C0E5FF06C0A6
:10487000E5FF07C0E5FF08C0E5FF09C0E5FF0AC086
:10488000E5FF0BC0E5FF0CC0E5FF0DC0E5FF0EC066
:10489000E5FF0FC0E5FF020EDBCF00F0030EDBCF1C
:1048A00001F0040EDBCF02F0050EDBCF03F0060EA5
:1048B000DBCF04F0070EDBCF05F0080EDBCF06F0F0
:1048C000200E076E086A06C009F00A6A0B6A0C6AB5
:1048D000E56AE56AE56A0950E56E0350E56E025047
:1048E000E56E0150E56E0050E56ED2EC25F00D6EE0
:1048F000080EE126300E0D263A0E0D5C05E30D5034
:104900000E6E270E0E240D6EFF0E07260822D50E02
:1049100007240E6E030E08200F6E0EC0E9FF0FC0B5
:10492000EAFF0DC0EFFF0C50E56E0B50E56E0A502C
:10493000E56E0950E56E0350E56E0250E56E0150DC
:10494000E56E0050E56EC6EC28F0006EF3CF01F086
:10495000F4CF02F0E9CF03F0080EE1260050011079
:1049600002100310D8A4AFD707C000F008C001F0B0
:1049700004C002F005C003F000C004F001C005F05F
:10498000004A012AD50E0426030E052204C0E9FFC1
:1049900005C0EAFFEFCF04F002C0E9FF03C0EAFF61
:1049A00004C0EFFF024A032A000E015C02E1200E60
:1049B000005CE2E302C0E9FF03C0EAFF000EEF6A19
:1049C000E4CF0FF0E4CF0EF0E4CF0DF0E4CF0CF025
:1049D000E4CF0BF0E4CF0AF0E4CF09F0E4CF08F025
:1049E000E4CF07F0E4CF06F0E4CF05F0E4CF04F025
:1049F000E4CF03F0E4CF02F0E4CF01F0E4CF00F025
:104A0000E4CFD9FF1200D9CFE5FFE1CFD9FF00C035
:104A1000E5FF01C0E5FF02C0E5FF03C0E5FF04C0FC
:104A2000E5FF05C0E5FF06C0E5FF07C0E5FF08C0DC
:104A3000E5FF09C0E5FF0AC0E5FF0BC0E5FF0CC0BC
:104A4000E5FF0DC0E5FF020EDBCF00F0030EDBCF6C
:104A500001F0040EDBCF02F0050EDBCF03F0060EF3
:104A6000DBCF04F0070EDBCF05F0080EDBCF06F03E
:104A7000090EDBCF07F0D88003AED890086A08365D
:104A800008500FE0031C0C6E021C0B6E011C0A6E1A
:104A9000001C096E092A0DE10A2A0BE10B4A0C2AB7
:104AA00008D000C009F001C00AF002C00BF003C03A
:104AB0000CF0D88007AED890006A003600500FE0A6
:104AC000071C0D6E061C036E051C026E041C016E95
:104AD000012A0DE1022A0BE1034A0D2A08D004C085
:104AE00001F005C002F006C003F007C00DF00D5044
:104AF000E56E0350E56E0250E56E0150E56E0C5018
:104B0000E56E0B50E56E0A50E56E0950E56EC6EC99
:104B100028F0016EF3CF02F0F4CF03F0E9CF04F0F8
:104B2000080EE1260050081A085016E0041C076E13
:104B3000031C066E021C056E011C006E002A04E1B7
:104B4000052A02E1064A072A07C0E9FF06C0F4FF6A
:104B500005C0F3FF005007D004C0E9FF03C0F4FF15
:104B600002C0F3FF0150E4CF0DF0E4CF0CF0E4CF2E
:104B70000BF0E4CF0AF0E4CF09F0E4CF08F0E4CF83
:104B800007F0E4CF06F0E4CF05F0E4CF04F0E4CF83
:104B900003F0E4CF02F0E4CF01F0E4CF00F0E4CF83
:104BA000D9FF1200D9CFE5FFE1CFD9FF00C0E5FF63
:104BB00001C0E5FF02C0E5FF03C0E5FF04C0E5FF5B
:104BC00005C0E5FF06C0E5FF07C0E5FF08C0E5FF3B
:104BD00009C0E5FF0AC0E5FF020EDBCF00F0030EBF
:104BE000DBCF01F0040EDBCF02F0050EDBCF03F0CC
:104BF000060EDBCF04F0070EDBCF05F0080EDBCF8F
:104C000006F0090EDBCF07F0086A04500510061005
:104C1000071005E1E968F468F368E86847D0096AB5
:104C20000750800BE8440A6E0A501BE1045004262A
:104C30000536063607360750035C08E10650025C6D
:104C400005E10550015C02E10450005C06E2D890E9
:104C5000073206320532043204D0092A09C008F0AE
:104C6000DFD70750035C08E10650025C05E1055000
:104C7000015C02E10450005C08E30450005E055052
:104C8000015A0650025A0750035AD890073206328A
:104C90000532043208C009F008060950E2E103C0F9
:104CA000E9FF02C0F4FF01C0F3FF0050E4CF0AF0B7
:104CB000E4CF09F0E4CF08F0E4CF07F0E4CF06F04A
:104CC000E4CF05F0E4CF04F0E4CF03F0E4CF02F04A
:104CD000E4CF01F0E4CF00F0E4CFD9FF120000C030
:104CE000E5FF01C0E5FF02C0E5FF03C0E5FF04C02A
:104CF000E5FF05017B5105017A1901E16DD07BC506
:104D000000F00050016E0128006E009E600E00242D
:104D1000016E026A000E022201C0E9FF02C0EAFF32
:104D2000EFCF85F51F0E050185177BC584F58551ED
:104D3000050184278451016E020E0124846F849F33
:104D4000BBEC37F0016E015003E1016A012A01D08A
:104D5000016ABBEC37F00501856F85C502F0800E56
:104D6000021685C503F01F0E031603C004F003C02E
:104D700085F5045003E17AC57BF541D0015021E06F
:104D8000025028E0BBEC37F0006E05018551016E42
:104D90000104856F0050420A03E13BEC23F01AD076
:104DA00000504E0A03E171EC34F014D00050460A72
:104DB00003E127EC3BF00ED00050490A0BE1FF0065
:104DC00009D07BC586F5025003E08AEC2DF002D0B5
:104DD000C9EC38F084C57BF504010E5104010F19AC
:104DE00006E005017C5103E10AEC27F008D094B0FD
:104DF00006D005017C5103E172B2F3EC3AF0E4CF46
:104E000004F0E4CF03F0E4CF02F0E4CF01F0E4CF0C
:104E100000F0120000C0E5FF01C0E5FF02C0E5FFA1
:104E200003C0E5FF04C0E5FF72A27ED00CEC39F0B0
:104E3000006E005005E104010F6B04010E6B74D08D
:104E40000FC401F0005001260CEC39F0026E005046
:104E5000036E0304006E0250230A1FE1010E005C82
:104E6000D8A060D00CEC39F0026E690A03E134EC92
:104E700037F058D00250720A03E1F3EC3AF052D006
:104E80000250730A01E04ED094807186A38AA398E1
:104E9000745074507198718845D00250430A05E0EF
:104EA0000250420A01E03ED006D000C003F0046A7E
:104EB000038E0350006E00C07EF500500F01006F9E
:104EC000010E05017F6F04010F51011814E00CEC75
:104ED00039F0026E05017E27000E05017F25006E68
:104EE000036A0F0E032200C0E9FF03C0EAFF02C0FD
:104EF000EFFF7F2BE8D7000E05017F25006E026AC9
:104F00000F0E022205017E1D036E032A00C0E9FF79
:104F100002C0EAFF03C0EFFF05017F2B7FC57CF5D0
:104F20000501766B01C00FF4E4CF04F0E4CF03F089
:104F3000E4CF02F0E4CF01F0E4CF00F01200D9CFCB
:104F4000E5FFE1CFD9FF00C0E5FF01C0E5FF02C0EA
:104F5000E5FF03C0E5FF04C0E5FF05C0E5FF06C0AF
:104F6000E5FF07C0E5FF020EDBCF00F0030EDBCF4D
:104F700001F0040EDBCF02F000500B0F036E000EA9
:104F80000120046E000E0220E56AF46AF66AF76AF0
:104F900003C0E9FF04C0F3FFB4EC3AF00050070F80
:104FA000036E000E0120046E000E0220056E0050FC
:104FB000030F066E000E0120076E000E0220E56A48
:104FC000F46AF66AF76A06C0E9FF07C0F3FFB4ECBB
:104FD0003AF0E56AF46AF66AF76A03C0E9FF04C0CA
:104FE000F3FF0550B4EC3AF00050010F036E000ED1
:104FF0000120046E000E0220056E0050020F066EA6
:10500000000E0120076E000E0220E56A06C0E9FFCF
:1050100007C0F3FF3DEC3BF0E56A03C0E9FF04C0C5
:10502000F3FF05503DEC3BF0E56A00C0E9FF01C02D
:10503000F3FF02503DEC3BF0E4CF07F0E4CF06F085
:10504000E4CF05F0E4CF04F0E4CF03F0E4CF02F0C6
:10505000E4CF01F0E4CF00F0E4CFD9FF12002564E3
:105060002025640A0000D9CFE5FFE1CFD9FF00C0B9
:10507000E5FF01C0E5FF02C0E5FF03C0E5FF04C096
:10508000E5FF05C0E5FF06C0E5FF07C0E5FF08C076
:10509000E5FF09C0E5FF0AC0E5FF020EDBCF00F027
:1050A000030EDBCF01F0040EDBCF02F0050EDBCFE9
:1050B00003F0060EDBCF04F0070EDBCF05F000385F
:1050C000E8441F0B066E076A6B0E0626050E0722C4
:1050D00006C0E9FF07C0EAFFEFCF08F00050096EF5
:1050E000070E0916010E0A6E09500DE006E6E86C7F
:1050F000D8900A36010FFDE306D0D8900ABED880BA
:105100000A32010FFBE308500A1206C0E9FF07C08C
:10511000EAFF0AC0EFFF000E0024066E076A050EC4
:10512000072206C0E9FF07C0EAFF01C0EFFF016ADE
:10513000E80E0026040E0122800E025E070E021603
:105140000238F00B036E070E05160550032600C04B
:10515000E9FF01C0EAFF03C0EFFFE4CF0AF0E4CFAC
:1051600009F0E4CF08F0E4CF07F0E4CF06F0E4CF95
:1051700005F0E4CF04F0E4CF03F0E4CF02F0E4CF95
:1051800001F0E4CF00F0E4CFD9FF1200D9CFE5FF62
:10519000E1CFD9FF00C0E5FF01C0E5FF02C0E5FF98
:1051A00003C0E5FF04C0E5FF05C0E5FF06C0E5FF5D
:1051B00007C0E5FF08C0E5FF09C0E5FF0AC0E5FF3D
:1051C0000BC0E5FF0CC0E5FF0DC0E5FF020EDBCF15
:1051D00000F0030EDBCF01F0040EDBCF02F0050E72
:1051E000DBCF03F0060EDBCF04F0070EDBCF05F0BC
:1051F000080EDBCF06F0090EDBCF07F0086A096A5C
:105200000A6A0B6A200E0C6E0350800BE8440D6E88
:1052100000500026013602360336085008260936AB
:105220000A360B360D50D8A4088007500B5C08E1F5
:1052300006500A5C05E10550095C02E10450085C77
:1052400009E30450085E0550095A06500A5A0750EF
:105250000B5A00800C040D6E0DC00CF00D50D4E103
:1052600003C0E9FF02C0F4FF01C0F3FF0050E4CF28
:105270000DF0E4CF0CF0E4CF0BF0E4CF0AF0E4CF74
:1052800009F0E4CF08F0E4CF07F0E4CF06F0E4CF74
:1052900005F0E4CF04F0E4CF03F0E4CF02F0E4CF74
:1052A00001F0E4CF00F0E4CFD9FF1200D9CFE5FF41
:1052B000E1CFD9FF00C0E5FF01C0E5FF02C0E5FF77
:1052C00003C0E5FF04C0E5FF05C0E5FF06C0E5FF3C
:1052D00007C0E5FF08C0E5FF0BC0E5FF0CC0E5FF18
:1052E0000DC0E5FF020EDBCF00F0030EDBCF01F0B7
:1052F000040EDBCF02F0050EDBCF03F0060EDBCF92
:1053000004F003C0E5FF04C0F4FF00C0E9FF01C0E2
:10531000F3FF02500FEC3BF00050020F056E000E41
:105320000120066E000E0220076EE86A04BEFF0E22
:10533000086E0838F00B0D6E04380C6E0F0B0C1A4B
:105340000D260C360D360338E844E00B0B6E035087
:10535000E838E8441F0B0C12E56A0BC0F4FF0CC0E0
:10536000F6FF0DC0F7FF05C0E9FF06C0F3FF0750C9
:10537000B4EC3AF0080E0026000E01220222E56A83
:10538000F46AF66AF76A00C0E9FF01C0F3FF025051
:10539000B4EC3AF0E4CF0DF0E4CF0CF0E4CF0BF036
:1053A000E4CF08F0E4CF07F0E4CF06F0E4CF05F057
:1053B000E4CF04F0E4CF03F0E4CF02F0E4CF01F057
:1053C000E4CF00F0E4CFD9FF120000C0E5FF01C038
:1053D000E5FF03C0E5FF04C0E5FF05C0E5FF06C02B
:1053E000E5FF07C0E5FF08C0E5FF09C0E5FF0AC00B
:1053F000E5FF0BC0E5FF36C400F037C401F004013F
:10540000363F01D0372B0050E56EE5EC3AF0E6521E
:10541000076E046A056A066A36C400F037C401F0F4
:105420000401363F01D0372B0050E56EE5EC3AF031
:10543000E6520B6A0A6E086A0850041205120A50F6
:1054400006120B50071236C400F037C401F00401F5
:10545000363F01D0372B0050E56EE5EC3AF0E652CE
:10546000036E006A03C001F0E86A03BEFF0E086E17
:10547000096E00500412015005120850061209501E
:10548000071236C400F037C401F00401363F01D0E2
:10549000372B0050E56EE5EC3AF0E652016A041253
:1054A000015005120612071207C0E9FF06C0F4FFFB
:1054B00005C0F3FF0450E4CF0BF0E4CF0AF0E4CFD3
:1054C00009F0E4CF08F0E4CF07F0E4CF06F0E4CF32
:1054D00005F0E4CF04F0E4CF03F0E4CF01F0E4CF33
:1054E00000F01200D9CFE5FFE1CFD9FF00C0E5FF02
:1054F00001C0E5FF02C0E5FF03C0E5FF04C0E5FF12
:1055000005C0E5FF06C0E5FF07C0E5FF020EDBCFE3
:1055100000F0030EDBCF01F0040EDBCF02F0050E2E
:10552000DBCF03F003C004F0056A0350D8B454D0B5
:1055300000C0E9FF01C0F3FF0250C5EC3AF0066E6F
:10554000430A08E1010E056E03C006F0076A068EE5
:105550000650036E0406002A02E3014A022A9490D0
:10556000A39A7198A398A4A8FED77280736A0000CA
:10557000A4A8FED7729003C073FF0000A4A8FED7B2
:10558000055004E0420E736E032604D0620E736E63
:10559000620E0326045015E00000A4A8FED700C048
:1055A000E9FF01C0F3FF0250C5EC3AF0056E05C0FB
:1055B00073FF055003260406002A02E3014A022A6B
:1055C000E9D70000A4A8FED7031C736E732A00005D
:1055D000A4A8FED7F3EC3AF0E4CF07F0E4CF06F04E
:1055E000E4CF05F0E4CF04F0E4CF03F0E4CF02F021
:1055F000E4CF01F0E4CF00F0E4CFD9FF1200D9CF1F
:10560000E5FFE1CFD9FF00C0E5FF01C0E5FF02C023
:10561000E5FF03C0E5FF04C0E5FF05C0E5FF06C0E8
:10562000E5FF07C0E5FF020EDBCF00F0030EDBCF86
:1056300001F0040EDBCF02F0050EDBCF03F002C059
:1056400006F00650046E800A33E100C0E9FF01C095
:10565000F3FF025066EC39F0056EF3CF06F0F4CF9D
:1056600007F003C0E5FF05C0E9FF06C0F3FF0750E0
:105670003DEC3BF000C0E9FF01C0F3FF025066ECD7
:1056800039F0056EF3CF06F0F4CF07F0052A02E3F8
:10569000064A072A05C0E5FF06C0F4FF07C0F6FF6B
:1056A00000C0E9FF01C0F3FF0250D6EC3AF020D071
:1056B00004C000F000AA1CD0007A0050046E04E17F
:1056C00003507AEC3BF014D00450010A04E103507B
:1056D00002EC00F00DD004500F0A04E1035003EC7B
:1056E00037F006D004500E0A03E103508AEC3BF079
:1056F000E4CF07F0E4CF06F0E4CF05F0E4CF04F008
:10570000E4CF03F0E4CF02F0E4CF01F0E4CF00F007
:10571000E4CFD9FF1200D9CFE5FFE1CFD9FF00C018
:10572000E5FF01C0E5FF02C0E5FF03C0E5FF04C0DF
:10573000E5FF05C0E5FF06C0E5FF07C0E5FF020E77
:10574000DBCF00F0030EDBCF01F0040EDBCF02F065
:10575000050EDBCF03F00FC410F404010E51040159
:10576000105F1051046E0404106F03C004F0056A4A
:10577000030E0426D8B0052A10C406F0076A0750A5
:10578000800FF36E0550800FF35C02E10450065C5D
:1057900002E2E86830D0020E035C02E2E86A2BD035
:1057A0000350046E0404036EE56EAFEC35F0E65270
:1057B000046A0350045C14E204500024056EE86A95
:1057C0000120066EE86A022005C0E9FF06C0F3FF6B
:1057D000C5EC3AF0042AE56EAFEC35F0E652E9D7B5
:1057E0000FC410F404010E510401105F1051006E3B
:1057F0000004106FE86AE4CF07F0E4CF06F0E4CFCE
:1058000005F0E4CF04F0E4CF03F0E4CF02F0E4CFFE
:1058100001F0E4CF00F0E4CFD9FF120000C0E5FFB3
:1058200001C0E5FF02C0E5FF03C0E5FF04C0E5FFDE
:10583000006A6B0E0024016E026A050E022201C08E
:10584000E9FF02C0EAFFEF6A002A020E005CF1E302
:10585000006A0050020DF450026EF3CF01F0E00E2A
:105860000124036E000E0220046E03C0E9FF04C091
:10587000EAFFEE6AEF6A5C0E0124036E040E02205A
:10588000046E03C0E9FF04C0EAFFEE6AEF6A550E3A
:105890000124036E030E0220046E03C0E9FF04C05E
:1058A000EAFFEE6AEF6A750E0124036E030E022012
:1058B000046E03C0E9FF04C0EAFFEE6AEF6A950ECA
:1058C0000126030E022201C0E9FF02C0EAFFEE68D2
:1058D0007F0EEF6EE80E0024016E026A040E0222B3
:1058E00001C0E9FF02C0EAFFEF68002A100E005C69
:1058F000D8A0AFD7AF0EC06EC16A010EC26EC28211
:10590000E4CF04F0E4CF03F0E4CF02F0E4CF01F001
:10591000E4CF00F012004320412025642025640AD2
:105920000000D9CFE5FFE1CFD9FF00C0E5FF01C0FE
:10593000E5FF02C0E5FF03C0E5FF04C0E5FF05C0C9
:10594000E5FF06C0E5FF07C0E5FF08C0E5FF09C0A9
:10595000E5FF0AC0E5FF0BC0E5FF0CC0E5FF020E46
:10596000DBCF00F0030EDBCF01F0040EDBCF02F043
:10597000050EDBCF03F0060EDBCF04F0070EDBCF06
:1059800005F0080EDBCF06F0090EDBCF07F0025062
:105990000A6E0150096E0050086E06C00BF007C079
:1059A0000CF0FF0E062607220B500C101AE003C065
:1059B000E9FF04C0F3FF0550C5EC3AF00B6E032A73
:1059C00002E3044A052A0BC0E5FF08C0E9FF09C04D
:1059D000F3FF0A503DEC3BF0082ADFE3094A0A2AAC
:1059E000DCD702C0F4FF01C0F3FF0050E4CF0CF09D
:1059F000E4CF0BF0E4CF0AF0E4CF09F0E4CF08F0F5
:105A0000E4CF07F0E4CF06F0E4CF05F0E4CF04F0F4
:105A1000E4CF03F0E4CF02F0E4CF01F0E4CF00F0F4
:105A2000E4CFD9FF1200D9CFE5FFE1CFD9FF00C005
:105A3000E5FF01C0E5FF02C0E5FF03C0E5FF04C0CC
:105A4000E5FF05C0E5FF020EDBCF00F0030EDBCF64
:105A500001F0040EDBCF02F00050020DF450036E93
:105A6000F3CF00F05C0E0024046E040E0320056EDC
:105A700004C0E9FF05C0EAFF01C0EEFF02C0EFFF6E
:105A8000550E0024046E030E0320056E04C0E9FFCA
:105A900005C0EAFFEECF04F0EFCF05F00150045C43
:105AA000016E02500558026EB50E0026030E032249
:105AB00000C0E9FF03C0EAFF01C0EEFF02C0EFFF34
:105AC000D88002AED89004E3021E016CD8B4022A3A
:105AD0000250800F800F02E1030E015C02E2016AB6
