:020000040000FA
:10000000D1EF3AF0C96E12004AEF36F0FAEC0FF079
:10001000C4EC0CF0FDD71200D5EF38F0D9CFE5FFD6
:10002000E1CFD9FF00C0E5FF01C0E5FF02C0E5FF59
:1000300003C0E5FF04C0E5FF05C0E5FF06C0E5FF1E
:1000400007C0E5FF08C0E5FF09C0E5FF0AC0E5FFFE
:100050000BC0E5FF0CC0E5FF0DC0E5FF0EC0E5FFDE
:100060000FC0E5FF10C0E5FF11C0E5FF12C0E5FFBE
:1000700013C0E5FF14C0E5FF15C0E5FF16C0E5FF9E
:1000800017C0E5FF18C0E5FF19C0E5FF1AC0E5FF7E
:100090001BC0E5FF1CC0E5FF1DC0E5FF1EC0E5FF5E
:1000A0001FC0E5FF20C0E5FF21C0E5FF22C0E5FF3E
:1000B00023C0E5FF24C0E5FF25C0E5FF26C0E5FF1E
:1000C00027C0E5FF020EDBCF00F0030EDBCF01F00F
:1000D000040EDBCF02F00250086E0150076E005094
:1000E000066EE56A100EE56E0850E56E0750E56E87
:1000F0000650E56E800EE56E050EE56E100EE56E9F
:10010000F1EC2CF0080EE12618C503F019C504F037
:100110001AC505F01BC506F003C007F004C008F0BF
:1001200005C009F006C00AF0D8800AAED8900AE3EC
:100130000A1E091E081E076C05E1082A03E1092AA8
:10014000D8B40A2A10C50BF011C50CF0E86A0501F5
:1001500011BFFF0E0D6E0E6E13390F0B0F6E14399B
:10016000106EF00B101A0F2610320F321551E838AE
:10017000E840F80B10121539E840070BE8B4F8090D
:10018000116E126A11BE12680F500B5C0F6E105088
:100190000C58106E11500D58116E12500E58126EF0
:1001A000800F810F08E1FF0E115C05E1FF0E105C6E
:1001B00002E1FE0E0F5CD8A050D01250800F800FCD
:1001C00008E1000E115C05E1000E105C02E1030E77
:1001D0000F5CD8B042D00A340A30166E0930156E62
:1001E0000830146E0730136E1EC517F01FC518F0C7
:1001F000E86A05011FBFFF0E196E800FF36E1650DF
:10020000800FF35C08E11550195C05E11450185C8F
:1002100002E11350175C21E30D38F00B166E0C3819
:10022000156E0F0B151A1626153616360B38E844C0
:10023000E00B146E0B50E838E8441F0B1512050153
:10024000126B1450136F1550146F1650156F186BF6
:10025000196B1A6B1B6BDEEF04F0073408340B6E5E
:100260000C6A0C360950E844FE0B0C120850076E5D
:100270000950086EF00E0716073A083A0814081AD3
:100280000726083207320A50E838E840F80B08120F
:100290000A38E840070B0BC009F00CC00AF0E86A06
:1002A0000CBEFF0E0D6E0E6E07C013F008C014F0EA
:1002B000E86A08BEFF0E156EE56E1550E56E145027
:1002C000E56E1350E56E0E50E56E0D50E56E0A506A
:1002D000E56E0950E56E7DEC23F0096EF3CF0AF070
:1002E000F4CF0DF0E9CF0EF0080EE1261EC513F095
:1002F0001FC514F0E86A05011FBFFF0E156E166ECC
:10030000E56E1550E56E1450E56E1350E56E0E5017
:10031000E56E0D50E56E0A50E56E0950E56E63EC32
:1003200025F0096EF3CF0AF0080EE12616C50DF090
:1003300017C50EF0E86A050117BFFF0E176E186E9D
:1003400017401B6E1B4218401C6E1C42C00E1C1630
:100350001B141B181C121B1A0E50E840E8403F0BE0
:100360001B120D40196E19420E401A6E1A42C00E31
:100370001A16191419181A12191AD88006AED8901C
:10038000D8B06FD109C00DF00AC00EF0E86A0ABEFD
:10039000FF0E176E800FF36E1250800FF35C08E1B2
:1003A0001150175C05E110500E5C02E10F500D5C1E
:1003B000D8B02FD10650800FF36E1C50800FF35C25
:1003C00008E11B50055C05E11A50045C02E119507C
:1003D000035CD8B0F7D01CC50DF01DC50EF0E86A5F
:1003E00005011DBFFF0E176E186E03500D26045039
:1003F0000E2205501722065018220D500501186FC5
:100400000E50196F17501A6F18501B6F1EC50DF044
:100410001FC50EF01CC517F01DC518F00E50800F3B
:10042000F36E1850800FF35C02E117500D5CD8B0EA
:10043000ADD018C51DF019C51EF01AC51FF01BC59B
:1004400020F01D341E34216E226A22361F50E844EB
:10045000FE0B221221500B6E22500C6E1E380F0B19
:10046000216E1F38226EF00B221A212622322132F1
:100470002050E838E840F80B22122038E840070BFB
:100480002150076E2250086E0BC021F00CC022F0E4
:10049000E86A0CBEFF0E236E246E07C025F008C06C
:1004A00026F0E86A08BEFF0E276EE56E2750E56E5F
:1004B0002650E56E2550E56E2450E56E2350E56E1E
:1004C0002250E56E2150E56E7DEC23F0216EF3CFD6
:1004D00022F0F4CF23F0E9CF24F0080EE1260DC07E
:1004E00025F00EC026F0E86A0EBEFF0E276EE56E00
:1004F0002750E56E2650E56E2550E56E2450E56EDA
:100500002350E56E2250E56E2150E56E63EC25F038
:10051000216EF3CF22F0080EE1262150096E225001
:100520000A6E09C021F00AC022F0E86A0ABEFF0E76
:10053000236E246E1250800FF36E2450800FF35CF4
:1005400008E12350115C05E12250105C02E12150CA
:100550000F5C1CE20D50175C0D6E0E5018580E6E9D
:10056000E86A0EBEFF0E176E186E0D501D5E0E501F
:100570001E5A17501F5A1850205A1D500501186F47
:100580001E50196F1F501A6F20501B6F1C50800F88
:10059000F36E05011B51800FF35C08E11A511B5CDF
:1005A00005E119511A5C02E11851195CD8B0DCD18F
:1005B00019500501186F1A50196F1B501A6F1C50F3
:1005C0001B6FD2D11C50800FF36E0650800FF35C6E
:1005D00008E105501B5C05E104501A5C02E1035080
:1005E000195CD8B0C1D11350035C0D6E145004587F
:1005F0000E6E15500558176E16500658186E0D5091
:100600000501186F0E50196F17501A6F18501B6F95
:10061000ABD11CC50DF01DC50EF0E86A05011DBF6C
:10062000FF0E176E186E13500D2614500E22155023
:100630001722165018220D50035C0D6E0E500458F0
:100640000E6E17500558176E18500658186E0D503C
:100650000501186F0E50196F17501A6F18501B6F45
:1006600083D10A1E096CD8B40A2A09C00DF00AC049
:100670000EF0E86A0ABEFF0E176E186E1250800F59
:10068000F36E1850800FF35C08E11750115C05E120
:100690000E50105C02E10D500F5CD8B042D11C1C12
:1006A000186E1B1C176E1A1C0E6E191C0D6E0D2A6F
:1006B00004E10E2A02E1174A182A1850800FF36E3F
:1006C0000650800FF35C08E10550175C05E104500B
:1006D0000E5C02E103500D5CD8B0FCD01CC519F0D3
:1006E0001DC51AF0E86A05011DBFFF0E1B6E1C6ECA
:1006F0001950035C196E1A5004581A6E1B50055895
:100700001B6E1C5006581C6E19500501186F1A50AC
:10071000196F1B501A6F1C501B6F1EC519F01FC597
:100720001AF01CC51BF01DC51CF01A50800FF36E8B
:100730001C50800FF35C02E11B50195CD8B0AED0A6
:1007400018C51DF019C51EF01AC51FF01BC520F0F5
:100750001D341E34216E226A22361F50E844FE0BDF
:100760002212221E216C02E1222A00E121500B6E8E
:1007700022500C6E1E380F0B216E1F38226EF00BAC
:10078000221A2126223221322050E838E840F80B84
:1007900022122038E840070B221E216C02E1222A97
:1007A00000E12150076E2250086EE86A0CBEFF0E71
:1007B000216E226EE86A08BEFF0E236EE56E23509E
:1007C000E56E0850E56E0750E56E2250E56E21504B
:1007D000E56E0C50E56E0B50E56E7DEC23F0076E78
:1007E000F3CF08F0F4CF0BF0E9CF0CF0080EE126C0
:1007F00019C021F01AC022F0E86A1ABEFF0E236E5B
:10080000E56E2350E56E2250E56E2150E56E0C50EA
:10081000E56E0B50E56E0850E56E0750E56E63EC33
:1008200025F0076EF3CF08F0080EE126081E076CCE
:1008300002E1082A00E10750096E08500A6EE86AD2
:100840000ABEFF0E076E800FF36E1250800FF35C2E
:1008500008E11150075C05E110500A5C02E10F50FD
:10086000095C1CE219501B5C196E1A501C581A6E58
:10087000E86A1ABEFF0E076E086E19501D261A5040
:100880001E2207501F22085020221D500501186FFC
:100890001E50196F1F501A6F20501B6F05011B51FE
:1008A000800FF36E1850800FF35C08E117501A5D4B
:1008B00005E10E50195D02E10D50185DD8B054D01D
:1008C0000D500501186F0E50196F17501A6F185000
:1008D0001B6F4AD00650800FF36E1850800FF35CE8
:1008E00008E11750055C05E10E50045C02E10D5073
:1008F000035CD8B039D013500324076E1450042081
:10090000086E15500520096E165006200A6E075015
:100910000501186F0850196F09501A6F0A501B6FA4
:1009200023D01CC507F01DC508F0E86A05011DBFEE
:10093000FF0E096E0A6E0750132608501422095044
:1009400015220A5016221350032614500422155063
:1009500005221650062203500501186F0450196F26
:1009600005501A6F06501B6F05011835046E1935B6
:10097000036E043603360434030B046E1A51E84444
:10098000E844FC0B04121A35066E1B35056E06365C
:1009900005360634030B06B0FC09066E1251032619
:1009A0001351042214510522155106220350126FCF
:1009B0000450136F0550146F0650156FE56A100E42
:1009C000E56E800EE56E050EE56E100EE56E0250CA
:1009D000E56E0150E56E0050E56EF1EC2CF0080E6E
:1009E000E126E4CF27F0E4CF26F0E4CF25F0E4CFF2
:1009F00024F0E4CF23F0E4CF22F0E4CF21F0E4CFE1
:100A000020F0E4CF1FF0E4CF1EF0E4CF1DF0E4CFE0
:100A10001CF0E4CF1BF0E4CF1AF0E4CF19F0E4CFE0
:100A200018F0E4CF17F0E4CF16F0E4CF15F0E4CFE0
:100A300014F0E4CF13F0E4CF12F0E4CF11F0E4CFE0
:100A400010F0E4CF0FF0E4CF0EF0E4CF0DF0E4CFE0
:100A50000CF0E4CF0BF0E4CF0AF0E4CF09F0E4CFE0
:100A600008F0E4CF07F0E4CF06F0E4CF05F0E4CFE0
:100A700004F0E4CF03F0E4CF02F0E4CF01F0E4CFE0
:100A800000F0E4CFD9FF1200D9CFE5FFE1CFD9FFC5
:100A900000C0E5FF01C0E5FF02C0E5FF03C0E5FFC0
:100AA00004C0E5FF05C0E5FF06C0E5FF07C0E5FFA0
:100AB00008C0E5FF09C0E5FF0AC0E5FF0BC0E5FF80
:100AC0000CC0E5FF0DC0E5FF0EC0E5FF0FC0E5FF60
:100AD00010C0E5FF11C0E5FF12C0E5FF13C0E5FF40
:100AE00014C0E5FF15C0E5FF16C0E5FF17C0E5FF20
:100AF00018C0E5FF19C0E5FF1AC0E5FF1BC0E5FF00
:100B00001CC0E5FF1DC0E5FF1EC0E5FF020EDBCFE8
:100B100000F0030EDBCF01F0040EDBCF02F0050E78
:100B2000DBCF03F0060EDBCF04F0070EDBCF05F0C2
:100B3000080EDBCF06F0090EDBCF07F00A0EDBCF85
:100B400008F0096A0A6A02C00DF00D50800A0DE132
:100B5000025005016A6F0150696F0050686F050E01
:100B6000016E680E006E800E026E03C0E9FF04C0C5
:100B7000F3FF05501BEC3BF00B6E0B50D8B4FAEFB3
:100B800008F00B50250A02E0E1EF08F00C6A0D6A4C
:100B90000E6A0F6A106A0A0E116E126A136A146ADC
:100BA000200E156E1668176A2B0E186E032A02E3C4
:100BB000044A052A03C0E9FF04C0F3FF05501BECFB
:100BC0003BF0196E250A13E11950E56E0250E56EEF
:100BD0000150E56E0050E56E5FEC2BF0040EE1264F
:100BE000094A0A2A032A02E3044A052ABED71950F1
:100BF000300A06E1300E156E032A02E3044A052A84
:100C000003C0E9FF04C0F3FF05501BEC3BF02D0AC5
:100C100006E1010E146E032A02E3044A052A03C00A
:100C2000E9FF04C0F3FF05501BEC3BF0200A08E18C
:100C3000010E176E200E186E032A02E3044A052ADD
:100C400003C0E9FF04C0F3FF05501BEC3BF02B0A87
:100C500006E1010E176E032A02E3044A052A03C0C7
:100C6000E9FF04C0F3FF05501BEC3BF0196E310E99
:100C7000195C2BE33A0E195C28E203C019F004C09A
:100C80001AF005C01BF019C0E9FF1AC0F3FF1B5092
:100C90001BEC3BF01C6E300E1C5C11E33A0E1C5C2E
:100CA0000EE213500A0DF3CF1DF01C501D26D00E7E
:100CB0001D24136E192A02E31A4A1B2AE4D719C00D
:100CC00003F01AC004F01BC005F003C0E9FF04C024
:100CD000F3FF05501BEC3BF02E0A2DE1032A02E343
:100CE000044A052A166A03C019F004C01AF005C0A8
:100CF0001BF019C0E9FF1AC0F3FF1B501BEC3BF0BF
:100D00001C6E300E1C5C11E33A0E1C5C0EE2165099
:100D10000A0DF3CF1DF01C501D26D00E1D24166E9B
:100D2000192A02E31A4A1B2AE4D719C003F01AC091
:100D300004F01BC005F003C0E9FF04C0F3FF055039
:100D40001BEC3BF0196E6C0A07E1010E0C6E032AD6
:100D500002E3044A052A09D01950680A06E1010E87
:100D60000E6E032A02E3044A052A03C0E9FF04C009
:100D7000F3FF05501BEC3BF0750A06E1010E106E07
:100D8000032A02E3044A052A03C0E9FF04C0F3FF73
:100D900005501BEC3BF0196E730A05E1010E0D6E58
:100DA000200E156E3FD01950780A03E1100E116E17
:100DB00039D01950580A05E1100E116E010E126E4D
:100DC00031D01950630A02E1116A2CD019506F0A10
:100DD00003E1080E116E26D01950660A03E1010ED8
:100DE0000F6E20D01950640A1DE01950690A1AE0EC
:100DF000105005E0FF0E03260422052213D01950DF
:100E0000E56E0250E56E0150E56E0050E56E5FEC58
:100E10002BF0040EE126094A0A2A032A02E3044AB7
:100E2000052AA3D60D5021E00650030F0D6E000ECB
:100E30000720196E000E08201A6E0DC006F019C0AA
:100E400007F01AC008F0FD0E0D26FF0E19221A2217
:100E50000DC0E9FF19C0F3FF1A50BBEC39F00D6E5D
:100E6000F3CF19F0F4CF1AF0FDD00F500DE0000EC3
:100E70001A6E120E196E7C0E0D6E040E0626000EF2
:100E8000072208221668EED016680C5023E00650A0
:100E9000040F0C6E000E07200F6E000E08201B6E54
:100EA0000CC006F00FC007F01BC008F0FC0E0C26AB
:100EB000FF0E0F221B220CC0E9FF0FC0F3FF1B50D7
:100EC00041EC39F00C6EF3CF0FF0F4CF1BF0E9CF0B
:100ED0001CF067D00E502FE00650020F0E6E000E71
:100EE00007201D6E000E08201E6E0EC006F01DC0ED
:100EF00007F01EC008F0FE0E0E26FF0E1D221E2259
:100F00000EC0E9FF1DC0F3FF1E5090EC3AF00E6ECC
:100F10000EC00CF00F6A1B6A1C6A11500A0A03E12A
:100F20001050D8B43ED00C500E6E0EC00CF00F6AAC
:100F30001B6A1C6A36D00650020F0E6E000E072088
:100F40001D6E000E08201E6E0EC006F01DC007F0BC
:100F50001EC008F0FE0E0E26FF0E1D221E220EC021
:100F6000E9FF1DC0F3FF1E5090EC3AF00E6EF3CF78
:100F70001DF00EC00CF01DC00FF0E86A1DBEFF0E84
:100F80001B6E1C6E11500A0A02E110500AE00C5050
:100F90000E6E0F501D6E0EC00CF01DC00FF01B6AC0
:100FA0001C6A050E196E2E0E0D6E800E1A6E1150F3
:100FB000D8B440D0105013E01150E56E050EE56E28
:100FC0002E0EE56E1C50E56E1B50E56E0F50E56E63
:100FD0000C50E56E87EC24F0070EE12612D011507C
:100FE000E56E050EE56E2E0EE56E1C50E56E1B508F
:100FF000E56E0F50E56E0C50E56EDEEC30F0070E3E
:10100000E12617502FE00DC0E9FF19C0F3FF1A5079
:101010001BEC3BF02D0A26E0FF0E0D2619221A22AA
:1010200018C0E5FF0DC0E9FF19C0F3FF1A5093EC9B
:101030003BF018D00CC0E5FF0DC0E9FF19C0F3FF6D
:101040001A5093EC3BF00D50010F0C6E000E19205E
:101050000E6E000E1A20E56A0CC0E9FF0EC0F3FF09
:1010600093EC3BF00DC00CF019C00EF01AC00FF05D
:1010700013C010F0105010E00CC0E9FF0EC0F3FFD9
:101080000F501BEC3BF0176E175006E00C2A02E3E2
:101090000E4A0F2A1006EED710C013F014501EE1AE
:1010A00009C00CF00AC00EF010C00FF00F5010E095
:1010B0001550E56E0250E56E0150E56E0050E56E8C
:1010C0005FEC2BF0040EE1260C4A0E2A0F06EED739
:1010D0000CC009F00EC00AF00FC013F016C00CF0DF
:1010E0000DC00DF019C00EF01AC00FF009C010F0BD
:1010F0000AC015F00DC0E9FF0EC0F3FF0F501BEC46
:101100003BF0166E1650D8B43ED00CC016F0176ADD
:10111000161E171E1650171005E00CC016F00C0610
:10112000165031E00DC0E9FF0EC0F3FF0F501BEC6D
:101130003BF0116E125010E01150E56E37EC3AF0B2
:10114000166EE652165004E0DF0E1114166E02D031
:1011500011C016F016C011F01150E56E0250E56E88
:101160000150E56E0050E56E5FEC2BF0040EE126B9
:101170000D2A02E30E4A0F2A104A152A1350D8B43A
:10118000B9D71306B7D710C009F015C00AF014502C
:101190002BE010C00CF015C00DF013C00EF00E5077
:1011A0001FE0200EE56E0250E56E0150E56E005026
:1011B000E56E5FEC2BF0040EE1260C4A0D2A0E06BC
:1011C000EED70B50E56E0250E56E0150E56E005013
:1011D000E56E5FEC2BF0040EE126094A0A2A04D0E2
:1011E0000CC009F00DC00AF0032A02E3044A052AE4
:1011F000B5EF05F00AC0F3FF0950E4CF1EF0E4CFCD
:101200001DF0E4CF1CF0E4CF1BF0E4CF1AF0E4CFE4
:1012100019F0E4CF18F0E4CF17F0E4CF16F0E4CFE4
:1012200015F0E4CF14F0E4CF13F0E4CF12F0E4CFE4
:1012300011F0E4CF10F0E4CF0FF0E4CF0EF0E4CFE4
:101240000DF0E4CF0CF0E4CF0BF0E4CF0AF0E4CFE4
:1012500009F0E4CF08F0E4CF07F0E4CF06F0E4CFE4
:1012600005F0E4CF04F0E4CF03F0E4CF02F0E4CFE4
:1012700001F0E4CF00F0E4CFD9FF12003C4E4F2044
:10128000464C4F41543E0000D9CFE5FFE1CFD9FF96
:1012900000C0E5FF01C0E5FF02C0E5FF03C0E5FFB8
:1012A00004C0E5FF05C0E5FF06C0E5FF07C0E5FF98
:1012B00008C0E5FF09C0E5FF0AC0E5FF0BC0E5FF78
:1012C0000CC0E5FF0DC0E5FF020EDBCF00F0030E02
:1012D000DBCF01F0040EDBCF02F00050090F066EE9
:1012E000000E0120076E000E0220086E0B6E0750E4
:1012F0000A6E0650096EE56A0D0EE56E0B50E56E3E
:101300000A50E56E0950E56E800EE56E040EE56E3E
:101310002B0EE56EF1EC2CF0080EE12600C009F072
:1013200001C00AF002C00BF0E56AE56E0B50E56EF5
:101330000A50E56E0950E56E800EE56E040EE56E0E
:10134000810EE56EF1EC2CF0080EE12681C403F06D
:101350000350010A04E00350030A01E018D105011B
:101360002851036E2951046E04013351056E345126
:10137000096E0550035C0501716F09500458726FC6
:10138000050128510401336F050129510401346F0F
:1013900005012A510401356F05012B510401366FF7
:1013A000050171517211D8A47ED0E6EC37F0036EBE
:1013B000F3CF04F0F4CF05F0E9CF09F00501205197
:1013C0000A6E21510B6E22510C6E23510D6E0A5084
:1013D000035E0B50045A0C50055A0D50095A035025
:1013E0000401FC6F0450FD6F0550FE6F7F0E091461
:1013F000FF6F040137B125D00401FD35FF31046EC4
:10140000FE31036E043404320332000E04BEFF0EBC
:10141000096E056E86C40AF00B6A0C6A0D6A0D50DF
:10142000800FF36E0950800FF35C08E105500C5CEF
:1014300005E104500B5C02E103500A5C02E2040186
:101440003781040137B149D02FC403F030C404F010
:1014500031C405F032C409F00401FF51800FF36E6E
:101460000950800FF35C08E10550FE5D05E1045072
:10147000FD5D02E10350FC5D08E203C0FCF404C022
:10148000FDF405C0FEF409C0FFF405012CA304D04F
:10149000010E036E046A02D00368046803C071F58C
:1014A00004C072F51AD00401379124C5FCF425C597
:1014B000FDF426C5FEF427C5FFF40401FC51040128
:1014C0002F6F0401FD510401306F0401FE5104012E
:1014D000316F0401FF510401326F0401FF51800F8D
:1014E000800F08E1000EFE5D05E1000EFD5D02E1EA
:1014F000010EFC5D06E205013A6B3B6B3C6B3D6BFC
:1015000046D00401FC51036EFD51046EFE51056E80
:10151000FF51E56E0550E56E0450E56E0350E56E33
:10152000010EE56E000EE56AE56AE56A26EC29F033
:10153000036EF3CF04F0F4CF05F0E9CF09F0080E05
:10154000E12671C50AF072C50BF0E86A050172BFA9
:10155000FF0E0C6E0D6E0950E56E0550E56E0450E1
:10156000E56E0350E56E0D50E56E0C50E56E0B50C8
:10157000E56E0A50E56E7DEC23F005013A6FF3CF7E
:101580003BF5F4CF3CF5E9CF3DF5080EE126020E20
:101590000401815DD8A03AD105012CA137D10050BA
:1015A000230F036E000E0120046E000E0220E56E74
:1015B0000450E56E0350E56E0EEC00F0030EE126DC
:1015C0000050230F036E000E0120046E000E022057
:1015D000056E020E0326000E0422052203C0E9FF59
:1015E00004C0F3FF055041EC39F0F3CF04F0F4CF21
:1015F00005F0E9CF09F00450036E0550046E095060
:10160000056E0934096A05BE0968053204320332E1
:1016100005012851035C05013E6F0501295104585D
:1016200005013F6F05012A5105580501406F05016D
:101630002B5109580501416FD88041AFD89022E362
:101640000401831D046E821D036E034A042AE86AA6
:1016500004BEFF0E056E096E05014151800FF36E49
:101660000950800FF35C08E10550405D05E104502E
:101670003F5D02E103503E5D05E305013E6B3F6BBC
:10168000406B416B05014151800F800F08E1000E56
:10169000405D05E1000E3F5D02E1010E3E5D1EE38F
:1016A00082C403F083C404F0E86A040183BFFF0E20
:1016B000056E800FF36E05014151800FF35C08E168
:1016C0004051055C05E13F51045C02E13E51035C81
:1016D00005E305013E6B3F6B406B416B0401875195
:1016E00009E0E86CD89005013E373F374037413775
:1016F000010FF9E305014151800F800F08E1000E51
:10170000405D05E1800E3F5D02E1000E3E5D07E3B6
:1017100005013E697F0E3F6F406B416B14D00501A0
:101720004151800F810F08E1FF0E405D05E1800E01
:101730003F5D02E1000E3E5D06E205013E6B800E5C
:101740003F6F406941690050330F036E000E012066
:10175000046E000E0220056E05013E51096E3F51D8
:10176000E56E0950E56E0550E56E0450E56E0350D8
:10177000E56E60EC19F0050EE12604018151030AC3
:1017800023E10050330F036E000E0120046E000EA3
:101790000220056E0B0E0326000E0422052203C054
:1017A000E9FF04C0F3FF055041EC39F0F3CF04F03A
:1017B000F4CF05F00450036E0550046E035004018D
:1017C0002B6F04502C6F22D00050330F036E000E8D
:1017D0000120046E000E0220056E0B0E0326000E83
:1017E0000422052203C0E9FF04C0F3FF055041ECC9
:1017F00039F0F3CF04F0F4CF05F00450036E055038
:10180000046E035004012D6F04502E6F81C403F049
:101810000350010A04E00350030A01E07DD02BC409
:1018200003F02CC404F0E86A04012CBFFF0E056E1F
:10183000096E05013A51035C05013E6F05013B51FC
:10184000045805013F6F05013C5105580501406FE3
:1018500005013D5109580501416F800F800F08E1D6
:10186000000E405D05E1800E3F5D02E1000E3E5D31
:1018700007E305013E697F0E3F6F406B416B14D05B
:1018800005014151800F810F08E1FF0E405D05E128
:10189000800E3F5D02E1000E3E5D06E205013E6BFB
:1018A000800E3F6F406941690050440F036E000E87
:1018B0000120046E000E0220056E05013E51096EE6
:1018C0003F51E56E0950E56E0550E56E0450E56E3A
:1018D0000350E56E60EC19F0050EE126440E00267B
:1018E000000E012202220B0E0026000E012202220F
:1018F00000C0E9FF01C0F3FF025041EC39F0F3CF23
:1019000001F0F4CF02F00150006E0250016E005061
:1019100004012D6F01502E6F0850086EE56A0D0E00
:10192000E56E800EE56E040EE56E2B0EE56E08503A
:10193000E56E0750E56E0650E56EF1EC2CF0080EF2
:10194000E126E4CF0DF0E4CF0CF0E4CF0BF0E4CFD0
:101950000AF0E4CF09F0E4CF08F0E4CF07F0E4CFD9
:1019600006F0E4CF05F0E4CF04F0E4CF03F0E4CFD9
:1019700002F0E4CF01F0E4CF00F0E4CFD9FF120091
:1019800025642025640A000000C0E5FF01C0E5FFD2
:1019900002C0E5FF03C0E5FF04C0E5FF05C0E5FFA9
:1019A00006C0E5FF07C0E5FFCFEC26F0E6EC37F018
:1019B000006EF3CF01F0F4CF02F0E9CF03F00401A1
:1019C0007C51005E7D51015A7E51025A7F51035A6B
:1019D000039E3F0E035C08E1FF0E025C05E1FF0E73
:1019E000015C02E1FF0E005CD8B0E9EF0FF0E6EC1D
:1019F00037F0F3CF01F0F4CF02F0E9CF03F0100F8E
:101A000004017C6F270E01207D6F000E02207E6F87
:101A1000000E03207F6FB9EC37F089EC37F008C077
:101A2000E5FFF2CF08F0F29E0401A9510501206FF5
:101A30000401AA510501216F0401AB510501226F78
:101A40000401AC510501236F0401AD510501246F60
:101A50000401AE510501256F0401AF510501266F48
:101A60000401B0510501276F0401B1510501286F30
:101A70000401B2510501296F0401B35105012A6F18
:101A80000401B45105012B6F0401B55105012C6F00
:101A90000401AD6BAE6BAF6BB06B08BEF28EE4CFE2
:101AA00008F0800EE56E040EE56E930EE56E44ECD4
:101AB00009F0030EE1269EC473F59FC474F5050179
:101AC0007451800F7C0F02E1000E735D04E3050189
:101AD0007369030E746F05017451800F840F02E166
:101AE000010E735D05E2010E0501736FFC0E746F4C
:101AF00005017451800F800F02E1010E735D10E348
:101B000005017451800FF36E04019751800FF35C4F
:101B100003E196510501735D03E20501736B746B7C
:101B2000D880050174AFD89015E30401971D016EAC
:101B3000961D006E004A012A0150800FF36E0501C8
:101B40007451800FF35C02E17351005C03E2050104
:101B5000736B746B04019AA309D0B5A507D0D88024
:101B6000050174AFD89002E3736B746BD8800501E4
:101B700074AFD89007E37351FF0F006E030E74210A
:101B8000016E04D073C500F074C501F000C075F596
:101B900001C076F505017551020BE840010BE838EC
:101BA000E844F46E0F015D51DF0BF4105D6F050129
:101BB0007551010B010BE838F46E0F015D51EF0B0D
:101BC000F4105D6F050176357631016E7531006E6A
:101BD00001340132003200500F015E6FD8800501E0
:101BE00074AFD89002E3898801D089980401095123
:101BF000030A01E052D0030E016E230E006E800E28
:101C0000026E0401B9390F0B036EBA39046EF00B82
:101C1000041A032604320332BB51E838E840F80BBB
:101C20000412BB39E840070BE8B4F809056E066AF0
:101C300005BE06680650E56E0550E56E0450E56E7B
:101C40000350E56EE56AE56AE56A1B0EE56E7DEC1C
:101C500023F0036EF3CF04F0F4CF05F0080EE12675
:101C600003360436033604360334030B0418041A0F
:101C70000418036E0550E844E844FC0B04120450B9
:101C8000E56E0350E56E0250E56E0150E56E0050C2
:101C9000E56EBEEC36F0050EE12608C0E5FFF2CF9A
:101CA00008F0F29E030116510501206F0301175140
:101CB0000501216F030118510501226F030119511C
:101CC0000501236F03011A510501246F03011B5104
:101CD0000501256F03011C510501266F03011D51EC
:101CE0000501276F03011E510501286F03011F51D4
:101CF0000501296F0301205105012A6F03012151BC
:101D000005012B6F0301225105012C6F03011A6B92
:101D10001B6B1C6B1D6B08BEF28EE4CF08F0800EAF
:101D2000E56E030EE56E000EE56E44EC09F0030E61
:101D3000E1260BC373F50CC374F505017451800FD4
:101D40007C0F02E1000E735D04E305017369030E6D
:101D5000746F05017451800F840F02E1010E735DF1
:101D600005E2010E0501736FFC0E746F05017451DD
:101D7000800F800F02E1010E735D10E305017451C5
:101D8000800FF36E03010451800FF35C03E10351F4
:101D90000501735D03E20501736B746BD880050167
:101DA00074AFD89015E30301041D016E031D006E8E
:101DB000004A012A0150800FF36E05017451800F13
:101DC000F35C02E17351005C03E20501736B746B19
:101DD000030107A309D022A507D0D880050174AF5D
:101DE000D89002E3736B746BD880050174AFD89000
:101DF00007E37351FF0F006E030E7421016E04D0D0
:101E000073C500F074C501F000C075F501C076F52A
:101E100005017551020BE840010BE838E844F46E07
:101E2000BD50DF0BF410BD6E7551010B010BE8388E
:101E3000F46EBD50EF0BF410BD6E76357631016E49
:101E40007531006E0134013200320050BE6ED88010
:101E5000050174AFD89002E38A8001D08A90CFEC5C
:101E600026F004010951030A01E062D00401B939E6
:101E70000F0B006EBA39016EF00B011A0026013209
:101E80000032BB51E838E840F80B0112BB39E8409A
:101E9000070BE8B4F809026E036A02BE0368B6C411
:101EA00004F0B7C405F0E86A0401B7BFFF0E066E80
:101EB000076E0050041809E10150051806E10250B0
:101EC000061803E10350071801E032D00301263958
:101ED0000F0B006E2739016EF00B011A002601323C
:101EE00000322851E838E840F80B01122839E84060
:101EF000070BE8B4F809026E036A02BE036823C345
:101F000004F024C305F0E86A030124BFFF0E066E47
:101F1000076E0050041809E10150051806E102504F
:101F2000061803E10350071801E002D00401096B11
:101F300008C400F0016A09C402F0036A0401B93957
:101F40000F0B046EBA39056EF00B051A0426053224
:101F50000432BB51E838E840F80B0512BB39E840C1
:101F6000070BE8B4F809066E076A06BE0768015059
:101F7000E56E0050E56E0350E56E0250E56E04011B
:101F80000151E56E0051E56E0750E56E0650E56EB5
:101F90000550E56E0450E56E000EE56E3D0EE56EF3
:101FA0007C0EE56E17EC35F00D0EE12604010B3FBB
:101FB00001D00C2B04010B51640A02E10C5101E029
:101FC00008D004010B6B0C6B04010D51D8A455EC27
:101FD00033F0E4CF07F0E4CF06F0E4CF05F0E4CF30
:101FE00004F0E4CF03F0E4CF02F0E4CF01F0E4CF5B
:101FF00000F0120000C0E5FF01C0E5FF02C0E5FFF0
:1020000003C0E5FF05C0E5FFCBEC3BF094928B925B
:10201000E6EC37F0F3CF01F0F4CF02F0E9CF03F0B4
:10202000880F04017C6F130E01207D6F000E0220CB
:102030007E6F000E03207F6F6EEC2CF089988A9AD9
:102040008A86040189839298939A939604019293C5
:102050009283800E006E040E016E0F0E036E380E1A
:102060000026035001220F0E036E800E005E035007
:10207000015A800E026E040E036E0F0E056E380EAE
:102080000226055003220F0E056E800E025E0550DB
:10209000035A02C0E9FF03C0EAFFEFCF02F0029249
:1020A00000C0E9FF01C0EAFF02C0EFFF928A800E84
:1020B000006E0F0E016E0F0E036E380E00260350D9
:1020C0000122800E026E0F0E036E800E005E035022
:1020D000015A0F0E056E380E0226055003220F0E10
:1020E000056E800E025E0550035A02C0E9FF03C070
:1020F000EAFFEFCF02F0029A00C0E9FF01C0EAFF59
:1021000002C0EFFF9486820E006E0F0E016E0F0E5E
:10211000036E380E0026035001220F0E036E800E50
:10212000005E0350015A820E026E0F0E036E0F0EF8
:10213000056E380E0226055003220F0E056E800E26
:10214000025E0550035A02C0E9FF03C0EAFFEFCF69
:1021500002F0029600C0E9FF01C0EAFF02C0EFFFF3
:102160000C0E0F015D6F0F015D9B5D990F015E6BA2
:102170000F015A6B0F015A810401936B020E946F89
:10218000956B0A0E966F976B100E986F070E996FEE
:102190009A919A83800EE56E040EE56EB60EE56E9A
:1021A000B0EC32F0030EE126800EE56E040EE56E13
:1021B000D70EE56EFFEC27F0030EE126800EE56EEC
:1021C000040EE56EC60EE56EFFEC27F0030EE12669
:1021D0000401B16BB26BB36BB46BB591B5959C6BED
:1021E0009D6B9E6B9F6BA46BA56BA66BA76B8A9078
:1021F0008A928A8804018983939093929398040128
:1022000092939283800E006E040E016E0F0E036E89
:10221000380E0026035001220F0E036E800E005E62
:102220000350015A800E026E040E036E0F0E056EEF
:10223000380E0226055003220F0E056E800E025E38
:102240000550035A02C0E9FF03C0EAFFEFCF02F0D6
:10225000029200C0E9FF01C0EAFF02C0EFFF9488CC
:10226000820E006E0F0E016E0F0E036E380E0026EA
:10227000035001220F0E036E800E005E0350015AC0
:10228000820E026E0F0E036E0F0E056E380E0226C2
:10229000055003220F0E056E800E025E0550035A94
:1022A00002C0E9FF03C0EAFFEFCF02F0029800C0CE
:1022B000E9FF01C0EAFF02C0EFFF948A820E006EC0
:1022C0000F0E016E0F0E036E380E00260350012212
:1022D0000F0E036E800E005E0350015A820E026ED6
:1022E0000F0E036E0F0E056E380E022605500322E8
:1022F0000F0E056E800E025E0550035A02C0E9FF04
:1023000003C0EAFFEFCF02F0029A00C0E9FF01C06C
:10231000EAFF02C0EFFF0C0EBD6EBD9ABD98BE6A0B
:10232000B96AB9840301006B020E016F026B0A0ED9
:10233000036F046B100E056F070E066F079107837E
:10234000800EE56E030EE56E230EE56EB0EC32F006
:10235000030EE126800EE56E030EE56E440EE56E7B
:10236000FFEC27F0030EE126800EE56E030EE56E0E
:10237000330EE56EFFEC27F0030EE12603011E6B22
:102380001F6B206B216B22912295096B0A6B0B6BE3
:102390000C6B116B126B136B146B9384810E006EBC
:1023A0000F0E016E0F0E036E380E00260350012231
:1023B0000F0E036E800E005E0350015A810E026EF6
:1023C0000F0E036E0F0E056E380E02260550032207
:1023D0000F0E056E800E025E0550035A02C0E9FF23
:1023E00003C0EAFFEFCF02F0029400C0E9FF01C092
:1023F000EAFF02C0EFFF948C820E006E0F0E016E9A
:102400000F0E036E380E0026035001220F0E036ECE
:10241000800E005E0350015A820E026E0F0E036E94
:102420000F0E056E380E0226055003220F0E056EA4
:10243000800E025E0550035A02C0E9FF03C0EAFFA6
:10244000EFCF02F0029C00C0E9FF01C0EAFF02C02A
:10245000EFFF948E820E006E0F0E016E0F0E036E54
:10246000380E0026035001220F0E036E800E005E10
:102470000350015A820E026E0F0E036E0F0E056E90
:10248000380E0226055003220F0E056E800E025EE6
:102490000550035A02C0E9FF03C0EAFFEFCF02F084
:1024A000029E00C0E9FF01C0EAFF02C0EFFFB2ECEC
:1024B0003BF0330ECD6E9D809F80E4CF05F0E4CFDE
:1024C00003F0E4CF02F0E4CF01F0E4CF00F012001B
:1024D000D9CFE5FFE1CFD9FF00C0E5FF01C0E5FF9F
:1024E00002C0E5FF03C0E5FF04C0E5FF05C0E5FF4E
:1024F00006C0E5FF07C0E5FF08C0E5FF09C0E5FF2E
:102500000AC0E5FF0BC0E5FF0CC0E5FF020EDBCF04
:1025100000F0030EDBCF01F0040EDBCF02F0036A04
:10252000046A10EC38F0056EFE0A01E077D003EC87
:1025300033F010EC38F0066E030E065CD8A05AD0CB
:10254000060E065CD8B056D0FD0E0624076EFA6A59
:10255000FB6A0734FA36E834FA36FC0B6C0FE56E8A
:10256000250EFA22000EFB22E450F96EBCEF12F0A9
:10257000CEEF12F0E7EF12F00050090F076E000ED9
:102580000120086E000E022007C0E9FF08C0F3FF1B
:1025900090EC3AF0036EF3CF04F02CD00050090F0A
:1025A000076E000E0120086E000E0220096E020E5A
:1025B0000726000E0822092207C0E9FF08C0F3FF22
:1025C000095090EC3AF0036EF3CF04F013D00050B2
:1025D000070F076E000E0120086E000E022007C0D4
:1025E000E9FF08C0F3FF1BEC3BF0010B076E07C0CF
:1025F00003F0046A06C007F00450E56E0350E56E70
:10260000E56A0750E56E000EE56E190EE56E800E68
:10261000E56E17EC35F0070EE1269AD1080E055C41
:10262000D8B096D1FA6AFB6A0534FA36E834FA363D
:10263000FC0B420FE56E260EFA22000EFB22E45040
:10264000F96E31EF13F04CEF13F05EEF13F070EF13
:1026500013F0A2EF13F0D8EF13F0F7EF13F054EFED
:1026600014F00050230F056E000E0120076E000EBF
:102670000220E56E0750E56E0550E56E8DEC1BF00F
:10268000030EE126020EE56E00C0E9FF01C0F3FF74
:10269000025093EC3BF05CD10050330F056E000EFE
:1026A0000120076E000E0220E56E0750E56E055012
:1026B000E56E0BEC20F0030EE1264AD10050440FEA
:1026C000056E000E0120076E000E0220E56E075019
:1026D000E56E0550E56E0BEC20F0030EE12638D1D7
:1026E0000050090F056E000E0120076E000E02203B
:1026F000086E10EC38F00C6E0B6AE56A0CC0F4FF43
:1027000005C0E9FF07C0F3FF085065EC3BF010EC93
:1027100038F00A6A0B260A500C220BC0E5FF0CC0E9
:10272000F4FF05C0E9FF07C0F3FF085065EC3BF07C
:10273000010EE56E00C0E9FF01C0F3FF025093EC0B
:102740003BF006D10050090F056E000E0120076E08
:10275000000E0220086E020E0526000E0722082237
:1027600010EC38F00C6E0B6AE56A0CC0F4FF05C083
:10277000E9FF07C0F3FF085065EC3BF010EC38F0C0
:102780000A6A0B260A500C220BC0E5FF0CC0F4FFAE
:1027900005C0E9FF07C0F3FF085065EC3BF0E56AB0
:1027A00000C0E9FF01C0F3FF025093EC3BF0D0D032
:1027B0000050070F056E000E0120076E000E02206C
:1027C000086E10EC38F0010BF46E05C0E9FF07C08D
:1027D000F3FF08501BEC3BF0FE0BF410E56E05C058
:1027E000E9FF07C0F3FF085093EC3BF0B1D010ECC9
:1027F00038F0066E0050160F056E000E0120076EB1
:10280000000E0220086E05500C0F096E000E072006
:102810000A6E000E08200B6E0650D880E866D8902D
:102820000C6A0C360C50D880E866D8900C6A0C36CE
:102830000C50010BF46E09C0E9FF0AC0F3FF0B5006
:102840001BEC3BF0FE0BF410E56E09C0E9FF0AC07B
:10285000F3FF0B5093EC3BF00650010A01E078D0F7
:10286000080E0526000E07220822E56AF46AF66AB9
:10287000F76A05C0E9FF07C0F3FF08500AEC3BF018
:102880000050230F056E000E0120066E000E022080
:10289000E56AE56AE56E0650E56E0550E56EB6EC54
:1028A00029F0050EE12654D010EC38F0046E036ACE
:1028B00010EC38F0066A0326065004220050160F6A
:1028C000056E000E0120066E000E0220076E0550F8
:1028D0000C0F086E000E0620096E000E07200A6E0F
:1028E00008C0E9FF09C0F3FF1BEC3BF0E880E56E90
:1028F00008C0E9FF09C0F3FF0A5093EC3BF0080E53
:102900000526000E0622072203C008F004C009F0C5
:1029100008C0E5FF09C0F4FFF66AF76A05C0E9FFE1
:1029200006C0F3FF07500AEC3BF0230E0026000E12
:10293000012202220450E56E0350E56E0250E56E5E
:102940000150E56E0050E56E5EEC2EF0050EE126BE
:10295000E4CF0CF0E4CF0BF0E4CF0AF0E4CF09F0C1
:10296000E4CF08F0E4CF07F0E4CF06F0E4CF05F0C1
:10297000E4CF04F0E4CF03F0E4CF02F0E4CF01F0C1
:10298000E4CF00F0E4CFD9FF120000C0E5FF01C0A2
:10299000E5FF02C0E5FF03C0E5FF04C0E5FF05C099
:1029A000E5FF06C0E5FF07C0E5FF08C0E5FF09C079
:1029B000E5FF0AC0E5FFC2A204D004011A51FEEFF0
:1029C00016F004011B51D8B42FD104011A51020D85
:1029D000F450016EF3CF00F0E00E0026000E01224D
:1029E00000C0E9FF01C0EAFFEECF00F0EFCF01F039
:1029F000E80E1A25026E036A040E032202C0E9FFE4
:102A000003C0EAFFEFCF02F00250FF0A01E166D0F7
:102A100002380F0B036E920E0324046E056A0F0E2C
:102A20000522066A920E03260F0E062203C0E9FF56
:102A300006C0EAFFEFCF03F00250066E070E06163F
:102A4000010E076E06500DE006E6E86CD8900736DA
:102A5000010FFDE306D0D89007BED8800732010FE2
:102A6000FBE3071C066E0350061604C0E9FF05C011
:102A7000EAFF06C0EFFF02380F0B036E890E032436
:102A8000046E056A0F0E0522066A890E03260F0ED4
:102A9000062203C0E9FF06C0EAFFEFCF03F00250B1
:102AA000066E070E0616010E076E06500DE006E6CE
:102AB000E86CD8900736010FFDE306D0D89007BE2A
:102AC000D8800732010FFBE3071C066E0350061681
:102AD00004C0E9FF05C0EAFF06C0EFFF04011A5178
:102AE000020DF450046EF3CF03F0E00E0326000E47
:102AF000042201340130066E0030056E06340632C1
:102B000005320634063205320550005C056E06506B
:102B10000158066EC3CF07F0086A07500526085013
:102B20000622C4CF07F0086A07500A6E096A0950E6
:102B300005260A50062203C0E9FF04C0EAFF05C0CB
:102B4000EEFF06C0EFFF04011651010A01E06AD052
:102B500004011A51020DF450046EF3CF03F0E00E9D
:102B60000324056E000E0420066E05C0E9FF06C0B2
:102B7000EAFFEECF00F0EFCF01F0750E0326030E53
:102B8000042203C0E9FF04C0EAFFEECF05F0EFCF57
:102B900006F09C0E0526D8A006060150800FF36EA5
:102BA0000650800FF35C02E10550005C0EE200501D
:102BB000640F056E000E0120066E03C0E9FF04C01D
:102BC000EAFF05C0EEFF06C0EFFF04011A51020D37
:102BD000F450046EF3CF03F0950E0326030E042287
:102BE00003C0E9FF04C0EAFFEECF05F0EFCF06F027
:102BF000640E0526D8B0062A0650800FF36E0150E9
:102C0000800FF35C02E10050055C0CE29C0E002694
:102C1000D8A0010603C0E9FF04C0EAFF00C0EEFF30
:102C200001C0EFFF04011B6B04011A2B100E1A5D8B
:102C300001E31A6B04011A39E8441F0B006E016AA4
:102C40006D0E0026050E012200C0E9FF01C0EAFF5B
:102C5000EFCF00F01AC401F0070E0116010E036E4B
:102C6000000E046E015006E0E86CD890033604367E
:102C7000010FFCE3056A00500316055004160350CB
:102C80000410D880E866D890036A03360350D8A4AD
:102C9000B3D0000E04011A25006E016A050E012250
:102CA00000C0E9FF01C0EAFFEFCF00F00044E844B4
:102CB000FC0B016E0128C26EE80E1A25006E016A37
:102CC000040E012200C0E9FF01C0EAFFEFCF02F0CD
:102CD0000250FF0A01E18CD002380F0B006E920EF9
:102CE0000024016E036A0F0E0322046A920E00266E
:102CF0000F0E042200C0E9FF04C0EAFFEFCF00F08E
:102D00000250046E070E0416010E056E04500DE00D
:102D100006E6E86CD8900536010FFDE306D0D890A2
:102D200005BED8800532010FFBE30050051201C03B
:102D3000E9FF03C0EAFF05C0EFFF380E006E0F0E7B
:102D4000016E02380F0B036E046A03500026045014
:102D50000122380E056E0F0E066E05500326065032
:102D6000042203C0E9FF04C0EAFFEFCF03F0070E1F
:102D70000216010E046E02500DE006E6E86CD890D3
:102D80000436010FFDE306D0D89004BED88004328B
:102D9000010FFBE30350041200C0E9FF01C0EAFF8A
:102DA00004C0EFFF0F0145830000000045930F01B1
:102DB00044930BC0E5FFF2CF0BF0F29E448100007C
:102DC0000000000000000000000000000000000003
:102DD00000000000000000000000000000000000F3
:102DE00000000000000044910BBEF28EE4CF0BF017
:102DF000C282010E04011B6F04011A51E4CF0AF0D4
:102E0000E4CF09F0E4CF08F0E4CF07F0E4CF06F018
:102E1000E4CF05F0E4CF04F0E4CF03F0E4CF02F018
:102E2000E4CF01F0E4CF00F0120000C0E5FF01C0E4
:102E3000E5FF02C0E5FF03C0E5FF04C0E5FF05C0F4
:102E4000E5FF06C0E5FF07C0E5FF08C0E5FF09C0D4
:102E5000E5FF0AC0E5FF0BC0E5FF0CC0E5FF006A17
:102E6000016A026A040E025CD8B0ECD101C003F022
:102E7000012A100E035CD8B0E5D104011C2B100E02
:102E80001C5D01E31C6B04011C39E8441F0B036E3D
:102E9000046A6D0E0326050E042203C0E9FF04C078
:102EA000EAFFEFCF03F01CC404F0070E0416010E76
:102EB000056E000E066E045006E0E86CD8900536EC
:102EC0000636010FFCE3076A035005160750061685
:102ED00005500610D880E866D890056A053605507A
:102EE000D8A4C0D704011C51020DF450046EF3CFD6
:102EF00003F0E00E0324056E000E0420066E05C0EC
:102F0000E9FF06C0EAFFEECF05F0EFCF06F019C4E7
:102F100007F007A09DD0750E0324076E030E042052
:102F2000086E07C0E9FF08C0EAFFEECF07F0EFCF59
:102F300008F00650800FF36E0850800FF35C02E13A
:102F40000750055C03E2056A066A60D0950E032609
:102F5000030E042203C0E9FF04C0EAFFEECF03F032
:102F6000EFCF04F00450800FF36E0650800FF35C37
:102F700002E10550035C04E205683F0E066E46D090
:102F80000750055C096E085006580A6EE86A0ABECA
:102F9000FF0E0B6EE56E0B50E56E0A50E56E0950A4
:102FA000E56EE56AE56A400EE56E000EE56A7DECC9
:102FB00023F0096EF3CF0AF0F4CF0BF0E9CF0CF059
:102FC000080EE1260750035C076E08500458086E8F
:102FD000E86A08BEFF0E036EE56E0350E56E08500A
:102FE000E56E0750E56E0C50E56E0B50E56E0A502D
:102FF000E56E0950E56E26EC29F0036EF3CF04F080
:10300000080EE1260350056E0450066E04011851A7
:10301000800FF36E0650800FF35C02E10550175DE0
:1030200003E3056A066A14D004011751FF08036E12
:103030003F0E1855046E0650800FF36E0450800F3B
:10304000F35C02E10350055C03E305683F0E066E86
:1030500004011C51020DF450046EF3CF03F0550E21
:103060000326030E042203C0E9FF04C0EAFFEECFEB
:1030700003F0EFCF04F00350055C036E04500658D4
:10308000046ED88004AED89004E3041E036CD8B458
:10309000042A022A04011851800FF36E0450800F95
:1030A000F35C02E10350175DD8B0DCD604011C517B
:1030B000020DF450086EF3CF07F0550E0726030EED
:1030C000082207C0E9FF08C0EAFF05C0EEFF06C0FE
:1030D000EFFF19C407F007A459D01C51020DF4509A
:1030E000086EF3CF07F0B50E0724096E030E082013
:1030F0000A6E09C0E9FF0AC0EAFFEECF0BF0EFCF7E
:103100000CF00B500C10D8B441D05C0E0726040E06
:10311000082207C0E9FF08C0EAFFEECF07F0EFCFB3
:1031200008F00750055C036E08500658046E031043
:103130001CE00450800F800F02E1010E035C076A5F
:1031400007360C50800F800F02E1010E0B5C0B6AFA
:103150000B3607500B1809E109C0E9FF0AC0EAFF66
:1031600003C0EEFF04C0EFFF7DD604011C51020D29
:10317000F450046EF3CF03F0B50E0326030E0422C1
:1031800003C0E9FF04C0EAFFEE6AEF6A19C403F066
:1031900003A244D000500EE100C003F0002A046AEC
:1031A0001D0E0326040E042203C0E9FF04C0EAFF3B
:1031B000420EEF6E00C003F0002A046A1D0E0326C3
:1031C000040E042204011C51076E640E072603C07E
:1031D000E9FF04C0EAFF07C0EFFF00C003F0002AC8
:1031E000046A1D0E0326040E04220650076E03C057
:1031F000E9FF04C0EAFF07C0EFFF00C003F0002AA8
:10320000046A1D0E0326040E04220550076E03C037
:10321000E9FF04C0EAFF07C0EFFF24D61CC403F097
:103220000650E56E0550E56EE56A0350E56E000E4A
:10323000E56E590EE56ED60EE56E17EC35F0070E0D
:10324000E12610D602C001F000501EE019C402F0C1
:1032500002A21AD000C002F0002A036A1D0E022644
:10326000040E032202C0E9FF03C0EAFF0A0EEF6E5C
:103270000050E56E800EE56E040EE56E1D0EE56EE7
:10328000EBEC2BF0040EE1260150E4CF0CF0E4CF80
:103290000BF0E4CF0AF0E4CF09F0E4CF08F0E4CF7C
:1032A00007F0E4CF06F0E4CF05F0E4CF04F0E4CF7C
:1032B00003F0E4CF02F0E4CF01F0E4CF00F012001D
:1032C000D9CFE5FFE1CFD9FF00C0E5FF01C0E5FFA1
:1032D00002C0E5FF03C0E5FF04C0E5FF05C0E5FF50
:1032E00006C0E5FF07C0E5FF08C0E5FF09C0E5FF30
:1032F0000AC0E5FF0BC0E5FF020EDBCF00F0030EB6
:10330000DBCF01F0040EDBCF02F0050EDBCF03F0C4
:10331000060EDBCF04F002500A6E0150096E005019
:10332000086EE56A110EE56E0A50E56E0950E56E0D
:103330000850E56E800EE56E0F0EE56E230EE56E0D
:10334000F1EC2CF0080EE12632CF05F033CF06F079
:10335000E86A0F0133BFFF0E076E0501496F065083
:10336000486F0550476F466B03C005F004C006F078
:10337000E86A04BEFF0E076E086E23CF09F0E56A07
:10338000E56AE56A0950E56E0850E56E0750E56E9E
:103390000650E56E0550E56E7DEC23F00501426FA9
:1033A000F3CF43F5F4CF44F5E9CF45F5080EE12618
:1033B0000F012451D8B4AFD00450800F800F02E128
:1033C000010E035C25E30F012951800F7C0F08E1FA
:1033D000000E285D05E1000E275D02E1000E265D6E
:1033E00017E20F013151800FF36E05014951800F33
:1033F000F35C0DE148510F01305D09E105014751D2
:103400000F012F5D04E1050146510F012E5D33E3ED
:10341000D88004AED890D8A043D00F012951800F96
:10342000840F08E1000E285D05E1000E275D02E132
:10343000010E265D35E30501491D0A6E481D096E22
:10344000471D046E461D036E032A04E1042A02E1AF
:10345000094A0A2A0A50800FF36E0F013151800F7A
:10346000F35C08E13051095C05E12F51045C02E195
:103470002E51035C15E205500F012625036E065000
:103480002721046E07502821096E085029210A6E51
:103490000350266F0450276F0950286F0A50296F78
:1034A0000F0126390F0B036E2739046EF00B041A37
:1034B00003262851E838F00B041228390F0B096E47
:1034C00029390A6EF00B0A1A0926F00E0AB60A26E6
:1034D00024CF0BF0E56AE56AE56A0B50E56E0A5009
:1034E000E56E0950E56E0450E56E0350E56E7DEC27
:1034F00023F0036EF3CF04F0F4CF09F0E9CF0AF024
:10350000080EE126035005014227045043230950C9
:1035100044230A5045230F012551D8B465D02A51C0
:10352000055C05014A6F0F012B51065805014B6FD1
:103530000F012C51075805014C6F0F012D510858F0
:1035400005014D6F800F800F08E1010E4C5D05E114
:10355000000E4B5D02E1000E4A5D06E305014A697B
:103560004B694C6B4D6B13D005014D51800F810F92
:1035700008E1FF0E4C5D05E1000E4B5D02E1000E1F
:103580004A5D05E205014A6B4B6B4C694D690501CB
:103590004A514A25036E4B35046E4C35096E4D3544
:1035A0000A6E25CF0BF0E56AE56AE56A0B50E56E19
:1035B0000A50E56E0950E56E0450E56E0350E56E65
:1035C0007DEC23F0036EF3CF04F0F4CF09F0E9CFE4
:1035D0000AF0080EE1260350050142270450432358
:1035E000095044230A50452305500F012A6F065005
:1035F0002B6F07502C6F08502D6F05014951800F1C
:10360000F36E05014551800FF35C0DE14451050156
:10361000485D09E1050143510501475D04E10501EC
:1036200042510501465D11E2050146510F012E6F21
:10363000050147510F012F6F050148510F01306FF0
:10364000050149510F01316F3AD00501491D066E40
:10365000481D056E471D046E461D036E032A04E1D6
:10366000042A02E1054A062A05014551800FF36E3E
:103670000650800FF35C08E10550445D05E10450FD
:10368000435D02E10350425D0AE203500F012E6FD9
:1036900004502F6F0550306F0650316F10D0050168
:1036A00042510F012E6F050143510F012F6F05018C
:1036B00044510F01306F050145510F01316FE56A2B
:1036C000110EE56E800EE56E0F0EE56E230EE56EB3
:1036D0000250E56E0150E56E0050E56EF1EC2CF005
:1036E000080EE126E4CF0BF0E4CF0AF0E4CF09F0B6
:1036F000E4CF08F0E4CF07F0E4CF06F0E4CF05F024
:10370000E4CF04F0E4CF03F0E4CF02F0E4CF01F023
:10371000E4CF00F0E4CFD9FF1200D9CFE5FFE1CF2D
:10372000D9FF00C0E5FF01C0E5FF02C0E5FF03C00F
:10373000E5FF04C0E5FF05C0E5FF06C0E5FF07C0E3
:10374000E5FF08C0E5FF09C0E5FF0AC0E5FF0BC0C3
:10375000E5FF020EDBCF00F0030EDBCF01F0040E1D
:10376000DBCF02F0036A046A10EC38F0056EFE0A43
:1037700001E095D003EC33F010EC38F0066E065003
:103780000EE00650010A1DE00650020A2CE0065029
:103790000A0A3BE006500B0A01E142D06ED000500D
:1037A000060F076E000E0120086E000E022007C0F3
:1037B000E9FF08C0F3FF90EC3AF0036EF3CF04F09A
:1037C0005CD000500C0F076E000E0120086E000E3A
:1037D000022007C0E9FF08C0F3FF90EC3AF0036E47
:1037E000F3CF04F04AD000500E0F076E000E0120F8
:1037F000086E000E022007C0E9FF08C0F3FF90EC3E
:103800003AF0036EF3CF04F038D000C0E9FF01C0F6
:10381000F3FF025090EC3AF0036EF3CF04F02DD09A
:103820000050020F076E000E0120086E000E0220ED
:1038300007C0E9FF08C0F3FF41EC39F0F3CF08F00F
:10384000F4CF09F0E9CF0AF00850076E0950086E6E
:10385000F00E0716073A083A0814081A0726083225
:1038600007320A50E838E840F80B08120A38E840F6
:10387000070B0750036E0850046E0450E56E0350AA
:10388000E56EE56A0650E56E000EE56E650EE56EC6
:10389000FE0EE56E17EC35F0070EE126DBD0055085
:1038A00014E00550010A3AE00550020A01E15FD038
:1038B00005500A0A01E184D005500B0A01E199D0B4
:1038C00005500C0A01E1AED0C5D00050060F056EC0
:1038D000000E0120066E000E0220076E10EC38F07C
:1038E0000B6E0A6AE56A0BC0F4FF05C0E9FF06C06B
:1038F000F3FF075065EC3BF010EC38F0096A0A263C
:1039000009500B220AC0E5FF0BC0F4FF05C0E9FF18
:1039100006C0F3FF075065EC3BF09CD000500C0F45
:10392000056E000E0120066E000E0220076E10ECE0
:1039300038F00B6E0A6AE56A0BC0F4FF05C0E9FFB8
:1039400006C0F3FF075065EC3BF010EC38F0096A55
:103950000A2609500B220AC0E5FF0BC0F4FF05C080
:10396000E9FF06C0F3FF075065EC3BF073D0005051
:103970000E0F056E000E0120066E000E0220076E6F
:1039800010EC38F00B6E0A6AE56A0BC0F4FF05C054
:10399000E9FF06C0F3FF075065EC3BF010EC38F090
:1039A000096A0A2609500B220AC0E5FF0BC0F4FF82
:1039B00005C0E9FF06C0F3FF075065EC3BF04AD0B5
:1039C00010EC38F0046E036A10EC38F0066A032637
:1039D000065004220450E56E0350E56E0250E56E79
:1039E0000150E56E0050E56EBEEC36F0050EE126A6
:1039F00031D010EC38F0046E036A10EC38F0066A2F
:103A00000326065004220450E56E0350E56E025072
:103A1000E56E0150E56E0050E56EB6EC29F0050E3E
:103A2000E12618D010EC38F0046E036A10EC38F080
:103A3000066A0326065004220450E56E0350E56E24
:103A40000250E56E0150E56E0050E56E5EEC2EF022
:103A5000050EE126E4CF0BF0E4CF0AF0E4CF09F045
:103A6000E4CF08F0E4CF07F0E4CF06F0E4CF05F0B0
:103A7000E4CF04F0E4CF03F0E4CF02F0E4CF01F0B0
:103A8000E4CF00F0E4CFD9FF120000C0E5FF01C091
:103A9000E5FF02C0E5FF03C0E5FF9EA066D1006A16
:103AA00080BA002A0050010BF46E04019B51FE0BFA
:103AB000F4109B6F040180B308D00401B16BB26BAA
:103AC000B36BB46BB581B58502D00401B595006ABE
:103AD00004019BB1002A016A9BB5012A005001181C
:103AE00001E18ED0006A04019BB1002A0050010B55
:103AF000E844E844F46E9B51FB0BF4109B6FA95112
:103B0000AD5D006EAA51AE59016EAB51AF59026E58
:103B1000AC51B059036E0050AD6F0150AE6F025002
:103B2000AF6F0350B06F0F0134510401A96F0F0143
:103B300035510401AA6F0F0136510401AB6F0F011B
:103B400037510401AC6F0F01345100263551012269
:103B5000365102223751032200500401AD6F01504B
:103B6000AE6F0250AF6F0350B06F006A82B6002A8A
:103B70000050010BE844F46E9B51FD0BF4109B6F59
:103B8000006A9BB1002A016A9BB3012A0150D880C8
:103B9000E866D890016A01360150001A005019E019
:103BA000B1C400F0B2C401F0B3C402F0B4C403F075
:103BB000002A04E3012A02E3024A032A0050040116
:103BC000B16F0150B26F0250B36F0350B46FB58341
:103BD00017D0B1C400F0B2C401F0B3C402F0B4C451
:103BE00003F0FF0E002601220222032200500401EE
:103BF000B16F0150B26F0250B36F0350B46FB59301
:103C0000006A82B8002A0050010BF46E03010851CB
:103C1000FE0BF410086F040180B308D003011E6B83
:103C20001F6B206B216B2281228502D0030122951C
:103C3000006A030108B1002A016A08B5012A005090
:103C4000011801E18ED0006A030108B1002A00507A
:103C5000010BE844E844F46E0851FB0BF410086FC4
:103C600016511A5D006E17511B59016E18511C59DF
:103C7000026E19511D59036E00501A6F01501B6FCF
:103C800002501C6F03501D6F0F0134510301166F5A
:103C90000F0135510301176F0F0136510301186FE2
:103CA0000F0137510301196F0F01345100263551AF
:103CB00001223651022237510322005003011A6FAC
:103CC00001501B6F02501C6F03501D6F006A82BAB7
:103CD000002A0050010BE844F46E0851FD0BF4106B
:103CE000086F006A08B1002A016A08B3012A01506E
:103CF000D880E866D890016A01360150001A005059
:103D000019E01EC300F01FC301F020C302F021C35D
:103D100003F0002A04E3012A02E3024A032A0050C6
:103D200003011E6F01501F6F0250206F0350216F5F
:103D3000228317D01EC300F01FC301F020C302F07E
:103D400021C303F0FF0E00260122022203220050AD
:103D500003011E6F01501F6F0250206F0350216F2F
:103D60002293CF68EB0ECE6E9E90E4CF03F0E4CFAB
:103D700002F0E4CF01F0E4CF00F0120043722025FE
:103D80006C642025642025642025640A000043001B
:103D900025630000800EE56E030EE56E950EE56E60
:103DA000A6EC33F0030EE126800EE56E030EE56E01
:103DB000750EE56EA6EC33F0030EE126800EE56E7F
:103DC000030EE56E970EE56EA6EC33F0030EE126CA
:103DD000800EE56E030EE56E770EE56EA6EC33F011
:103DE000030EE126800EE56E030EE56E990EE56E7C
:103DF000A6EC33F0030EE126800EE56E030EE56EB1
:103E0000790EE56EA6EC33F0030EE126800EE56E2A
:103E1000030EE56E9B0EE56EA6EC33F0030EE12675
:103E2000800EE56E030EE56E7B0EE56EA6EC33F0BC
:103E3000030EE126800EE56E030EE56E9D0EE56E27
:103E4000A6EC33F0030EE126800EE56E030EE56E60
:103E50007D0EE56EA6EC33F0030EE126800EE56ED6
:103E6000030EE56E9F0EE56EA6EC33F0030EE12621
:103E7000800EE56E030EE56E7F0EE56EA6EC33F068
:103E8000030EE126800EE56E030EE56EA10EE56ED3
:103E9000A6EC33F0030EE126800EE56E030EE56E10
:103EA000810EE56EA6EC33F0030EE126800EE56E82
:103EB000030EE56EA30EE56EA6EC33F0030EE126CD
:103EC000800EE56E030EE56E830EE56EA6EC33F014
:103ED000030EE126800EE56E030EE56EA50EE56E7F
:103EE000A6EC33F0030EE126800EE56E030EE56EC0
:103EF000850EE56EA6EC33F0030EE126800EE56E2E
:103F0000030EE56EA70EE56EA6EC33F0030EE12678
:103F1000800EE56E030EE56E870EE56EA6EC33F0BF
:103F2000030EE126800EE56E030EE56EA90EE56E2A
:103F3000A6EC33F0030EE126800EE56E030EE56E6F
:103F4000890EE56EA6EC33F0030EE126800EE56ED9
:103F5000030EE56EAB0EE56EA6EC33F0030EE12624
:103F6000800EE56E030EE56E8B0EE56EA6EC33F06B
:103F7000030EE126800EE56E030EE56EAD0EE56ED6
:103F8000A6EC33F0030EE126800EE56E030EE56E1F
:103F90008D0EE56EA6EC33F0030EE126800EE56E85
:103FA000030EE56EAF0EE56EA6EC33F0030EE126D0
:103FB000800EE56E030EE56E8F0EE56EA6EC33F017
:103FC000030EE126800EE56E030EE56EB10EE56E82
:103FD000A6EC33F0030EE126800EE56E030EE56ECF
:103FE000910EE56EA6EC33F0030EE126800EE56E31
:103FF000030EE56EB30EE56EA6EC33F0030EE1267C
:10400000800EE56E030EE56E930EE56EA6EC33F0C2
:10401000030EE1261200D9CFE5FFE1CFD9FF00C0A2
:10402000E5FF01C0E5FF02C0E5FF03C0E5FF04C0F6
:10403000E5FF05C0E5FF06C0E5FF07C0E5FF08C0D6
:10404000E5FF020EDBCF00F0030EDBCF01F0040E24
:10405000DBCF02F0036A046A10EC38F0056EFE0A4A
:1040600001E075D003EC33F010EC38F0066E040E6E
:10407000065CD8B05AD0FA6AFB6A0634FA36E834DD
:10408000FA36FC0B940FE56E400EFA22000EFB226E
:10409000E450F96E52EF20F05EEF20F071EF20F067
:1040A00084EF20F000C0E9FF01C0F3FF02501BECD9
:1040B0003BF0076E07C003F0046A37D00050010FD1
:1040C000076E000E0120086E000E022007C0E9FFF7
:1040D00008C0F3FF1BEC3BF0076E07C003F0046A57
:1040E00024D00050020F076E000E0120086E000E53
:1040F000022007C0E9FF08C0F3FF1BEC3BF0076E8E
:1041000007C003F0046A11D000500F0F076E000EB5
:104110000120086E000E022007C0E9FF08C0F3FF6F
:1041200090EC3AF0036EF3CF04F00450E56E0350C8
:10413000E56EE56A0650E56E000EE56E510EE56E21
:104140001E0EE56E17EC35F0070EE1268DD0040E3D
:10415000055CD8B089D0FA6AFB6A0534FA36E834CF
:10416000FA36FC0B740FE56E410EFA22000EFB22AC
:10417000E450F96EC2EF20F0CFEF20F0FAEF20F01C
:1041800010EF21F010EC38F0036E03C0E5FF00C023
:10419000E9FF01C0F3FF025093EC3BF065D0005003
:1041A000010F036E000E0120046E000E0220056E4A
:1041B00010EC38F0066E06C0E5FF03C0E9FF04C04E
:1041C000F3FF055093EC3BF00650D8A44DD00050BF
:1041D000030F036E000E0120046E000E0220E56A3C
:1041E000F46AF66AF76A03C0E9FF04C0F3FF0AEC59
:1041F0003BF03AD00050020F036E000E0120046E17
:10420000000E0220056E10EC38F0066E06C0E5FFC9
:1042100003C0E9FF04C0F3FF055093EC3BF024D04A
:104220000F0E0026000E0122022210EC38F0066E5E
:10423000056AE56A06C0F4FF00C0E9FF01C0F3FFAC
:10424000025065EC3BF010EC38F0046A052604508F
:10425000062205C0E5FF06C0F4FF00C0E9FF01C06B
:10426000F3FF025065EC3BF0E4CF08F0E4CF07F039
:10427000E4CF06F0E4CF05F0E4CF04F0E4CF03F0A0
:10428000E4CF02F0E4CF01F0E4CF00F0E4CFD9FFB7
:10429000120000C0E5FF01C0E5FF02C0E5FF03C05A
:1042A000E5FF04011351D8B40AD1A3A81DD0A4A8D6
:1042B0001BD00501815105017E1905E149EC3BF058
:1042C00005017E6BFCD0000E05018125006E016AA0
:1042D0000F0E012200C0E9FF01C0EAFFEFCF7AF51F
:1042E000812B7AC573FFEBD0A4AAE9D071A205D0C7
:1042F00005017F8149EC3BF0E2D071A405D00501B6
:104300007F8349EC3BF0DBD071A048D074CF7AF5C5
:1043100014C400F0016A008E7AC502F0036A0250EC
:10432000001803E10350011801E004D005017F8962
:104330007196C5D005017A5104E07A51040114192F
:1043400029E105017F99719605017A5103E0050184
:104350007F9702D005017F877AC583F57CC584F5F8
:1043600005017C51006E00040501856F600E05019A
:104370008425006E016A000E012200C0E9FF01C021
:10438000EAFF7AC5EFFF842B8451800A02E1050120
:10439000846B95D005017F99718691D074CF7AF5A1
:1043A00005017FA921D014C400F0016A008E7AC5EE
:1043B00002F0036A0250001803E10350011801E003
:1043C00011D09490A39A719805017E5104E1736A0B
:1043D00049EC3BF007D000CF73FF010E0501816F60
:1043E000A3886DD071866BD005017A5105018327B2
:1043F00005018451050185191BE1050183510CE17B
:1044000084C57CF505017FB712D09490A39A71986A
:10441000736A49EC3BF00BD005017F857FB707D06D
:104420009490A39A7198010E736E49EC3BF047D0BB
:104430000501845105017D1908E105017D51050142
:104440007C1903E049EC3BF03AD07CC500F0016AEE
:10445000004A012AE56A800EE56E0150E56E0050C3
:10446000E56ECCEC2EF0006E040EE1260050050146
:104470007B6F050184190FE17AC500F01F0E00144F
:104480000501856F006E020E0024856F05017C51C9
:1044900005018527859F84C500F00501842B016AED
:1044A000600E0026000E012200C0E9FF01C0EAFFF5
:1044B0007AC5EFFF8451800A02E10501846BE4CFE5
:1044C00003F0E4CF02F0E4CF01F0E4CF00F01200FB
:1044D00000C0E5FF01C0E5FF02C0E5FF03C0E5FF46
:1044E00004C0E5FF10EC38F0640A01E0FBD010ECEA
:1044F00038F0006E4C0A08E110EC38F0300A02E0A7
:104500008B82F0D08B92EED00050470A01E04AD067
:1045100010EC38F04F0A01E0E5D004010951030A1C
:1045200001E1E0D00401B16BB26BB36BB46BE56A2F
:10453000E56A800EE56E040EE56EB60EE56EB6EC2D
:1045400029F0050EE1260401B58103011E6B1F6BE6
:10455000206B216BE56AE56A800EE56E030EE56E61
:10456000230EE56EB6EC29F0050EE126030122814B
:104570000401006B016B030E0401096F3F0EE56E31
:10458000CF0EE56E800EE56E040EE56EB60EE56E9E
:10459000BEEC36F0050EE126020E0401936F030116
:1045A000006FA0D00050480A01E063D010EC38F052
:1045B0004F0A01E097D010EC38F04D0A01E092D09C
:1045C00010EC38F0450A01E08DD00401095101E0FA
:1045D00089D0010E0401096F81A42ED00401B59188
:1045E000B151016EB251026EB351036EB451046EFB
:1045F000000E045C08E1000E035C05E10F0E025C96
:1046000002E1B60E015C09E30401065104019E6F4C
:104610000401075104019F6F0CD00401071D026EB5
:10462000061D016E014A022A015004019E6F0250CC
:104630009F6F0401936B13D00401B16BB26BB36B2A
:10464000B46BE56AE56A800EE56E040EE56EB60EA3
:10465000E56EB6EC29F0050EE1260401B5810401F2
:10466000045103010B6F0401055103010C6F006B32
:1046700039D00050410A1EE110EC38F0420A32E114
:1046800010EC38F04F0A2EE110EC38F0520A2AE113
:1046900010EC38F0540A26E10401095123E004012A
:1046A000096B04019E6B9F6B936B03010B6B0C6B8F
:1046B000006B18D00050550A03E155EC33F012D0CE
:1046C0000050530A0FE110EC38F0006A016E10EC54
:1046D00038F0036A00260350012200500401BC6F29
:1046E0000150BD6FE4CF04F0E4CF03F0E4CF02F05B
:1046F000E4CF01F0E4CF00F01200D9CFE5FFE1CF25
:10470000D9FF00C0E5FF01C0E5FF02C0E5FF03C01F
:10471000E5FF04C0E5FF05C0E5FF06C0E5FF07C0F3
:10472000E5FF020EDBCF00F0030EDBCF01F0040E3D
:10473000DBCF02F0050EDBCF03F0060EDBCF04F07B
:10474000070EDBCF05F0080EDBCF06F0090EDBCF3E
:1047500007F0005005014E6F01504F6F0250506F2F
:104760000350516F04500501526F0550536F0650AE
:10477000546F0750556F05014E5105015403F4CF96
:1047800001F0F3CF00F000500501586F0150596F50
:1047900005014E5105015203F4CF01F0F3CF00F0B3
:1047A00000500501566F0150576F05015151050129
:1047B0005203F3CF00F00501595100260050596F04
:1047C0000501505105015303F3CF01F001500026BC
:1047D00000500501596F0501505105015203F4CFF6
:1047E00001F0F3CF00F00501585100265951012284
:1047F0000050586F0150596F05014F510501530387
:10480000F4CF03F0F3CF02F0025000260350012250
:1048100000500501586F0150596F05014F510501B6
:104820005403F3CF00F0005005015D6F05014F51B7
:1048300005015203F4CF01F0F3CF00F00050050161
:104840005B6F01505C6F05014E5105015503F3CFBD
:1048500000F000500501616F05014E510501530341
:10486000F4CF01F0F3CF00F0005005015F6F01506D
:10487000606F05015A6B05015E6B05015A51050118
:104880005625006E05015B5105015721016E05019A
:104890005C5105015821026E05015D510501592148
:1048A000036E0050566F0150576F0250586F0350FF
:1048B000596F05015E5105015625006E05015F51D6
:1048C00005015721016E0501605105015821026E55
:1048D0000501615105015921036E03C0E9FF02C0C2
:1048E000F4FF01C0F3FF0050E4CF07F0E4CF06F07F
:1048F000E4CF05F0E4CF04F0E4CF03F0E4CF02F01E
:10490000E4CF01F0E4CF00F0E4CFD9FF1200D9CF1B
:10491000E5FFE1CFD9FF00C0E5FF01C0E5FF02C020
:10492000E5FF03C0E5FF04C0E5FF05C0E5FF06C0E5
:10493000E5FF07C0E5FF08C0E5FF09C0E5FF0AC0C5
:10494000E5FF0BC0E5FF0CC0E5FF0DC0E5FF0EC0A5
:10495000E5FF0FC0E5FF020EDBCF00F0030EDBCF5B
:1049600001F0040EDBCF02F0050EDBCF03F0060EE4
:10497000DBCF04F0070EDBCF05F0080EDBCF06F02F
:10498000200E076E086A06C009F00A6A0B6A0C6AF4
:10499000E56AE56AE56A0950E56E0350E56E025086
:1049A000E56E0150E56E0050E56E32EC26F00D6EBE
:1049B000080EE126300E0D263A0E0D5C05E30D5073
:1049C0000E6E270E0E240D6EFF0E07260822D50E42
:1049D00007240E6E030E08200F6E0EC0E9FF0FC0F5
:1049E000EAFF0DC0EFFF0C50E56E0B50E56E0A506C
:1049F000E56E0950E56E0350E56E0250E56E01501C
:104A0000E56E0050E56E26EC29F0006EF3CF01F064
:104A1000F4CF02F0E9CF03F0080EE12600500110B8
:104A200002100310D8A4AFD707C000F008C001F0EF
:104A300004C002F005C003F000C004F001C005F09E
:104A4000004A012AD50E0426030E052204C0E9FF00
:104A500005C0EAFFEFCF04F002C0E9FF03C0EAFFA0
:104A600004C0EFFF024A032A000E015C02E1200E9F
:104A7000005CE2E302C0E9FF03C0EAFF000EEF6A58
:104A8000E4CF0FF0E4CF0EF0E4CF0DF0E4CF0CF064
:104A9000E4CF0BF0E4CF0AF0E4CF09F0E4CF08F064
:104AA000E4CF07F0E4CF06F0E4CF05F0E4CF04F064
:104AB000E4CF03F0E4CF02F0E4CF01F0E4CF00F064
:104AC000E4CFD9FF1200D9CFE5FFE1CFD9FF00C075
:104AD000E5FF01C0E5FF02C0E5FF03C0E5FF04C03C
:104AE000E5FF05C0E5FF06C0E5FF07C0E5FF08C01C
:104AF000E5FF09C0E5FF0AC0E5FF0BC0E5FF0CC0FC
:104B0000E5FF0DC0E5FF020EDBCF00F0030EDBCFAB
:104B100001F0040EDBCF02F0050EDBCF03F0060E32
:104B2000DBCF04F0070EDBCF05F0080EDBCF06F07D
:104B3000090EDBCF07F0D88003AED890086A08369C
:104B400008500FE0031C0C6E021C0B6E011C0A6E59
:104B5000001C096E092A0DE10A2A0BE10B4A0C2AF6
:104B600008D000C009F001C00AF002C00BF003C079
:104B70000CF0D88007AED890006A003600500FE0E5
:104B8000071C0D6E061C036E051C026E041C016ED4
:104B9000012A0DE1022A0BE1034A0D2A08D004C0C4
:104BA00001F005C002F006C003F007C00DF00D5083
:104BB000E56E0350E56E0250E56E0150E56E0C5057
:104BC000E56E0B50E56E0A50E56E0950E56E26EC79
:104BD00029F0016EF3CF02F0F4CF03F0E9CF04F037
:104BE000080EE1260050081A085016E0041C076E53
:104BF000031C066E021C056E011C006E002A04E1F7
:104C0000052A02E1064A072A07C0E9FF06C0F4FFA9
:104C100005C0F3FF005007D004C0E9FF03C0F4FF54
:104C200002C0F3FF0150E4CF0DF0E4CF0CF0E4CF6D
:104C30000BF0E4CF0AF0E4CF09F0E4CF08F0E4CFC2
:104C400007F0E4CF06F0E4CF05F0E4CF04F0E4CFC2
:104C500003F0E4CF02F0E4CF01F0E4CF00F0E4CFC2
:104C6000D9FF1200D9CFE5FFE1CFD9FF00C0E5FFA2
:104C700001C0E5FF02C0E5FF03C0E5FF04C0E5FF9A
:104C800005C0E5FF06C0E5FF07C0E5FF08C0E5FF7A
:104C900009C0E5FF0AC0E5FF020EDBCF00F0030EFE
:104CA000DBCF01F0040EDBCF02F0050EDBCF03F00B
:104CB000060EDBCF04F0070EDBCF05F0080EDBCFCE
:104CC00006F0090EDBCF07F0086A04500510061045
:104CD000071005E1E968F468F368E86847D0096AF5
:104CE0000750800BE8440A6E0A501BE1045004266A
:104CF0000536063607360750035C08E10650025CAD
:104D000005E10550015C02E10450005C06E2D89028
:104D1000073206320532043204D0092A09C008F0ED
:104D2000DFD70750035C08E10650025C05E105503F
:104D3000015C02E10450005C08E30450005E055091
:104D4000015A0650025A0750035AD89007320632C9
:104D50000532043208C009F008060950E2E103C038
:104D6000E9FF02C0F4FF01C0F3FF0050E4CF0AF0F6
:104D7000E4CF09F0E4CF08F0E4CF07F0E4CF06F089
:104D8000E4CF05F0E4CF04F0E4CF03F0E4CF02F089
:104D9000E4CF01F0E4CF00F0E4CFD9FF120000C06F
:104DA000E5FF01C0E5FF02C0E5FF03C0E5FF04C069
:104DB000E5FF05017D5105017C1901E16DD07DC53F
:104DC00000F00050016E0128006E009E600E00246D
:104DD000016E026A000E022201C0E9FF02C0EAFF72
:104DE000EFCF87F51F0E050187177DC586F5875123
:104DF000050186278651016E020E0124866F869F6B
:104E000010EC38F0016E015003E1016A012A01D073
:104E1000016A10EC38F00501876F87C502F0800E3B
:104E2000021687C503F01F0E031603C004F003C06B
:104E300087F5045003E17CC57DF541D0015021E0A8
:104E4000025028E010EC38F0006E05018751016E29
:104E50000104876F0050420A03E168EC22F01AD087
:104E600000504E0A03E1D5EC34F014D00050460A4D
:104E700003E17DEC3BF00ED00050490A0BE1FF004E
:104E800009D07DC588F5025003E0EAEC2DF002D090
:104E90001EEC39F086C57DF504011051040111198D
:104EA00006E005017E5103E16AEC27F008D094B0DA
:104EB00006D005017E5103E172B249EC3BF0E4CF2C
:104EC00004F0E4CF03F0E4CF02F0E4CF01F0E4CF4C
:104ED00000F0120000C0E5FF01C0E5FF02C0E5FFE1
:104EE00003C0E5FF04C0E5FF72A27ED061EC39F09B
:104EF000006E005005E10401116B0401106B74D0C9
:104F000011C401F00050012661EC39F0026E00502E
:104F1000036E0304006E0250230A1FE1010E005CC1
:104F2000D8A060D061EC39F0026E690A03E158EC58
:104F300037F058D00250720A03E149EC3BF052D0EE
:104F40000250730A01E04ED094807186A38AA39820
:104F5000745074507198718845D00250430A05E02E
:104F60000250420A01E03ED006D000C003F0046ABD
:104F7000038E0350006E00C080F500500F01006FDB
:104F8000010E0501816F04011151011814E061EC5B
:104F900039F0026E05018027000E05018125006EA3
:104FA000036A0F0E032200C0E9FF03C0EAFF02C03C
:104FB000EFFF812BE8D7000E05018125006E026A04
:104FC0000F0E02220501801D036E032A00C0E9FFB7
:104FD00002C0EAFF03C0EFFF0501812B81C57EF50A
:104FE0000501786B01C011F4E4CF04F0E4CF03F0C5
:104FF000E4CF02F0E4CF01F0E4CF00F01200D9CF0B
:10500000E5FFE1CFD9FF00C0E5FF01C0E5FF02C029
:10501000E5FF03C0E5FF04C0E5FF05C0E5FF06C0EE
:10502000E5FF07C0E5FF020EDBCF00F0030EDBCF8C
:1050300001F0040EDBCF02F000500B0F036E000EE8
:105040000120046E000E0220E56AF46AF66AF76A2F
:1050500003C0E9FF04C0F3FF0AEC3BF00050070F68
:10506000036E000E0120046E000E0220056E00503B
:10507000030F066E000E0120076E000E0220E56A87
:10508000F46AF66AF76A06C0E9FF07C0F3FF0AECA4
:105090003BF0E56AF46AF66AF76A03C0E9FF04C008
:1050A000F3FF05500AEC3BF00050010F036E000EB9
:1050B0000120046E000E0220056E0050020F066EE5
:1050C000000E0120076E000E0220E56A06C0E9FF0F
:1050D00007C0F3FF93EC3BF0E56A03C0E9FF04C0AF
:1050E000F3FF055093EC3BF0E56A00C0E9FF01C017
:1050F000F3FF025093EC3BF0E4CF07F0E4CF06F06F
:10510000E4CF05F0E4CF04F0E4CF03F0E4CF02F005
:10511000E4CF01F0E4CF00F0E4CFD9FF1200256422
:105120002025640A0000D9CFE5FFE1CFD9FF00C0F8
:10513000E5FF01C0E5FF02C0E5FF03C0E5FF04C0D5
:10514000E5FF05C0E5FF06C0E5FF07C0E5FF08C0B5
:10515000E5FF09C0E5FF0AC0E5FF020EDBCF00F066
:10516000030EDBCF01F0040EDBCF02F0050EDBCF28
:1051700003F0060EDBCF04F0070EDBCF05F000389E
:10518000E8441F0B066E076A6D0E0626050E072201
:1051900006C0E9FF07C0EAFFEFCF08F00050096E34
:1051A000070E0916010E0A6E09500DE006E6E86CBE
:1051B000D8900A36010FFDE306D0D8900ABED880F9
:1051C0000A32010FFBE308500A1206C0E9FF07C0CC
:1051D000EAFF0AC0EFFF000E0024066E076A050E04
:1051E000072206C0E9FF07C0EAFF01C0EFFF016A1E
:1051F000E80E0026040E0122800E025E070E021643
:105200000238F00B036E070E05160550032600C08A
:10521000E9FF01C0EAFF03C0EFFFE4CF0AF0E4CFEB
:1052200009F0E4CF08F0E4CF07F0E4CF06F0E4CFD4
:1052300005F0E4CF04F0E4CF03F0E4CF02F0E4CFD4
:1052400001F0E4CF00F0E4CFD9FF1200D9CFE5FFA1
:10525000E1CFD9FF00C0E5FF01C0E5FF02C0E5FFD7
:1052600003C0E5FF04C0E5FF05C0E5FF06C0E5FF9C
:1052700007C0E5FF08C0E5FF09C0E5FF0AC0E5FF7C
:105280000BC0E5FF0CC0E5FF0DC0E5FF020EDBCF54
:1052900000F0030EDBCF01F0040EDBCF02F0050EB1
:1052A000DBCF03F0060EDBCF04F0070EDBCF05F0FB
:1052B000080EDBCF06F0090EDBCF07F0086A096A9B
:1052C0000A6A0B6A200E0C6E0350800BE8440D6EC8
:1052D00000500026013602360336085008260936EB
:1052E0000A360B360D50D8A4088007500B5C08E135
:1052F00006500A5C05E10550095C02E10450085CB7
:1053000009E30450085E0550095A06500A5A07502E
:105310000B5A00800C040D6E0DC00CF00D50D4E142
:1053200003C0E9FF02C0F4FF01C0F3FF0050E4CF67
:105330000DF0E4CF0CF0E4CF0BF0E4CF0AF0E4CFB3
:1053400009F0E4CF08F0E4CF07F0E4CF06F0E4CFB3
:1053500005F0E4CF04F0E4CF03F0E4CF02F0E4CFB3
:1053600001F0E4CF00F0E4CFD9FF1200D9CFE5FF80
:10537000E1CFD9FF00C0E5FF01C0E5FF02C0E5FFB6
:1053800003C0E5FF04C0E5FF05C0E5FF06C0E5FF7B
:1053900007C0E5FF08C0E5FF0BC0E5FF0CC0E5FF57
:1053A0000DC0E5FF020EDBCF00F0030EDBCF01F0F6
:1053B000040EDBCF02F0050EDBCF03F0060EDBCFD1
:1053C00004F003C0E5FF04C0F4FF00C0E9FF01C022
:1053D000F3FF025065EC3BF00050020F056E000E2B
:1053E0000120066E000E0220076EE86A04BEFF0E62
:1053F000086E0838F00B0D6E04380C6E0F0B0C1A8B
:105400000D260C360D360338E844E00B0B6E0350C6
:10541000E838E8441F0B0C12E56A0BC0F4FF0CC01F
:10542000F6FF0DC0F7FF05C0E9FF06C0F3FF075008
:105430000AEC3BF0080E0026000E01220222E56A6B
:10544000F46AF66AF76A00C0E9FF01C0F3FF025090
:105450000AEC3BF0E4CF0DF0E4CF0CF0E4CF0BF01E
:10546000E4CF08F0E4CF07F0E4CF06F0E4CF05F096
:10547000E4CF04F0E4CF03F0E4CF02F0E4CF01F096
:10548000E4CF00F0E4CFD9FF120000C0E5FF01C077
:10549000E5FF03C0E5FF04C0E5FF05C0E5FF06C06A
:1054A000E5FF07C0E5FF08C0E5FF09C0E5FF0AC04A
:1054B000E5FF0BC0E5FF6BC500F06CC501F0050111
:1054C0006B3F01D06C2B0050E56E3BEC3BF0E6529D
:1054D000076E046A056A066A6BC500F06CC501F0C8
:1054E00005016B3F01D06C2B0050E56E3BEC3BF0AF
:1054F000E6520B6A0A6E086A0850041205120A5036
:1055000006120B5007126BC500F06CC501F00501C7
:105510006B3F01D06C2B0050E56E3BEC3BF0E6524C
:10552000036E006A03C001F0E86A03BEFF0E086E56
:10553000096E00500412015005120850061209505D
:1055400007126BC500F06CC501F005016B3F01D07F
:105550006C2B0050E56E3BEC3BF0E652016A041206
:10556000015005120612071207C0E9FF06C0F4FF3A
:1055700005C0F3FF0450E4CF0BF0E4CF0AF0E4CF12
:1055800009F0E4CF08F0E4CF07F0E4CF06F0E4CF71
:1055900005F0E4CF04F0E4CF03F0E4CF01F0E4CF72
:1055A00000F01200D9CFE5FFE1CFD9FF00C0E5FF41
:1055B00001C0E5FF02C0E5FF03C0E5FF04C0E5FF51
:1055C00005C0E5FF06C0E5FF07C0E5FF020EDBCF23
:1055D00000F0030EDBCF01F0040EDBCF02F0050E6E
:1055E000DBCF03F003C004F0056A0350D8B454D0F5
:1055F00000C0E9FF01C0F3FF02501BEC3BF0066E58
:10560000430A08E1010E056E03C006F0076A068E24
:105610000650036E0406002A02E3014A022A94900F
:10562000A39A7198A398A4A8FED77280736A000009
:10563000A4A8FED7729003C073FF0000A4A8FED7F1
:10564000055004E0420E736E032604D0620E736EA2
:10565000620E0326045015E00000A4A8FED700C087
:10566000E9FF01C0F3FF02501BEC3BF0056E05C0E3
:1056700073FF055003260406002A02E3014A022AAA
:10568000E9D70000A4A8FED7031C736E732A00009C
:10569000A4A8FED749EC3BF0E4CF07F0E4CF06F036
:1056A000E4CF05F0E4CF04F0E4CF03F0E4CF02F060
:1056B000E4CF01F0E4CF00F0E4CFD9FF1200D9CF5E
:1056C000E5FFE1CFD9FF00C0E5FF01C0E5FF02C063
:1056D000E5FF03C0E5FF04C0E5FF05C0E5FF06C028
:1056E000E5FF07C0E5FF020EDBCF00F0030EDBCFC6
:1056F00001F0040EDBCF02F0050EDBCF03F002C099
:1057000006F00650046E800A33E100C0E9FF01C0D4
:10571000F3FF0250BBEC39F0056EF3CF06F0F4CF87
:1057200007F003C0E5FF05C0E9FF06C0F3FF07501F
:1057300093EC3BF000C0E9FF01C0F3FF0250BBEC6B
:1057400039F0056EF3CF06F0F4CF07F0052A02E337
:10575000064A072A05C0E5FF06C0F4FF07C0F6FFAA
:1057600000C0E9FF01C0F3FF02502CEC3BF020D059
:1057700004C000F000AA1CD0007A0050046E04E1BE
:105780000350D0EC3BF014D00450010A04E1035064
:1057900002EC00F00DD004500F0A04E1035027EC96
:1057A00037F006D004500E0A03E10350E0EC3BF062
:1057B000E4CF07F0E4CF06F0E4CF05F0E4CF04F047
:1057C000E4CF03F0E4CF02F0E4CF01F0E4CF00F047
:1057D000E4CFD9FF1200D9CFE5FFE1CFD9FF00C058
:1057E000E5FF01C0E5FF02C0E5FF03C0E5FF04C01F
:1057F000E5FF05C0E5FF06C0E5FF07C0E5FF020EB7
:10580000DBCF00F0030EDBCF01F0040EDBCF02F0A4
:10581000050EDBCF03F011C412F404011051040192
:10582000125F1251046E0404126F03C004F0056A83
:10583000030E0426D8B0052A12C406F0076A0750E2
:10584000800FF36E0550800FF35C02E10450065C9C
:1058500002E2E86830D0020E035C02E2E86A2BD074
:105860000350046E0404036EE56ED3EC35F0E6528B
:10587000046A0350045C14E204500024056EE86AD4
:105880000120066EE86A022005C0E9FF06C0F3FFAA
:105890001BEC3BF0042AE56ED3EC35F0E652E9D779
:1058A00011C412F4040110510401125F1251006E70
:1058B0000004126FE86AE4CF07F0E4CF06F0E4CF0B
:1058C00005F0E4CF04F0E4CF03F0E4CF02F0E4CF3E
:1058D00001F0E4CF00F0E4CFD9FF120000C0E5FFF3
:1058E00001C0E5FF02C0E5FF03C0E5FF04C0E5FF1E
:1058F000006A6D0E0024016E026A050E022201C0CC
:10590000E9FF02C0EAFFEF6A002A020E005CF1E341
:10591000006A0050020DF450026EF3CF01F0E00E69
:105920000124036E000E0220046E03C0E9FF04C0D0
:10593000EAFFEE6AEF6A5C0E0124036E040E022099
:10594000046E03C0E9FF04C0EAFFEE6AEF6A550E79
:105950000124036E030E0220046E03C0E9FF04C09D
:10596000EAFFEE6AEF6A750E0124036E030E022051
:10597000046E03C0E9FF04C0EAFFEE6AEF6A950E09
:105980000126030E022201C0E9FF02C0EAFFEE6811
:105990007F0EEF6EE80E0024016E026A040E0222F2
:1059A00001C0E9FF02C0EAFFEF68002A100E005CA8
:1059B000D8A0AFD7AF0EC06EC16A010EC26EC28250
:1059C000E4CF04F0E4CF03F0E4CF02F0E4CF01F041
:1059D000E4CF00F012004320412025642025640A12
:1059E0000000D9CFE5FFE1CFD9FF00C0E5FF01C03E
:1059F000E5FF02C0E5FF03C0E5FF04C0E5FF05C009
:105A0000E5FF06C0E5FF07C0E5FF08C0E5FF09C0E8
:105A1000E5FF0AC0E5FF0BC0E5FF0CC0E5FF020E85
:105A2000DBCF00F0030EDBCF01F0040EDBCF02F082
:105A3000050EDBCF03F0060EDBCF04F0070EDBCF45
:105A400005F0080EDBCF06F0090EDBCF07F00250A1
:105A50000A6E0150096E0050086E06C00BF007C0B8
:105A60000CF0FF0E062607220B500C101AE003C0A4
:105A7000E9FF04C0F3FF05501BEC3BF00B6E032A5B
:105A800002E3044A052A0BC0E5FF08C0E9FF09C08C
:105A9000F3FF0A5093EC3BF0082ADFE3094A0A2A95
:105AA000DCD702C0F4FF01C0F3FF0050E4CF0CF0DC
:105AB000E4CF0BF0E4CF0AF0E4CF09F0E4CF08F034
:105AC000E4CF07F0E4CF06F0E4CF05F0E4CF04F034
:105AD000E4CF03F0E4CF02F0E4CF01F0E4CF00F034
