:020000040000FA
:1000000062EF3AF0C96E120037EF36F0BEEC0FF037
:10001000C4EC0CF0FDD7120065EF38F0D9CFE5FF46
:10002000E1CFD9FF00C0E5FF01C0E5FF02C0E5FF59
:1000300003C0E5FF04C0E5FF05C0E5FF06C0E5FF1E
:1000400007C0E5FF08C0E5FF09C0E5FF0AC0E5FFFE
:100050000BC0E5FF0CC0E5FF0DC0E5FF0EC0E5FFDE
:100060000FC0E5FF10C0E5FF11C0E5FF12C0E5FFBE
:1000700013C0E5FF14C0E5FF15C0E5FF16C0E5FF9E
:1000800017C0E5FF18C0E5FF19C0E5FF1AC0E5FF7E
:100090001BC0E5FF1CC0E5FF1DC0E5FF1EC0E5FF5E
:1000A0001FC0E5FF20C0E5FF21C0E5FF22C0E5FF3E
:1000B00023C0E5FF24C0E5FF25C0E5FF26C0E5FF1E
:1000C00027C0E5FF020EDBCF00F0030EDBCF01F00F
:1000D000040EDBCF02F00250086E0150076E005094
:1000E000066EE56A100EE56E0850E56E0750E56E87
:1000F0000650E56E800EE56E050EE56E100EE56E9F
:1001000098EC2CF0080EE12618C503F019C504F090
:100110001AC505F01BC506F003C007F004C008F0BF
:1001200005C009F006C00AF0D8800AAED8900AE3EC
:100130000A1E091E081E076C05E1082A03E1092AA8
:10014000D8B40A2A10C50BF011C50CF0E86A0501F5
:1001500011BFFF0E0D6E0E6E13390F0B0F6E14399B
:10016000106EF00B101A0F2610320F321551E838AE
:10017000E840F80B10121539E840070BE8B4F8090D
:10018000116E126A11BE12680F500B5C0F6E105088
:100190000C58106E11500D58116E12500E58126EF0
:1001A000800F810F08E1FF0E115C05E1FF0E105C6E
:1001B00002E1FE0E0F5CD8A050D01250800F800FCD
:1001C00008E1000E115C05E1000E105C02E1030E77
:1001D0000F5CD8B042D00A340A30166E0930156E62
:1001E0000830146E0730136E1EC517F01FC518F0C7
:1001F000E86A05011FBFFF0E196E800FF36E1650DF
:10020000800FF35C08E11550195C05E11450185C8F
:1002100002E11350175C21E30D38F00B166E0C3819
:10022000156E0F0B151A1626153616360B38E844C0
:10023000E00B146E0B50E838E8441F0B1512050153
:10024000126B1450136F1550146F1650156F186BF6
:10025000196B1A6B1B6BDEEF04F0073408340B6E5E
:100260000C6A0C360950E844FE0B0C120850076E5D
:100270000950086EF00E0716073A083A0814081AD3
:100280000726083207320A50E838E840F80B08120F
:100290000A38E840070B0BC009F00CC00AF0E86A06
:1002A0000CBEFF0E0D6E0E6E07C013F008C014F0EA
:1002B000E86A08BEFF0E156EE56E1550E56E145027
:1002C000E56E1350E56E0E50E56E0D50E56E0A506A
:1002D000E56E0950E56E96EC22F0096EF3CF0AF058
:1002E000F4CF0DF0E9CF0EF0080EE1261EC513F095
:1002F0001FC514F0E86A05011FBFFF0E156E166ECC
:10030000E56E1550E56E1450E56E1350E56E0E5017
:10031000E56E0D50E56E0A50E56E0950E56E7CEC19
:1003200024F0096EF3CF0AF0080EE12616C50DF091
:1003300017C50EF0E86A050117BFFF0E176E186E9D
:1003400017401B6E1B4218401C6E1C42C00E1C1630
:100350001B141B181C121B1A0E50E840E8403F0BE0
:100360001B120D40196E19420E401A6E1A42C00E31
:100370001A16191419181A12191AD88006AED8901C
:10038000D8B06FD109C00DF00AC00EF0E86A0ABEFD
:10039000FF0E176E800FF36E1250800FF35C08E1B2
:1003A0001150175C05E110500E5C02E10F500D5C1E
:1003B000D8B02FD10650800FF36E1C50800FF35C25
:1003C00008E11B50055C05E11A50045C02E119507C
:1003D000035CD8B0F7D01CC50DF01DC50EF0E86A5F
:1003E00005011DBFFF0E176E186E03500D26045039
:1003F0000E2205501722065018220D500501186FC5
:100400000E50196F17501A6F18501B6F1EC50DF044
:100410001FC50EF01CC517F01DC518F00E50800F3B
:10042000F36E1850800FF35C02E117500D5CD8B0EA
:10043000ADD018C51DF019C51EF01AC51FF01BC59B
:1004400020F01D341E34216E226A22361F50E844EB
:10045000FE0B221221500B6E22500C6E1E380F0B19
:10046000216E1F38226EF00B221A212622322132F1
:100470002050E838E840F80B22122038E840070BFB
:100480002150076E2250086E0BC021F00CC022F0E4
:10049000E86A0CBEFF0E236E246E07C025F008C06C
:1004A00026F0E86A08BEFF0E276EE56E2750E56E5F
:1004B0002650E56E2550E56E2450E56E2350E56E1E
:1004C0002250E56E2150E56E96EC22F0216EF3CFBE
:1004D00022F0F4CF23F0E9CF24F0080EE1260DC07E
:1004E00025F00EC026F0E86A0EBEFF0E276EE56E00
:1004F0002750E56E2650E56E2550E56E2450E56EDA
:100500002350E56E2250E56E2150E56E7CEC24F020
:10051000216EF3CF22F0080EE1262150096E225001
:100520000A6E09C021F00AC022F0E86A0ABEFF0E76
:10053000236E246E1250800FF36E2450800FF35CF4
:1005400008E12350115C05E12250105C02E12150CA
:100550000F5C1CE20D50175C0D6E0E5018580E6E9D
:10056000E86A0EBEFF0E176E186E0D501D5E0E501F
:100570001E5A17501F5A1850205A1D500501186F47
:100580001E50196F1F501A6F20501B6F1C50800F88
:10059000F36E05011B51800FF35C08E11A511B5CDF
:1005A00005E119511A5C02E11851195CD8B0DCD18F
:1005B00019500501186F1A50196F1B501A6F1C50F3
:1005C0001B6FD2D11C50800FF36E0650800FF35C6E
:1005D00008E105501B5C05E104501A5C02E1035080
:1005E000195CD8B0C1D11350035C0D6E145004587F
:1005F0000E6E15500558176E16500658186E0D5091
:100600000501186F0E50196F17501A6F18501B6F95
:10061000ABD11CC50DF01DC50EF0E86A05011DBF6C
:10062000FF0E176E186E13500D2614500E22155023
:100630001722165018220D50035C0D6E0E500458F0
:100640000E6E17500558176E18500658186E0D503C
:100650000501186F0E50196F17501A6F18501B6F45
:1006600083D10A1E096CD8B40A2A09C00DF00AC049
:100670000EF0E86A0ABEFF0E176E186E1250800F59
:10068000F36E1850800FF35C08E11750115C05E120
:100690000E50105C02E10D500F5CD8B042D11C1C12
:1006A000186E1B1C176E1A1C0E6E191C0D6E0D2A6F
:1006B00004E10E2A02E1174A182A1850800FF36E3F
:1006C0000650800FF35C08E10550175C05E104500B
:1006D0000E5C02E103500D5CD8B0FCD01CC519F0D3
:1006E0001DC51AF0E86A05011DBFFF0E1B6E1C6ECA
:1006F0001950035C196E1A5004581A6E1B50055895
:100700001B6E1C5006581C6E19500501186F1A50AC
:10071000196F1B501A6F1C501B6F1EC519F01FC597
:100720001AF01CC51BF01DC51CF01A50800FF36E8B
:100730001C50800FF35C02E11B50195CD8B0AED0A6
:1007400018C51DF019C51EF01AC51FF01BC520F0F5
:100750001D341E34216E226A22361F50E844FE0BDF
:100760002212221E216C02E1222A00E121500B6E8E
:1007700022500C6E1E380F0B216E1F38226EF00BAC
:10078000221A2126223221322050E838E840F80B84
:1007900022122038E840070B221E216C02E1222A97
:1007A00000E12150076E2250086EE86A0CBEFF0E71
:1007B000216E226EE86A08BEFF0E236EE56E23509E
:1007C000E56E0850E56E0750E56E2250E56E21504B
:1007D000E56E0C50E56E0B50E56E96EC22F0076E60
:1007E000F3CF08F0F4CF0BF0E9CF0CF0080EE126C0
:1007F00019C021F01AC022F0E86A1ABEFF0E236E5B
:10080000E56E2350E56E2250E56E2150E56E0C50EA
:10081000E56E0B50E56E0850E56E0750E56E7CEC1A
:1008200024F0076EF3CF08F0080EE126081E076CCF
:1008300002E1082A00E10750096E08500A6EE86AD2
:100840000ABEFF0E076E800FF36E1250800FF35C2E
:1008500008E11150075C05E110500A5C02E10F50FD
:10086000095C1CE219501B5C196E1A501C581A6E58
:10087000E86A1ABEFF0E076E086E19501D261A5040
:100880001E2207501F22085020221D500501186FFC
:100890001E50196F1F501A6F20501B6F05011B51FE
:1008A000800FF36E1850800FF35C08E117501A5D4B
:1008B00005E10E50195D02E10D50185DD8B054D01D
:1008C0000D500501186F0E50196F17501A6F185000
:1008D0001B6F4AD00650800FF36E1850800FF35CE8
:1008E00008E11750055C05E10E50045C02E10D5073
:1008F000035CD8B039D013500324076E1450042081
:10090000086E15500520096E165006200A6E075015
:100910000501186F0850196F09501A6F0A501B6FA4
:1009200023D01CC507F01DC508F0E86A05011DBFEE
:10093000FF0E096E0A6E0750132608501422095044
:1009400015220A5016221350032614500422155063
:1009500005221650062203500501186F0450196F26
:1009600005501A6F06501B6F05011835046E1935B6
:10097000036E043603360434030B046E1A51E84444
:10098000E844FC0B04121A35066E1B35056E06365C
:1009900005360634030B06B0FC09066E1251032619
:1009A0001351042214510522155106220350126FCF
:1009B0000450136F0550146F0650156FE56A100E42
:1009C000E56E800EE56E050EE56E100EE56E0250CA
:1009D000E56E0150E56E0050E56E98EC2CF0080EC7
:1009E000E126E4CF27F0E4CF26F0E4CF25F0E4CFF2
:1009F00024F0E4CF23F0E4CF22F0E4CF21F0E4CFE1
:100A000020F0E4CF1FF0E4CF1EF0E4CF1DF0E4CFE0
:100A10001CF0E4CF1BF0E4CF1AF0E4CF19F0E4CFE0
:100A200018F0E4CF17F0E4CF16F0E4CF15F0E4CFE0
:100A300014F0E4CF13F0E4CF12F0E4CF11F0E4CFE0
:100A400010F0E4CF0FF0E4CF0EF0E4CF0DF0E4CFE0
:100A50000CF0E4CF0BF0E4CF0AF0E4CF09F0E4CFE0
:100A600008F0E4CF07F0E4CF06F0E4CF05F0E4CFE0
:100A700004F0E4CF03F0E4CF02F0E4CF01F0E4CFE0
:100A800000F0E4CFD9FF1200D9CFE5FFE1CFD9FFC5
:100A900000C0E5FF01C0E5FF02C0E5FF03C0E5FFC0
:100AA00004C0E5FF05C0E5FF06C0E5FF07C0E5FFA0
:100AB00008C0E5FF09C0E5FF0AC0E5FF0BC0E5FF80
:100AC0000CC0E5FF0DC0E5FF0EC0E5FF0FC0E5FF60
:100AD00010C0E5FF11C0E5FF12C0E5FF13C0E5FF40
:100AE00014C0E5FF15C0E5FF16C0E5FF17C0E5FF20
:100AF00018C0E5FF19C0E5FF1AC0E5FF1BC0E5FF00
:100B00001CC0E5FF1DC0E5FF1EC0E5FF020EDBCFE8
:100B100000F0030EDBCF01F0040EDBCF02F0050E78
:100B2000DBCF03F0060EDBCF04F0070EDBCF05F0C2
:100B3000080EDBCF06F0090EDBCF07F00A0EDBCF85
:100B400008F0096A0A6A02C00DF00D50800A0DE132
:100B5000025005016C6F01506B6F00506A6F050EFB
:100B6000016E6A0E006E800E026E03C0E9FF04C0C3
:100B7000F3FF0550ACEC3AF00B6E0B50D8B4FAEF23
:100B800008F00B50250A02E0E1EF08F00C6A0D6A4C
:100B90000E6A0F6A106A0A0E116E126A136A146ADC
:100BA000200E156E1668176A2B0E186E032A02E3C4
:100BB000044A052A03C0E9FF04C0F3FF0550ACEC6A
:100BC0003AF0196E250A13E11950E56E0250E56EF0
:100BD0000150E56E0050E56E06EC2BF0040EE126A8
:100BE000094A0A2A032A02E3044A052ABED71950F1
:100BF000300A06E1300E156E032A02E3044A052A84
:100C000003C0E9FF04C0F3FF0550ACEC3AF02D0A35
:100C100006E1010E146E032A02E3044A052A03C00A
:100C2000E9FF04C0F3FF0550ACEC3AF0200A08E1FC
:100C3000010E176E200E186E032A02E3044A052ADD
:100C400003C0E9FF04C0F3FF0550ACEC3AF02B0AF7
:100C500006E1010E176E032A02E3044A052A03C0C7
:100C6000E9FF04C0F3FF0550ACEC3AF0196E310E09
:100C7000195C2BE33A0E195C28E203C019F004C09A
:100C80001AF005C01BF019C0E9FF1AC0F3FF1B5092
:100C9000ACEC3AF01C6E300E1C5C11E33A0E1C5C9E
:100CA0000EE213500A0DF3CF1DF01C501D26D00E7E
:100CB0001D24136E192A02E31A4A1B2AE4D719C00D
:100CC00003F01AC004F01BC005F003C0E9FF04C024
:100CD000F3FF0550ACEC3AF02E0A2DE1032A02E3B3
:100CE000044A052A166A03C019F004C01AF005C0A8
:100CF0001BF019C0E9FF1AC0F3FF1B50ACEC3AF02F
:100D00001C6E300E1C5C11E33A0E1C5C0EE2165099
:100D10000A0DF3CF1DF01C501D26D00E1D24166E9B
:100D2000192A02E31A4A1B2AE4D719C003F01AC091
:100D300004F01BC005F003C0E9FF04C0F3FF055039
:100D4000ACEC3AF0196E6C0A07E1010E0C6E032A46
:100D500002E3044A052A09D01950680A06E1010E87
:100D60000E6E032A02E3044A052A03C0E9FF04C009
:100D7000F3FF0550ACEC3AF0750A06E1010E106E77
:100D8000032A02E3044A052A03C0E9FF04C0F3FF73
:100D90000550ACEC3AF0196E730A05E1010E0D6EC8
:100DA000200E156E3FD01950780A03E1100E116E17
:100DB00039D01950580A05E1100E116E010E126E4D
:100DC00031D01950630A02E1116A2CD019506F0A10
:100DD00003E1080E116E26D01950660A03E1010ED8
:100DE0000F6E20D01950640A1DE01950690A1AE0EC
:100DF000105005E0FF0E03260422052213D01950DF
:100E0000E56E0250E56E0150E56E0050E56E06ECB1
:100E10002BF0040EE126094A0A2A032A02E3044AB7
:100E2000052AA3D60D5021E00650030F0D6E000ECB
:100E30000720196E000E08201A6E0DC006F019C0AA
:100E400007F01AC008F0FD0E0D26FF0E19221A2217
:100E50000DC0E9FF19C0F3FF1A504BEC39F00D6ECD
:100E6000F3CF19F0F4CF1AF0FDD00F500DE0000EC3
:100E70001A6E120E196E7C0E0D6E040E0626000EF2
:100E8000072208221668EED016680C5023E00650A0
:100E9000040F0C6E000E07200F6E000E08201B6E54
:100EA0000CC006F00FC007F01BC008F0FC0E0C26AB
:100EB000FF0E0F221B220CC0E9FF0FC0F3FF1B50D7
:100EC000D1EC38F00C6EF3CF0FF0F4CF1BF0E9CF7C
:100ED0001CF067D00E502FE00650020F0E6E000E71
:100EE00007201D6E000E08201E6E0EC006F01DC0ED
:100EF00007F01EC008F0FE0E0E26FF0E1D221E2259
:100F00000EC0E9FF1DC0F3FF1E5021EC3AF00E6E3B
:100F10000EC00CF00F6A1B6A1C6A11500A0A03E12A
:100F20001050D8B43ED00C500E6E0EC00CF00F6AAC
:100F30001B6A1C6A36D00650020F0E6E000E072088
:100F40001D6E000E08201E6E0EC006F01DC007F0BC
:100F50001EC008F0FE0E0E26FF0E1D221E220EC021
:100F6000E9FF1DC0F3FF1E5021EC3AF00E6EF3CFE7
:100F70001DF00EC00CF01DC00FF0E86A1DBEFF0E84
:100F80001B6E1C6E11500A0A02E110500AE00C5050
:100F90000E6E0F501D6E0EC00CF01DC00FF01B6AC0
:100FA0001C6A050E196E3B0E0D6E800E1A6E1150E6
:100FB000D8B440D0105013E01150E56E050EE56E28
:100FC0003B0EE56E1C50E56E1B50E56E0F50E56E56
:100FD0000C50E56EA0EC23F0070EE12612D0115064
:100FE000E56E050EE56E3B0EE56E1C50E56E1B5082
:100FF000E56E0F50E56E0C50E56E85EC30F0070E97
:10100000E12617502FE00DC0E9FF19C0F3FF1A5079
:10101000ACEC3AF02D0A26E0FF0E0D2619221A221A
:1010200018C0E5FF0DC0E9FF19C0F3FF1A5034ECFA
:101030003BF018D00CC0E5FF0DC0E9FF19C0F3FF6D
:101040001A5034EC3BF00D50010F0C6E000E1920BD
:101050000E6E000E1A20E56A0CC0E9FF0EC0F3FF09
:1010600034EC3BF00DC00CF019C00EF01AC00FF0BC
:1010700013C010F0105010E00CC0E9FF0EC0F3FFD9
:101080000F50ACEC3AF0176E175006E00C2A02E352
:101090000E4A0F2A1006EED710C013F014501EE1AE
:1010A00009C00CF00AC00EF010C00FF00F5010E095
:1010B0001550E56E0250E56E0150E56E0050E56E8C
:1010C00006EC2BF0040EE1260C4A0E2A0F06EED792
:1010D0000CC009F00EC00AF00FC013F016C00CF0DF
:1010E0000DC00DF019C00EF01AC00FF009C010F0BD
:1010F0000AC015F00DC0E9FF0EC0F3FF0F50ACECB5
:101100003AF0166E1650D8B43ED00CC016F0176ADE
:10111000161E171E1650171005E00CC016F00C0610
:10112000165031E00DC0E9FF0EC0F3FF0F50ACECDC
:101130003AF0116E125010E01150E56EDEEC39F00D
:10114000166EE652165004E0DF0E1114166E02D031
:1011500011C016F016C011F01150E56E0250E56E88
:101160000150E56E0050E56E06EC2BF0040EE12612
:101170000D2A02E30E4A0F2A104A152A1350D8B43A
:10118000B9D71306B7D710C009F015C00AF014502C
:101190002BE010C00CF015C00DF013C00EF00E5077
:1011A0001FE0200EE56E0250E56E0150E56E005026
:1011B000E56E06EC2BF0040EE1260C4A0D2A0E0615
:1011C000EED70B50E56E0250E56E0150E56E005013
:1011D000E56E06EC2BF0040EE126094A0A2A04D03B
:1011E0000CC009F00DC00AF0032A02E3044A052AE4
:1011F000B5EF05F00AC0F3FF0950E4CF1EF0E4CFCD
:101200001DF0E4CF1CF0E4CF1BF0E4CF1AF0E4CFE4
:1012100019F0E4CF18F0E4CF17F0E4CF16F0E4CFE4
:1012200015F0E4CF14F0E4CF13F0E4CF12F0E4CFE4
:1012300011F0E4CF10F0E4CF0FF0E4CF0EF0E4CFE4
:101240000DF0E4CF0CF0E4CF0BF0E4CF0AF0E4CFE4
:1012500009F0E4CF08F0E4CF07F0E4CF06F0E4CFE4
:1012600005F0E4CF04F0E4CF03F0E4CF02F0E4CFE4
:1012700001F0E4CF00F0E4CFD9FF12003C4E4F2044
:10128000464C4F41543E0000D9CFE5FFE1CFD9FF96
:1012900000C0E5FF01C0E5FF02C0E5FF03C0E5FFB8
:1012A00004C0E5FF05C0E5FF06C0E5FF07C0E5FF98
:1012B00008C0E5FF09C0E5FF0AC0E5FF0BC0E5FF78
:1012C0000CC0E5FF0DC0E5FF020EDBCF00F0030E02
:1012D000DBCF01F0040EDBCF02F00050090F066EE9
:1012E000000E0120076E000E0220086E0B6E0750E4
:1012F0000A6E0650096EE56A0D0EE56E0B50E56E3E
:101300000A50E56E0950E56E800EE56E050EE56E3D
:10131000200EE56E98EC2CF0080EE12600C009F0D6
:1013200001C00AF002C00BF0E56AE56E0B50E56EF5
:101330000A50E56E0950E56E800EE56E040EE56E0E
:10134000810EE56E98EC2CF0080EE12681C403F0C6
:101350000350010A04E00350030A01E018D105011B
:101360003551036E3651046E05012851056E295121
:10137000096E0550035C0501736F09500458746FC2
:10138000050135510501286F050136510501296F09
:101390000501375105012A6F0501385105012B6FF1
:1013A000050173517411D8A47ED076EC37F0036E2A
:1013B000F3CF04F0F4CF05F0E9CF09F005012D518A
:1013C0000A6E2E510B6E2F510C6E30510D6E0A505D
:1013D000035E0B50045A0C50055A0D50095A035025
:1013E0000401FC6F0450FD6F0550FE6F7F0E091461
:1013F000FF6F05012CB125D00401FD35FF31046ECE
:10140000FE31036E043404320332000E04BEFF0EBC
:10141000096E056E86C40AF00B6A0C6A0D6A0D50DF
:10142000800FF36E0950800FF35C08E105500C5CEF
:1014300005E104500B5C02E103500A5C02E2050185
:101440002C8105012CB149D024C503F025C504F039
:1014500026C505F027C509F00401FF51800FF36E82
:101460000950800FF35C08E10550FE5D05E1045072
:10147000FD5D02E10350FC5D08E203C0FCF404C022
:10148000FDF405C0FEF409C0FFF4050139A304D042
:10149000010E036E046A02D00368046803C073F58A
:1014A00004C074F51AD005012C9131C5FCF432C585
:1014B000FDF433C5FEF434C5FFF40401FC5105010D
:1014C000246F0401FD510501256F0401FE51050142
:1014D000266F0401FF510501276F0401FF51800FA2
:1014E000800F08E1000EFE5D05E1000EFD5D02E1EA
:1014F000010EFC5D06E204012D6B2E6B2F6B306B31
:1015000046D00401FC51036EFD51046EFE51056E80
:10151000FF51E56E0550E56E0450E56E0350E56E33
:10152000010EE56E000EE56AE56AE56A3FEC28F01B
:10153000036EF3CF04F0F4CF05F0E9CF09F0080E05
:10154000E12673C50AF074C50BF0E86A050174BFA3
:10155000FF0E0C6E0D6E0950E56E0550E56E0450E1
:10156000E56E0350E56E0D50E56E0C50E56E0B50C8
:10157000E56E0A50E56E96EC22F004012D6FF3CF74
:101580002EF4F4CF2FF4E9CF30F4080EE126020E4A
:101590000401815DD8A03AD1050139A137D10050AD
:1015A000230F036E000E0120046E000E0220E56E74
:1015B0000450E56E0350E56E0EEC00F0030EE126DC
:1015C0000050230F036E000E0120046E000E022057
:1015D000056E020E0326000E0422052203C0E9FF59
:1015E00004C0F3FF0550D1EC38F0F3CF04F0F4CF92
:1015F00005F0E9CF09F00450036E0550046E095060
:10160000056E0934096A05BE0968053204320332E1
:1016100005013551035C0401316F05013651045851
:101620000401326F0501375105580401336F05017C
:10163000385109580401346FD88034AFD89022E370
:101640000401831D046E821D036E034A042AE86AA6
:1016500004BEFF0E056E096E04013451800FF36E57
:101660000950800FF35C08E10550335D05E104503B
:10167000325D02E10350315D05E30401316B326BF1
:10168000336B346B04013451800F800F08E1000E7E
:10169000335D05E1000E325D02E1010E315D1EE3B6
:1016A00082C403F083C404F0E86A040183BFFF0E20
:1016B000056E800FF36E04013451800FF35C08E176
:1016C0003351055C05E13251045C02E13151035CA8
:1016D00005E30401316B326B336B346B04018751CA
:1016E00009E0E86CD89004013137323733373437AA
:1016F000010FF9E304013451800F800F08E1000E5F
:10170000335D05E1800E325D02E1000E315D07E3DD
:10171000040131697F0E326F336B346B14D00401D6
:101720003451800F810F08E1FF0E335D05E1800E1B
:10173000325D02E1000E315D06E20401316B800E84
:10174000326F336934690050330F036E000E01208D
:10175000046E000E0220056E04013151096E3251F3
:10176000E56E0950E56E0550E56E0450E56E0350D8
:10177000E56E8EEC19F0050EE12604018151030A95
:1017800023E10050330F036E000E0120046E000EA3
:101790000220056E0B0E0326000E0422052203C054
:1017A000E9FF04C0F3FF0550D1EC38F0F3CF04F0AB
:1017B000F4CF05F00450036E0550046E035005018C
:1017C000206F0450216F22D00050330F036E000EA3
:1017D0000120046E000E0220056E0B0E0326000E83
:1017E0000422052203C0E9FF04C0F3FF0550D1EC39
:1017F00038F0F3CF04F0F4CF05F00450036E055039
:10180000046E03500501226F0450236F81C403F05E
:101810000350010A04E00350030A01E07DD020C513
:1018200003F021C504F0E86A050121BFFF0E056E33
:10183000096E04012D51035C0401316F04012E5126
:1018400004580401326F04012F5105580401336F0D
:101850000401305109580401346F800F800F08E1F2
:10186000000E335D05E1800E325D02E1000E315D58
:1018700007E3040131697F0E326F336B346B14D090
:1018800004013451800F810F08E1FF0E335D05E143
:10189000800E325D02E1000E315D06E20401316B23
:1018A000800E326F336934690050440F036E000EAE
:1018B0000120046E000E0220056E04013151096EF4
:1018C0003251E56E0950E56E0550E56E0450E56E47
:1018D0000350E56E8EEC19F0050EE126440E00264D
:1018E000000E012202220B0E0026000E012202220F
:1018F00000C0E9FF01C0F3FF0250D1EC38F0F3CF94
:1019000001F0F4CF02F00150006E0250016E005061
:101910000501226F0150236F0850086EE56A0D0E15
:10192000E56E800EE56E050EE56E200EE56E085044
:10193000E56E0750E56E0650E56E98EC2CF0080E4B
:10194000E126E4CF0DF0E4CF0CF0E4CF0BF0E4CFD0
:101950000AF0E4CF09F0E4CF08F0E4CF07F0E4CFD9
:1019600006F0E4CF05F0E4CF04F0E4CF03F0E4CFD9
:1019700002F0E4CF01F0E4CF00F0E4CFD9FF120091
:1019800025642025640A000000C0E5FF01C0E5FFD2
:1019900002C0E5FF03C0E5FF04C0E5FF05C0E5FFA9
:1019A00006C0E5FF07C0E5FFE8EC25F0F3EC14F016
:1019B00076EC37F0006EF3CF01F0F4CF02F0E9CF10
:1019C00003F004017C51005E7D51015A7E51025AA0
:1019D0007F51035A039E3F0E035C08E1FF0E025C39
:1019E00005E1FF0E015C02E1FF0E005CD8B0ADEF37
:1019F0000FF076EC37F0F3CF01F0F4CF02F0E9CF3F
:101A000003F0100F04017C6F270E01207D6F000E84
:101A100002207E6F000E03207F6F43EC17F0E8EC8E
:101A200025F0040100390F0B006E0139016EF00B37
:101A3000011A0026F00E01B601260050005D006E6E
:101A400001500159016E0401025100240401006F8C
:101A50000401035101200401016F04010951030A2B
:101A600013E1040100390F0B006E0139016EF00B18
:101A7000011A0026F00E01B60126005004019C6FE9
:101A800001509D6F010E936F04010B510AE0040198
:101A9000045103010B6F0401055103010C6F006B2E
:101AA00040D004010951030A01E03BD00401003990
:101AB0000F0B006E0139016EF00B011A0026F00EBB
:101AC00001B60126E86A01BEFF0E026EE56E025005
:101AD000E56E0150E56E0050E56EE56AE56AE56A7F
:101AE0001B0EE56E96EC22F0006EF3CF01F0F4CF02
:101AF00002F0080EE12600360136003601360034C9
:101B0000030B0118011A0118006E0250E844E84462
:101B1000FC0B011200500301096F01500A6F010E06
:101B2000006FBDEC3AF0E5EC33F008C0E5FFF2CF12
:101B300008F0F29E0401A95105012D6F0401AA517C
:101B400005012E6F0401AB5105012F6F0401AC514B
:101B50000501306F0401AD510501316F0401AE5133
:101B60000501326F0401AF510501336F0401B0511B
:101B70000501346F0401B1510501356F0401B25103
:101B80000501366F0401B3510501376F0401B451EB
:101B90000501386F0401B5510501396F0401AD6BC2
:101BA000AE6BAF6BB06B08BEF28EE4CF08F0800E68
:101BB000E56E040EE56E930EE56E44EC09F0030E3F
:101BC000E1269EC475F59FC476F505017651800F18
:101BD0007C0F02E1000E755D04E305017569030EDB
:101BE000766F05017651800F840F02E1010E755D5D
:101BF00005E2010E0501756FFC0E766F0501765149
:101C0000800F800F02E1010E755D10E30501765132
:101C1000800FF36E04019751800FF35C03E196513E
:101C20000501755D03E20501756B766BD8800501D2
:101C300076AFD89015E30401971D016E961D006ED6
:101C4000004A012A0150800FF36E05017651800F82
:101C5000F35C02E17551005C03E20501756B766B84
:101C600004019AA309D0B5A507D0D880050176AFA5
:101C7000D89002E3756B766BD880050176AFD8906B
:101C800007E37551FF0F006E030E7621016E04D03D
:101C900075C500F076C501F000C077F501C078F594
:101CA00005017751020BE840010BE838E844F46E77
:101CB0000F015D51DF0BF4105D6F05017751010BD2
:101CC000010BE838F46E0F015D51EF0BF4105D6FFE
:101CD000050178357831016E7731006E01340132BB
:101CE000003200500F015E6FD880050176AFD890AA
:101CF00002E3898801D0899808C0E5FFF2CF08F097
:101D0000F29E0301165105012D6F030117510501C4
:101D10002E6F0301185105012F6F030119510501A1
:101D2000306F03011A510501316F03011B51050189
:101D3000326F03011C510501336F03011D51050171
:101D4000346F03011E510501356F03011F51050159
:101D5000366F030120510501376F03012151050141
:101D6000386F030122510501396F03011A6B1B6B98
:101D70001C6B1D6B08BEF28EE4CF08F0800EE56E82
:101D8000030EE56E000EE56E44EC09F0030EE1264D
:101D90000BC375F50CC376F505017651800F7C0FEA
:101DA00002E1000E755D04E305017569030E766FAF
:101DB00005017651800F840F02E1010E755D05E289
:101DC000010E0501756FFC0E766F05017651800FCF
:101DD000800F02E1010E755D10E305017651800F61
:101DE000F36E03010451800FF35C03E1035105011D
:101DF000755D03E20501756B766BD880050176AFE2
:101E0000D89015E30301041D016E031D006E004A06
:101E1000012A0150800FF36E05017651800FF35CAB
:101E200002E17551005C03E20501756B766B0301FD
:101E300007A309D022A507D0D880050176AFD89096
:101E400002E3756B766BD880050176AFD89007E317
:101E50007551FF0F006E030E7621016E04D075C51B
:101E600000F076C501F000C077F501C078F50501F6
:101E70007751020BE840010BE838E844F46EBD509E
:101E8000DF0BF410BD6E7751010B010BE838F46ED7
:101E9000BD50EF0BF410BD6E78357831016E77319F
:101EA000006E0134013200320050BE6ED880050150
:101EB00076AFD89002E38A8001D08A90E8EC25F0D2
:101EC000006A0401B5B1002A016A09C402F0036A7C
:101ED000B9390F0B046EBA39056EF00B051A0426DA
:101EE00005320432BB51E838E840F80B0512BB3923
:101EF000E840070BE8B4F809066E076A06BE0768F3
:101F00000150E56E0050E56E0350E56E0250E56E3F
:101F10000750E56E0650E56E0550E56E0450E56E1F
:101F2000000EE56E3D0EE56ED80EE56E04EC35F064
:101F30000B0EE12604010D3F01D00E2B04010D51C3
:101F4000640A02E10E5101E008D004010D6B0E6B32
:101F500004010F51D8A498EC33F0E4CF07F0E4CF9C
:101F600006F0E4CF05F0E4CF04F0E4CF03F0E4CFD3
:101F700002F0E4CF01F0E4CF00F0120000C0E5FF72
:101F800001C0E5FF02C0E5FF03C0E5FF05C0E5FFB6
:101F90006CEC3BF094928B9276EC37F0F3CF01F03F
:101FA000F4CF02F0E9CF03F0880F04017C6F130E29
:101FB00001207D6F000E02207E6F000E03207F6FD8
:101FC00015EC2CF09286800E006E0F0E016E0F0E37
:101FD000036E380E002603500122800E026E0F0E93
:101FE000036E800E005E0350015A0F0E056E380E10
:101FF0000226055003220F0E056E800E025E05506C
:10200000035A02C0E9FF03C0EAFFEFCF02F00286E5
:1020100000C0E9FF01C0EAFF02C0EFFF030EE56E5A
:10202000000EE56A4DEC2FF0E652E6529284800EE7
:10203000006E0F0E016E0F0E036E380E0026035059
:102040000122800E026E0F0E036E800E005E0350A2
:10205000015A0F0E056E380E0226055003220F0E90
:10206000056E800E025E0550035A02C0E9FF03C0F0
:10207000EAFFEFCF02F0028400C0E9FF01C0EAFFEF
:1020800002C0EFFF020EE56E010EE56E4DEC2FF083
:10209000E652E65289988A9A8A8604018983929840
:1020A000939A9396040192939283800E006E040E8D
:1020B000016E0F0E036E380E0026035001220F0E24
:1020C000036E800E005E0350015A800E026E040EF5
:1020D000036E0F0E056E380E0226055003220F0EFA
:1020E000056E800E025E0550035A02C0E9FF03C070
:1020F000EAFFEFCF02F0029200C0E9FF01C0EAFF61
:1021000002C0EFFF928A800E006E0F0E016E0F0E5E
:10211000036E380E002603500122800E026E0F0E51
:10212000036E800E005E0350015A0F0E056E380ECE
:102130000226055003220F0E056E800E025E05502A
:10214000035A02C0E9FF03C0EAFFEFCF02F0029A90
:1021500000C0E9FF01C0EAFF02C0EFFF9486820ED3
:10216000006E0F0E016E0F0E036E380E0026035028
:1021700001220F0E036E800E005E0350015A820E84
:10218000026E0F0E036E0F0E056E380E02260550FE
:1021900003220F0E056E800E025E0550035A02C028
:1021A000E9FF03C0EAFFEFCF02F0029600C0E9FFAB
:1021B00001C0EAFF02C0EFFF0C0E0F015D6F0F01BF
:1021C0005D9B5D990F015E6B0F015A6B0F015A8188
:1021D0000401936B020E946F956B0A0E966F976BCA
:1021E000100E986F070E996F9A919A83800EE56E84
:1021F000040EE56EB60EE56E57EC32F0030EE126E6
:10220000800EE56E040EE56ED70EE56E18EC27F035
:10221000030EE126800EE56E040EE56EC60EE56E39
:1022200018EC27F0030EE1260401B16BB26BB36B1F
:10223000B46BB591B5959C6B9D6B9E6B9F6BA46BBE
:10224000A56BA66BA76B8A908A928A880401898302
:10225000939093929398040192939283800E006ED0
:10226000040E016E0F0E036E380E0026035001227D
:102270000F0E036E800E005E0350015A800E026E38
:10228000040E036E0F0E056E380E02260550032253
:102290000F0E056E800E025E0550035A02C0E9FF64
:1022A00003C0EAFFEFCF02F0029200C0E9FF01C0D5
:1022B000EAFF02C0EFFF9488820E006E0F0E016EDF
:1022C0000F0E036E380E0026035001220F0E036E10
:1022D000800E005E0350015A820E026E0F0E036ED6
:1022E0000F0E056E380E0226055003220F0E056EE6
:1022F000800E025E0550035A02C0E9FF03C0EAFFE8
:10230000EFCF02F0029800C0E9FF01C0EAFF02C06F
:10231000EFFF948A820E006E0F0E016E0F0E036E99
:10232000380E0026035001220F0E036E800E005E51
:102330000350015A820E026E0F0E036E0F0E056ED1
:10234000380E0226055003220F0E056E800E025E27
:102350000550035A02C0E9FF03C0EAFFEFCF02F0C5
:10236000029A00C0E9FF01C0EAFF02C0EFFF0C0EB5
:10237000BD6EBD9ABD98BE6AB96AB9840301006B8F
:10238000020E016F026B0A0E036F046B100E056FD5
:10239000070E066F07910783800EE56E030EE56E4C
:1023A000230EE56E57EC32F0030EE126800EE56E4B
:1023B000030EE56E440EE56E18EC27F0030EE126E1
:1023C000800EE56E030EE56E330EE56E18EC27F019
:1023D000030EE12603011E6B1F6B206B216B229104
:1023E0002295096B0A6B0B6B0C6B116B126B136BE9
:1023F000146B9384810E006E0F0E016E0F0E036E30
:10240000380E0026035001220F0E036E800E005E70
:102410000350015A810E026E0F0E036E0F0E056EF1
:10242000380E0226055003220F0E056E800E025E46
:102430000550035A02C0E9FF03C0EAFFEFCF02F0E4
:10244000029400C0E9FF01C0EAFF02C0EFFF948CD4
:10245000820E006E0F0E016E0F0E036E380E0026F8
:10246000035001220F0E036E800E005E0350015ACE
:10247000820E026E0F0E036E0F0E056E380E0226D0
:10248000055003220F0E056E800E025E0550035AA2
:1024900002C0E9FF03C0EAFFEFCF02F0029C00C0D8
:1024A000E9FF01C0EAFF02C0EFFF948E820E006ECA
:1024B0000F0E016E0F0E036E380E00260350012220
:1024C0000F0E036E800E005E0350015A820E026EE4
:1024D0000F0E036E0F0E056E380E022605500322F6
:1024E0000F0E056E800E025E0550035A02C0E9FF12
:1024F00003C0EAFFEFCF02F0029E00C0E9FF01C077
:10250000EAFF02C0EFFF53EC3BF003010781330EFB
:10251000CD6E9D809F80E4CF05F0E4CF03F0E4CF43
:1025200002F0E4CF01F0E4CF00F01200D9CFE5FFD4
:10253000E1CFD9FF00C0E5FF01C0E5FF02C0E5FF24
:1025400003C0E5FF04C0E5FF05C0E5FF06C0E5FFE9
:1025500007C0E5FF08C0E5FF09C0E5FF0AC0E5FFC9
:102560000BC0E5FF0CC0E5FF020EDBCF00F0030E51
:10257000DBCF01F0040EDBCF02F0036A046AA0ECAB
:1025800037F0056EFE0A01E077D0AAEC32F0A0EC3D
:1025900037F0066E030E065CD8A05AD0060E065C15
:1025A000D8B056D0FD0E0624076EFA6AFB6A0734CF
:1025B000FA36E834FA36FC0BC80FE56E250EFA221F
:1025C000000EFB22E450F96EEAEF12F0FCEF12F07D
:1025D00015EF13F00050090F076E000E0120086E72
:1025E000000E022007C0E9FF08C0F3FF21EC3AF01B
:1025F000036EF3CF04F02CD00050090F076E000ECD
:102600000120086E000E0220096E020E0726000E41
:102610000822092207C0E9FF08C0F3FF095021EC96
:102620003AF0036EF3CF04F013D00050070F076E9B
:10263000000E0120086E000E022007C0E9FF08C04E
:10264000F3FFACEC3AF0010B076E07C003F0046A2D
:1026500006C007F00450E56E0350E56EE56A0750CA
:10266000E56E000EE56E190EE56E800EE56E04EC6B
:1026700035F0070EE1269AD1080E055CD8B096D148
:10268000FA6AFB6A0534FA36E834FA36FC0B9E0F18
:10269000E56E260EFA22000EFB22E450F96E5FEF83
:1026A00013F07AEF13F08CEF13F09EEF13F0D0EFEE
:1026B00013F006EF14F025EF14F082EF14F0005041
:1026C000230F056E000E0120076E000E0220E56E3E
:1026D0000750E56E0550E56EBBEC1BF0030EE126DE
:1026E000020EE56E00C0E9FF01C0F3FF025034ECBA
:1026F0003BF05CD10050330F056E000E0120076ED9
:10270000000E0220E56E0750E56E0550E56E37ECD1
:1027100020F0030EE1264AD10050440F056E000E52
:102720000120076E000E0220E56E0750E56E055091
:10273000E56E37EC20F0030EE12638D10050090F8A
:10274000056E000E0120076E000E0220086EA0EC40
:1027500037F00C6E0B6AE56A0CC0F4FF05C0E9FFA8
:1027600007C0F3FF085006EC3BF0A0EC37F00A6A14
:102770000B260A500C220BC0E5FF0CC0F4FF05C06D
:10278000E9FF07C0F3FF085006EC3BF0010EE56ED1
:1027900000C0E9FF01C0F3FF025034EC3BF006D16A
:1027A0000050090F056E000E0120076E000E02207A
:1027B000086E020E0526000E07220822A0EC37F054
:1027C0000C6E0B6AE56A0CC0F4FF05C0E9FF07C098
:1027D000F3FF085006EC3BF0A0EC37F00A6A0B263A
:1027E0000A500C220BC0E5FF0CC0F4FF05C0E9FF46
:1027F00007C0F3FF085006EC3BF0E56A00C0E9FFB4
:1028000001C0F3FF025034EC3BF0D0D00050070F72
:10281000056E000E0120076E000E0220086EA0EC6F
:1028200037F0010BF46E05C0E9FF07C0F3FF085055
:10283000ACEC3AF0FE0BF410E56E05C0E9FF07C002
:10284000F3FF085034EC3BF0B1D0A0EC37F0066E4B
:102850000050160F056E000E0120076E000E0220BC
:10286000086E05500C0F096E000E07200A6E000E50
:1028700008200B6E0650D880E866D8900C6A0C369B
:102880000C50D880E866D8900C6A0C360C50010BBE
:10289000F46E09C0E9FF0AC0F3FF0B50ACEC3AF04C
:1028A000FE0BF410E56E09C0E9FF0AC0F3FF0B5000
:1028B00034EC3BF00650010A01E078D0080E052602
:1028C000000E07220822E56AF46AF66AF76A05C074
:1028D000E9FF07C0F3FF08509BEC3AF00050230FCC
:1028E000056E000E0120066E000E0220E56AE56A04
:1028F000E56E0650E56E0550E56ECFEC28F0050E4E
:10290000E12654D0A0EC37F0046E036AA0EC37F057
:10291000066A0326065004220050160F056E000EAC
:102920000120066E000E0220076E05500C0F086E87
:10293000000E0620096E000E07200A6E08C0E9FF8F
:1029400009C0F3FFACEC3AF0E880E56E08C0E9FF9F
:1029500009C0F3FF0A5034EC3BF0080E0526000EC8
:102960000622072203C008F004C009F008C0E5FFF2
:1029700009C0F4FFF66AF76A05C0E9FF06C0F3FF75
:1029800007509BEC3AF0230E0026000E0122022293
:102990000450E56E0350E56E0250E56E0150E56EA1
:1029A0000050E56E05EC2EF0050EE126E4CF0CF0AC
:1029B000E4CF0BF0E4CF0AF0E4CF09F0E4CF08F065
:1029C000E4CF07F0E4CF06F0E4CF05F0E4CF04F065
:1029D000E4CF03F0E4CF02F0E4CF01F0E4CF00F065
:1029E000E4CFD9FF120000C0E5FF01C0E5FF02C03F
:1029F000E5FF03C0E5FF04C0E5FF05C0E5FF06C035
:102A0000E5FF07C0E5FF08C0E5FF09C0E5FF0AC014
:102A1000E5FFC2A204D004011C512CEF17F0040101
:102A20001D51D8B42FD104011C51020DF450016E78
:102A3000F3CF00F0E00E0026000E012200C0E9FFF7
:102A400001C0EAFFEECF00F0EFCF01F0E80E1C2549
:102A5000026E036A040E032202C0E9FF03C0EAFF0C
:102A6000EFCF02F00250FF0A01E166D002380F0BEF
:102A7000036E920E0324046E056A0F0E0522066A89
:102A8000920E03260F0E062203C0E9FF06C0EAFFDE
:102A9000EFCF03F00250066E070E0616010E076E0A
:102AA00006500DE006E6E86CD8900736010FFDE30E
:102AB00006D0D89007BED8800732010FFBE3071C71
:102AC000066E0350061604C0E9FF05C0EAFF06C003
:102AD000EFFF02380F0B036E890E0324046E056AA4
:102AE0000F0E0522066A890E03260F0E062203C06A
:102AF000E9FF06C0EAFFEFCF03F00250066E070EB3
:102B00000616010E076E06500DE006E6E86CD8903A
:102B10000736010FFDE306D0D89007BED8800732F4
:102B2000010FFBE3071C066E0350061604C0E9FF05
:102B300005C0EAFF06C0EFFF04011C51020DF4506E
:102B4000046EF3CF03F0E00E0326000E04220134DE
:102B50000130066E0030056E06340632053206344A
:102B6000063205320550005C056E06500158066EAF
:102B7000C3CF07F0086A0750052608500622C4CFC5
:102B800007F0086A07500A6E096A095005260A50BC
:102B9000062203C0E9FF04C0EAFF05C0EEFF06C03D
:102BA000EFFF04011851010A01E06AD004011C5131
:102BB000020DF450046EF3CF03F0E00E0324056E13
:102BC000000E0420066E05C0E9FF06C0EAFFEECF46
:102BD00000F0EFCF01F0750E0326030E042203C0B0
:102BE000E9FF04C0EAFFEECF05F0EFCF06F09C0E40
:102BF0000526D8A006060150800FF36E0650800F00
:102C0000F35C02E10550005C0EE20050640F056EBB
:102C1000000E0120066E03C0E9FF04C0EAFF05C0F4
:102C2000EEFF06C0EFFF04011C51020DF450046ECC
:102C3000F3CF03F0950E0326030E042203C0E9FF31
:102C400004C0EAFFEECF05F0EFCF06F0640E0526D4
:102C5000D8B0062A0650800FF36E0150800FF35C47
:102C600002E10050055C0CE29C0E0026D8A0010693
:102C700003C0E9FF04C0EAFF00C0EEFF01C0EFFFA0
:102C800004011D6B04011C2B100E1C5D01E31C6B69
:102C900004011C39E8441F0B006E016A6F0E002608
:102CA000050E012200C0E9FF01C0EAFFEFCF00F0EE
:102CB0001CC401F0070E0116010E036E000E046E17
:102CC000015006E0E86CD89003360436010FFCE3AF
:102CD000056A005003160550041603500410D880EE
:102CE000E866D890036A03360350D8A4B3D0000E28
:102CF00004011C25006E016A050E012200C0E9FFD7
:102D000001C0EAFFEFCF00F00044E844FC0B016E85
:102D10000128C26EE80E1C25006E016A040E012215
:102D200000C0E9FF01C0EAFFEFCF02F00250FF0A46
:102D300001E18CD002380F0B006E920E0024016E60
:102D4000036A0F0E0322046A920E00260F0E04225D
:102D500000C0E9FF04C0EAFFEFCF00F00250046EAC
:102D6000070E0416010E056E04500DE006E6E86C31
:102D7000D8900536010FFDE306D0D89005BED88067
:102D80000532010FFBE30050051201C0E9FF03C04B
:102D9000EAFF05C0EFFF380E006E0F0E016E02381D
:102DA0000F0B036E046A0350002604500122380EF4
:102DB000056E0F0E066E055003260650042203C052
:102DC000E9FF04C0EAFFEFCF03F0070E0216010E81
:102DD000046E02500DE006E6E86CD8900436010F50
:102DE000FDE306D0D89004BED8800432010FFBE387
:102DF0000350041200C0E9FF01C0EAFF04C0EFFF66
:102E00000F0145830000000045930F0144930BC060
:102E1000E5FFF2CF0BF0F29E4481000000000000BD
:102E200000000000000000000000000000000000A2
:102E30000000000000000000000000000000000092
:102E4000000044910BBEF28EE4CF0BF0C282010E63
:102E500004011D6F04011C51E4CF0AF0E4CF09F016
:102E6000E4CF08F0E4CF07F0E4CF06F0E4CF05F0BC
:102E7000E4CF04F0E4CF03F0E4CF02F0E4CF01F0BC
:102E8000E4CF00F0120000C0E5FF01C0E5FF02C082
:102E9000E5FF03C0E5FF04C0E5FF05C0E5FF06C090
:102EA000E5FF07C0E5FF08C0E5FF09C0E5FF0AC070
:102EB000E5FF0BC0E5FF0CC0E5FF006A016A026A8E
:102EC000040E025CD8B0ECD101C003F0012A100E50
:102ED000035CD8B0E5D104011E2B100E1E5D01E38A
:102EE0001E6B04011E39E8441F0B036E046A6F0E4B
:102EF0000326050E042203C0E9FF04C0EAFFEFCF5A
:102F000003F01EC404F0070E0416010E056E000E39
:102F1000066E045006E0E86CD89005360636010FC0
:102F2000FCE3076A03500516075006160550061005
:102F3000D880E866D890056A05360550D8A4C0D771
:102F400004011E51020DF450046EF3CF03F0E00EA5
:102F50000324056E000E0420066E05C0E9FF06C0BE
:102F6000EAFFEECF05F0EFCF06F01BC407F007A095
:102F70009DD0750E0324076E030E0420086E07C053
:102F8000E9FF08C0EAFFEECF07F0EFCF08F00650E8
:102F9000800FF36E0850800FF35C02E10750055C70
:102FA00003E2056A066A60D0950E0326030E04222A
:102FB00003C0E9FF04C0EAFFEECF03F0EFCF04F057
:102FC0000450800FF36E0650800FF35C02E1055051
:102FD000035C04E205683F0E066E46D00750055CB0
:102FE000096E085006580A6EE86A0ABEFF0E0B6E9C
:102FF000E56E0B50E56E0A50E56E0950E56EE56A28
:10300000E56A400EE56E000EE56A96EC22F0096E68
:10301000F3CF0AF0F4CF0BF0E9CF0CF0080EE12665
:103020000750035C076E08500458086EE86A08BE33
:10303000FF0E036EE56E0350E56E0850E56E075017
:10304000E56E0C50E56E0B50E56E0A50E56E0950CA
:10305000E56E3FEC28F0036EF3CF04F0080EE12696
:103060000350056E0450066E04011A51800FF36E72
:103070000650800FF35C02E10550195D03E3056A19
:10308000066A14D004011951FF08036E3F0E1A5549
:10309000046E0650800FF36E0450800FF35C02E163
:1030A0000350055C03E305683F0E066E04011E51E4
:1030B000020DF450046EF3CF03F0550E0326030EF9
:1030C000042203C0E9FF04C0EAFFEECF03F0EFCF14
:1030D00004F00350055C036E04500658046ED8805B
:1030E00004AED89004E3041E036CD8B4042A022A68
:1030F00004011A51800FF36E0450800FF35C02E15B
:103100000350195DD8B0DCD604011E51020DF450F5
:10311000086EF3CF07F0550E0726030E082207C0EE
:10312000E9FF08C0EAFF05C0EEFF06C0EFFF1BC4C1
:1031300007F007A459D01E51020DF450086EF3CFCA
:1031400007F0B50E0724096E030E08200A6E09C0A9
:10315000E9FF0AC0EAFFEECF0BF0EFCF0CF00B5007
:103160000C10D8B441D05C0E0726040E082207C00C
:10317000E9FF08C0EAFFEECF07F0EFCF08F00750F5
:10318000055C036E08500658046E03101CE00450E2
:10319000800F800F02E1010E035C076A07360C50B6
:1031A000800F800F02E1010E0B5C0B6A0B3607509B
:1031B0000B1809E109C0E9FF0AC0EAFF03C0EEFFEE
:1031C00004C0EFFF7DD604011E51020DF450046EC1
:1031D000F3CF03F0B50E0326030E042203C0E9FF6C
:1031E00004C0EAFFEE6AEF6A1BC403F003A244D0F6
:1031F00000500EE100C003F0002A046A1F0E0326EF
:10320000040E042203C0E9FF04C0EAFF420EEF6E81
:1032100000C003F0002A046A1F0E0326040E0422D5
:1032200004011E51076E640E072603C0E9FF04C0A7
:10323000EAFF07C0EFFF00C003F0002A046A1F0E78
:103240000326040E04220650076E03C0E9FF04C0E3
:10325000EAFF07C0EFFF00C003F0002A046A1F0E58
:103260000326040E04220550076E03C0E9FF04C0C4
:10327000EAFF07C0EFFF24D61EC403F00650E56E38
:103280000550E56EE56A0350E56E000EE56E590ED9
:10329000E56E240EE56E04EC35F0070EE12610D63F
:1032A00002C001F000501EE01BC402F002A21AD0BE
:1032B00000C002F0002A036A1F0E0226040E032239
:1032C00002C0E9FF03C0EAFF0A0EEF6E0050E56E90
:1032D000800EE56E040EE56E1F0EE56E92EC2BF08F
:1032E000040EE1260150E4CF0CF0E4CF0BF0E4CF64
:1032F0000AF0E4CF09F0E4CF08F0E4CF07F0E4CF20
:1033000006F0E4CF05F0E4CF04F0E4CF03F0E4CF1F
:1033100002F0E4CF01F0E4CF00F01200D9CFE5FFD6
:10332000E1CFD9FF00C0E5FF01C0E5FF02C0E5FF26
:1033300003C0E5FF04C0E5FF05C0E5FF06C0E5FFEB
:1033400007C0E5FF08C0E5FF09C0E5FF0AC0E5FFCB
:103350000BC0E5FF020EDBCF00F0030EDBCF01F068
:10336000040EDBCF02F0050EDBCF03F0060EDBCF41
:1033700004F002500A6E0150096E0050086EE56AB2
:10338000110EE56E0A50E56E0950E56E0850E56EC7
:10339000800EE56E0F0EE56E230EE56E98EC2CF0B8
:1033A000080EE12632CF05F033CF06F0E86A0F01B0
:1033B00033BFFF0E076E05014E6F06504D6F05506F
:1033C0004C6F4B6B03C005F004C006F0E86A04BE06
:1033D000FF0E076E086E23CF09F0E56AE56AE56A1D
:1033E0000950E56E0850E56E0750E56E0650E56E33
:1033F0000550E56E96EC22F00501476FF3CF48F5D6
:10340000F4CF49F5E9CF4AF5080EE1260F01245122
:10341000D8B4AFD00450800F800F02E1010E035CDE
:1034200025E30F012951800F7C0F08E1000E285D74
:1034300005E1000E275D02E1000E265D17E20F0197
:103440003151800FF36E05014E51800FF35C0DE199
:103450004D510F01305D09E105014C510F012F5D08
:1034600004E105014B510F012E5D33E3D88004AE1A
:10347000D890D8A043D00F012951800F840F08E1C4
:10348000000E285D05E1000E275D02E1010E265DBC
:1034900035E305014E1D0A6E4D1D096E4C1D046E6F
:1034A0004B1D036E032A04E1042A02E1094A0A2A99
:1034B0000A50800FF36E0F013151800FF35C08E169
:1034C0003051095C05E12F51045C02E12E51035C8F
:1034D00015E205500F012625036E06502721046EC4
:1034E00007502821096E085029210A6E0350266FC3
:1034F0000450276F0950286F0A50296F0F01263991
:103500000F0B036E2739046EF00B041A03262851A3
:10351000E838F00B041228390F0B096E29390A6EAE
:10352000F00B0A1A0926F00E0AB60A2624CF0BF071
:10353000E56AE56AE56A0B50E56E0A50E56E0950EA
:10354000E56E0450E56E0350E56E96EC22F0036ED6
:10355000F3CF04F0F4CF09F0E9CF0AF0080EE1262A
:1035600003500501472704504823095049230A50B6
:103570004A230F012551D8B465D02A51055C0501B5
:103580004F6F0F012B5106580501506F0F012C5141
:1035900007580501516F0F012D5108580501526F51
:1035A000800F800F08E1010E515D05E1000E505DB6
:1035B00002E1000E4F5D06E305014F695069516B52
:1035C000526B13D005015251800F810F08E1FF0E9D
:1035D000515D05E1000E505D02E1000E4F5D05E218
:1035E00005014F6B506B5169526905014F514F25D1
:1035F000036E5035046E5135096E52350A6E25CF73
:103600000BF0E56AE56AE56A0B50E56E0A50E56E77
:103610000950E56E0450E56E0350E56E96EC22F01D
:10362000036EF3CF04F0F4CF09F0E9CF0AF0080EEF
:10363000E126035005014727045048230950492338
:103640000A504A2305500F012A6F06502B6F07506E
:103650002C6F08502D6F05014E51800FF36E050140
:103660004A51800FF35C0DE1495105014D5D09E1BF
:103670000501485105014C5D04E105014751050173
:103680004B5D11E205014B510F012E6F05014C51AD
:103690000F012F6F05014D510F01306F05014E5184
:1036A0000F01316F3AD005014E1D066E4D1D056E9E
:1036B0004C1D046E4B1D036E032A04E1042A02E133
:1036C000054A062A05014A51800FF36E0650800F05
:1036D000F35C08E10550495D05E10450485D02E1F5
:1036E0000350475D0AE203500F012E6F04502F6F05
:1036F0000550306F0650316F10D0050147510F0152
:103700002E6F050148510F012F6F050149510F011F
:10371000306F05014A510F01316FE56A110EE56EF8
:10372000800EE56E0F0EE56E230EE56E0250E56E1F
:103730000150E56E0050E56E98EC2CF0080EE12685
:10374000E4CF0BF0E4CF0AF0E4CF09F0E4CF08F0C7
:10375000E4CF07F0E4CF06F0E4CF05F0E4CF04F0C7
:10376000E4CF03F0E4CF02F0E4CF01F0E4CF00F0C7
:10377000E4CFD9FF1200D9CFE5FFE1CFD9FF00C0D8
:10378000E5FF01C0E5FF02C0E5FF03C0E5FF04C09F
:10379000E5FF05C0E5FF06C0E5FF07C0E5FF08C07F
:1037A000E5FF09C0E5FF0AC0E5FF0BC0E5FF020E1B
:1037B000DBCF00F0030EDBCF01F0040EDBCF02F015
:1037C000036A046AA0EC37F0056EFE0A01E095D0AA
:1037D000AAEC32F0A0EC37F0066E06500EE0065070
:1037E000010A1DE00650020A2CE006500A0A3BE0DE
:1037F00006500B0A01E142D06ED00050060F076E52
:10380000000E0120086E000E022007C0E9FF08C06C
:10381000F3FF21EC3AF0036EF3CF04F05CD00050DC
:103820000C0F076E000E0120086E000E022007C06C
:10383000E9FF08C0F3FF21EC3AF0036EF3CF04F088
:103840004AD000500E0F076E000E0120086E000EC9
:10385000022007C0E9FF08C0F3FF21EC3AF0036E35
:10386000F3CF04F038D000C0E9FF01C0F3FF0250ED
:1038700021EC3AF0036EF3CF04F02DD00050020F8C
:10388000076E000E0120086E000E022007C0E9FF3F
:1038900008C0F3FFD1EC38F0F3CF08F0F4CF09F013
:1038A000E9CF0AF00850076E0950086EF00E0716AF
:1038B000073A083A0814081A0726083207320A504D
:1038C000E838E840F80B08120A38E840070B0750C0
:1038D000036E0850046E0450E56E0350E56EE56A11
:1038E0000650E56E000EE56E650EE56E4C0EE56E5B
:1038F00004EC35F0070EE126DBD0055014E005504E
:10390000010A3AE00550020A01E15FD005500A0AB7
:1039100001E184D005500B0A01E199D005500C0A51
:1039200001E1AED0C5D00050060F056E000E01209B
:10393000066E000E0220076EA0EC37F00B6E0A6ACE
:10394000E56A0BC0F4FF05C0E9FF06C0F3FF0750AE
:1039500006EC3BF0A0EC37F0096A0A2609500B226E
:103960000AC0E5FF0BC0F4FF05C0E9FF06C0F3FF86
:10397000075006EC3BF09CD000500C0F056E000E7B
:103980000120066E000E0220076EA0EC37F00B6ED1
:103990000A6AE56A0BC0F4FF05C0E9FF06C0F3FF41
:1039A000075006EC3BF0A0EC37F0096A0A260950F4
:1039B0000B220AC0E5FF0BC0F4FF05C0E9FF06C0FB
:1039C000F3FF075006EC3BF073D000500E0F056E6E
:1039D000000E0120066E000E0220076EA0EC37F0EC
:1039E0000B6E0A6AE56A0BC0F4FF05C0E9FF06C06A
:1039F000F3FF075006EC3BF0A0EC37F0096A0A260B
:103A000009500B220AC0E5FF0BC0F4FF05C0E9FF17
:103A100006C0F3FF075006EC3BF04AD0A0EC37F0AD
:103A2000046E036AA0EC37F0066A032606500422EF
:103A30000450E56E0350E56E0250E56E0150E56EF0
:103A40000050E56EABEC36F0050EE12631D0A0EC6F
:103A500037F0046E036AA0EC37F0066A03260650BE
:103A600004220450E56E0350E56E0250E56E0150ED
:103A7000E56E0050E56ECFEC28F0050EE12618D07B
:103A8000A0EC37F0046E036AA0EC37F0066A032658
:103A9000065004220450E56E0350E56E0250E56EB8
:103AA0000150E56E0050E56E05EC2EF0050EE126A6
:103AB000E4CF0BF0E4CF0AF0E4CF09F0E4CF08F054
:103AC000E4CF07F0E4CF06F0E4CF05F0E4CF04F054
:103AD000E4CF03F0E4CF02F0E4CF01F0E4CF00F054
:103AE000E4CFD9FF120000C0E5FF01C0E5FF02C02E
:103AF000E5FF03C0E5FF9EA066D1006A80BA002AF8
:103B00000050010BF46E04019B51FE0BF4109B6FEF
:103B1000040180B308D00401B16BB26BB36BB46B1A
:103B2000B581B58502D00401B595006A04019BB149
:103B3000002A016A9BB5012A0050011801E18ED0CC
:103B4000006A04019BB1002A0050010BE844E844DC
:103B5000F46E9B51FB0BF4109B6FA951AD5D006E91
:103B6000AA51AE59016EAB51AF59026EAC51B0596A
:103B7000036E0050AD6F0150AE6F0250AF6F035037
:103B8000B06F0F0134510401A96F0F0135510401C9
:103B9000AA6F0F0136510401AB6F0F0137510401B9
:103BA000AC6F0F01345100263551012236510222EB
:103BB0003751032200500401AD6F0150AE6F025027
:103BC000AF6F0350B06F006A82B6002A0050010B3D
:103BD000E844F46E9B51FD0BF4109B6F006A9BB19F
:103BE000002A016A9BB3012A0150D880E866D89068
:103BF000016A01360150001A005019E0B1C400F00A
:103C0000B2C401F0B3C402F0B4C403F0002A04E368
:103C1000012A02E3024A032A00500401B16F015055
:103C2000B26F0250B36F0350B46FB58317D0B1C4F5
:103C300000F0B2C401F0B3C402F0B4C403F0FF0E4C
:103C4000002601220222032200500401B16F01501C
:103C5000B26F0250B36F0350B46FB593006A82B86D
:103C6000002A0050010BF46E03010851FE0BF41002
:103C7000086F040180B308D003011E6B1F6B206B1B
:103C8000216B2281228502D003012295006A030163
:103C900008B1002A016A08B5012A0050011801E1A3
:103CA0008ED0006A030108B1002A0050010BE844DD
:103CB000E844F46E0851FB0BF410086F16511A5DBE
:103CC000006E17511B59016E18511C59026E195183
:103CD0001D59036E00501A6F01501B6F02501C6F6C
:103CE00003501D6F0F0134510301166F0F01355141
:103CF0000301176F0F0136510301186F0F01375180
:103D00000301196F0F01345100263551012236513C
:103D1000022237510322005003011A6F01501B6F1A
:103D200002501C6F03501D6F006A82BA002A0050B7
:103D3000010BE844F46E0851FD0BF410086F006AA3
:103D400008B1002A016A08B3012A0150D880E86648
:103D5000D890016A01360150001A005019E01EC3C4
:103D600000F01FC301F020C302F021C303F0002ABA
:103D700004E3012A02E3024A032A005003011E6FF2
:103D800001501F6F0250206F0350216F228317D004
:103D90001EC300F01FC301F020C302F021C303F0D3
:103DA000FF0E0026012202220322005003011E6F93
:103DB00001501F6F0250206F0350216F2293CF6874
:103DC000EB0ECE6E9E90E4CF03F0E4CF02F0E4CF92
:103DD00001F0E4CF00F01200437220256C6420252E
:103DE000642025640A00430025630000800EE56E10
:103DF000030EE56E950EE56EFCEC32F0030EE12647
:103E0000800EE56E030EE56E750EE56EFCEC32F08D
:103E1000030EE126800EE56E030EE56E970EE56E4D
:103E2000FCEC32F0030EE126800EE56E030EE56E2B
:103E3000770EE56EFCEC32F0030EE126800EE56EA7
:103E4000030EE56E990EE56EFCEC32F0030EE126F2
:103E5000800EE56E030EE56E790EE56EFCEC32F039
:103E6000030EE126800EE56E030EE56E9B0EE56EF9
:103E7000FCEC32F0030EE126800EE56E030EE56EDB
:103E80007B0EE56EFCEC32F0030EE126800EE56E53
:103E9000030EE56E9D0EE56EFCEC32F0030EE1269E
:103EA000800EE56E030EE56E7D0EE56EFCEC32F0E5
:103EB000030EE126800EE56E030EE56E9F0EE56EA5
:103EC000FCEC32F0030EE126800EE56E030EE56E8B
:103ED0007F0EE56EFCEC32F0030EE126800EE56EFF
:103EE000030EE56EA10EE56EFCEC32F0030EE1264A
:103EF000800EE56E030EE56E810EE56EFCEC32F091
:103F0000030EE126800EE56E030EE56EA30EE56E50
:103F1000FCEC32F0030EE126800EE56E030EE56E3A
:103F2000830EE56EFCEC32F0030EE126800EE56EAA
:103F3000030EE56EA50EE56EFCEC32F0030EE126F5
:103F4000800EE56E030EE56E850EE56EFCEC32F03C
:103F5000030EE126800EE56E030EE56EA70EE56EFC
:103F6000FCEC32F0030EE126800EE56E030EE56EEA
:103F7000870EE56EFCEC32F0030EE126800EE56E56
:103F8000030EE56EA90EE56EFCEC32F0030EE126A1
:103F9000800EE56E030EE56E890EE56EFCEC32F0E8
:103FA000030EE126800EE56E030EE56EAB0EE56EA8
:103FB000FCEC32F0030EE126800EE56E030EE56E9A
:103FC0008B0EE56EFCEC32F0030EE126800EE56E02
:103FD000030EE56EAD0EE56EFCEC32F0030EE1264D
:103FE000800EE56E030EE56E8D0EE56EFCEC32F094
:103FF000030EE126800EE56E030EE56EAF0EE56E54
:10400000FCEC32F0030EE126800EE56E030EE56E49
:104010008F0EE56EFCEC32F0030EE126800EE56EAD
:10402000030EE56EB10EE56EFCEC32F0030EE126F8
:10403000800EE56E030EE56E910EE56EFCEC32F03F
:10404000030EE126800EE56E030EE56EB30EE56EFF
:10405000FCEC32F0030EE126800EE56E030EE56EF9
:10406000930EE56EFCEC32F0030EE1261200D9CF80
:10407000E5FFE1CFD9FF00C0E5FF01C0E5FF02C0C9
:10408000E5FF03C0E5FF04C0E5FF05C0E5FF06C08E
:10409000E5FF07C0E5FF08C0E5FF020EDBCF00F03B
:1040A000030EDBCF01F0040EDBCF02F0036A046ADB
:1040B000A0EC37F0056EFE0A01E075D0AAEC32F0F4
:1040C000A0EC37F0066E040E065CD8B05AD0FA6A3F
:1040D000FB6A0634FA36E834FA36FC0BEC0FE56E70
:1040E000400EFA22000EFB22E450F96E7EEF20F023
:1040F0008AEF20F09DEF20F0B0EF20F000C0E9FF44
:1041000001C0F3FF0250ACEC3AF0076E07C003F0B9
:10411000046A37D00050010F076E000E0120086EB0
:10412000000E022007C0E9FF08C0F3FFACEC3AF034
:10413000076E07C003F0046A24D00050020F076E18
:10414000000E0120086E000E022007C0E9FF08C023
:10415000F3FFACEC3AF0076E07C003F0046A11D02D
:1041600000500F0F076E000E0120086E000E022097
:1041700007C0E9FF08C0F3FF21EC3AF0036EF3CF6C
:1041800004F00450E56E0350E56EE56A0650E56EF6
:10419000000EE56E4F0EE56E500EE56E04EC35F048
:1041A000070EE1268DD0040E055CD8B089D0FA6ADE
:1041B000FB6A0534FA36E834FA36FC0BCC0FE56EB0
:1041C000410EFA22000EFB22E450F96EEEEF20F0D1
:1041D000FBEF20F026EF21F03CEF21F0A0EC37F0D0
:1041E000036E03C0E5FF00C0E9FF01C0F3FF02500A
:1041F00034EC3BF065D00050010F036E000E01203F
:10420000046E000E0220056EA0EC37F0066E06C0AC
:10421000E5FF03C0E9FF04C0F3FF055034EC3BF0B9
:104220000650D8A44DD00050030F036E000E01209D
:10423000046E000E0220E56AF46AF66AF76A03C0AB
:10424000E9FF04C0F3FF9BEC3AF03AD00050020FB4
:10425000036E000E0120046E000E0220056EA0EC1D
:1042600037F0066E06C0E5FF03C0E9FF04C0F3FFA8
:10427000055034EC3BF024D00F0E0026000E012236
:104280000222A0EC37F0066E056AE56A06C0F4FF6C
:1042900000C0E9FF01C0F3FF025006EC3BF0A0ECC8
:1042A00037F0046A05260450062205C0E5FF06C063
:1042B000F4FF00C0E9FF01C0F3FF025006EC3BF041
:1042C000E4CF08F0E4CF07F0E4CF06F0E4CF05F048
:1042D000E4CF04F0E4CF03F0E4CF02F0E4CF01F048
:1042E000E4CF00F0E4CFD9FF120000C0E5FF01C029
:1042F000E5FF02C0E5FF03C0E5FF04011551D8B496
:104300000CD1A3A81DD0A4A81BD005018351050181
:10431000801905E1EAEC3AF00501806BFED0000E51
:1043200005018325006E016A0F0E012200C0E9FF1E
:1043300001C0EAFFEFCF7CF5832B7CC573FFEDD086
:10434000A3AAEBD0A4AAE9D071A205D0050181816E
:10435000EAEC3AF0E2D071A405D005018183EAECE1
:104360003AF0DBD071A048D074CF7CF516C400F0D1
:10437000016A008E7CC502F0036A0250001803E156
:104380000350011801E004D0050181897196C5D060
:1043900005017C5104E07C510401161929E1050155
:1043A0008199719605017C5103E00501819702D046
:1043B000050181877CC585F57EC586F505017E51A1
:1043C000006E00040501876F600E05018625006EF2
:1043D000016A000E012200C0E9FF01C0EAFF7CC5AE
:1043E000EFFF862B8651800A02E10501866B95D08E
:1043F00005018199718691D074CF7CF5050181A961
:1044000021D016C400F0016A008E7CC502F0036A58
:104410000250001803E10350011801E011D0A39AE3
:10442000719894900501805104E1736AEAEC3AF0C6
:1044300007D000CF73FF010E0501836FA3886DD0F5
:1044400071866BD005017C510501852705018651D8
:10445000050187191BE1050185510CE186C57EF533
:10446000050181B712D0A39A71989490736AEAEC0F
:104470003AF00BD00501818581B707D0A39A7198D6
:104480009490010E736EEAEC3AF047D00501865124
:1044900005017F1908E105017F5105017E1903E03F
:1044A000EAEC3AF03AD07EC500F0016A004A012AEF
:1044B000E56A800EE56E0150E56E0050E56E73EC26
:1044C0002EF0006E040EE126005005017D6F0501FF
:1044D00086190FE17CC500F01F0E00140501876FDF
:1044E000006E020E0024876F05017E5105018727AB
:1044F000879F86C500F00501862B016A600E0026A5
:10450000000E012200C0E9FF01C0EAFF7CC5EFFFF9
:104510008651800A02E10501866BE4CF03F0E4CF07
:1045200002F0E4CF01F0E4CF00F01200D9CFE5FFB4
:10453000E1CFD9FF00C0E5FF01C0E5FF02C0E5FF04
:1045400003C0E5FF04C0E5FF05C0E5FF06C0E5FFC9
:1045500007C0E5FF020EDBCF00F0030EDBCF01F05A
:10456000040EDBCF02F0050EDBCF03F0060EDBCF2F
:1045700004F0070EDBCF05F0080EDBCF06F0090EC6
:10458000DBCF07F000500501536F0150546F02500C
:10459000556F0350566F04500501576F0550586F03
:1045A0000650596F07505A6F0501535105015903C1
:1045B000F4CF01F0F3CF00F0005005015D6F015022
:1045C0005E6F0501535105015703F4CF01F0F3CF9E
:1045D00000F0005005015B6F01505C6F0501565102
:1045E00005015703F3CF00F005015E51002600508E
:1045F0005E6F0501555105015803F3CF01F00150DD
:104600000026005005015E6F050155510501570355
:10461000F4CF01F0F3CF00F005015D5100265E51AB
:10462000012200505D6F01505E6F0501545105017C
:104630005803F4CF03F0F3CF02F0025000260350EA
:104640000122005005015D6F01505E6F050154515C
:1046500005015903F3CF00F000500501626F050119
:10466000545105015703F4CF01F0F3CF00F000508F
:104670000501606F0150616F0501535105015A0337
:10468000F3CF00F000500501666F0501535105019D
:104690005803F4CF01F0F3CF00F000500501646F30
:1046A0000150656F05015F6B0501636B05015F518B
:1046B00005015B25006E0501605105015C21016E5D
:1046C0000501615105015D21026E0501625105017F
:1046D0005E21036E00505B6F01505C6F02505D6F96
:1046E00003505E6F0501635105015B25006E0501F6
:1046F000645105015C21016E0501655105015D21D3
:10470000026E0501665105015E21036E03C0E9FFDB
:1047100002C0F4FF01C0F3FF0050E4CF07F0E4CF84
:1047200006F0E4CF05F0E4CF04F0E4CF03F0E4CFEB
:1047300002F0E4CF01F0E4CF00F0E4CFD9FF1200A3
:10474000D9CFE5FFE1CFD9FF00C0E5FF01C0E5FF0C
:1047500002C0E5FF03C0E5FF04C0E5FF05C0E5FFBB
:1047600006C0E5FF07C0E5FF08C0E5FF09C0E5FF9B
:104770000AC0E5FF0BC0E5FF0CC0E5FF0DC0E5FF7B
:104780000EC0E5FF0FC0E5FF020EDBCF00F0030E09
:10479000DBCF01F0040EDBCF02F0050EDBCF03F020
:1047A000060EDBCF04F0070EDBCF05F0080EDBCFE3
:1047B00006F0200E076E086A06C009F00A6A0B6A46
:1047C0000C6AE56AE56AE56A0950E56E0350E56E34
:1047D0000250E56E0150E56E0050E56E4BEC25F0A1
:1047E0000D6E080EE126300E0D263A0E0D5C05E327
:1047F0000D500E6E270E0E240D6EFF0E072608229A
:10480000D50E07240E6E030E08200F6E0EC0E9FFB2
:104810000FC0EAFF0DC0EFFF0C50E56E0B50E56EC8
:104820000A50E56E0950E56E0350E56E0250E56EE4
:104830000150E56E0050E56E3FEC28F0006EF3CFBE
:1048400001F0F4CF02F0E9CF03F0080EE1260050AA
:10485000011002100310D8A4AFD707C000F008C0A1
:1048600001F004C002F005C003F000C004F001C074
:1048700005F0004A012AD50E0426030E052204C0C5
:10488000E9FF05C0EAFFEFCF04F002C0E9FF03C073
:10489000EAFF04C0EFFF024A032A000E015C02E1B6
:1048A000200E005CE2E302C0E9FF03C0EAFF000E55
:1048B000EF6AE4CF0FF0E4CF0EF0E4CF0DF0E4CFD9
:1048C0000CF0E4CF0BF0E4CF0AF0E4CF09F0E4CF32
:1048D00008F0E4CF07F0E4CF06F0E4CF05F0E4CF32
:1048E00004F0E4CF03F0E4CF02F0E4CF01F0E4CF32
:1048F00000F0E4CFD9FF1200D9CFE5FFE1CFD9FF17
:1049000000C0E5FF01C0E5FF02C0E5FF03C0E5FF11
:1049100004C0E5FF05C0E5FF06C0E5FF07C0E5FFF1
:1049200008C0E5FF09C0E5FF0AC0E5FF0BC0E5FFD1
:104930000CC0E5FF0DC0E5FF020EDBCF00F0030E5B
:10494000DBCF01F0040EDBCF02F0050EDBCF03F06E
:10495000060EDBCF04F0070EDBCF05F0080EDBCF31
:1049600006F0090EDBCF07F0D88003AED890086AB6
:10497000083608500FE0031C0C6E021C0B6E011C65
:104980000A6E001C096E092A0DE10A2A0BE10B4A86
:104990000C2A08D000C009F001C00AF002C00BF0D8
:1049A00003C00CF0D88007AED890006A00360050E3
:1049B0000FE0071C0D6E061C036E051C026E041C26
:1049C000016E012A0DE1022A0BE1034A0D2A08D0EB
:1049D00004C001F005C002F006C003F007C00DF0EE
:1049E0000D50E56E0350E56E0250E56E0150E56E28
:1049F0000C50E56E0B50E56E0A50E56E0950E56E01
:104A00003FEC28F0016EF3CF02F0F4CF03F0E9CFD2
:104A100004F0080EE1260050081A085016E0041CA5
:104A2000076E031C066E021C056E011C006E002A38
:104A300004E1052A02E1064A072A07C0E9FF06C089
:104A4000F4FF05C0F3FF005007D004C0E9FF03C026
:104A5000F4FF02C0F3FF0150E4CF0DF0E4CF0CF0FF
:104A6000E4CF0BF0E4CF0AF0E4CF09F0E4CF08F094
:104A7000E4CF07F0E4CF06F0E4CF05F0E4CF04F094
:104A8000E4CF03F0E4CF02F0E4CF01F0E4CF00F094
:104A9000E4CFD9FF1200D9CFE5FFE1CFD9FF00C0A5
:104AA000E5FF01C0E5FF02C0E5FF03C0E5FF04C06C
:104AB000E5FF05C0E5FF06C0E5FF07C0E5FF08C04C
:104AC000E5FF09C0E5FF0AC0E5FF020EDBCF00F0FD
:104AD000030EDBCF01F0040EDBCF02F0050EDBCFBF
:104AE00003F0060EDBCF04F0070EDBCF05F0080E57
:104AF000DBCF06F0090EDBCF07F0086A0450051083
:104B00000610071005E1E968F468F368E86847D023
:104B1000096A0750800BE8440A6E0A501BE10450F2
:104B200004260536063607360750035C08E10650B2
:104B3000025C05E10550015C02E10450005C06E204
:104B4000D890073206320532043204D0092A09C04F
:104B500008F0DFD70750035C08E10650025C05E16E
:104B60000550015C02E10450005C08E30450005E63
:104B70000550015A0650025A0750035AD89007327E
:104B800006320532043208C009F008060950E2E195
:104B900003C0E9FF02C0F4FF01C0F3FF0050E4CFFF
:104BA0000AF0E4CF09F0E4CF08F0E4CF07F0E4CF57
:104BB00006F0E4CF05F0E4CF04F0E4CF03F0E4CF57
:104BC00002F0E4CF01F0E4CF00F0E4CFD9FF12000F
:104BD00000C0E5FF01C0E5FF02C0E5FF03C0E5FF3F
:104BE00004C0E5FF05017F5105017E1901E16DD08B
:104BF0007FC500F00050016E0128006E009E600E1F
:104C00000024016E026A000E022201C0E9FF02C008
:104C1000EAFFEFCF89F51F0E050189177FC588F5DB
:104C20008951050188278851016E020E0124886F81
:104C3000889FA0EC37F0016E015003E1016A012A60
:104C400001D0016AA0EC37F00501896F89C502F037
:104C5000800E021689C503F01F0E031603C004F070
:104C600003C089F5045003E17EC57FF541D00150B2
:104C700021E0025028E0A0EC37F0006E05018951D8
:104C8000016E0104896F0050420A03E15EEC29F0D5
:104C90001AD000504E0A03E1C2EC34F014D0005098
:104CA000460A03E11EEC3BF00ED00050490A0BE12E
:104CB000FF0009D07FC58AF5025003E091EC2DF08A
:104CC00002D0AEEC38F088C57FF504011251040122
:104CD000131906E00501805103E183EC26F008D0AA
:104CE00094B006D00501805103E172B2EAEC3AF0CB
:104CF000E4CF04F0E4CF03F0E4CF02F0E4CF01F01E
:104D0000E4CF00F0120000C0E5FF01C0E5FF02C0E3
:104D1000E5FF03C0E5FF04C0E5FF72A27ED0F1EC21
:104D200038F0006E005005E10401136B0401126BB2
:104D300074D013C401F000500126F1EC38F0026E7B
:104D40000050036E0304006E0250230A1FE1010E9F
:104D5000005CD8A060D0F1EC38F0026E690A03E183
:104D600045EC37F058D00250720A03E1EAEC3AF011
:104D700052D00250730A01E04ED094807186A38A0B
:104D8000A398745074507198718845D00250430AAA
:104D900005E00250420A01E03ED006D000C003F018
:104DA000046A038E0350006E00C082F500500F01AC
:104DB000006F010E0501836F04011351011814E007
:104DC000F1EC38F0026E05018227000E0501832503
:104DD000006E036A0F0E032200C0E9FF03C0EAFF62
:104DE00002C0EFFF832BE8D7000E05018325006E7C
:104DF000026A0F0E02220501821D036E032A00C003
:104E0000E9FF02C0EAFF03C0EFFF0501832B83C562
:104E100080F505017A6B01C013F4E4CF04F0E4CF10
:104E200003F0E4CF02F0E4CF01F0E4CF00F0120091
:104E3000D9CFE5FFE1CFD9FF00C0E5FF01C0E5FF15
:104E400002C0E5FF03C0E5FF04C0E5FF05C0E5FFC4
:104E500006C0E5FF07C0E5FF020EDBCF00F0030E42
:104E6000DBCF01F0040EDBCF02F000500B0F036E1E
:104E7000000E0120046E000E0220E56AF46AF66A54
:104E8000F76A03C0E9FF04C0F3FF9BEC3AF000505F
:104E9000070F036E000E0120046E000E0220056E47
:104EA0000050030F066E000E0120076E000E022058
:104EB000E56AF46AF66AF76A06C0E9FF07C0F3FF1D
:104EC0009BEC3AF0E56AF46AF66AF76A03C0E9FF18
:104ED00004C0F3FF05509BEC3AF00050010F036E45
:104EE000000E0120046E000E0220056E0050020F1D
:104EF000066E000E0120076E000E0220E56A06C055
:104F0000E9FF07C0F3FF34EC3BF0E56A03C0E9FFBB
:104F100004C0F3FF055034EC3BF0E56A00C0E9FF44
:104F200001C0F3FF025034EC3BF0E4CF07F0E4CFD4
:104F300006F0E4CF05F0E4CF04F0E4CF03F0E4CFD3
:104F400002F0E4CF01F0E4CF00F0E4CFD9FF12008B
:104F500025642025640A0000D9CFE5FFE1CFD9FF01
:104F600000C0E5FF01C0E5FF02C0E5FF03C0E5FFAB
:104F700004C0E5FF05C0E5FF06C0E5FF07C0E5FF8B
:104F800008C0E5FF09C0E5FF0AC0E5FF020EDBCF60
:104F900000F0030EDBCF01F0040EDBCF02F0050EB4
:104FA000DBCF03F0060EDBCF04F0070EDBCF05F0FE
:104FB0000038E8441F0B066E076A6F0E0626050EC2
:104FC000072206C0E9FF07C0EAFFEFCF08F0005054
:104FD000096E070E0916010E0A6E09500DE006E66D
:104FE000E86CD8900A36010FFDE306D0D8900ABECF
:104FF000D8800A32010FFBE308500A1206C0E9FF0D
:1050000007C0EAFF0AC0EFFF000E0024066E076A21
:10501000050E072206C0E9FF07C0EAFF01C0EFFF47
:10502000016AE80E0026040E0122800E025E070EC1
:1050300002160238F00B036E070E05160550032604
:1050400000C0E9FF01C0EAFF03C0EFFFE4CF0AF0B0
:10505000E4CF09F0E4CF08F0E4CF07F0E4CF06F0A6
:10506000E4CF05F0E4CF04F0E4CF03F0E4CF02F0A6
:10507000E4CF01F0E4CF00F0E4CFD9FF1200D9CFA4
:10508000E5FFE1CFD9FF00C0E5FF01C0E5FF02C0A9
:10509000E5FF03C0E5FF04C0E5FF05C0E5FF06C06E
:1050A000E5FF07C0E5FF08C0E5FF09C0E5FF0AC04E
:1050B000E5FF0BC0E5FF0CC0E5FF0DC0E5FF020EEC
:1050C000DBCF00F0030EDBCF01F0040EDBCF02F0EC
:1050D000050EDBCF03F0060EDBCF04F0070EDBCFAF
:1050E00005F0080EDBCF06F0090EDBCF07F0086AEB
:1050F000096A0A6A0B6A200E0C6E0350800BE844A2
:105100000D6E005000260136023603360850082680
:1051100009360A360B360D50D8A4088007500B5CB0
:1051200008E106500A5C05E10550095C02E1045003
:10513000085C09E30450085E0550095A06500A5AF3
:1051400007500B5A00800C040D6E0DC00CF00D5072
:10515000D4E103C0E9FF02C0F4FF01C0F3FF005037
:10516000E4CF0DF0E4CF0CF0E4CF0BF0E4CF0AF085
:10517000E4CF09F0E4CF08F0E4CF07F0E4CF06F085
:10518000E4CF05F0E4CF04F0E4CF03F0E4CF02F085
:10519000E4CF01F0E4CF00F0E4CFD9FF1200D9CF83
:1051A000E5FFE1CFD9FF00C0E5FF01C0E5FF02C088
:1051B000E5FF03C0E5FF04C0E5FF05C0E5FF06C04D
:1051C000E5FF07C0E5FF08C0E5FF0BC0E5FF0CC029
:1051D000E5FF0DC0E5FF020EDBCF00F0030EDBCFD5
:1051E00001F0040EDBCF02F0050EDBCF03F0060E5C
:1051F000DBCF04F003C0E5FF04C0F4FF00C0E9FF0B
:1052000001C0F3FF025006EC3BF00050020F056EA8
:10521000000E0120066E000E0220076EE86A04BE32
:10522000FF0E086E0838F00B0D6E04380C6E0F0B75
:105230000C1A0D260C360D360338E844E00B0B6EC5
:105240000350E838E8441F0B0C12E56A0BC0F4FF6A
:105250000CC0F6FF0DC0F7FF05C0E9FF06C0F3FF65
:1052600007509BEC3AF0080E0026000E01220222A5
:10527000E56AF46AF66AF76A00C0E9FF01C0F3FF65
:1052800002509BEC3AF0E4CF0DF0E4CF0CF0E4CF09
:105290000BF0E4CF08F0E4CF07F0E4CF06F0E4CF62
:1052A00005F0E4CF04F0E4CF03F0E4CF02F0E4CF64
:1052B00001F0E4CF00F0E4CFD9FF120000C0E5FF19
:1052C00001C0E5FF03C0E5FFA0EC37F0640A01E090
:1052D0007CD0A0EC37F0006E4C0A08E1A0EC37F06F
:1052E000300A02E08B8271D08B926FD00050470A57
:1052F00009E1A0EC37F04F0A01E067D0030E04018A
:10530000096F63D00050480A17E1A0EC37F04F0A4C
:1053100001E05BD0A0EC37F04D0A01E056D0A0ECE4
:1053200037F0450A01E051D0A0EC37F0016ED00E05
:10533000012404010B6F49D000504D0A12E1A0EC8A
:1053400037F04F0A01E041D0A0EC37F0440A01E009
:105350003CD0A0EC37F0016ED00E012404010A6F9E
:1053600034D00050410A1BE1A0EC37F0420A2DE195
:10537000A0EC37F04F0A29E1A0EC37F0520A25E102
:10538000A0EC37F0540A21E10401096B04019E6B83
:105390009F6B936B03010B6B0C6B006B16D0005073
:1053A000550A03E198EC33F010D00050530A0DE198
:1053B000A0EC37F0006A016EA0EC37F0036A00241D
:1053C0000401026F03500120036FE4CF03F0E4CF28
:1053D00001F0E4CF00F0120000C0E5FF01C0E5FFDE
:1053E00003C0E5FF04C0E5FF05C0E5FF06C0E5FF1B
:1053F00007C0E5FF08C0E5FF09C0E5FF0AC0E5FFFB
:105400000BC0E5FF6DC500F06EC501F005016D3FF5
:1054100001D06E2B0050E56EDCEC3AF0E652076EE0
:10542000046A056A066A6DC500F06EC501F00501E3
:105430006D3F01D06E2B0050E56EDCEC3AF0E65289
:105440000B6A0A6E086A0850041205120A50061206
:105450000B5007126DC500F06EC501F005016D3FE0
:1054600001D06E2B0050E56EDCEC3AF0E652036E94
:10547000006A03C001F0E86A03BEFF0E086E096E01
:10548000005004120150051208500612095007126C
:105490006DC500F06EC501F005016D3F01D06E2BAA
:1054A0000050E56EDCEC3AF0E652016A041201505D
:1054B00005120612071207C0E9FF06C0F4FF05C077
:1054C000F3FF0450E4CF0BF0E4CF0AF0E4CF09F08F
:1054D000E4CF08F0E4CF07F0E4CF06F0E4CF05F026
:1054E000E4CF04F0E4CF03F0E4CF01F0E4CF00F028
:1054F0001200D9CFE5FFE1CFD9FF00C0E5FF01C021
:10550000E5FF02C0E5FF03C0E5FF04C0E5FF05C0FD
:10551000E5FF06C0E5FF07C0E5FF020EDBCF00F0A8
:10552000030EDBCF01F0040EDBCF02F0050EDBCF64
:1055300003F003C004F0056A0350D8B454D000C08F
:10554000E9FF01C0F3FF0250ACEC3AF0066E430AEB
:1055500008E1010E056E03C006F0076A068E0650CC
:10556000036E0406002A02E3014A022AA39A7198F4
:105570009490A398A4A8FED77280736A0000A4A890
:10558000FED7729003C073FF0000A4A8FED7055099
:1055900004E0420E736E032604D0620E736E620E38
:1055A0000326045015E00000A4A8FED700C0E9FFC0
:1055B00001C0F3FF0250ACEC3AF0056E05C073FF7A
:1055C000055003260406002A02E3014A022AE9D70D
:1055D0000000A4A8FED7031C736E732A0000A4A8C1
:1055E000FED7EAEC3AF0E4CF07F0E4CF06F0E4CFE0
:1055F00005F0E4CF04F0E4CF03F0E4CF02F0E4CF11
:1056000001F0E4CF00F0E4CFD9FF1200D9CFE5FFDD
:10561000E1CFD9FF00C0E5FF01C0E5FF02C0E5FF13
:1056200003C0E5FF04C0E5FF05C0E5FF06C0E5FFD8
:1056300007C0E5FF020EDBCF00F0030EDBCF01F069
:10564000040EDBCF02F0050EDBCF03F002C006F044
:105650000650046E800A33E100C0E9FF01C0F3FF89
:1056600002504BEC39F0056EF3CF06F0F4CF07F0A3
:1056700003C0E5FF05C0E9FF06C0F3FF075034ECA7
:105680003BF000C0E9FF01C0F3FF02504BEC39F0E2
:10569000056EF3CF06F0F4CF07F0052A02E3064AC1
:1056A000072A05C0E5FF06C0F4FF07C0F6FF00C0EB
:1056B000E9FF01C0F3FF0250CDEC3AF020D004C066
:1056C00000F000AA1CD0007A0050046E04E10350E0
:1056D00071EC3BF014D00450010A04E1035002ECD9
:1056E00000F00DD004500F0A04E1035014EC37F021
:1056F00006D004500E0A03E1035081EC3BF0E4CFE6
:1057000007F0E4CF06F0E4CF05F0E4CF04F0E4CFF7
:1057100003F0E4CF02F0E4CF01F0E4CF00F0E4CFF7
:10572000D9FF1200D9CFE5FFE1CFD9FF00C0E5FFD7
:1057300001C0E5FF02C0E5FF03C0E5FF04C0E5FFCF
:1057400005C0E5FF06C0E5FF07C0E5FF020EDBCFA1
:1057500000F0030EDBCF01F0040EDBCF02F0050EEC
:10576000DBCF03F013C414F4040112510401145FDD
:105770001451046E0404146F03C004F0056A030E90
:105780000426D8B0052A14C406F0076A0750800F13
:10579000F36E0550800FF35C02E10450065C02E2F8
:1057A000E86830D0020E035C02E2E86A2BD00350B6
:1057B000046E0404036EE56EC0EC35F0E652046A34
:1057C0000350045C14E204500024056EE86A0120D2
:1057D000066EE86A022005C0E9FF06C0F3FFACECE4
:1057E0003AF0042AE56EC0EC35F0E652E9D713C46E
:1057F00014F4040112510401145F1451006E0004EA
:10580000146FE86AE4CF07F0E4CF06F0E4CF05F0C8
:10581000E4CF04F0E4CF03F0E4CF02F0E4CF01F0F2
:10582000E4CF00F0E4CFD9FF120000C0E5FF01C0D3
:10583000E5FF02C0E5FF03C0E5FF04C0E5FF006A25
:105840006F0E0024016E026A050E022201C0E9FFFC
:1058500002C0EAFFEF6A002A020E005CF1E3006A70
:105860000050020DF450026EF3CF01F0E00E01245F
:10587000036E000E0220046E03C0E9FF04C0EAFFBD
:10588000EE6AEF6A5C0E0124036E040E0220046EC1
:1058900003C0E9FF04C0EAFFEE6AEF6A550E012477
:1058A000036E030E0220046E03C0E9FF04C0EAFF8A
:1058B000EE6AEF6A750E0124036E030E0220046E79
:1058C00003C0E9FF04C0EAFFEE6AEF6A950E012605
:1058D000030E022201C0E9FF02C0EAFFEE687F0E5C
:1058E000EF6EE80E0024016E026A040E022201C06F
:1058F000E9FF02C0EAFFEF68002A100E005CD8A0A2
:10590000AFD7AF0EC06EC16A010EC26EC282E4CFC5
:1059100004F0E4CF03F0E4CF02F0E4CF01F0E4CFF1
:1059200000F012004320412025642025640A000075
:10593000D9CFE5FFE1CFD9FF00C0E5FF01C0E5FF0A
:1059400002C0E5FF03C0E5FF04C0E5FF05C0E5FFB9
:1059500006C0E5FF07C0E5FF08C0E5FF09C0E5FF99
:105960000AC0E5FF0BC0E5FF0CC0E5FF020EDBCF70
:1059700000F0030EDBCF01F0040EDBCF02F0050ECA
:10598000DBCF03F0060EDBCF04F0070EDBCF05F014
:10599000080EDBCF06F0090EDBCF07F002500A6ECF
:1059A0000150096E0050086E06C00BF007C00CF0E5
:1059B000FF0E062607220B500C101AE003C0E9FF69
:1059C00004C0F3FF0550ACEC3AF00B6E032A02E37F
:1059D000044A052A0BC0E5FF08C0E9FF09C0F3FF30
:1059E0000A5034EC3BF0082ADFE3094A0A2ADCD7E4
:1059F00002C0F4FF01C0F3FF0050E4CF0CF0E4CF8D
:105A00000BF0E4CF0AF0E4CF09F0E4CF08F0E4CFE4
:105A100007F0E4CF06F0E4CF05F0E4CF04F0E4CFE4
:105A200003F0E4CF02F0E4CF01F0E4CF00F0E4CFE4
:105A3000D9FF1200D9CFE5FFE1CFD9FF00C0E5FFC4
:105A400001C0E5FF02C0E5FF03C0E5FF04C0E5FFBC
:105A500005C0E5FF020EDBCF00F0030EDBCF01F047
:105A6000040EDBCF02F00050020DF450036EF3CFB2
:105A700000F05C0E0024046E040E0320056E04C0CA
:105A8000E9FF05C0EAFF01C0EEFF02C0EFFF550EBF
:105A90000024046E030E0320056E04C0E9FF05C058
:105AA000EAFFEECF04F0EFCF05F00150045C016E89
:105AB00002500558026EB50E0026030E032200C0E8
:105AC000E9FF03C0EAFF01C0EEFF02C0EFFFD8808C
:105AD00002AED89004E3021E016CD8B4022A025030
